:020000040800F2
:10000000A83C002075010008496B000889540008CD
:1000100000000000000000000000000000000000E0
:10002000000000000000000000000000D57500087E
:100030000000000000000000FB700008917700083D
:100040008701000800000000870100088701000800
:100050008701000887010008870100088701000860
:1000600000000000E12200080D23000887010008BD
:10007000A91C000839780008497800080000000031
:1000800087010008B17A000887010008870100088D
:100090008701000887010008870100088701000820
:1000A000870100088701000887010008A98B000864
:1000B000D58B00088701000800F002F800F04AF82C
:1000C0000CA030C8083824182D18A246671EAB466D
:1000D00054465D46AC4201D100F03CF87E460F3EEE
:1000E0000FCCB6460126334200D0FB1AA246AB46DF
:1000F00033431847A4B50000C4B500000023002412
:1001000000250026103A01D378C1FBD8520700D34E
:1001100030C100D50B60704710B5662902D109F0D7
:10012000D9FC10BD642902D100F0D0F810BD7329AC
:1001300002D101F0CFF810BD002010BD1FB501F0B5
:1001400061F904000020002109F0AEFCE0601FBD51
:1001500010B510BD01F010FD1146FFF7EFFF09F0DB
:100160000FFA01F028FD03B4FFF7F2FF03BC08F01B
:1001700044FF00000748804707480047FEE7FEE7C6
:10018000FEE7FEE7FEE7FEE704480549054A064BA1
:100190007047000035780008B9000008A836002034
:1001A000A83C0020A8380020A8380020704743430E
:1001B000514330B55C18010C130C0D4692B25D43EF
:1001C00080B251432C19054655430A0C09044D19B8
:1001D00062415843010C00044019514130BD70B5D3
:1001E00000252C46AD1A9C4112DA00252C462D1A0A
:1001F0008C4102DA00F04DFD70BD002440428C417C
:10020000214600F046FD002440428C41214619E081
:1002100000252C462D1A8C410ADA002452429C41BA
:10022000234600F036FD002440428C41214670BD3B
:10023000002452429C414042234600248C412146E6
:1002400000F027FD002452429C41234670BD00006F
:100250000FB41CB5074B06AA7B446946009005986D
:1002600001F00DF80020694601F01CF81CBC08BC28
:1002700004B018474910000070B50C460546012A25
:1002800005D02878800600D5EA69002302E0012322
:1002900005E05B1C934202D2E05C0028F9D1A8691A
:1002A000E618C01AA861286AC01828622846C04605
:1002B000C04604E06A682078A968641C9047B4428C
:1002C000F8D32846C046C04670BD0000F7B50025EB
:1002D00075291068009914A611D0C046C0460028A0
:1002E00002DA404211A608E0009909688A0701D5A0
:1002F0000FA602E0490704D50EA6012501E0C0467D
:10030000C046009F0024243704E000F0E7FF3031AE
:100310003955641C0028F8D12B46324621460098F6
:1003200000F043FDFEBD0000000000002D000000B5
:100330002B00000020000000F3B50446002081B02F
:1003400020622046E168884700287AD0252802D01C
:100350006268A16871E0E16820460025884706468A
:100360000020E0610746A0612A2E0AD0304608F03E
:100370003DFE002827D0B8000019303E009086616D
:1003800019E00298BA00121902C891610290204641
:10039000E1688847012F064617D1E06900281FDA77
:1003A000202085431CE000980A2180694843009979
:1003B0008019303888612046E1688847064608F091
:1003C00015FE0028EFD1012F0AD02E2E08D120468D
:1003D000E16888470646202005437F1C022FC3DBC7
:1003E000A069002803DA4042A06101200543E80724
:1003F00001D010208543002E23D0304641381928E3
:1004000003D80120C002054320362046256031462E
:10041000029A1546FFF780FE00280BD0012806D06F
:10042000ED1DE808C000083002908AE709E02D1DA4
:10043000029586E762683046A1689047206A401CB2
:100440007EE7206AFEBD01E004C0091F0429FBD23B
:100450008B0701D50280801CC90700D0027070474D
:1004600000290BD0C30702D00270401C491E02298C
:1004700004D3830702D50280801C891EE3E7002293
:10048000EEE70022DFE7002203098B422CD3030AA8
:100490008B4211D300239C464EE003460B433CD4D1
:1004A000002243088B4231D303098B421CD3030A39
:1004B0008B4201D394463FE0C3098B4201D3CB0169
:1004C000C01A524183098B4201D38B01C01A524199
:1004D00043098B4201D34B01C01A524103098B429D
:1004E00001D30B01C01A5241C3088B4201D3CB0088
:1004F000C01A524183088B4201D38B00C01A52416B
:1005000043088B4201D34B00C01A5241411A00D21A
:1005100001465241104670475DE0CA0F00D0494283
:10052000031000D34042534000229C4603098B42F3
:100530002DD3030A8B4212D3FC22890112BA030A7B
:100540008B420CD3890192118B4208D389019211FD
:100550008B4204D389013AD0921100E08909C30982
:100560008B4201D3CB01C01A524183098B4201D384
:100570008B01C01A524143098B4201D34B01C01A6F
:10058000524103098B4201D30B01C01A5241C308E7
:100590008B4201D3CB00C01A524183088B4201D356
:1005A0008B00C01A5241D9D243088B4201D34B0071
:1005B000C01A5241411A00D20146634652415B10B3
:1005C000104601D34042002B00D549427047634694
:1005D0005B1000D3404201B50020C046C04602BDBA
:1005E00070477047704700000246C80FC00781433C
:1005F0004B0030B54B405B009B0D20D01923DB0630
:10060000C91801231B05994220DB0324A4070425F4
:100610001346AB400BD3002B04D1EB0613409B00D9
:10062000E34204D401246407002312195941FF2333
:100630001B0599420BD2C9000143500F09E0CB02C0
:1006400004D501430803024305D0054830BDFF210E
:10065000C905084330BD084607210905884330BD58
:100660000000C07FF0B5F94D0C091E092C402E404A
:100670002F468BB0A7437DD0B543FCD0002E7AD057
:10068000002CFCD00D465D40ED0F2543AC1BFF2533
:10069000AD0464190894C502440DC9022143500DEC
:1006A000DC0204430120C00701430443D20201914C
:1006B000200C110C00958C46010423468B430A91B3
:1006C00061460904E24D8A430991010A7D444919B2
:1006D0008039097805464D4301266D18F605751BCE
:1006E0006943C90C640B891C4C436418B5012C1B6D
:1006F000250C2E04B4434C434D43210C6918890941
:100700000591009DE90701D00121C90704912C46FC
:1007100001996708CD072F434C08059DE10B4D4318
:100720002D0C29466646754302950D4645432E46D7
:10073000029D7D1BB44100950D465D4301942C0C38
:100740002F040D465543AE462D0C3D4302950394B0
:100750007546049C2D04641B049406D2029C039DE0
:10076000641C002675410395029401AC70CC009F77
:100770007D1B01E03EE162E1B4410904009507916F
:1007800001940599A4086143090C0C464443650B88
:10079000E7040C4666467443A646640B3C43039547
:1007A00002947446049DE4042C1B049406D2029C1B
:1007B000039D641C002675410395029401AC70CC26
:1007C000009F7D1BB44101940C465C430095650F6E
:1007D000E7000C465443A646640F3C43039502943D
:1007E0007446049DE4002C1B049406D2029C039DD5
:1007F000641C002675410395029401AC70CC009FE7
:100800007D1BB441AE09AF06049DC900AD092F435D
:10081000049DA406AD060495079D3443691807910D
:10082000059DE10B4D432D0C294666467543029507
:100830000D4645432E46029D7D1BB44100950D4655
:100840005D4301942C0C2F040D465543AE462D0CF0
:100850003D43029503947546049C2D04641B049447
:1008600006D2029C039D641C0026754103950294E8
:1008700001AC70CC009F7D1BB44101948C050694A3
:10088000079C890A611800950791019C0599A408A5
:100890006143090C0D464543680BEF040D46644661
:1008A00065436C0B3C43049FED047D1BAC4602D2B8
:1008B0000025641C6841009E019D371B8541084648
:1008C000584301950C46460FC5005443600F28431A
:1008D0006546E4002C1B02D20025401C6E41019DA0
:1008E0003F1AB5412846BD09800628438446A00921
:1008F000BF064E020699A40676180743079D0020FE
:1009000068410A99079019430020099B00906046AE
:10091000FF1913434041E20F64003A43A4460446E2
:10092000D71A8C41A04203D90120009020463A46B4
:10093000C70F941840416246D20F224364466400B8
:100940000494009CBE466400D71AA446044602974D
:100950008C417746002F01D1A04204D96046401C4B
:100960008446029A2046C40FA64694184041049A31
:100970000546D20F224364466400D31A8D41714666
:10098000002901D1A84202D928461A46641C104306
:100990000122002800D0164361020020079B89191C
:1009A00004465C410223002C02DB491813466441D3
:1009B000089DCE0A2D145D194B056705E10A2C052B
:1009C0000D1908993E43C9076940002B08D0934090
:1009D00006D30022761C5141002B01D17608760007
:1009E0001C4A002D43DB154241D0AA433FD030467C
:1009F0000BB0F0BD06180D464D41174C7642AC4188
:100A00001AD395181C465C41134A6D42A24113D378
:100A1000012252054C00D4420AD15C00D4420BD0D2
:100A20004B4002D592021143E2E749004908DFE753
:100A30005940C90FC90718E000200849D8E7054800
:100A400001420DD10342F7D0F2E700000000FF079A
:100A5000B4AE00000000F07F0000E0FF0000F87F6F
:100A6000114859400143C01241400020C0E7012312
:100A7000089A9B069A4205DC032252078918C90F7F
:100A8000C907B5E7052252078918074A1143D21250
:100A90005140ADE770B515461C4602460B46284648
:100AA0002146FFF7DFFD70BDFFFFFF7FF0B5430D6F
:100AB000CA021A430446C30208152025274E0028FF
:100AC00003D0AF063A43002813DB361A002E2FDD81
:100AD000502E00D350261146F1403446203C02D41B
:100AE0001046E04002E0AC1B1046A040F340184323
:100AF000F0BD4005400D01D152005208301A17D404
:100B0000502800D350201646C6400746203F01D447
:100B1000FA4001E02D1AAA40C3401A435042002374
:100B20000025B3412A462D1A9A4101DB1946F0BD32
:100B30004A00002C01D0012000E000201018012202
:100B40005205D04202D900200146F0BDC917C84362
:100B50000122C943D2075140F0BD00003E0400000D
:100B60001F22030C02D10F22000402D0030E03D077
:100B700004E00020014670470002083A030F01D14B
:100B80000001121F830F01D18000921E002801DB9B
:100B90004000521E120551184205C012411810465D
:100BA0007047C10FC90700D040420122920711438C
:100BB000D6E701218907D3E710B50B1E01D020230A
:100BC00001E0011E2BD00C0C01D10904103B0C0ECE
:100BD00001D10902083B0C0F01D109011B1F8C0F29
:100BE00001D189009B1E002901DB49005B1E0446E0
:100BF000DC4021431C05A4182022D21A90404B054A
:100C0000C20AC90A1A430919830501D143081840C9
:100C10001623984002D30020521C4141104610BDBB
:100C2000CA0FD20703D00B46002140429941024B24
:100C30001A43C1E7004ABFE70000D0410121C905BE
:100C40000123411842001B06D3185B0E0AD0C110C5
:100C50000722D206891840075242D14201D55200DC
:100C600089187047090208D50146002A03D0C10F30
:100C7000C9070020704710467047420202D000208A
:100C800002497047072109050143F4E70000F87F96
:100C90007047FEB5054610460C46184373D0AE4665
:100CA0008C460020AD1A01469C4167D3664600275A
:100CB00001243D46B61A9D4102D313463A462124EB
:100CC000654676462F04360C3E432D0CB61A9D41E0
:100CD00004D3150C1B042B431204103465467646CE
:100CE0002F06360A3E432D0AB61A9D4104D3150E2F
:100CF0001B022B4312020834654676462F0736093D
:100D00003E432D09B61A9D4104D3150F1B012B43F9
:100D10001201241D65467646AF07B6083E43AD086E
:100D2000B61A9D4104D3950F9B002B439200A41C3F
:100D300065467646EF0776083E436D08B61A9D4134
:100D40001AD392185B41641C16E00018764665467B
:100D50004941B71A9D410191009009D36046B11AEB
:100D600098418E468446009801990025401C6941AF
:100D7000DD0752082A435B08641EE6D572466346C7
:100D800003B0F0BDFFE700200146C046C0462A463A
:100D90002346F5E710B500F039FB006810BD10B52B
:100DA000044600F033FB046010BDFFB504460D4659
:100DB00081B0243000902168880604D51022E069B3
:100DC0009143216000E00120A84201DD471B00E0C3
:100DD00000270498A1697A191018081AA0612078D0
:100DE000C00602D42046C046C046002608E003984C
:100DF0006268A168805D9047206A401C761C206272
:100E000004988642F3DB2078C0060AD52046C04607
:100E1000C04606E06268A16830209047206A401C06
:100E2000206238467F1E0028F4DC07E000986268E4
:100E3000A168405D9047206A401C206228466D1ED4
:100E40000028F3DC2046C046C0462078000602D5C4
:100E5000022005B0F0BD0120FBE700007047FFB5A0
:100E60000C461E468FB003CA089009914F007D0DB5
:100E700000D16D1E002108460020C0460321099ABA
:100E800089050840002A03DA8200801840080840DB
:100E9000800D01280A9002DD0020C0430A900898C6
:100EA00007430DD0F048F149281848430714189813
:100EB00000281DD07542291E1DDD0A9842421BE004
:100EC0001898012802D00020302104E00020F243CD
:100ED00005E02154401CB042FBDB30460022189B49
:100EE000002121540F998B600A60486013B0F0BD57
:100EF000BD1B6D1CDFE70A9A002900DA69420BA8C6
:100F000000F00AFB0BAB07CB03AB07C308990998AA
:100F100000F06EFB6B4607C30146D5480918002D4B
:100F200000910BDDD24903980A9A494240180023E8
:100F300003A90390684600F0CBFD08E003990A9AE4
:100F40000023081803A90390684600F06BFD6B4668
:100F500007C30004000C03D00020C043410800E098
:100F60001046189A002A03D00022009215461EE06F
:100F7000751E05D400F04EFA303262556D1EF9D55B
:100F800001220843079602D000227F1C04E020784B
:100F9000302801D100227F1E002A069787D01EE04C
:100FA000112D07DA00F036FA303262556D1C024618
:100FB0000A43F5D1084303D00098002819D00EE069
:100FC0000021681E05E0235C625C63542254401ECD
:100FD000491C8142F7DBA81B401E07950690079A23
:100FE00018990020A0540F98079B069A81600CC0A6
:100FF0007CE711260020189059E7D21DF0B50D4668
:101000000446D10893B0C90003C90C900D9107F0B4
:10101000B5FF02460D98C00F01D02D2007E02068D3
:10102000810701D52B2002E04007C00F4001032AB1
:101030000F9001D0072A05DB03462946204600F021
:1010400027FA0EE12078800601D5E76900E006273F
:101050002846652D04D0662814D0672D69D12DE06F
:101060000020112F009001DB112300E07B1C0CAA53
:1010700003A910A8FFF7F3FE1199002610987D1C14
:101080000E9142E001203B460CAAC0070B900120C4
:10109000009003A910A8FFF7E2FE119D1298109985
:1010A000002600280E9501D1781C0D18781B02D45B
:1010B00046427D1C761EE81B00903AE0012F00DAC4
:1010C00001270020112F009001DD112300E03B4695
:1010D0000CAA03A910A8FFF7C2FE11993D4610986B
:1010E00000260E91217809070BD40E99A94200DA47
:1010F0000D4603A9012D04DD4A19203AD27F302A7A
:1011000006D0B84201DA011D04DA012100910FE096
:101110006D1EEFE7002802DC86192D1A03E0411C42
:10112000A94200DD0D46801B401C00900120C00735
:101130000B902078000705D40098A84202DB00201D
:10114000C043009069460020C8720B98012102AF8D
:101150000337C907884225D0022010902B20119018
:101160000B9800280BDA40420B902D20119006E0DE
:101170000B9800F0B3F830317F1E0B903970109946
:10118000481E00291090F3DC0B980028F0D111982C
:101190007F1E38702088000501D5452000E06520BD
:1011A0007F1E387001A8C01BC01D0B900F9800282F
:1011B00000D0012041190098C01709180B98081891
:1011C000A169081A401EA0612078C00602D42046FA
:1011D000C046C0460F98002805D06268A1689047B5
:1011E000206A401C20622078C00625D52046C046D3
:1011F000C04621E0002E07DB0E98B04204DD03A8B4
:101200006268805DA16802E06268A1683020904752
:10121000206A761C401C20620098401E0028009026
:101220000AD100F0EFF8C06862680168405CA1680C
:101230009047206A401C206228466D1E0028D9DC99
:1012400007E062683878A1687F1C9047206A401CDC
:1012500020620B99481E00290B90F2DC2046C04604
:10126000C046032042E6000001FCFFFF104D0000D5
:10127000E1DFFFFF01694A1C02610878704700B591
:101280008FB00291002105910549019379440391A2
:10129000114604906846FFF74FF80FB000BD0000FC
:1012A000E5FFFFFF0A681070521C0A60704710B516
:1012B0004369002B02D0C046C04601E0FEF7DCFFC8
:1012C000012010BD1278014624310A7000224A70B4
:1012D0000122ECE711680022D243E8E701468008CA
:1012E000081A02091018020A1018020C1018C00877
:1012F000820012185200891A01E0401C0A390A299A
:10130000FBD27047F0B53D4B02460C461C40002016
:10131000002C63D03A4D8B4366D000296BDB0B0D5C
:101320001D05A94301252D0529430124FD33E34073
:1013300001D392184941FF3381339C468B02940DAF
:101340000121234389074C42920200271B198C106C
:101350005D1A04D42D1B02D42B466500491992183E
:101360005B416408F4D15C1A08D40125ED07EE173F
:101370005519744102D42A462346491C94185B41EE
:10138000012292071D46E61B8D4106D4B61A8541FF
:1013900003D42B46550034467F1924195B4152086B
:1013A000802AEFD1234300D0022338460A22D040BE
:1013B00001D3012213438A0510436246890A1205AC
:1013C0008918002B09D00122D34002D30022401CEF
:1013D0005141002B01D140084000F0BD0B031343E5
:1013E00007D0C90FC907F0BD0803104303D1002976
:1013F00001DB1046F0BD00202946F0BD0000F07F63
:101400000000F87F004870476436002000487047AD
:10141000443600200B4670B5024689078008084311
:1014200019469D08141AA94125090807054308090A
:101430002C194841250A01060D43010A2C19414186
:10144000200C0D0428430D0C00194D4100214019BA
:101450004D41C00869070843E908840F8D00254302
:10146000840024184D4124196D41121BAB4107E043
:101470000925ED432C11521963410024401C6141A0
:101480001C460A250026551BB441F1D270BD000050
:10149000F8B51F46044601230068DB020326014617
:1014A0001840072A05DB002801D017A506E017A57C
:1014B00004E0002801D016A500E016A51020814305
:1014C0002160A069C01E002FA06101D0401EA06154
:1014D0002046C046C046002F09D038466268A16841
:1014E0009047206A401C2062C01C206206E0206AEF
:1014F000FAE762682878A1686D1C9047761EF8D2DA
:101500002046C046C046F8BD4E414E006E616E009A
:10151000494E4600696E6600F7B516468AB03348F4
:1015200078446C4603467C33C06F5A689B680DC490
:101530002E487844763003AC0DC80DC43720C00166
:10154000081837211B30FEF7A8FF05460C46803DE2
:101550001B3C02D56442012000E0002000270990D6
:1015600010E0E0070CD00C20204978437944324643
:101570004C3941186846012300F054FA6B4607C302
:1015800064107F1C002CECD1184F7F442E3F16E0D6
:10159000E80712D02001C0190EC8069108930792DF
:1015A0000068F04201D1981908903246012306A93B
:1015B00003A800F037FA03AB07C36D10641C002DBD
:1015C000E6D10998002806D032466946012303A8CF
:1015D00000F07EFA05E001233246694603A800F0D8
:1015E00021FA0A9B07C30DB0F0BD0000E0A0000087
:1015F000034640000A4610B5400D0BD00121C90733
:101600000F24A40200191C0364082143540D214334
:10161000D20207E000210120F2E7D40F4900214364
:101620005200401E0029F8DADB0FDB07184310BD1B
:10163000FFB50D46144685B04868516807F078FC40
:1016400000910190A868A16807F072FC02910390D4
:10165000A868616807F06CFC029A12188242029234
:1016600001D2012000E00020019A0B18D2180028B6
:10167000019202D08A4202D903E08A4201D20120BB
:1016800000E000200099081800906868A16807F041
:101690004FFC029A12188242029201D2012000E00D
:1016A0000020019A0B18D2180028019202D08A4219
:1016B00002D903E08A4201D2012000E00020009913
:1016C000081800902868216840004900400849082F
:1016D0004018FA49471814E001994000C90F08431F
:1016E0000090019802994000C90F084301900298A8
:1016F00003994000C90F08430290039840007F1EE1
:10170000039000980028E7DA0898002801D0EC4EF2
:1017100000E00026B74201DA012000E000200028A6
:1017200004902AD0F71BF806C00E15D0029B20218A
:10173000091A039A8B401A430392029A019BC240F2
:101740008B401A430292019A009BC2408B40009941
:101750001A430192C14000917B110DD06F460320C6
:10176000C11A03D500218200B95003E08A0081002C
:10177000BA587A50401EF3D537460398029900288C
:1017800000D00120014308980291002808460CD09F
:10179000002800D001200199019A49050843012140
:1017A000D20AC902D202019200E001210E9B01225D
:1017B000D207012B02D0002B03D013E0002807D161
:1017C00020E0904204D890420CD1019B0B4209D0FA
:1017D000019B5918019105D10099491C009101D133
:1017E0007F1C009200280DD0102108460020C04622
:1017F0000498002806D00F98002803D00821084636
:101800000020C04628682168019B009A4840C10F0B
:101810000598C90739430EC009B0F0BDFFB587B0C0
:10182000099A0898089953689268406889689646AA
:101830000022039317469446089A12685300099AA7
:101840005B081268520052089A1A9E4BD4180A9AE2
:10185000002A01D0352200E0402206920022012316
:1018600015460492DB07059324E0002D05D175464B
:101870000346039E4D1BB34109D375466646039B41
:10188000491B049D9841059B7519AC465F41634611
:101890003B4308D0059B049EDD0776082E435B087A
:1018A0000496059301E0521E641EC50FED0749180A
:1018B0004041521C069B9A42D7DB002D04D175464D
:1018C000039A6B1A824101D203200CE0039A0B4663
:1018D0006B404240134303D0014303D0012002E098
:1018E000022000E000206146019100210097029152
:1018F0000A99002905D0614640020143704B0191CD
:1019000002E08007002302909C4201DA012000E0FF
:10191000002007003AD01A1BD006C00E15D0029D39
:101920002021019C091AC5408C402543029C8C4013
:1019300000D001242543019C0295009DC4408D40A8
:1019400000992C430194C140009154111DD06D4663
:101950000221002202290CD10320001B07E00028ED
:1019600004DB8600AE59002E00D00122401C032863
:10197000F5DB081B02D588002A5004E080002858B7
:1019800010438A00A850491EE3D51C460A98002837
:1019900002980CD0002800D001200199019A490535
:1019A00008430121D20AC902D202019200E00121BA
:1019B000109B0122D207012B02D0002B03D013E091
:1019C000002807D11FE0904204D890420CD1019B1F
:1019D0000B4209D0019B5918019105D10099491C6E
:1019E000009101D1641C009200280CD010210846FF
:1019F0000020C046002F06D01198002803D00821EF
:101A000008460020C04608980999019A009B006882
:101A100009684840C10F0798C907214382600AC07E
:101A20000BB0F0BD00B585B0019300920A460146A7
:101A3000002302A8FFF7FCFD02A807C805B000BDFF
:101A4000FFB50A461F4685B007990193012300910F
:101A5000014602A8FFF7ECFD02990398049ECA0F05
:101A60004900D20700920F22490892028C1A0021E5
:101A7000002800DB0C46450013486D08844214D34F
:101A8000079A002A04DA441E0026104DF64302E0AD
:101A900004460D460E46102108460020C046002F81
:101AA00003D0042108460020C0462005E90A084367
:101AB000009908436905F20A1143ADE602C0FFFF31
:101AC000013C0000FF3F0000FF070000FFFFFF7F19
:101AD00000B585B0019300920A460146002302A892
:101AE000FFF79CFE02A807C8A8E7FFB50A461F46F5
:101AF00085B00799019301230091014602A8FFF7E1
:101B00008DFE02990398049ECA0F4900D2070092E5
:101B10000F22490892028C1A0021002800DB0C4693
:101B2000450011486D08844214D3079A002A04DA4C
:101B3000441E00260D4DF64302E004460D460E46B7
:101B4000102108460020C046002F03D0042108467B
:101B50000020C0462005E90A0843009908436905AA
:101B6000F20A114358E60000FF070000FFFFFF7F65
:101B700000487047443600207546FFF7F9FFAE462F
:101B8000050069465346C008C000854618B020B518
:101B9000FEF7FAFA60BC00274908B6460026C0C521
:101BA000C0C5C0C5C0C5C0C5C0C5C0C5C0C5403D15
:101BB00049008D46704710B50446C046C0462046D1
:101BC000FEF7D1FA10BD0000024670B50A43920735
:101BD0002AD11E4DEE0104C808C9541B9443344059
:101BE00017D0D0B2D9B2401A2106014310D190B219
:101BF00099B2401A210401430AD110021902000AC5
:101C0000090A401A2102014302D1100E190E401A8E
:101C100070BD9A42DFD010BA19BA884201D90120AA
:101C200070BD0020C04370BD02780B78401C491C79
:101C3000002A09D09A4207D102780B78401C491C2F
:101C4000002A01D09A42EFD0D01A70BD01010101E3
:101C500070B58C180578401C6B075B0F01D10378B9
:101C6000401C2A1106D10278401C03E00678401C73
:101C70000E70491C5B1EF9D12B0705D40023521EA0
:101C80000DD40B70491CFAE70378401CCB1A921C48
:101C900003E01D780D70491C5B1C521EF9D5A14252
:101CA000D8D3002070BD000010B5024800F01AFF24
:101CB00010BD00001432002010B5846AA16D5022BE
:101CC00011420DD1A06D012149020843A065206891
:101CD00004F0A0F800281BD0A07E002807D017E051
:101CE000A16DC90624D5204600F0FAFE10BD20687B
:101CF000016809070CD504F089F801460120002984
:101D00000AD0A16D20221143A165E16D0143E16577
:101D1000204600F0E3FE10BD21684A680C239A4378
:101D20004A60A16DFF22013291430143A165EFE7B3
:101D3000216D496B884710BD10B5806A816D4022C6
:101D400011438165C16D04221143C16500F0C8FED5
:101D500010BD10B5806A00F0C2FE10BDF8B5044693
:101D6000006881688907CD0F04F04CF800282AD05C
:101D7000002D28D1206881680522114010250126F8
:101D8000012914D18168114A1140891C81602168A0
:101D90000320086001F0E6FB074610E001F0E2FBDB
:101DA000C01B02280BD920688068C00707D0A06D2F
:101DB0002843A065E06D3043E0650120F8BD206850
:101DC0008068C007EAD10020F8BD0000E8FFFF7F6F
:101DD000F8B5044600200090206804F013F80028AD
:101DE00045D120688168234A10261140002930D14E
:101DF0008168D5432940491C81601F48006807213C
:101E00008905084000020AD51D481C490068FEF7F4
:101E10003AFB401C00E0401E00900028FBD1607E91
:101E2000012824D001F09EFB07461BE003F0EAFFE7
:101E3000002804D1206881682940491C816001F094
:101E400091FBC01B02280DD920680068C043C00761
:101E500008D0A06D3043A065E06D01210843E06526
:101E60000846F8BD20680168C943C907DED10020D3
:101E7000F8BD00001700008008270140400D030056
:101E80004C040020FEB50E4ACC1712680F46D61738
:101E900015467D22C11712010023FEF788F93A4644
:101EA00001910090234610462146FEF780F92A460C
:101EB0003346FEF77CF9019B009AFEF790F9FEBDD0
:101EC00058000020F8B53B4C3B48A18825460088C7
:101ED000803500290CD000280CD138480068002833
:101EE0005ED13748018806295AD10F21018057E079
:101EF000002855D0616BA06B084355D0E8680126D7
:101F000000281DD02F4F01281ED002284ED101F0ED
:101F100029FBE16B401AA16B884241D901F022FBF9
:101F2000E0630020385E030007F01AF812393633F8
:101F3000334139393639393936333341393936391C
:101F400001F010FBE0632AE001F00CFBE16B401AAA
:101F5000616B884224D901F005FBE0630020385E04
:101F6000030006F0FDFF12100D0A0A1310100D10E9
:101F700010100D0A0A1310100D101348E16A01E049
:101F80001248E16A01600220E86009E01048E16A55
:101F9000F8E70D48216B01E00C48216B0160EE6011
:101FA000616BA06B084301D10020E860F8BD0848D0
:101FB000216BF3E710020020DA01002070000020FE
:101FC000DC010020D80100204C000020D8000020B7
:101FD0004800002070B5C82007F0F2F80C49E12352
:101FE00008460C68183004604A68DB00E51AFF24D4
:101FF0004260923407480221A54202D305780D437E
:102000000570D21AA24202D302780A43027070BD50
:1020100050240020700000200B480021415E0B4836
:102020000022825E0A48914203DD427802231A436D
:102030004270084A0023D35E994203DA41780122B4
:10204000114341707047000000000020440100204F
:102050007000002046010020F8B5124C124F134BBF
:1020600000202268185E396803F064FA1049206085
:102070000968104C1025884202DD607828436070A2
:102080000D4E0E4B00203268185E396803F03CFAA2
:102090000B4930600968884202DD6078284360702F
:1020A000F8BD0000C40100206C000020D401002015
:1020B000CC01002070000020C8010020D6010020C3
:1020C000D0010020F7B5044648427B4B0021595E01
:1020D00082B04843039050424843784D0490784E74
:1020E00028683168401A07F0CBFAE06068687168C8
:1020F000401A07F0C5FA6061E168724D0A18524251
:102100002261A9637D21101AC90048436E49FEF778
:10211000C4F9E863206B06F071FF0746206B06F0F8
:102120008FFF0646A86B3946EA6B4143334653435B
:10213000C918CB179B0C5918644B891319603B467F
:1021400053437043181AC217920C10188013604A38
:10215000594D10600022AA5E43425E4D53432B60EE
:102160004B4253435C4A13605C4A1288002A7DD07C
:10217000039A544D511A296400910499081A68640D
:1021800001900A21E868FEF788F90022AA5E00990A
:102190000092514340187D21C900FEF77EF9A864E2
:1021A0000A212869FEF779F90146009A01985043FF
:1021B00008187D21C900FEF770F928650146042042
:1021C000285E6A6D03F040FE68650420285EEA6CB4
:1021D000A96C03F039FE0246E864A8680146504342
:1021E000A8656A6D5143E9656A69914202DC524211
:1021F000914201DAEA650FE00222AA5E696C51435E
:102200002A6989182961EA69914200DD2A612969F0
:102210005242914200DA2A61A969884202DC4942AD
:10222000884201DAA9650FE00221695E286C484303
:10223000E9684118E960E869814200DDE860E96821
:102240004042814200DAE860AB6DEA6D38463146C3
:1022500058435143401AC117890C0818811357433A
:102260005E43B819C217920C101800E019E08213EF
:102270006A662046296607F015FA2168A088096871
:1022800048632168E08809688863216820890968B3
:10229000C8630498002806DD296A686C884200DA61
:1022A000286205B0F0BD0028FBDA696A686C8842D4
:1022B000F7DD6862F5E700000400002050240020EC
:1022C0006824002058010020C406000034010020CA
:1022D000380100206C0000203C010020DA010020C1
:1022E00010B50748816907488268C260511A0161C8
:1022F0004269914200DD4161034800F0F1FE10BDEA
:1023000000E000E0140400207832002010B50248FC
:1023100000F0E6FE10BD0000CC35002010B50446EC
:10232000006C0949800880004018606420781421FE
:102330000838FEF7A8F804498031A164C106C90E27
:1023400001208840E06410BD000802400179084B7C
:102350008906890E8A00D2180265054A4432491E50
:1023600042658A07920F0121914081657047000004
:10237000FC080240F0B5846CC56C6560046D002CEF
:1023800002D0446D856D65600B4C6568066C1C273A
:102390003E400127B7403D43656004686360836841
:1023A000102B036803D099600068C260F0BD9A608A
:1023B0000068C160F0BD000000000240F8B5394976
:1023C0003848891C374D008809880024364E2D1F57
:1023D00088425FD006284BD00F2802D0862855D1DE
:1023E0004BE03068002851D1304801270460304864
:1023F00004603048046030480460304804600020C5
:10240000285E030006F0ACFD120E132313232342B3
:10241000234242420A0A420A42420A4228480780AC
:1024200028480780284807F09FF96F802EE027484A
:102430007D220168D20008465043254A1060254895
:10244000254A006810601C4A11601C4908601D483C
:102450000088002804D106F0DBFE012006F0B0FE63
:1024600018480088012811D130680028DAD00DE022
:10247000154807F09CF96C8008E0134807F097F9BD
:1024800016486C8004601648346004800548A988AA
:10249000001FC1803068002803D00B4807F087F97F
:1024A0006C80F8BDDC010020700000206401002079
:1024B000680100204400002050000020400100205E
:1024C000040000200800002038330020040400200D
:1024D0002802002080030020340200200401002094
:1024E0000A010020F8B52248018800293FD00021C8
:1024F00001802048016820480E4600680446FDF728
:10250000CCFF1E48204D01601D4831460068241A4A
:102510001C4804602888401C87B2002C204607DB3A
:10252000FDF7BBFF14290EDD143EB14208DB0AE0C3
:10253000FDF7B3FF1420C14205DA801B814202DDA2
:10254000124804602F801248008801280FD11148DA
:10255000008801280BD110480188002907D10F49B4
:102560000F4B0A8D1B88D21A0A8501210180F8BD04
:1025700008010020580000200C0100201401002058
:1025800010010020180100200A0100201C01002079
:10259000080000200A0000201C0000208C00002001
:1025A0003400002072B6FEE7F8B53948374D008890
:1025B00029460090FDF767FFC7B27D240846E40076
:1025C0002146FDF760FFC6B221460098FDF75BFF8C
:1025D00008460A21FDF757FFC4B20A210098FDF70B
:1025E00052FF002F01D02B480780002E01D02A482F
:1025F0000680002909D07D200001284A4843106048
:102600007D2040014143264801602648092C2DD0F9
:1026100008DC230006F0A4FC092E181B1E21242E22
:102620002E272E001A2C2CD007DC0A2C21D00D2CA2
:1026300024D0102C1ED1A10225E0202C1BD0412C2F
:1026400018D1012109041EE07D21C9001BE07D2174
:10265000090118E00121C90215E07D21490112E0BC
:10266000012109030FE07D2189010CE001214903CB
:1026700009E00560F8BD0121C90304E00121490416
:1026800001E0012189040160F8BD0000102700006D
:10269000000100200E00002010000020DC000020BF
:1026A000E00000205800002003494A6901231B0470
:1026B000184302434A61704700200240054A5069AE
:1026C000FF23F9339843C900014303480143516193
:1026D00070470000002002400200010030B50549AB
:1026E0004C6901252C434C610260BFF36F8F43603E
:1026F00030BD00000020024030B50B4C0023626961
:102700000125AD042A436261EFF3108272B620C93D
:102710005B1C20C0DBB2402BF9D32069C003FCD482
:1027200082F3108830BD000000200240F8B5054655
:1027300000F018FF471901263604114C03E000F0A1
:1027400011FFB84214D220693042F8D121690D48F6
:1027500001400D48206103D00C4841600120F8BDC4
:1027600000F000FF451905E000F0FCFEA84201D38F
:102770000320F8BD20694003F6D40020F8BD000016
:1027800000200240FA830000FB830000283600206E
:1027900070B50A4DFF22EE1D1346F93605E00478A8
:1027A00054402A5D5A40335D401C0C46491E89B294
:1027B000002CF4D11802104370BD0000E49A000808
:1027C00010B512490024A2008A58824205DA142C5E
:1027D00018DA012C05DA002010BD641C152CF2DB80
:1027E000F9E7A3005A18803AD26FC958101A511A43
:1027F00032225043FDF751FE3221641E4C43001932
:1028000000B210BD7D20C00010BD0000D402002029
:10281000F8B500260546044640350096287D012877
:102820000ED0012028752046FFF798FA024620684E
:102830008168C907C90F05D0A06D1021084330E099
:102840000220F8BDA16DFF230133994302231943F0
:10285000A165C168C3688907890F9B089B00C36095
:10286000206883680127FF073B4383600F4B206884
:102870000DE0009F7F1C00979F4208D3A06D0221AE
:10288000884310210843A0652E750120F8BD876894
:10289000FF0FEED1C3680B43C360A06D80088000BA
:1028A000401CA0652E751046F8BD000000F2020025
:1028B0007047704770477047F8B5002706460446D2
:1028C00040360097307D0D4601280FD0012030752D
:1028D000206803F09BFA00280AD0A06D202108434D
:1028E000A0650127002030753846F8BD0220F8BDEC
:1028F000686802287ED001222169D207914202D065
:10290000121D914206D120682968826A4903490B49
:102910000A436EE0C206D20E0F20216E9040814322
:102920002868430302D0C3074BD102E04000C00E29
:1029300048E0830701D5012044E0430701D5022088
:1029400040E0030701D503203CE0C30601D5042085
:1029500038E0830601D5052034E0430601D5062082
:1029600030E0030601D507202CE0C30501D508207F
:1029700028E0830501D5092024E0430501D50A207C
:1029800020E0030501D50B201CE0C30401D50C2079
:1029900018E0830401D50D2014E0430401D50E2076
:1029A00010E0030401D50F200CE0C30301D5102073
:1029B00008E0830301D5112004E0400301D5122073
:1029C00000E000209040014321666968E2698808C0
:1029D000401C904210D820682B68826A9C46C90629
:1029E000C90E0F238B409A4363469B001B0F8B40FD
:1029F0001A4300E03BE082622168AB6828684A69BC
:102A00000002824318404001400902434A6128689D
:102A1000002800DB66E72B4A116807239B05194055
:102A2000294B984214D10B0212D4C0020143104624
:102A300003F0F8F9264825490068FDF724FD0C212C
:102A4000401C484300E0401E00900028FBD149E7AD
:102A5000204B984203D1CB0101D4800205E01E4BEC
:102A60009842D7D14802D5D45802014325E001212C
:102A70002069C907884202D0091D884206D1206812
:102A80002968826A4903490B8A43826228680028C0
:102A9000C0DA0C4A116807239B0519400A4B98427B
:102AA00001D1C00208E00B4B984201D1800203E043
:102AB000094B9842AED140028143104603F0B2F96F
:102AC00010E7000008270140001000B0400D03008F
:102AD0004C040020004000B8002000B4704770474C
:102AE00070470000F8B50446006806684568B007FE
:102AF0000FD5A8070DD5A06DC00604D4A06D012187
:102B0000C9020843A0652046FFF7D3FE21680220D2
:102B10000860474F700701D5680703D4300728D5F0
:102B2000280726D5A06DC00604D4A06D0121490256
:102B30000843A065206803F06DF9002813D0A07E3B
:102B4000002810D12068016809070CD503F05EF950
:102B500001460120002960D0A16D20221143A1650A
:102B6000E16D0143E1652046FFF7B8FF21680C20C5
:102B7000086030060CD528060AD5A06D012109048D
:102B80000843A065204600F083F921688020086092
:102B9000F0050BD5E80509D5A06D012149040843CE
:102BA000A0652046FFF786FE20680760B0050DD5BA
:102BB000A8050BD5A06D012189040843A065204616
:102BC000FFF779FE0120216840020860F00618D561
:102BD000E80616D5206B002804D02068C06880075E
:102BE000800F0BD0A06D012189020843A065E06D24
:102BF00002210843E0652046FFF772FF216810209C
:102C00000860B00408D5A80406D52046FFF750FE9A
:102C10000120216840030860F8BD21684A680C2340
:102C20009A434A60A16DB9430143A1659BE7000047
:102C300000010000F0B50446002087B0039006466E
:102C400002900090002C05D02746A06D2037002868
:102C500003D009E0012007B0F0BD204600F01AF9CA
:102C60000020E0655421085520688168C900C90F1B
:102C700012D181687D4A11400122120711438160FF
:102C80007C487B490068FDF7FEFB4000801C00E0AB
:102C9000401E00900028FBD120688168C900C90F40
:102CA00008D1A16D10221143A165E16D01221143EC
:102CB000E165039203F0AAF8A16DC90601D40028CA
:102CC00004D0A06D10210843A065CCE0A06DFF21C9
:102CD0000131884302210843A065206803F092F87F
:102CE000002833D12068C16818229143A26811439B
:102CF000C1606068E16C800F8007024632430E4677
:102D0000397F1643012908D1626C216C401C1143A4
:102D1000A26C024308461043064320680169564AE4
:102D200011403143016103216068890788420DD059
:102D3000510788420AD04900884207D04F4A91681B
:102D40000F239B049943184001439160207E850323
:102D5000607EC0030543A07E41030D43216B002923
:102D600001D0012109030D43E1680D4321690029C8
:102D700002DA4900490801E0012149050D43397B88
:102D800049000D4302990D433978012909D10028E2
:102D900056D0A06D20210843A065E06D01210843B5
:102DA000E065606A002806D0FF22C1321040A16AA7
:102DB00028430D4605432068C168314A1140294324
:102DC000C160216808692F4A104030430861002122
:102DD000626B206803F02DF82B49A26B206803F08A
:102DE00028F80F212069C94300282DD0012252055F
:102DF000904216D1226E002086001346F340DB433A
:102E00001B0702D0401C0828F6D301281CD02068DC
:102E1000836A237F9B001B1FDB06DB0E9940114357
:102E200081622068C06819490840A84211D1002079
:102E3000E065A06D80088000401CA06503980AE74B
:102E4000012000040543ACE72068826A0A438262DD
:102E5000E7E7A06D0221884310210843A065E06DDB
:102E600001210843E06501200390F4E6E8FFFF7FBD
:102E7000400D03004C04002002FCFF1F002701400E
:102E80001902FEFF02FCFFDF04FFFF07E7FF3F839D
:102E90007047000070B586B0054614216846FDF7FE
:102EA000F0FA2249286888423ED12148026801216F
:102EB00009050A4302600068084005901C48403834
:102EC000416B012211434163406B00261040059085
:102ED0003F200090032001900520694602960007DC
:102EE00000F088FA144C13482060A6600520E660C4
:102EF00060608020206140006061C000A0612020EF
:102F0000E06100022062204600F046F9002801D06E
:102F1000FFF748FB2C65002201210C20A56200F080
:102F20008DFB0C2000F07EFB06B070BD002401403C
:102F3000401002400800024078320020F7B50446F5
:102F4000006802F063FF002845D125464035287D02
:102F5000012840D001272F752068C1681F4EC9077E
:102F60000CD102F04FFF002804D020688168314066
:102F7000891C81602068C1683943C1602046FEF722
:102F800027FF002826D1A06D15490840FF210131F7
:102F90000843A0650020E065226D1249D162226DD0
:102FA00011491163226D1149516322681C2111607E
:102FB0002875206841681022114341602168206D06
:102FC0004031029B019A00F039F921688A68324049
:102FD000121D8A60FEBD0220FEBD0000E8FFFF7FDB
:102FE000FEF1FFFFB91C0008531D0008391D000841
:102FF000F0B5002808D0014620314A79022A05D0D0
:103000000422C263002008710120F0BD0268136829
:103010000E24A3431360426C1468FF2301339C43C6
:103020001460026814686408640014600C4A5568EF
:10303000066C1C24264001242746B7403D435560BA
:10304000826CC56C5560026D002A05D015689D43E1
:103050001560826D406D42604C7100200871F0BDBA
:1030600000000240F8B500240246203251790229BE
:1030700003D00421C16301242DE001680B680E25F3
:10308000AB430B6001680B685B085B000B60416C35
:103090000B68FF250135AB430B6010494D68066C8A
:1030A0001C231E4001231F46B7403D434D60816CE9
:1030B000C56C4D60016D002906D00E681D02AE433F
:1030C0000E60416D856D4D60537100211171816BF2
:1030D000002900D088472046F8BD000000000240CB
:1030E000F0B42C490C6802681368056C1C273D403D
:1030F0000426AE40264211D05E070FD513689B060A
:1031000003D4146804239C4314604B68046C0422A9
:103110003C40A24013434B60016B1CE00227AF40D0
:10312000064627402036002F19D09F0717D5136871
:103130009B0605D413680A24A3431360012272710D
:103140004B68046C1C2214400222A24013434B60C3
:1031500000213171C16A00291AD0F0BC0847082744
:10316000AF40274214D01B0712D513680E24A34387
:1031700013604B68046C1C22144001221546A540C4
:103180002B434B60C263727100213171416BE2E7E6
:10319000F0BC70470000024070B504003FD02548E5
:1031A000256814212818FDF76EF98000206402209C
:1031B00026462036707128681F4908402860E1685B
:1031C000A06862690843216911430843A169084363
:1031D000E1690843216A084321680A6810430860CE
:1031E0002046FFF79BF80121A0688903002588424B
:1031F00000D165602079616C8006800E0860A06C4B
:10320000E16C41606068401E03280AD82046FFF741
:103210009DF8206D0560606DA16D416004E00120A6
:1032200070BD25656565A565E56301207071357123
:10323000002070BDF8FFFDBF0F80FFFFF8B504460A
:103240008C4620300179002501290BD0012606711A
:1032500041790027012907D08021E1630771012509
:103260002846F8BD0220F8BD02214171E7632068BD
:10327000016849084900016061462046FFF77AF875
:10328000206B00282068016801D00E2205E004228E
:1032900091430160206801680A2211430160606C5B
:1032A0000168CA03074902D502680A430260206D1B
:1032B000002802D002680A43026020680168314396
:1032C0000160CDE700010000F8B51F4E04463078DC
:1032D0000F4601280AD001203070002070607D2048
:1032E000C000FFF723FA002802D029E00220F8BD31
:1032F000042161602268042A03D0491F3960A5684F
:1033000014E00846FFF7D0F97D20C000FFF70EFA61
:1033100016E029466068FFF7D1F97D20C000FFF76D
:1033200005FA002801D03D6005E06D1CE268A16847
:103330008918A942EDD805494A6902239A434A618E
:1033400000213170F8BD0000283600200020024026
:10335000054901204A69C3071A434A61496900299E
:1033600000DA00207047000000200240F0B51FB4D2
:10337000144C06462078154601280AD001202070FA
:1033800000277D20C0006760FFF7D0F9002803D038
:1033900010E0022005B0F0BD012E0DD029460198A5
:1033A000FFF7AAF97D20C000FFF7C0F906494A6976
:1033B000B2434A612770EDE72A46039B0198FFF765
:1033C0008DF9EFE728360020002002400649002052
:1033D0004A69002A07DA054A8A60054A8A6049690B
:1033E000002900DA012070470020024023016745D0
:1033F000AB89EFCDF0B50023032498E001259D4073
:103400002A407DD00E79B607B60F012E01D0022ECC
:1034100016D186682746B4465E00B646B740664673
:10342000BE43B446CF687646B740664637438760AA
:103430004668AE430D79ED06ED0F9D40354345607E
:103440000D79ED43AD0708D0C5685F002646BE4044
:10345000B5438E68BE402E43C6600D79AD07AD0FF3
:10346000022D0ED1DD08AD002D18AC462D6A5E0789
:10347000F60E0F27B740BD430F69B7402F4365468F
:103480002F6205685F002646BE40B5430E79B60739
:10349000B60FBE402E4306604D68AD03AD0F45D05C
:1034A0009E08264DB6007519AC462D6E9E07F60E89
:1034B0000F27B740BD4305273F07B84201D100277A
:1034C0000FE01F4FB84201D101270AE01D4FB8425B
:1034D00001D1022705E01C4FB84201D1032700E0CB
:1034E0000527B7402F4365462F66144E8036356852
:1034F0004F689543FF0300D515433560756800E0BC
:1035000014E04F689543BF0300D5154375600B4E1B
:1035100035684F689543FF0200D5154335607568DF
:103520004F689543BF0200D5154375605B1C0A6860
:103530001546DD4000D061E7F0BD000000180240F4
:103540000004005000080050000C005000690840C2
:1035500000D001207047002A01D08161704781624C
:103560007047000001488068704700004004002058
:103570000248816802788918816070474004002001
:1035800010B50848002401688215114301602046E7
:1035900000F00AF8002801D0012401E000F028F82A
:1035A000204610BD0020024070B50F4E0024317837
:1035B0000546002915D07D20C000FCF764FF0146B8
:1035C0000A480068FCF75FFF00F0D4FC002808D12F
:1035D000042D06D200222946401E00F02FF8756007
:1035E00000E00124204670BD400400204C0400206F
:1035F00008B50B48016801221143016000681040C2
:10360000009007484038C26B01040A43C263C06B94
:10361000084000900320400200F096FC08BD000026
:1036200040100240002805DBC106C90E0120884079
:10363000014908607047000000E100E010B505F0A6
:10364000B3FC10BDBFF34F8F04490348C860BFF3FC
:103650004F8F00BFFDE700000400FA0500ED00E019
:1036600010B50F4C2168032252029143014321609F
:10367000C11FFF39FA390ED10A48062100684843B4
:103680000949FCF700FF401C02E0002805D0401E5D
:1036900061694905F9D4002010BD032010BD000068
:1036A000007000404C04002040420F00F8B5044672
:1036B00000680026524D800358D5514800274038F5
:1036C000C06BC00009D44E484038C26B01040A43A5
:1036D000C263C06B0840012700904A480168821508
:1036E00011430160FFF73EFF009005E0FFF73AFF4E
:1036F0000099401A022825D842480068C005F5D52F
:10370000E8690321090208400FD0A16981420CD069
:10371000E86903210902EA698843012109040A438F
:10372000EA61EA698A43EA61E861C0070FD0FFF7FE
:1037300019FF009008E0FFF715FF0099411A324881
:10374000814201D9032609E0E8698007F3D5E869D9
:10375000032109028843A1690843E861002F05D0CD
:1037600027484038C16B02049143C1632078C007E9
:1037700005D0686961688008800008436861207826
:10378000800705D568690C218843A16808436861F2
:103790002078800606D56869032109038843E1681B
:1037A000084368612088400411D568696169800018
:1037B000800808436861012160698907884206D151
:1037C0000F484038C168012212041143C1602088AB
:1037D000000512D5686903218903884321690843DC
:1037E0006861012120698903884206D10448403874
:1037F000C168012212041143C1603046F8BD0000C7
:10380000401002400070004088130000F8B50F46D9
:10381000060043D04D4D28684007400FB84213D2F0
:103820002868C008C00038432860FFF79BFE0446A4
:1038300005E0FFF797FE011B4548814261D82868E3
:103840004007400FB842F4D13068424C81070DD593
:10385000400704D5A068072109030843A060A068B9
:103860000F2109028843B1680843A0603078C0077F
:1038700032D0706801280AD002280BD000280FD05F
:103880003449403103280ED0C969890704E0216812
:10389000890301E021688901002906DB0120F8BDC8
:1038A00021684905F8E7096AEFE7A168C908C90076
:1038B0000143A160FFF756FE009006E0FFF752FEBD
:1038C0000099411A224881421BD8A068382108403B
:1038D0007168C9008842F1D128684007400FB8429A
:1038E00017D91A480168C908C90039430160FFF7B0
:1038F00039FE054607E0FFF735FE411B14488142BB
:1039000001D90320F8BD114800684007400FB842B4
:10391000F1D13078400706D5A06807210903884314
:10392000F1680843A06000F031F8A1683C228909E1
:103930001140094A515CC906C90EC84007490860D0
:1039400007480068FFF730FEF8BD00000020024085
:10395000881300000010024024B500084C04002029
:10396000440400200648074900688968064A49045B
:10397000490F8900515CC906C90EC8407047000054
:103980004C0400200010024064B5000810B5204C23
:10399000A068204A8006400F16D0A0688006410F1C
:1039A000501001290FD0A1688906490F022912D0B1
:1039B000A0688006400F042823D0A0688006400F2E
:1039C000032821D0002010BD206801218004400F71
:1039D0008140104612E0E1688B07E1689B0F4906C1
:1039E000490F491C032B00D01046FCF74CFDE16841
:1039F0004904490E4843E168490F491CFCF743FD5F
:103A000010BD0120C00310BD7D20000210BD0000CC
:103A1000001002400024F400F8B504007ED02078A5
:103A20003827C007EB4D002846D0A868E968384021
:103A30008907890F102802D008280BD001E003293C
:103A400008D001206268000482420AD1296801433B
:103A5000296015E0286880032ED560680028DDD035
:103A60002AE0052301211B0489049A422A6802D115
:103A70000A432A60EAE782432A602868884328606C
:103A8000606800280CD0FFF76DFD064604E0FFF7E4
:103A900069FD801B642873D828688003F7D50BE084
:103AA000FFF760FD064604E0FFF75CFD801B64281D
:103AB000F1D828688003F7D42078800769D5A868F2
:103AC000E96838408A070721920FC902102802D0FE
:103AD000002813D001E0022A10D0E068002846D068
:103AE000286888432169084328602868FF2101313C
:103AF00008432860FFF736FD06462CE02A68520589
:103B000002D5E268002A89D06A687F231B029A43A3
:103B100063691B021A436A60002800E08DE00ED141
:103B200028688843216908432860286801218004A7
:103B3000400F8140A848FCF7A6FCA8490860A848A7
:103B40000068FFF731FD002877D122E0FFF70AFD7A
:103B5000801B02289FD828684005F7D568687F2118
:103B600009028843616909020843686011E0296815
:103B7000FF20013081432960FFF7F4FC064605E091
:103B800098E0FFF7EFFC801B022884D828684005E6
:103B9000F7D42078934E00072ED5A8688006400FF2
:103BA00003280AD0A0690028306A16D001210843F2
:103BB0003062FFF7D7FC07460BE0306A80071BD561
:103BC000A06900289FD017E0FFF7CCFCC01B02289B
:103BD00070D8306A8007F7D50EE0400840003062A8
:103BE000FFF7C0FC074604E0FFF7BCFCC01B02283F
:103BF00060D8306A8007F7D4207840076CD5A86871
:103C000000278006400F042818D0E86BC00008D4B5
:103C1000E96B012000070143E963E96B01400127DB
:103C2000009171480168C90519D4016882151143D2
:103C30000160FFF797FC00900DE083E0F0698007DA
:103C40004AD5A06800287DD046E0FFF78BFC00999C
:103C5000401A02282ED864480068C005F5D5A1682E
:103C6000012910D004200529F16911D04908490023
:103C7000F161F1698143F161A068002816D0FFF776
:103C800071FC00900EE0F06901210843F061F3E758
:103C90000143F161F7E7FFF765FC0099411A5348CA
:103CA00081426DD8F0698007F5D50EE0FFF75AFC28
:103CB000009007E064E0FFF755FC0099411A4B487B
:103CC00081425DD8F0698007F5D4002F04D0E96BFC
:103CD000012000078143E963E069002877D0A968E3
:103CE0008906490F022951D0012636060228286884
:103CF0000DD0B0432860E86880088000E860E8687C
:103D00003B490840E860FFF72DFC04463AE0B04329
:103D10002860FFF727FC074604E0FFF723FCC01BE1
:103D200002282DD828688001F7D4616A206AA26A27
:103D30000843E16A120211430843216B0843E96812
:103D40002C4A00E041E011400843E8602868304315
:103D50002860E868012109070843E860FFF702FCD2
:103D6000044604E0FFF7FEFB001B022808D8286881
:103D70008001F7D52BE0FFF7F5FB001B022801D9E6
:103D80000320F8BD28688001F5D420E00128F8D090
:103D9000E868226A8107890F914216D17021626A10
:103DA0000140914211D17F21A26A09020140120211
:103DB00091420AD11F214904E26A0140914204D193
:103DC000400F216B4007884201D00120F8BD002040
:103DD000F8BD0000001002400024F4004C04002054
:103DE000440400204010024000700040881300008E
:103DF000FFFFFEEF8C80C11FF8B504000CD0606A95
:103E0000002500280AD02561656126464036A56256
:103E1000707F002808D00BE00120F8BD6168C81F42
:103E2000FD38F2D0E561F0E73577204600F05CF828
:103E300002227277206801684023994301600723BA
:103E4000E1681B02994201D9002001E00120000332
:103E50000F273F02B94202D0994200D0A562FF234A
:103E60006168053319402127A368BF023B4019430D
:103E700023691340227D1943D207D20F1143012336
:103E8000A2695B021A401143E26938231A401143C8
:103E9000226A80231A401143A26A9B011A401143EF
:103EA00022681160A1690422090C1140626A102382
:103EB0001A401143626B08231A4011430F23E26832
:103EC0001B021A40114301221203104001432068D3
:103ED00041602068C16952109143C161256601208B
:103EE00070770020F8BD000010B586B0044614219C
:103EF0006846FCF7C6FA1149206888421BD1104871
:103F0000026881140A4302600068084005900C486A
:103F10004038426B02210A434263406B01910840E2
:103F2000059038200090002002900390049069468C
:103F30000448FFF75FFA06B010BD000000300140F2
:103F4000401002400004005003490A6803235B024A
:103F50009A4302430A60704700000140042204496A
:103F60000428086902D09043086170471043FBE7BA
:103F700000E000E0094910B5401E884201D9012047
:103F800010BD074C60610321081F05F00DF80020EB
:103F9000A06107202061002010BD0000FFFFFF008E
:103FA00000E000E0704770477047000070B50346BE
:103FB00020331A7F012A4BD001221A770325CA68C1
:103FC0002D02AA438D6800682A430125AD02AA4349
:103FD0004D6800242A430125ED02AA430D682A43B7
:103FE00001252D03AA430D692A4301256D03AA4328
:103FF0004D692A430125AD03AA430D6B2A430F25C2
:104000002D04AA430D8B2D042A43124DA84204D13E
:1040100001263607B243CE693243A84214D10F2598
:104020002D05AA430D8D2D052A4301252D06AA43F2
:104030000D6A2A4301256D06AA434D6AC96A2A43BF
:1040400001256D07AA430A4342641C77002070BD16
:10405000022070BD002C0140F0B5034620331C7FC8
:10406000012C0CD001241C771468012C09D00025E8
:104070002C462E46012908D002291FD112E0022029
:10408000F0BD01256C020926F4E70768396E506817
:10409000A943284008439168A043B140214001430F
:1040A00039660BE00768796E5068A94328400843D9
:1040B0009168A043B1402140014379660020187700
:1040C000F0BD0000F0B587B00E46040006D02546CE
:1040D0002035687F0027002803D006E0012007B0C4
:1040E000F0BD2F77204600F055F802206877211D9B
:1040F000206803F001FDB36831680322206803F0F3
:10410000EFFE206881690C229143816120688169FA
:1041100072681143816120684168802211434160C7
:1041200020688168194A11408160206881684022B6
:104130001143816020688168154A114081602068C0
:1041400081680422114381603846049705977027DF
:104150000690039000970290F068019069462068ED
:1041600003F084FD20684168B943416020684168DC
:10417000502211434160012040342072A877E87733
:104180002071607168770020A9E700008FFFCFFFE2
:10419000F8FFFEFF70B586B0044614216846FCF7B0
:1041A00070F917492068884228D11648C16B02244B
:1041B0002143C163C16B21400591416B0125294316
:1041C0004163416B29400591416B21434163406B41
:1041D000002620400590C020694651C1052069464F
:1041E000000703960495FFF705F9029600956946C6
:1041F0000548039604950194FFF7FCF806B070BDDE
:10420000000400400010024000040050F0B50346D6
:1042100020331A7F012A27D001221A7702225A77E7
:1042200004686268A568114FBC4205D116460F228A
:10423000120596434A6832437026B2430E6816430D
:1042400066600068B84205D0094A904202D0094A27
:10425000904204D1802289689543294381600120DE
:10426000587700201877F0BD0220F0BD002C0140E7
:10427000000400400040014070B505462C46022075
:104280004034002908D004290BD008290ED0E27947
:10429000012A10D0012070BD2279012AFAD12071A3
:1042A0000AE06279012AF5D1607105E0A279012A5C
:1042B000F0D1A07100E0E0710422286803F06DFCE9
:1042C0002868416C0122D203114341640B492868DC
:1042D0000122884205D00A49884202D00949884211
:1042E00007D18168084B1940062905D0DB1F994288
:1042F00002D0016811430160002070BD002C014014
:1043000000040040004001400700010070B5044671
:104310000D460068002203F040FC2068036A14493F
:10432000144A0B4207D1036A134204D1436C01269D
:10433000F603B34343642068036A0B4206D1016A63
:10434000114203D10168490849000160012040344D
:10435000002D06D0042D06D0082D06D0E0710020D7
:1043600070BD2071FBE76071F9E7A071F7E700000D
:10437000111100004404000070B5040005D025466A
:104380002035687F002802D006E0012070BD0020A3
:104390002877204600F016F802206877211D206853
:1043A00003F0AAFB012240342272AA77EA77227036
:1043B0006270A270E27022716271A271E2716A771A
:1043C000002070BD10B586B0044614216846FCF785
:1043D00058F8234A2168234891422CD12149403181
:1043E0000B68C21413430B60096811400591426BBE
:1043F00004210A434263406B08400590C8020090C4
:1044000012200190012002900020039002200490CD
:1044100069461548FEF7EEFF002211460D20FFF712
:104420000DF90D20FFF7FEF8002202210E20FFF704
:1044300005F90E200FE00D4A91420ED1C26B1021FA
:104440000A43C263C06B002208400590032111207B
:10445000FFF7F4F81120FFF7E5F806B010BD0000F3
:10446000002C0140001002400008005000100040E5
:10447000014620314A7F012A01D0012070470222E3
:104480004A770168CB6801221343CB6000680B496F
:10449000884205D00A49884202D00A49884207D199
:1044A0008168094B1940062905D0DB1F994202D0CB
:1044B000016811430160002070470000002C01409A
:1044C00000040040004001400700010070B50546AF
:1044D00004462035287F012817D001262E77022098
:1044E0006877226890682E4B1840FF231B02984380
:1044F00090600A68502A32D00EDC202A4CD006DCAC
:10450000002A49D0102A3BD146E0022070BD302A53
:1045100042D0402A34D137E0602A28D0702A12D005
:1045200001200003121A2BD0824229D1CB684A689D
:104530008968206803F03EFB2068816801229203AD
:10454000114381601CE0CB684A688968206803F0E9
:1045500031FB2168886877221043886010E0CA68C0
:104560004968206803F0AAFC5021206806E0CA6868
:104570004968206803F0DCFC6021206803F026FB1A
:104580006E770020287770BDCA684968206803F0FC
:1045900095FC40212068F1E711462068EEE7000015
:1045A00088FFCEFFF0B502462032967F0446D57FC5
:1045B000403007794379002904D004290DD0012E19
:1045C00019D112E0012E16D1012F14D102219177B9
:1045D00001710122002120681CE0012D0BD1012B6B
:1045E00009D10221D177417111E0012D03D1012FB1
:1045F00001D1012B01D00120F0BD02219177D177AB
:104600000171417101220021206803F0B9FA0122F1
:104610000421206803F0B4FA2068016801221143E4
:1046200001600020F0BD704770B504460068016964
:104630000025C9438907002915DBC168C9438907DB
:1046400011D4E91E0161012020772068806980076C
:10465000204602D0FFF7E7FF04E000F012F9204601
:1046600000F0EDF9257720680169C943490717D49F
:10467000C168C943490713D40421C9430161022019
:104680002077206880698005800F204602D0FFF7E0
:10469000CAFF04E000F0F5F8204600F0D0F92577D5
:1046A00020680169C943090716D4C168C9430907CD
:1046B00012D40821C9430161042020772068C06911
:1046C0008007204602D0FFF7AEFF04E000F0D9F8E3
:1046D000204600F0B4F9257720680169C943C9066E
:1046E00017D4C168C943C90613D41021C943016155
:1046F000082020772068C0698005800F204602D0FE
:10470000FFF791FF04E000F0BCF8204600F097F9B5
:10471000257720680169C943C90708D1C168C94321
:10472000C90704D1891E0161204600F0BDFA206846
:104730000169C943090609D4C168C943090605D4FA
:104740008021C94301612046FFF72DFC20680169E3
:10475000C943C90508D4C168C943090604D412492C
:1047600001612046FFF71EFC20680169C943490624
:1047700009D4C168C943490605D44021C943016130
:10478000204600F092FA20680169C943890609D4DD
:10479000C168C943890605D42021C9430161204667
:1047A000FFF702FC70BD0000FFFEFFFF30B587B0D1
:1047B000044614216846FBF764FE154920688842C8
:1047C00024D11448416B022421434163416B2140B1
:1047D0000591416B012211434163406B002510405C
:1047E000059007204003694631C169460A48039590
:1047F0000494FEF7FFFD07200002694631C1052041
:104800006946000703950494FEF7F4FD07B030BD38
:10481000002C0140001002400004005010B5044676
:104820002034237F012B0BD0012323770C2A1AD0AD
:1048300008DC002A0BD0042A0DD0082A1ED10EE075
:10484000022010BD102A12D0142A17D113E00068DC
:1048500003F0C6F912E0006803F008FA0EE0006801
:1048600003F046FA0AE0006803F086FA06E0006802
:1048700003F0BCFA02E0006803F0EAFA00202077B7
:1048800010BD704770B5040005D025462035687FFF
:10489000002802D006E0012070BD002028772046C5
:1048A00000F016F802206877211D206803F024F933
:1048B000012240342272AA77EA7722706270A270D5
:1048C000E27022716271A271E2716A77002070BD9C
:1048D0007047F8B5064604462036307F0D4601285D
:1048E0000CD00120082730770C2A44D008DC002A9D
:1048F0000BD0042A19D0082A77D12CE00220F8BD69
:10490000102A4ED0142A70D15BE0206803F068F9B9
:10491000206881693943816120688169042291435B
:104920008161206881692A6912E0206803F09EF99C
:10493000206881690122D202114381612068826965
:10494000012189028A438261206881692A691202F1
:104950001143816149E0206803F0CAF92068C16908
:104960003943C1612068C16904229143C161206853
:10497000C1692A6912E0206803F0FEF92068C16964
:104980000122D2021143C1612068C269012189025A
:104990008A43C2612068C1692A6912021143C16158
:1049A00023E0206803F022FA2068416D3943416515
:1049B0002068426D04218A4342652068416D2A695E
:1049C00011E0206803F044FA2068416D0122D20210
:1049D000114341652068416D521091434165206843
:1049E000416D2A6912021143416500203077F8BDFC
:1049F00070B5040005D025462035687F002802D018
:104A000006E0012070BD00202877204600F016F84F
:104A100002206877211D206803F06EF801224034DF
:104A20002272AA77EA7722706270A270E270227115
:104A30006271A271E2716A77002070BD70477047A1
:104A400030B504460223203000290ED0042911D0AD
:104A500020464030082912D00C2915D0102918D032
:104A6000C278012A1AD0012030BD827F012AFAD1F2
:104A7000837714E0C27F012AF5D1C3770FE0027873
:104A8000012AF0D103700AE04278012AEBD1437089
:104A900005E08278012AE6D1837000E0C37001222C
:104AA000206803F06DF814492068144A884207D042
:104AB000904205D0124B984202D0124B984204D13A
:104AC000436C0125ED032B43436420680123884296
:104AD00004D00D49884201D0904207D181680B4A29
:104AE0001140062905D0D21F914202D00168194316
:104AF0000160002030BD0000002C0140004001405A
:104B0000004401400048014000040040070001004B
:104B100030B504462030022200290ED0042915D0D9
:104B200020464030082919D00C2921D0102924D042
:104B3000C378012B26D0012030BD837F012BFAD111
:104B400082772068C3681343C3601EE0C37F012BD4
:104B5000F1D1C2772068C268042306E00378012BF4
:104B6000E9D102702068C26808231A43C2600CE0D1
:104B70004378012BDFD1427005E08378012BDAD135
:104B8000827002E0C2700C292BD00122206802F052
:104B9000F7FF164A20681649904207D0884205D090
:104BA000144B984202D0144B984204D1436C012517
:104BB000ED032B43436420680123904204D00F4A45
:104BC000904201D0884207D181680D4A11400629E0
:104BD00005D0D21F914202D0016819430160002024
:104BE00030BD2068C2681023BFE70000002C0140E0
:104BF00000400140004401400048014000040040E2
:104C00000700010070B504460D460068002202F05E
:104C1000B7FF21491F4B20688A10984208D01F4BCC
:104C2000984205D01E4B984202D01E4B98420AD1A2
:104C3000036A0B4207D1036A134204D1436C012675
:104C4000F603B34343642068036A0B4206D1016A4A
:104C5000114203D101684908490001602146203111
:104C60000120002D0BD0042D0BD04034082D0AD08C
:104C70000C2D0AD0102D0AD0E070002070BD88776E
:104C8000FBE7C877F9E72070F7E76070F5E7A070F9
:104C9000F3E70000002C014011110000004001402A
:104CA00000440140004801407047704710B501467C
:104CB00080310A78012A15D001220A7024224A6024
:104CC00002681368146864086400146001225207C3
:104CD00093430022426600680360202048600A7007
:104CE000104610BD022010BD7047704770B50446D5
:104CF00005468034207801281AD001202070242015
:104D000060602868066802685208520002602868DD
:104D1000826807235B069A430A438260284603F0B1
:104D20005FF928680660202060600020207070BD58
:104D3000022070BD70B504460546803420780128F5
:104D400019D001202070242060602868066802685D
:104D500052085200026028688268D200D2080A43D2
:104D60008260284603F03CF92868066020206060D5
:104D70000020207070BD022070BD704770477047E2
:104D8000014680314868896808437047F8B5036870
:104D90000446D96918689A68B24D0E462E402546D9
:104DA0008035002E75D0B04EB04F164007403743C7
:104DB0006ED0CF0706D0C70504D501271F62EB6868
:104DC0003B43EB608B0708D5D30706D02768022347
:104DD0003B62EB6804273B43EB604B0708D5D307E6
:104DE00006D0276804233B62EB6802273B43EB6055
:104DF0000B0709D520230340334305D02668082339
:104E00003362EE681E43EE600B0509D5430107D5FA
:104E100001232668DB023362EB6820263343EB6014
:104E2000EB68002B42D089060AD520210840C9052D
:104E30000A40104304D0216F002901D02046884742
:104E4000E86821688968490602D42821084232D0DE
:104E5000204603F00BFA21688868400627D5EFF357
:104E60001080012282F310888B68402293438B606C
:104E700080F31088E06F002819D07D498163E06FCE
:104E8000FEF7F0F8002811D0E06F816B0DE000E034
:104E900017E08E0615D5012720263F07064017404C
:104EA0003E430ED0216FB1E020468847F8BD204632
:104EB000FFF765FFF8BD2046FFF761FF0020E860BF
:104EC000F8BDE66E012E7CD1CE067AD5C60678D521
:104ED00010221A6223689868264640064036002849
:104EE00047DAE16F086840680004000CE8D0B78B2F
:104EF0008742E5D9F08308680068800634D4EFF370
:104F00001080012181F3108819681701B9431960D5
:104F100080F31088EFF31080012181F3108821685D
:104F20008B685B085B008B6080F31088EFF3108068
:104F3000012181F3108821688B684027BB438B6077
:104F400080F310882020A8600020E066EFF3108036
:104F5000012181F3108821680B6893430B6080F373
:104F60001088E06FFEF744F8B08BF18B401A81B2E5
:104F700033E0B08BF18B401A81B2F08B00289FD0C8
:104F800000299DD0EFF31080012686F310881E685B
:104F9000FF272137BE431E6080F31088EFF3108097
:104FA000012383F3108823689E682F4FFF433E4000
:104FB0009E6080F310882020A8600020E0662067B3
:104FC00000E00EE0EFF31080012383F310882368E4
:104FD0001D6895431D6080F310882046FFF784FE0E
:104FE000F8BDCE0208D5560206D50120000518628C
:104FF0002046FFF7C3FEF8BD0E060BD5012780261D
:10500000FF0506403A40164304D0616F002900D0E6
:105010004AE7F8BD4A0614D5420612D52046EFF3FA
:105020001081012282F310881C68402294431C6086
:1050300081F31088202169600021416700F023FA84
:10504000F8BD0A0205D5420003D52046FFF795FEBC
:10505000F8BDC901FCD50028FADA2046FFF745FE65
:10506000F8BD00000F08000001000010200100043E
:105070005581000870B5040005D025468035686864
:10508000002802D006E0012070BD002028702046D4
:1050900000F026F82420686020680168490849006B
:1050A0000160204603F06AFB0128EDD0A06A0028C9
:1050B00002D0204602F0B6FF206841680922D202E1
:1050C00091434160206881682A2291438160206871
:1050D0000168012211430160204603F009F870BD08
:1050E00070B586B0064614216846FBF7CAF9414DF3
:1050F00033680024404904220220AB4220D13E4BB9
:1051000040331E6845032E431E601B682B400593E9
:105110004B6B13434B63496B019011400591302158
:105120000120009104900294039469463348FEF7ED
:1051300061F9002202211B20FEF780FA1B2021E0EA
:105140002F4DAB4222D1CB6B012252041343CB63D0
:10515000CB6B134005934B6B082213434B63496B96
:1051600001901140059160210091029403940494F0
:1051700069462448FEF73EF9002202211C20FEF772
:105180005DFA1C20FEF74EFA06B070BD1E4DAB4214
:10519000FAD1CD6B01239B041D43CD63CD6B1D4024
:1051A00005954B6B03434B63496B0190014005919F
:1051B00003218902009102940394049269461348E2
:1051C000FEF718F9134D12482860AC603620EC60E9
:1051D00068606C61AC618020EC61286180012862AC
:1051E0002846FDF7D9FF002801D0FDF7DBF9F56768
:1051F000AE62C9E7003801400010024000080050CC
:1052000000440040000C00500048004000040050E2
:105210001C000240CC35002070B5034680339C68EA
:10522000202C29D100290BD0002A09D0012584681F
:105230002D03AC4206D10469002C03D1CC0701D068
:10524000012070BD1C78012C16D001241C70002395
:10525000C366046863681B020BD5EFF31083012556
:1052600085F3108825680126B6063543256083F34B
:10527000108803F04DFB70BD022070BD70B5034671
:1052800080339C68202C29D100290BD0002A09D01A
:10529000012584682D03AC4206D10469002C03D19A
:1052A000CC0701D0012070BD1C78012C16D0012440
:1052B0001C700023C366046863681B020BD5EFF300
:1052C0001083012585F3108825680126B60635432D
:1052D000256083F3108803F071FB70BD022070BD60
:1052E000F0B504460068564985B0884270D15548EB
:1052F0005749028854480388581C85B2534800888F
:10530000401C80B2042A02D0052A61D122E00A782A
:105310004E78CF7872408E78B4467E4072400E79D7
:10532000497972404A404B490A8010D14A490020CD
:10533000088030043902411860460818474908605F
:105340008003010C464801803FE0058040E03F4972
:1053500008803DE00A784E7872408E780396CF78C8
:1053600002977E4072400E794F7972407A400197E1
:105370008F7900977A40CF79BE467A400F7ABC4643
:105380007A404F7A897A7A404A4032490A80DED19F
:10539000314900200880029831040002091803985E
:1053A00008182E4908604003010C2D480180704602
:1053B000010260460004091800980818294908806D
:1053C00029490198086029490F601F480A2BBCD35E
:1053D00027492068274D884213D16889000410D4DA
:1053E000FEF7C0F86862E81D01786889224B8204E4
:1053F000920C401C80B299546881C72801D90020C2
:1054000068811E492068884217D16878002814D125
:105410002889000411D4FEF7A5F828621548184B16
:10542000801D017828898204920C401C80B2995416
:105430002881C72801D90020288105B0F0BD0000CF
:10544000004800400E0000209E0300209C03002026
:1054500084300020BA030020A0030020AC03002009
:10546000A4030020B8030020B0030020B4030020F0
:1054700000440040E00100205C260020003801408C
:10548000CC24002070477047FEE7000070B5012271
:105490000A4D140221462846FEF75DF801228021BC
:1054A0002846FEF758F8002280212846FEF753F8D8
:1054B000002221462846FEF74EF870BD0004005039
:1054C00010B5084C012211022046FEF744F80022D4
:1054D00080212046FEF73FF8012280212046FEF77A
:1054E0003AF810BD0004005070B50122054D1402B9
:1054F00021462846FEF72FF8002221462846FEF7CF
:105500002AF870BD0004005070B51446002900DA76
:105510004942091B054D4143286B0818044968633B
:10552000FAF7BBFF0019296370BD00005801002085
:1055300060EA000070B51446002900DA4942091BF0
:10554000054D4143A86A08180449E862FAF7A5FF27
:105550000019A96270BD00005801002060EA000037
:1055600010B53649022008803549062008803549A3
:10557000002008603449394A086034493A4B0860D1
:1055800033493B4C08603349086033490860462181
:105590001180334901220A80324919607D21334B41
:1055A000C90019804B23DB002380334C314B23602F
:1055B0001923324C5B012380314C0A232380324C67
:1055C000304B2360314B324C1A8004232380314C02
:1055D0004B102380FF23304C2D332380304C2F4B36
:1055E0002360304C052323802F4B1A802F4A1160F3
:1055F0002F4A11802F4A324B11802F4A10602F4AB8
:105600001A60314B2F4A1A60304B1A60304A1160D1
:10561000304A1180304908603049086030490860DC
:1056200030490860304908803048282101802A210B
:1056300041802C2181804221C18010BDD8010020F1
:10564000DC01002044000020500000204001002028
:10565000480000204C000020D80000205801002005
:105660005A0100208096980074010020C00100209B
:105670005C010020B80B0000D8030020BC03002010
:10568000BE03002088130000CC030020C0030020CC
:1056900010040020C2030020C403002050C30000F7
:1056A00068030020600300206203002074030020D0
:1056B0008C03002064030020D0020020307500001D
:1056C00024020020A08601001C02002020020020ED
:1056D00038020020C80200204402002048020020B6
:1056E0003C02002040020020140200204C01002057
:1056F000054906200880054900200860044805493E
:105700000068086070470000DC010020D80000201D
:10571000D002002090020020F0B5954893498162A4
:10572000944981679449C1679149944880310862DE
:10573000801E486292488862801EC8629148086351
:10574000801E486390488863C86308644864C864DE
:10575000086548658D4A88658A64C8658C4A0A660A
:10576000921E4A668B4A8A66921ECA668A4A0A67EF
:1057700048678A4A8A67C8678A4B80319A1E8B605D
:10578000CA608861C861884A0862884F8F62961E25
:105790004E610A614862BF1ECF62854F0F63BF1E14
:1057A0004F63844F7E4C8F63BF1E2546CF63824F6D
:1057B0000F64824F4F64A41C30C107461437783100
:1057C0000F61BF1E4F611A3F0F66871F4F660E376E
:1057D0008F66871DCF66071F0F6780316E4FC860C9
:1057E0008F600B6208619B1ECE624B628A62744AB4
:1057F0000A63744A4A63744A8A63921ECA63734A8C
:105800000A64921E4A64724A8A64724ACA641431F3
:1058100031C10863704A8A634863704ACA63704A38
:105820000A64921E4A646F4A8A646F4ACA646F4A65
:105830000A656F4A4A65921E8A656E4ACA656E4A53
:1058400060310A606D4A4A606D4A8A60921E086142
:10585000CA6048616B4A8A616B4A0862CA614862E1
:105860006A4A8A62921ECA62694A0A63921E4A633F
:10587000684A8A63921ECA63674A0A64921E4A642F
:10588000664A8A64C864664A0A65664A4A65664A20
:105890008A65921ECA65654A0A66654A4A66654A0D
:1058A0008A66921ECA66644A0A67644A4A67644AFC
:1058B0008A67644ACA67921C80310A60921C4A60F7
:1058C000921C8A60921CCA60921C0A615E4A4A61FC
:1058D0005E4A8A615E4ACA615E4A0A62921E4A62F2
:1058E0005D4A8A62921ECA625C4A0A638863C86320
:1058F000921E08644A634864594A8A64921ECA64C4
:10590000584A0A65921E4A65574A0A67921E4A67B4
:10591000564A8A67921ECA67554A80310A60921EAB
:105920004A60544A8A60921ECA60534A0A61921EB3
:105930004A61524A8A61524A0A64524A8A66524A03
:10594000CA66524A0A67524A88674A67C867524815
:105950005049016051494160891E81605049C160D0
:1059600050490161891E4161F0BD000030010020F5
:10597000EC27002002000020000000206E00002024
:105980000604002082030020F601002070000020A1
:10599000C6010020CA010020D8010020DC0100203F
:1059A000480000204E000020DA00002046000020C1
:1059B00052000020420100202C000020A8030020FB
:1059C000580100205A010020DA030020760100204F
:1059D000C00100205C010020BC030020BE030020A9
:1059E000CE030020C2030020C003002010040020CA
:1059F0006A030020C403002060030020620300202B
:105A0000760300208C03002064030020460200205F
:105A10004A0200203E020020420200201402002020
:105A200000010020100000205A0000200A00002081
:105A30000C0000205600002012000020140000205E
:105A40002E000020822400203200002004000020CC
:105A5000D0000020DE000020E2000020E600002050
:105A60005E02002062020020D202002026020020F6
:105A70001E020020220200203A020020C80200205C
:105A80000E000020440100204601002048010020B3
:105A90004A010020D4010020EC2B0020CE01002080
:105AA000D6010020D20100207D201A4900010860A3
:105AB000194A01211180194B42101A80184B8A0390
:105AC0001A60184B02221A80174A194B10601748A7
:105AD000002202801748438040238380164BC380F6
