:020000040800F2
:10000000781D0020E101000839650008875B0008C1
:1000100000000000000000000000000000000000E0
:10002000000000000000000000000000256B000838
:100030000000000000000000236B00081902000807
:10004000F301000800000000F3010008F3010008BC
:10005000F3010008F3010008F3010008F3010008B0
:1000600000000000D11C0008E11C0008C11C0008B1
:1000700005180008096D0008156D00080000000053
:10008000F3010008C16D0008F3010008F301000846
:10009000F3010008F3010008F3010008F301000870
:1000A000F3010008F3010008F3010008597B000880
:1000B000897B0008F301000800F002F800F064F802
:1000C00012A030C8083824182D18AC4201D100F015
:1000D0005BF80FCCA246AB460CA730CF2D1B083FD8
:1000E0003F197C427F1E54442D090426F441641EAE
:1000F000AC4201D300F048F80126334200D0FB1A8D
:100100003343984754465D46DFE70000D4A800001B
:10011000F4A80000704700000023002400250026FA
:10012000103A01D378C1FBD8520700D330C100D5B3
:100130000B60704710B5662902D108F0E9FE10BDCA
:1001400003681B0A01D380231943642902D100F0FC
:100150001DF910BDE42902D100F04EF910BD73293C
:1001600002D100F06DFF10BD002010BD1FB500F0E2
:1001700083FF04000020002108F0B4FEE06000F0DE
:100180008BFB1FBD10B510BD01F0EAFA1146FFF759
:10019000EDFF08F0F9F901F002FB03B4FFF7F2FFFD
:1001A00003BC07F050FF000070B505460C4616462C
:1001B00002E00FCC0FC5103E102EFAD2082E02D34B
:1001C00003CC03C5083E042E07D301CC01C5361F5E
:1001D00003E021782970641C6D1C761EF9D270BD75
:1001E0000748804707480047FEE7FEE7FEE7FEE7CF
:1001F000FEE7FEE704480549054A064B7047000044
:10020000056D0008B900000878170020781D00204F
:10021000781900207819002030B410B503488047C1
:1002200030BCAE4630BC02480047000019870008C9
:10023000ED6C000800BF704770474343514330B531
:100240005C18010C130C0D4692B25D4380B2514311
:100250002C19054655430A0C09044D1962415843AF
:10026000010C00044019514130BD70B505461046DF
:100270000C4618430ED000210846891A984127DA07
:1002800000210846491BA04118DA2846214600F003
:10029000BCFB70BD002C03DA01230022DB0707E062
:1002A00000210846491BA04102DA0022D24353082C
:1002B00010461946C046C0462A4627E0002168423B
:1002C000A14100F0A2FB002440428C4121461AE0EB
:1002D00000210846491BA0410CDA21460020524269
:1002E00098410346284600F090FB002440428C4190
:1002F000214670BD002052429841002103466842C9
:10030000A14100F082FB002452429C41234670BD73
:100310000FB41CB5074B06AA7B44694600900598AC
:1003200000F063FE0020694600F072FE1CBC08BCB1
:1003300004B01847F50C000070B50C460546012ABC
:1003400005D02878800600D5EA69002302E0012361
:1003500005E05B1C934202D2E05C0028F9D1A86959
:10036000E618C01AA861286AC01828622846C04644
:10037000C04604E06A682078A968641C9047B442CB
:10038000F8D32846C046C04670BD0000F7B500252A
:1003900075291068009914A611D0C046C0460028DF
:1003A00002DA404211A608E0009909688A0701D5DF
:1003B0000FA602E0490704D50EA6012501E0C046BC
:1003C000C046009F0024243704E000F03DFE303199
:1003D0003955641C0028F8D12B4632462146009836
:1003E00000F09BFBFEBD0000000000002D0000009F
:1003F0002B00000020000000F7B5D21D0025D20818
:1004000015A6D200F52905CA11D0002A05DA002167
:100410004042914111A60A4608E0009909688B07FD
:1004200001D50FA602E0490701D50EA60125114608
:10043000009F0024243704E000F0AAFA30323A5535
:10044000641C02460A43F7D12B46324621460098E7
:1004500000F063FBFEBD0000000000002D00000066
:100460002B00000020000000F8B50F4605460020D4
:1004700028622846E9688847002852D0252802D0FB
:100480006A68A96849E0E9682846002688476C2818
:1004900004460AD0682C08D04C2C37D06A2C33D0B4
:1004A000742C33D07A2C31D015E0E9680646284602
:1004B0008847B042044608D16C2E25D00126B602EA
:1004C0002846E9688847044605E06C2E02D0FF26DE
:1004D000013600E04026002C23D020464138192860
:1004E00003D80120C002064320343A4628462E6035
:1004F0002146FFF71FFE00280CD0012808D0FF1D61
:10050000FF08FF000837B4E78026D9E70026D7E7C1
:100510003F1DAEE76A682046A9689047286A401CDC
:10052000A6E7286AF8BDF8B5042A2CD3830712D0B1
:100530000B78491C0370401C521E83070BD00B78AC
:10054000491C0370401C521E830704D00B78491CC1
:100550000370401C521E8B079B0F05D0C91ADF0089
:100560002023DE1B08C90AE0FFF71EFEF8BD1D466A
:1005700008C9FD401C46B4402C4310C0121F042A79
:10058000F5D2F308C91A521EF0D40B78491C037037
:10059000401C521EEAD40B78491C0370401C012AEF
:1005A000E4D409780170F8BD01E004C0091F0429F2
:1005B000FBD28B0701D50280801CC90700D00270D6
:1005C000704700290BD0C30702D00270401C491E9F
:1005D000022904D3830702D50280801C891EE3E729
:1005E0000022EEE70022DFE782078B079A423FD125
:1005F00070B5920F0AD0032402780B78401C491C76
:10060000002A33D09A4231D12042F5D1214EF40153
:1006100004C808C9951B9543254018D19A420FD1AB
:1006200004C808C9951B9543254010D19A4207D1AB
:1006300004C808C9951B9543254008D19A42E7D0C4
:1006400012BA1BBA01209A4200D2404270BD12BABF
:100650001BBA2DBA18241000E0401900E140401ADE
:1006600005D12E00E64002D1083CF4D1D01A70BD6D
:1006700002780B78401C491C002A09D09A4207D105
:1006800002780B78401C491C002A01D09A42EFD016
:10069000D01A704701010101002203098B4273D374
:1006A000030A8B4258D3030B8B423CD3030C8B427F
:1006B00021D312E003460B437FD4002243088B4230
:1006C00074D303098B425FD3030A8B4244D3030BD9
:1006D0008B4228D3030C8B420DD30902FF2212BA9E
:1006E000030C8B4202D31212090265D0030B8B421A
:1006F00019D300E0090AC30B8B4201D3CB03C01A04
:100700005241830B8B4201D38B03C01A5241430BDE
:100710008B4201D34B03C01A5241030B8B4201D3CE
:100720000B03C01A5241C30A8B4201D3CB02C01A39
:100730005241830A8B4201D38B02C01A5241430AB1
:100740008B4201D34B02C01A5241030A8B4201D3A0
:100750000B02C01A5241CDD2C3098B4201D3CB0147
:10076000C01A524183098B4201D38B01C01A5241F6
:1007700043098B4201D34B01C01A524103098B42FA
:1007800001D30B01C01A5241C3088B4201D3CB00E5
:10079000C01A524183088B4201D38B00C01A5241C8
:1007A00043088B4201D34B00C01A5241411A00D278
:1007B00001465241104670475DE0CA0F00D04942E1
:1007C000031000D3404253409C46002203098B4251
:1007D0002DD3030A8B4212D38901FC2212BA030AD9
:1007E0008B420CD3890192118B4208D3890192115B
:1007F0008B4204D389013AD0921100E08909C309E0
:100800008B4201D3CB01C01A524183098B4201D3E1
:100810008B01C01A524143098B4201D34B01C01ACC
:10082000524103098B4201D30B01C01A5241C30844
:100830008B4201D3CB00C01A524183088B4201D3B3
:100840008B00C01A5241D9D243088B4201D34B00CE
:10085000C01A5241411A00D2014652411046634625
:100860005B1001D34042002B00D5494270476346DC
:100870005B1000D3404201B50449002802DC491C4A
:10088000084000E00846C046C04602BDFFFFFF7FAB
:10089000704770477047000008487CB57844009066
:1008A00007487844009C0546019004E02046016812
:1008B00008188047241DAC42F8D17CBD7CA1000003
:1008C0007AA1000030B50346CA02400D1043164D10
:1008D000164C0A1502D02043002A06DBAA1A002A69
:1008E00012DDD040FF2A0BDC30BD5205520D01D184
:1008F00040004008AA1A07D4D0404042FF2A01DD38
:10090000002030BD0028FCDD4A00002B01D0012072
:1009100000E00020101801225205D042F0D8C8177C
:10092000C043604030BD00001E0400000000008095
:100930001F22030C02D10F2200041CD0030E01D190
:100940000002083A030F01D10001121F830F01D1E9
:100950008000921E002801DB4000521ED205511873
:10096000021251181922904004D3491C002801D1C9
:100970004908490008467047C10FC90700D04042E6
:10098000012292071143D3E701218907D0E770477D
:100990000B4670B5024689078008084319469D0832
:1009A000141AA94125090807054308092C194841CB
:1009B000250A01060D43010A2C194141200C0D04A2
:1009C00028430D0C00194D41002140194D41C0082C
:1009D00069070843E908840F8D0025438400241823
:1009E0004D4124196D41121BAB4107E00925ED4330
:1009F0002C11521963410024401C61411C460A25F8
:100A00000026551BB441F1D270BDFEB50446104618
:100A10000D46184373D0A6468C460020A41A014602
:100A20009D4167D36646002701243D46B61A9D4185
:100A300002D313463A462124654676462F04360CE7
:100A40003E432D0CB61A9D4104D3150C1B042B43B9
:100A500012041034654676462F06360A3E432D0AA8
:100A6000B61A9D4104D3150E1B022B431202083403
:100A7000654676462F0736093E432D09B61A9D4135
:100A800004D3150F1B012B431201241D6546764626
:100A9000AF07B6083E43AD08B61A9D4104D3950F83
:100AA0009B002B439200A41C65467646EF07760810
:100AB0003E436D08B61A9D411AD392185B41641CDF
:100AC00016E00018764665464941B71A9D410191E6
:100AD000009009D36046B11A98418E46844600982A
:100AE00001990025401C6941DD0752082A435B0833
:100AF000641EE6D57246634603B0F0BDFFE72046AC
:100B0000284307D00020C0430146C046C0462246C5
:100B10002B46F1E700200146F7E7FFB504460D46F6
:100B200081B0243000902168880604D51022E06945
:100B30009143216000E00120A84201DD471B00E055
:100B400000270498A1697A191018081AA061207862
:100B5000C00602D42046C046C046002608E00398DE
:100B60006268A168805D9047206A401C761C206204
:100B700004988642F3DB2078C0060AD52046C0469A
:100B8000C04606E06268A16830209047206A401C99
:100B9000206238467F1E0028F4DC07E00098626877
:100BA000A168405D9047206A401C206228466D1E67
:100BB0000028F3DC2046C046C0462078000602D557
:100BC000022005B0F0BD0120FBE70000FFB50C4698
:100BD0001E468FB003CA089009914F007D0D00D1C9
:100BE0006D1E002108460020C0460321099A890590
:100BF0000840002A03DA8200801840080840800D6F
:100C000001280A9002DD0020C0430A90089807439B
:100C10000DD0F048F04928184843071418980028C8
:100C20001DD07542291E1DDD0A9842421BE018980E
:100C3000012802D00020302104E00020F24305E02A
:100C40002154401CB042FBDB30460022189B00219F
:100C500021540F998B600A60486013B0F0BDBD1B32
:100C60006D1CDFE70A9A002900DA69420BA800F040
:100C70004BFA0BAB07CB03AB07C30899099800F0FD
:100C8000AFFA6B4607C30146D4480918002D0091FE
:100C90000BDDD24903980A9A49424018002303A960
:100CA0000390684600F00CFD08E003990A9A0023BF
:100CB000081803A90390684600F0ACFC6B4607C314
:100CC0000004000C03D00020C043410800E010469F
:100CD000189A002A03D00022009215461EE0751EC5
:100CE00005D4FFF755FE303262556D1EF9D501224D
:100CF0000843079602D000227F1C04E020783028A9
:100D000001D100227F1E002A069787D01EE0112DF8
:100D100007DAFFF73DFE303262556D1C02460A438A
:100D2000F5D1084303D00098002819D00EE0002127
:100D3000681E05E0235C625C63542254401E491C1B
:100D40008142F7DBA81B401E07950690079A189969
:100D50000020A0540F98079B069A81600CC07CE786
:100D600011260020189059E7D21DF0B50D46044613
:100D7000D10893B0C90003C90C900D9108F09CF8FC
:100D800002460D98C00F01D02D2007E02068810792
:100D900001D52B2002E04007C00F4001032A0F902D
:100DA00001D0072A05DB03462946204600F068F9F2
:100DB0000EE12078800601D5E76900E00627284685
:100DC000652D04D0662814D0672D69D12DE0002050
:100DD000112F009001DB112300E07B1C0CAA03A95A
:100DE00010A8FFF7F3FE1199002610987D1C0E91B4
:100DF00042E001203B460CAAC0070B900120009066
:100E000003A910A8FFF7E2FE119D12981099002681
:100E100000280E9501D1781C0D18781B02D446428B
:100E20007D1C761EE81B00903AE0012F00DA0127B6
:100E30000020112F009001DD112300E03B460CAA99
:100E400003A910A8FFF7C2FE11993D46109800268D
:100E50000E91217809070BD40E99A94200DA0D46AC
:100E600003A9012D04DD4A19203AD27F302A06D089
:100E7000B84201DA011D04DA012100910FE06D1E74
:100E8000EFE7002802DC86192D1A03E0411CA94275
:100E900000DD0D46801B401C00900120C0070B9018
:100EA0002078000705D40098A84202DB0020C04348
:100EB000009069460020C8720B98012102AF0337E9
:100EC000C907884225D0022010902B2011900B9842
:100ED00000280BDA40420B902D20119006E00B9871
:100EE00000F0B2F830317F1E0B9039701099481E17
:100EF00000291090F3DC0B980028F0D111987F1E88
:100F000038702088000501D5452000E065207F1E4F
:100F1000387001A8C01BC01D0B900F98002800D08E
:100F2000012041190098C01709180B980818A169E9
:100F3000081A401EA0612078C00602D42046C04690
:100F4000C0460F98002805D06268A1689047206AC3
:100F5000401C20622078C00625D52046C046C046E9
:100F600021E0002E07DB0E98B04204DD03A8626882
:100F7000805DA16802E06268A16830209047206A25
:100F8000761C401C20620098401E002800900AD168
:100F900000F072F8C06862680168405CA168904720
:100FA000206A401C206228466D1E0028D9DC07E01C
:100FB00062683878A1687F1C9047206A401C2062D4
:100FC0000B99481E00290B90F2DC2046C046C04613
:100FD000032042E601FCFFFF104D0000E1DFFFFFB0
:100FE00001694A1C02610878704700B58FB0029110
:100FF000002105910549019379440391114604901C
:101000006846FFF731FA0FB000BD0000E5FFFFFFB3
:101010000A681070521C0A60704710B54369002BB3
:1010200002D0C046C04601E0FFF786F9012010BD9E
:101030001278014624310A7000224A700122ECE73E
:1010400011680022D243E8E701468008081A020925
:101050001018020A1018020C1018C008820012188A
:101060005200891A01E0401C0A390A29FBD2704754
:1010700000487047E0050020004870470006002047
:10108000F8B51F46044601230068DB02032601462B
:101090001840072A05DB002801D017A506E017A590
:1010A00004E0002801D016A500E016A51020814319
:1010B0002160A069C01E002FA06101D0401EA06168
:1010C0002046C046C046002F09D038466268A16855
:1010D0009047206A401C2062C01C206206E0206A03
:1010E000FAE762682878A1686D1C9047761EF8D2EE
:1010F0002046C046C046F8BD4E414E006E616E00AF
:10110000494E4600696E6600F7B516468AB0334808
:1011100078446C4603467C33C06F5A689B680DC4A4
:101120002E487844763003AC0DC80DC43720C0017A
:10113000081837211B30FFF7BDFA05460C46803DE5
:101140001B3C02D56442012000E0002000270990EA
:1011500010E0E0070CD00C20204978437944324657
:101160004C3941186846012300F054FA6B4607C316
:1011700064107F1C002CECD1184F7F442E3F16E0EA
:10118000E80712D02001C0190EC8069108930792F3
:101190000068F04201D1981908903246012306A94F
:1011A00003A800F037FA03AB07C36D10641C002DD1
:1011B000E6D10998002806D032466946012303A8E3
:1011C00000F07EFA05E001233246694603A800F0EC
:1011D00021FA0A9B07C30DB0F0BD00000C7E000091
:1011E000034640000A4610B5400D0BD00121C90747
:1011F0000F24A40200191C0364082143540D214349
:10120000D20207E000210120F2E7D40F4900214378
:101210005200401E0029F8DADB0FDB07184310BD2F
:10122000FFB50D46144685B04868516807F02BFE9F
:1012300000910190A868A16807F025FE0291039033
:10124000A868616807F01FFE029A12188242029293
:1012500001D2012000E00020019A0B18D2180028CA
:10126000019202D08A4202D903E08A4201D20120CF
:1012700000E000200099081800906868A16807F055
:1012800002FE029A12188242029201D2012000E06C
:101290000020019A0B18D2180028019202D08A422D
:1012A00002D903E08A4201D2012000E00020009927
:1012B0000818009028682168400049004008490843
:1012C0004018FA49471814E001994000C90F084333
:1012D0000090019802994000C90F084301900298BC
:1012E00003994000C90F08430290039840007F1EF5
:1012F000039000980028E7DA0898002801D0EC4E07
:1013000000E00026B74201DA012000E000200028BA
:1013100004902AD0F71BF806C00E15D0029B20219E
:10132000091A039A8B401A430392029A019BC24006
:101330008B401A430292019A009BC2408B40009955
:101340001A430192C14000917B110DD06F460320DA
:10135000C11A03D500218200B95003E08A00810040
:10136000BA587A50401EF3D53746039802990028A0
:1013700000D00120014308980291002808460CD0B3
:10138000002800D001200199019A49050843012154
:10139000D20AC902D202019200E001210E9B012271
:1013A000D207012B02D0002B03D013E0002807D175
:1013B00020E0904204D890420CD1019B0B4209D00E
:1013C000019B5918019105D10099491C009101D147
:1013D0007F1C009200280DD0102108460020C04636
:1013E0000498002806D00F98002803D0082108464A
:1013F0000020C04628682168019B009A4840C10F20
:101400000598C90739430EC009B0F0BDFFB587B0D4
:10141000099A0898089953689268406889689646BE
:101420000022039317469446089A12685300099ABB
:101430005B081268520052089A1A9E4BD4180A9AF6
:10144000002A01D0352200E040220692002201232A
:1014500015460492DB07059324E0002D05D175465F
:101460000346039E4D1BB34109D375466646039B55
:10147000491B049D9841059B7519AC465F41634625
:101480003B4308D0059B049EDD0776082E435B088E
:101490000496059301E0521E641EC50FED0749181E
:1014A0004041521C069B9A42D7DB002D04D1754661
:1014B000039A6B1A824101D203200CE0039A0B4677
:1014C0006B404240134303D0014303D0012002E0AC
:1014D000022000E000206146019100210097029166
:1014E0000A99002905D0614640020143704B0191E1
:1014F00002E08007002302909C4201DA012000E014
:10150000002007003AD01A1BD006C00E15D0029D4D
:101510002021019C091AC5408C402543029C8C4027
:1015200000D001242543019C0295009DC4408D40BC
:1015300000992C430194C140009154111DD06D4677
:101540000221002202290CD10320001B07E0002801
:1015500004DB8600AE59002E00D00122401C032877
:10156000F5DB081B02D588002A5004E080002858CB
:1015700010438A00A850491EE3D51C460A9800284B
:1015800002980CD0002800D001200199019A490549
:1015900008430121D20AC902D202019200E00121CE
:1015A000109B0122D207012B02D0002B03D013E0A5
:1015B000002807D11FE0904204D890420CD1019B33
:1015C0000B4209D0019B5918019105D10099491C82
:1015D000009101D1641C009200280CD01021084613
:1015E0000020C046002F06D01198002803D0082103
:1015F00008460020C04608980999019A009B006897
:1016000009684840C10F0798C907214382600AC092
:101610000BB0F0BD00B585B0019300920A460146BB
:10162000002302A8FFF7FCFD02A807C805B000BD13
:10163000FFB50A461F4685B0079901930123009123
:10164000014602A8FFF7ECFD02990398049ECA0F19
:101650004900D20700920F22490892028C1A0021F9
:10166000002800DB0C46450013486D08844214D363
:10167000079A002A04DA441E0026104DF64302E0C1
:1016800004460D460E46102108460020C046002F95
:1016900003D0042108460020C0462005E90A08437B
:1016A000009908436905F20A1143ADE602C0FFFF45
:1016B000013C0000FF3F0000FF070000FFFFFF7F2D
:1016C00000B585B0019300920A460146002302A8A6
:1016D000FFF79CFE02A807C8A8E7FFB50A461F4609
:1016E00085B00799019301230091014602A8FFF7F5
:1016F0008DFE02990398049ECA0F4900D2070092FA
:101700000F22490892028C1A0021002800DB0C46A7
:10171000450011486D08844214D3079A002A04DA60
:10172000441E00260D4DF64302E004460D460E46CB
:10173000102108460020C046002F03D0042108468F
:101740000020C0462005E90A0843009908436905BE
:10175000F20A114358E60000FF070000FFFFFF7F79
:101760007546FFF785FCAE46050069465346C0083E
:10177000C000854618B020B5FEF73CFD60BCB646FB
:1017800000260027C0C5C0C5C0C5C0C5C0C5C0C5EE
:10179000C0C5C0C5403D490849008D46704710B5D9
:1017A0000446C046C0462046FEF7F7FC10BD70B5A3
:1017B0008C180578401C6B075B0F01D10378401C27
:1017C0002A1106D10278401C03E00678401C0E70F6
:1017D000491C5B1EF9D12B0705D40023521E0DD4E2
:1017E0000B70491CFAE70378401CCB1A921C03E0EB
:1017F0001D780D70491C5B1C521EF9D5A142D8D32F
:10180000002070BD80B5024800F02DFF80BDC046AD
:10181000CC120020B0B50146806A836D826D5024E1
:10182000234206D0D20610D4006D426B0846904782
:10183000B0BD01214B021A4382650268D3681B05C3
:101840009B0F05D000F00CFFB0BD00F00BFFB0BD4A
:10185000837E002BF6D113681B07F3D593685B07D3
:101860000AD40346583354680C25AC435460FF2413
:1018700002341A68A24306E0826D20231343836575
:1018800003465C33C26D0A431A6000F0E9FEB0BD46
:1018900080B5806A816D40220A438265C16D042251
:1018A0000A43C26500F0DEFE80BD80B5806A00F0AC
:1018B000D8FE80BD70B50546006881688268002446
:1018C000D20726D00222114023D1816805220A4086
:1018D000012A16D18168374A0A40911C8160032190
:1018E000016001F0F5FB064628688068C00710D04B
:1018F00001F0EEFB801B0328F6D328688068C00740
:10190000F2D0A86D10210143A965E86D01242043A0
:10191000E865204670BDC046F0B581B0054600249C
:10192000009400688168C9071AD18168214A2F3262
:10193000114208D0A86D10210143A965E86D01246A
:101940002043E8650CE081681A4A114001273943B9
:10195000816019480068000205D4687E01280FD113
:10196000204601B0F0BD15480068154907F090F910
:10197000401C009000980028EFD00098401EF8E727
:1019800001F0A6FB064628680168C907E8D181680E
:10199000C90704D18168074A11403943816001F0C9
:1019A00097FB801B0328EED328680068C007EAD1A4
:1019B000C0E7C046E8FFFF7F082701402401002060
:1019C000400D030080B5C26E904780BDF0B581B078
:1019D0001C4616460F460546C021FEF703FE0020B2
:1019E00001212970C143134A28616861A861EA6135
:1019F00029626962A962E962E8652A636864A86489
:101A0000E86428656865012F05D00C486867012FD8
:101A100005D1414804E008486867012FF9D03D48E6
:101A20000749E9662867EF7006986E60AC60E86069
:101A300001B0F0BDFFFFFF7FA5800008B780000860
:101A4000D97E000882B0B0B582B00C4606920793EA
:101A5000487006A90191042846D8C0467844007908
:101A60004000874402070C111600E078012815D1C8
:101A7000294838E0E078012812D0254811E0E078C4
:101A8000012819D0204818E0E078012822D01C480D
:101A900021E0E078012825D1174824E01D4822E004
:101AA0001A4820670198C51D0720854303CD083DCE
:101AB000FEF708FFA0620AE0124820670198C51DE2
:101AC0000720854303CD083DFEF7FCFEE0620835A4
:101AD000019509E0094820670198011D01910068FE
:101AE000A06701E00348206702B0B0BC01BC02B0AF
:101AF0000047C046CF8300084D8300082D830008AF
:101B0000AB830008E782000873830008178300088E
:101B10009183000863830008DD82000880B50A46CF
:101B200001464078022801D1CA6280BD0220FFF739
:101B300089FF80BD01637047C1637047816370474F
:101B400080B5006906F0B4FE002080BDF0B587B016
:101B500005920491064645208000F16931503718FE
:101B6000706A7860746C7C61F96040004118484884
:101B700048437D21C900069107F0ACF83861BA20CE
:101B8000305C0390204606F077FA3862204606F073
:101B900063FA05467862F9683A693B6A0C465C4329
:101BA0005043001BC417A40C001980135A434D4323
:101BB0005119CA17920C89188913B961F86135480F
:101BC0009449085C400760D523200001301801903B
:101BD0004F20800034180498039D684340420090D1
:101BE00006F0E0FA0290049120460099FFF7A6FF64
:101BF0007F20800036180598684341423046FFF741
:101C00009DFFB9692046FFF797FFF9693046FFF756
:101C100093FF012520462946FFF7D4FE304629468A
:101C2000FFF7D0FE01980068069E314607F052F893
:101C30000446194805686C43FC61F86D314607F0AD
:101C400049F86843B861396A7A6A234653430546BE
:101C50004D43EB18DD17AD0C5B199B134C43504300
:101C6000001BC117890C40188013F8603B6106F017
:101C700099FA0A4A1268D317029CA218049C63417D
:101C8000074C801A20609941616007B0F0BDC046E2
:101C9000410200003C040000D80500201807002085
:101CA0005017002080B500697D210A01A82142500B
:101CB0000146A8314968FFF749FF002080BD0000B8
:101CC00080B5024800F0DEFF80BDC0468C130020C6
:101CD00080B5024800F0D6FF80BDC046301300201A
:101CE00080B5024800F0CEFF80BDC046E81300205A
:101CF000EFF3108072B6FEE7F0B583B0BE20454A20
:101D0000145A45486043C00C0A264643E008434D38
:101D10006843000D7D210191C90002914843201ABA
:101D200080B200903E4FA1B209093E4B4B43D90C03
:101D30003D4803464B43E31A9BB2DB08844203D37E
:101D40003A4A34488154334AA41B009847437D2BB8
:101D500003D35D43280DB8215052380C2104019D56
:101D60000AD0A1B214466A014A43314B1A602A01D3
:101D70004A4330490A602246401E4028029B00D94F
:101D800046E0C04678440079400087443F20222541
:101D90002741412A2C2F41413141413441414141A8
:101DA00041414141413741414141413A4141414134
:101DB0004141414141414141414141414141414113
:101DC0004141414141414141414141413D002B019E
:101DD0001CE02B01303319E06B0117E06B0160331D
:101DE00014E0AB0112E0AB01C0330FE00E4B0DE08D
:101DF000012043040AE00120830307E0012083045B
:101E000004E00120C30301E0012003049C201350DF
:101E100003B0F0BD50010020CDCC0000C520000073
:101E20009A19000047030000102700006404000016
:101E3000C0050020C4050020F0B587B0CF498968EF
:101E400004292BD8092252010469A618CA4AA518E8
:101E50000346274698372046BA30C0467944097968
:101E600049008F4402548EA31E0001260670A878F4
:101E7000DF210140A97028781021014329702046F4
:101E8000BE4F06F0CDFC287804210143297006F0EE
:101E90001DFA3864796400206064BE60002007B0D9
:101EA000F0BD3946049405950693B44A16695769FE
:101EB000B74200DBA4E0FF24047008460A8C052129
:101EC000029251434568284606F004FFF11B884200
:101ED000039400DBC7E0BC1B0321029841432F465B
:101EE000284606F0F7FE8442069C3046059E049D77
:101EF00000DBACE00021E963B27801211143B1704D
:101F00003946FEF7D7FB791AFF2003909EE00022A6
:101F10004B20C100606C3346083307C3144606F0FB
:101F2000ABF87061B06806F097F8B06133460C33D7
:101F30000ECB05465543484359434919CD17AD0CBF
:101F4000491989135A43801AC217920C80188013BA
:101F500003C606F0BBF9894A126C884B5B6C801A89
:101F600099413A5FD317101A8B41844896DA044698
:101F700006F0ACF9206461640220A060002007B084
:101F8000F0BDE06B7D4DA86106F0A0F92A6C6B6C8A
:101F9000801A99410022BA5ED317101A8B4100DBD8
:101FA0007CE70320A860002007B0F0BD734DE8680F
:101FB000411CE960606C032971D10021B060F160BF
:101FC000316106F059F87061B06806F045F8B0610B
:101FD00033460C330ECB0446544348435943091946
:101FE000CC17A40C091989135A43801AC217920CF2
:101FF0008018801303C60420A860002007B0F0BD3D
:102000000125057008460A8C05210192514340685C
:10201000029006F05FFEBC1BA042039523DA032169
:1020200001984143029F384606F054FE8442069CC4
:102030003046059E049D0ADA0021E963B278012149
:1020400003910A43B2703946FEF734FB2987B07812
:10205000C1070ED1284606F00AFC3078FB2101406A
:102060003170B0780BE0069C059E049DB078C107E6
:10207000F0D01249039A0A80298F114A11803F4AF1
:102080000021116451649160D16020210143B1703D
:10209000E168204606F0A4FD002007B0F0BDA96964
:1020A000002803D000206064696102E00548606494
:1020B00029610120A860002007B0F0BDD0050020F4
:1020C0006C17002023060000F0B581B004692B4D89
:1020D000287800281CD1284820180178EF220A40CF
:1020E00002708178DF220A408270C178F6220A40AD
:1020F000C27006F0EFF828666966204606F0B7FB66
:10210000204606F067FB204606F077FB012028708A
:10211000686B0090411CCA0F8A1801239A438E1ADB
:10212000B20017A39A5897B223681B68DF636963EC
:102130007D214F019F63F600AE19B76EE069C517A8
:102140003818B066F06E6841F0664805606022811C
:10215000002058638A00094C236E9A182266626E2A
:1021600042416266C8000099814201DB06F0B2F884
:10217000002001B0F0BDC0463C0400005007002024
:1021800000000000A00F0000B0B53C490A68824280
:1021900002DA002000B2B0BD4A68824201DA0024AF
:1021A00058E08A68824201DA012453E0CA68824218
:1021B00001DA02244EE00A69824201DA032449E08E
:1021C0004A69824201DA042444E08A69824201DADF
:1021D00005243FE0CA69824201DA06243AE00A6A2D
:1021E000824201DA072435E04A6A824201DA082491
:1021F00030E08A6A824201DA09242BE0CA6A82420C
:1022000001DA0A2426E00A6B824201DA0B2421E07B
:102210004A6B824201DA0C241CE08A6B824201DAAA
:102220000D2417E0CA6B824201DA0E2412E00A6C18
:10223000824201DA0F240DE04A6C824201DA102456
:1022400008E08A6C824201DA112403E0CA6C8242FF
:102250000CDA1224A300CB58991A181A32256843B5
:1022600006F038FD6543401900B2B0BD096D8142EA
:102270008FDA7D20C00000B2B0BDC046C80000208B
:10228000F0B589B00746002508955420385C012830
:1022900002D1022009B0F0BD3E465436012006901E
:1022A00030703846FFF706FB3C68A268B96DD2076C
:1022B0004CD104960290812252009143891C0597CB
:1022C000B965E168E268464B1340E3604548084061
:1022D00001902146B4314448444E2F4603952B4685
:1022E000A268024018301043A060A268002A06D5F8
:1022F000089A521C0892089AB242F6D32CE00D6854
:102300007F221540EB187F1C082F3748E8D1A168C1
:102310000140012506952943A160DB082169890F49
:1023200027D10F218904C84D2D680D40A90C07291C
:102330001FD3C91E01258D400795079949080791AC
:102340000799002915D00799491EF8E71022114373
:102350003570B96509B0F0BD002004990870059A80
:10236000906D10210143022081439165069809B0C8
:10237000F0BDB421655895431D436550A1680140E7
:1023800002263143A16000F0A3FE0446059F386891
:102390008168C907039D0ED1C168019A1143C160CC
:1023A000B86D01210143B1430298049ED0E738681B
:1023B0008168C907F0D000F08BFE001B0328F6D31C
:1023C00038688068C007F2D0B86D10210143B96544
:1023D000F86D06990843F865084609B0F0BDC04697
:1023E000FC7FFFFF03800000E8FFFF7F00F2020098
:1023F0007047704770477047F0B587B00025069565
:102400005422825C012A01D10224E1E006465436BE
:1024100001243470026893685B0725D404694B6813
:10242000022B26D1042004438548844207D18348E7
:10243000C0430B68DB430343906A184090620A680C
:102440000024002A00D4C2E07F480168804B9A42F1
:1024500000D1B0E07F4B9A4200D1AFE07B4B9A4273
:1024600000D0B4E00522A7E0816D20220A438265F6
:10247000ADE0059304273C43714B9C423BD1086877
:102480006E4B1840936A0343936250690B681C02B9
:10249000A043896821406B4C0C40044354610024E4
:1024A000002B00D493E001200590674F3A68072085
:1024B00080051146049001406448834263D1059829
:1024C000C00517460740604F5DD13A68049B9A43A8
:1024D00011430143396060480068604906F0D8FB49
:1024E0000C2141430C310691069800286FD00698C4
:1024F000401E0690F8E71F24059B1C400F23009305
:102500000494A340046E01939C4303940B684B4CCA
:10251000234202934CD0DB072C4661D1029CA307D7
:1025200059D4630759D4230759D4E3063C4657D4FA
:10253000029CA3066AD463066AD423066AD4E30520
:102540006AD4029B9B0569D4029B5B0568D4029BFD
:102550001B0567D4029BDB0466D4029B9B0465D4F5
:10256000029B5B0464D4029B1B04009C38D4029B36
:10257000DB035FD4029B9B035ED4029B5B03DB17F0
:1025800012241C402CE03248834203D105980006F7
:10259000814206D32F48834219D105988005024015
:1025A00015D13A68049B9A431143014339600EE008
:1025B0005B00DC0E14E00322920501E00322D20549
:1025C0001140072292050368934359180160357042
:1025D000204607B0F0BD012402E0022400E00324FD
:1025E000049FBC40039B1C430466059B9B08C06979
:1025F000984200D849E70198C043936A0340029883
:102600008000000FB840184390623EE70524E7E7DA
:102610000624E5E70724E3E70824E1E70924DFE7E8
:102620000A24DDE70B24DBE70C24D9E70D24D7E7E8
:102630000E24D5E71024D3E71124D1E7FFFF0700CC
:102640000400008000FFFF0708270140001000B0D1
:10265000004000B8002000B424010020400D030019
:10266000704770477047F0B585B00446006803684E
:102670000225194629404A424A41466830462840C8
:1026800041424141114304930DD1A06DC00604D4D1
:102690000120C002A16D0143A1652046FFF7A9FEFC
:1026A00020680560049B01220421314048424841D2
:1026B0005907114600D5014657020129039209D155
:1026C00008213140484248411907114600D50146CA
:1026D000002930D120465830A16DC90602D40168C6
:1026E000394301602168CA681205920F1BD1A27E8E
:1026F000002A18D10A68120715D58A68520708D42B
:102700004A680C239A434A60FF22023201689143CF
:1027100006E0A06D20210143A16520465C30E16DFB
:1027200001220A4302602046FFF79AFF20680C212D
:102730000160049B039A0195802531462940484257
:1027400048411906114600D50146029700290BD1D0
:1027500001200004A16D0143A165204600F076F937
:10276000039A049B2068056001252F0231463940F9
:1027700048424841D905114600D5014600290AD1F1
:102780006804A16D0143A1652046FFF733FE039A5B
:10279000049B206807603146029F39404842484107
:1027A0003B42114600D0014600290AD1A804A16D80
:1027B0000143A1652046FFF71EFE039A049B206893
:1027C000076010273146394048424841D906114632
:1027D00000D50146002915D1206B002803D02068C0
:1027E000C06880070CD0A802A16D0143A165E06D0F
:1027F00001990843E0652046FFF734FF039A049BE4
:10280000206807606D032E4070427041990403D424
:10281000002A04D005B0F0BD0246002AFAD12046B5
:10282000FFF7E6FD2068056005B0F0BDF0B589B0A2
:10283000044600200890002C61D00790A06D00286D
:1028400007D125465435204600F002F900202870B3
:10285000E06501273D072668B068C00012D4B06863
:10286000744901402943B16073480068734906F018
:102870000FFA4000801C08900898002802D00898A1
:10288000401EF8E7B068284208D1A06D102101432E
:10289000A165E06D012107910843E065B06804215E
:1028A0000140A26D102002405118A16D2AD105905F
:1028B0000F20C2430692F33A1140891CA165B1680A
:1028C000C90779D1039027462037216B4A1E9141D1
:1028D0000A03A168237E9B030B43617EC90319434E
:1028E000A57E68030843E368034313430120C2073E
:1028F000216900290490029209DA914308E001203D
:1029000009B0F0BD0143A165384609B0F0BD4105ED
:102910000B43387B42001A43387801280DD1002D33
:1029200008D0A06D20210143A165E06D0499084302
:10293000E06502E0049800040243636A002B06D0BD
:10294000072080010340A16A1943114300E01146AA
:10295000F0683B4A02400A43F2600320850763683F
:102960001A462A40E16C387F01280ED1206C009075
:10297000676CA06C019000980743019807431743C8
:102980000F43049807433A4600E00A43039F306927
:102990002C49014011433161029883420CD0AB4273
:1029A0000AD004988007834206D0B8040340264921
:1029B0000A688243D0180860706907229043676BE9
:1029C00038437061706970218843A16B090101432C
:1029D0007161216901235805814205D000290ED17A
:1029E000B06A0699084309E0B06AE06980001C30CB
:1029F0001C210140069D8D40206E2843B062706905
:102A00001040B8420AD10020E065A06D01210143C9
:102A100002208143A165079809B0F0BDA06D05991A
:102A2000084302218843A065E06D1843E06518461D
:102A300009B0F0BDE8FFFF6F24010020400D030046
:102A40000102DEFF02FCFF1F082701407047000063
:102A5000F0B587B00446002606960596006823491F
:102A6000884201D007B0F0BD012738052049CA6867
:102A70000243CA60CA68024001920198086838435C
:102A800008600868384001900496032003903F20B6
:102A90000290019805200090000702A900F044FA76
:102AA0007803144D28622020F9023A028023124F45
:102AB0002F60009F6F60AE60EE602B616A61A9615C
:102AC000E861284600F04EF9002801D0FFF710F920
:102AD000AC6225650C2401210022204600F068FB31
:102AE000204600F059FB07B0F0BDC046002401406D
:102AF000341002403013002008000240F0B581B0CD
:102B00000E46044601688B6802205B071BD40092C6
:102B10005422A25C012A16D02746543701253D7065
:102B2000C868C0070AD18868C00704D08868194AF5
:102B30000240901C8860C8682843C8602046FEF7A1
:102B4000EBFE002801D001B0F0BDA06D124901409C
:102B500028020818A0650020E06521681C220A6090
:102B60003870206D0D4A0E4B0E4DC56203634263F3
:102B70004A68102313434B6040313246009B00F0FB
:102B80006DF921688A68034B13401A1D8A6001B0F1
:102B9000F0BDC046E8FFFF7FFEF0FFFF9118000880
:102BA000AB1800081518000870B500282AD0014697
:102BB00024314A78022A27D1046822680E239A43D6
:102BC0002260426C15682E4B1D401560256801225D
:102BD00095432560046C1C2525401446AC40D14D1E
:102BE0002E6826432E60846CC56C6560046D002CD5
:102BF00005D025681D402560436D806D58604A7082
:102C0000002004E0012070BD0422C26301200022E4
:102C10000A7070BD70B5014624314A78022A2BD162
:102C200003681A680E24A2431A601C6801229443A8
:102C30001C60446C2568124B1D402560046C1C25EB
:102C400025401446AC40B74D2E6826432E60846C58
:102C5000C56C6560046D002C05D025681D4025609D
:102C6000436D846D5C6000240C704A70816B002998
:102C700000D08847204670BD0421C163012070BD8B
:102C8000FFFEFFFFF0B585B0A649091F0E68026878
:102C90001368042502932B405F425F410490046C4B
:102CA0001C232340294699400C4603963440604239
:102CB0006041384331D0019201210227029E304603
:102CC0003840444244419F40039D2F420A4600D071
:102CD000214604980446243400292FD008200640B9
:102CE00077427741DD40280700D53A46002A23D1B4
:102CF000019A10680E2188431060012529469940E9
:102D0000884802680A4302600498C5630021217064
:102D10006570416B00290ED10EE01068800602D468
:102D20001068A84310607F4A106808431060049838
:102D3000016B002900D0884705B0F0BD019B1968E0
:102D4000890605D41A680A218A431A600121617034
:102D500000212170734A116839431160C16A00294A
:102D6000E9D1E9E7F0B587B000285ED00446014616
:102D700024310220069148702768386832490140A2
:102D80003960324E30468030A064314838181425FE
:102D9000294605F07DFF800081192064059161645A
:102DA000FC2038400838294605F072FF1F220240F7
:102DB000012005469540E564A168039126460C363E
:102DC0004ACEA2690192E2690292226A04920B43FE
:102DD000334301990B4302990B4304990B43396820
:102DE0001943039A11433960064681038A4201D18F
:102DF0000021616061683F230B4005980360154A1C
:102E00001560481E032813D8581E8100511800234E
:102E1000CB67BC3203230340304698407C312165A8
:102E20006265A0650C49086006E0012007B0F0BDAE
:102E3000002020656065A0650020E06306990870A9
:102E40004E7007B0F0BDC0460F80FFFF0008024083
:102E5000F8FFFDBF8408024044090240F0B582B08B
:102E600004462420205C012802D1022002B0F0BDDB
:102E7000174625462435012028706A78012A2DD16D
:102E8000022068700020E06325682A680126019608
:102E9000B2432A60A26CE66C5660226D0092002A52
:102EA00002D0626DA66D5660226C1C261640019AF7
:102EB000B2401C4E366816431A4A16606B60A3680F
:102EC000102B3A4600D00A46AA60102B00D0394693
:102ED000E960216B002907D00E210AE0002129704A
:102EE0008021E16302B0F0BD29680422914329608A
:102EF0000A212A680A432A6001990902626C136850
:102F0000DB0302D513680B431360009B002B02D038
:102F10001A680A431A602968019A1143296002B0AD
:102F2000F0BDC04604000240F0B589B006900B68C1
:102F3000002B00D1B1E05A48069A824201D0052008
:102F400000E003200090002608963446374603919F
:102F50000EE01843544A10607F1C0B681846F84076
:102F60000836089A121D0892A41C002800D194E08B
:102F700001250195BD402B400493EDD04968032203
:102F80000B461340581E01280796059211D810468B
:102F9000A040069EB26882430398C068A0401043D8
:102FA000B060C806C00FB8407268AA43024372609E
:102FB000059A032B0399069D1CD01046A040EA6891
:102FC00082438868A0401043059AE860022B11D123
:102FD0001C20089908400F218140FA089200AA1885
:102FE000136A8B4303990D6985401D43039915624C
:102FF000059A069D1046A0402B68834348688603C7
:1030000002961040A040184328600298800F079E47
:10301000A2D038469043234A13181E6E052000079D
:10302000069A82420AD02148824205D02048824234
:10303000009D04D1022502E0019D00E0002518203A
:10304000079A10400F2282409643603385403543F3
:103050001D60144800684D68EA0202D5049B1843BD
:1030600001E0049B9843079E0E4A10605068AA0234
:1030700001D5184300E098430A4A50600A48406866
:10308000AA0301D5184300E09843074A506010682E
:10309000EA0300D55DE798435CE709B0F0BDC046A0
:1030A000000C00500018024080180240000400503C
:1030B0000008005000690840411E88417047002AFE
:1030C00002D018228150704728228150704700009A
:1030D000054800687047C0461F48007802490A68E2
:1030E000101808607047C04670170020B0B5012462
:1030F000200208490A6802430A600025284600F0B9
:103100000BF8002801D02046B0BD00F029F82C466D
:103110002046B0BD00200240B0B505460E480178FB
:103120000124002916D07D20C00005F0B1FD014624
:103130003F48006805F0ACFD00F044FD032D09D8C0
:10314000002807D10024E0432946224600F030F849
:10315000024805602046B0BDD2050020D4050020FD
:1031600080B582B00B48416801221143416041683B
:10317000114001910199110702680A430260006839
:103180000840009000980320400200F011FD02B0BA
:1031900080BDC0463C100240002805D41F210840D5
:1031A00001218140014801607047C04600E100E014
:1031B000002805D40322034693430A4A9A1803E0E1
:1031C0000C220240064BD2188007C00E8901C9B2FA
:1031D0008140FF2383401068984308431060704784
:1031E00014ED00E000E400E0F0B581B003256902D1
:1031F0006B4E32688A430243326001214A02002446
:10320000904212D1E9480268706940050DD58F02DD
:1032100006205043074905F03BFD801C401E03D0AB
:1032200071693942FAD100E02C46204601B0F0BD68
:103230002401002040420F00F0B587B00746807897
:103240008007564E01D4002063E005970122110744
:10325000183E30680840049006D13068084330605A
:103260003068084006900698029603910192160273
:103270004B4C206830432060FFF72AFF0546276843
:10328000374006D1FFF724FF401B0328F7D3032064
:1032900000E00020414E002F01D1059F31E00325C1
:1032A0002C02B1682140059F21D0BA6991421ED0FD
:1032B000B168019A1204B3681343B360B3689343CF
:1032C000B3600A46A243B260C90710D000950190CE
:1032D000FFF7FEFE0546334CB068800706D4FFF7C3
:1032E000F7FE401BA042F7D3009800E001980028A9
:1032F00007D103200002B1688143B8690843B06078
:1033000000200499002904D1029B1968039A914373
:1033100019603D68E9072FD1A90735D4A90606D55C
:103320000321090332688A43F9681143316001219E
:103330006A040ED532681C4B1A407C692243326005
:103340005A1C944205D10A043346483B1C68144376
:103350001C602A050ED58C03032292033368934325
:103360003A6913433360A24204D10A04483E3168EB
:103370001143316007B0F0BD3168032291437A6890
:103380000A433260A907C9D531680C229143BA6853
:103390000A433260A906C3D4C9E7C04654100240AC
:1033A0000070004089130000FFFFFF3FF0B583B0BD
:1033B0000D460121002800D1CFE001910290704814
:1033C000006807242040A84213D26D490868A04332
:1033D000284308606B4EFFF77BFE0746684800688D
:1033E0002040A84205D0FFF773FEC01BB042F5D9BC
:1033F000B2E0029E306881078D4B0CD5410703D5A2
:1034000021031A680A431A600F2109021A688A43C5
:10341000B16811431960C00718D1594800682040AD
:10342000A84228D956490868A04328430860554F48
:10343000FFF74EFE0646524800682040A8421AD0C8
:10344000FFF746FE801BB842F5D985E00298406838
:1034500003285AD8810001A251588F466D340008C4
:103460000F350008193500082335000819460839BA
:103470000968490557E0029A107840076C4B05D55A
:10348000200319688143D0680843186018688006D3
:10349000400F22D01A6838210A406648082A23D0F3
:1034A0001A680A40102A5BD1596803220A40032A8D
:1034B00000D0614859684906490F491C05F0E8FBEE
:1034C0005B4949684904490E484359494968490FCD
:1034D000491C05F0DDFB564B06E01846083800682D
:1034E0008004410F5448C840196889093C220A40A9
:1034F000254989581F220A40D0402C49086023489A
:103500000068FFF709FE014627E0596D0AE01946F9
:1035100008390968890306E01946083909688901EC
:1035200001E0996D8907019917D51968A1430143F5
:103530001960144FFFF7CCFD06463D48006838215E
:10354000014002984068C000814200D165E7FFF762
:10355000BFFD801BB842F0D90321084603B0F0BD7F
:1035600018680840202802D10120C003BCE7186871
:103570000840182801D00020B6E77D200002B3E7FC
:103580000020024088130000B48F0008D4050020FA
:103590000648006826490968890A1C220A4004492D
:1035A00089581F220A40D0407047C046240100209D
:1035B000F48F000810B51E4C20688006400F06D01E
:1035C000226838210A401B48082A07D110BD083C50
:1035D00020688004410F1848C84010BD22680A4086
:1035E000102A15D1616803220A40032A00D012482C
:1035F00061684906490F491C05F04AFB61684904A6
:10360000490E48436168490F491C05F041FB10BD54
:1036100020680840202802D10120C00310BD206886
:103620000840182801D0002010BD7D20000210BDE8
:103630000810024000127A000024F400F0B587B0B0
:103640000127002800D1F4E1049705900078C00715
:10365000F94E2CD10598007880074CD40598007855
:1036600000070DD5B06838210140182900D0A4E02A
:10367000306E800704D505988069002800D18CE160
:1036800005980078400700D45BE1B068382101401C
:10369000202900D0A8E0F06D800700D44EE1059805
:1036A0008068002800D049E10020012747E1B06888
:1036B000F16803273A468A433821014010204840E8
:1036C000821850425041082945D0002843D105981E
:1036D0004268052000048242039200D1B6E0012036
:1036E00001048A4200D1B7E032688A433260810423
:1036F00030688843B2E0B16838200840102141406A
:10370000F26803273A4002235340CA1851425141FC
:1037100000282AD0002928D1306801218C02059B7D
:10372000DA68002A00D1B6E00722D20290431A6973
:10373000024332600802316801433160FFF7C8FC80
:1037400005463068204200D0B5E0FFF7C1FC401BC1
:103750000228F6D96DE13068800300D47AE7059835
:103760004068002800D075E717E131684905059BDE
:1037700003D5D968002900D10FE17F2109027268C1
:103780008A43596909021143716000280DD107204D
:10379000C002316881431869084330603068800492
:1037A000400FA649C140A6480160A6480068FFF73F
:1037B000B3FC002800D0F0E050E7306E059989692D
:1037C000002900D181E0012108433066FFF780FC29
:1037D0000546306E800700D552E7FFF779FC401BA5
:1037E00003270228F5D924E1012003900107F06B9B
:1037F0000840029006D1F06B0843F063F06B08407C
:10380000069006980191904C2068C00510D403984A
:103810000702206838432060FFF75AFC05462068FD
:10382000384205D1FFF754FC401B0228F7D973E05A
:1038300005988468052C59D0012C5BD0F06D039954
:103840008843F065F06D0421884356E0012081042F
:1038500032680A4332600104306808433060012056
:103860004404FFF735FC0546039800280FD0306864
:10387000204200D0EEE6FFF72BFC401B6428F6D96F
:10388000D7E0FFF725FC401B642800D9D1E0306861
:103890002042F6D1DEE6090288433060FFF718FCCB
:1038A00005463068204200D1D8E6FFF711FC401BE6
:1038B0000228F6D9BDE07F20000271688143059897
:1038C0004069000208437060C8E601218843306601
:1038D000FFF7FEFB0546306E800700D4D0E6FFF709
:1038E000F7FB401B03270228F5D9A2E0F06D042165
:1038F0000143F165F06D03990843F065534FFFF7FD
:10390000E7FB0546002C0FD0F06D80070FD4FFF7C2
:10391000DFFB401BB842F7D9002003270FE0FFF779
:10392000D7FB401BB842F7D8F06D8007F7D4029858
:10393000002803D1F06B01998843F063012000282F
:1039400077D00598C469002C72D0B0683821014046
:10395000102924D1012C20D0F06803210140059BBF
:103960001A6A914219D1702101405A6A914214D1C8
:103970007F21090201409A6A120291420DD11F2152
:1039800049040140DA6A9142049F52D10721490754
:103990000840196B88424BD04BE0049F49E0012757
:1039A00039063068049188433060FFF791FB054683
:1039B000022C0BD103977C063068204211D0FFF710
:1039C00087FB401B03270228F6D932E07C063068CB
:1039D000204229D0FFF77CFB401B03270228F6D9A1
:1039E00027E0F0681B490140059F2037ADCF084311
:1039F00010431902014329433943F16030680499A7
:103A00000843306003980007F1680143F160FFF755
:103A10005FFB0546306820420AD1FFF759FB401B87
:103A200003270228F6D904E0F06809490140F16053
:103A30000027F8B207B0F0BD001002400024F400E7
:103A400024010020D40500200070004088130000ED
:103A5000FCFFFEEF8C80C11FF0B585B000280CD0B4
:103A6000044605465C3541208600606A002807D080
:103A7000002020612046143007E0012005B0F0BD91
:103A80006068B04203D020461C300021016000274E
:103A9000A7626878002804D100202870204600F032
:103AA00059F802200495019068702068016840224E
:103AB000914303900160E168254A012591422A461D
:103AC00000D33A461203ED020D430F27380202904D
:103AD000854201D00025A5626568A768354021238D
:103AE0009B023B405B192569019805401D436069B5
:103AF000012318402843FC36A7693E400643E0698D
:103B0000382505403543206A802606402E43580359
:103B1000A56A05403543039E3560380C04250540F1
:103B2000029801400A432A43606A10210140114370
:103B3000606B082202400A437260D802F169814337
:103B4000F1610020206604994B7005B0F0BDC046BD
:103B50000107000080B586B000681249884201D094
:103B600006B080BD012000030F49CA680243CA6045
:103B7000CA68024001920198022002900A6802433A
:103B80000A600968014000910020059004900390AC
:103B9000382001900098054801A9FFF7C5F906B043
:103BA00080BDC04600300140341002400004005087
:103BB00003214902024A13688B4303431360704791
:103BC00000000140401E010E01D00120704707494E
:103BD000074A5060074803680B40032189075918BA
:103BE000016000209060072111607047FFFFFF0017
:103BF00010E000E020ED00E07047704770470000E3
:103C0000F0B581B03C22825C012A02D1022001B0D1
:103C1000F0BD02463C32012313703F242402CD68DC
:103C2000A5430F24A4028E68A6432E434C681D4D65
:103C3000254035430C681C4E26402E430C691B4D15
:103C4000254035434C692C43194D25400C6B194ECA
:103C500026402E43CC6934438D692D04164E2E40E8
:103C600026430468ED48844201D0354614E01348E9
:103C700006400F462037A1CFC96A00913F0519467B
:103C80000F4B3B40334311267606B04318434B0796
:103C90009D4305430098054300201070656401B002
:103CA000F0BDC046FF87F0EFFF8FF0EFFF9FF0EF12
:103CB000FFBFF0EFFFFFF0EF0000FFEFFFFF0FDCB3
:103CC0000000F0DCF0B503463C20185C012801D16F
:103CD0000220F0BD1C463C34012020701668012EE5
:103CE00001D0002500E00925771E7E427E41022991
:103CF00004D0012911D11868603001E018686430DF
:103D000071020368B343576892683740FB188B43CE
:103D1000AA400A4099180160002000212170F0BDDE
:103D2000F0B53C22825C012A01D10220F0BD02469E
:103D30003C32022353700123137000684668846884
:103D4000CE4DA84201D0374604E00F273F05BE43C1
:103D50004F6837437026B7430E683E434660C54EF2
:103D6000B04204D0C44EB04201D0A84204D1802554
:103D7000AC43896821438160002010705370F0BD0E
:103D800010B5024644320029134608D0082903D052
:103D9000042903D1531C02E0931C00E0D31C1B78C0
:103DA000012B08D10223002907D0082907D00429B4
:103DB00007D1537006E0012010BD137002E093702C
:103DC00000E0D3700F22114004228A400168086A83
:103DD00090430862086A104308620122D0034B6CCA
:103DE00003434B64A348814205D0A348814202D0DB
:103DF000A248814208D18868A14B03400020062BCD
:103E000006D01404A34203D00868104308600020C1
:103E100010BDC046B0B50F220A400423934002688B
:103E2000146A9C431462136A1362146A164B1C4290
:103E300008D1146A154D2C4204D10124E403556CB9
:103E4000A5435564146A1C4207D1136A0F4C2342E0
:103E500003D113680124A34313604430082907D019
:103E6000042909D000290BD1012101700020B0BD27
:103E7000012181700020B0BD012141700020B0BD42
:103E80000121C1700020B0BD1111000044040000E8
:103E9000B0B5002819D0044605463C35687800289E
:103EA00004D100202870204600F068F802206870D5
:103EB00020680368714A904202D06E49884206D158
:103EC00070218B43A168194302E00120B0BD19465F
:103ED000254B984208DC674B98420ED0254B984200
:103EE0000BD0904209D03DE0634A904205D01F4A72
:103EF000904202D01E4A904234D1032212029143D2
:103F000022690A4380218A43A16911430160E16863
:103F1000C1626168816218494118890A8205511895
:103F2000072906D801228A40E1210A4201D06169AD
:103F3000016322463E324434012141610369DB07BB
:103F400002D003698B43036121711170517091702C
:103F5000D1701171517121706170A170E17069703F
:103F60000020B0BD0A46CDE7FF3F014000480140B8
:103F7000004401400020004000D4FEBF70B586B070
:103F800000682549884232D0DD49884241D1FA494A
:103F9000CA6801200390C3021A43CA60CA681A4063
:103FA0000092009A0A6804231A430A6009681940BB
:103FB00000910224059400250495122102914003EA
:103FC00001900098164801A9FEF7AEFF0D26304675
:103FD00029462A46FFF7ECF83046FFF7DDF80E26B3
:103FE000304621462A46FFF7E3F830460FE0E24824
:103FF000816810221143816080681040019001980F
:104000001124032100222046FFF7D2F82046FFF7B3
:10401000C3F806B070BDC04600100040002C01403F
:104020000008005010B53D21415C01291BD101461B
:104030003D3102220A700168C86801221043C8603D
:10404000CC48814205D0B048814202D0AC48814280
:104050000BD188680A4B03400020062B02D01404C1
:10406000A34202D110BD012010BD086810430860B2
:10407000002010BD0004004000400140002C014021
:1040800007000100F0B53C22825C012A01D1022028
:10409000F0BD02463C3202235370012313700568C1
:1040A000A868494C0440AC600E6800244F2E1EDC0A
:1040B0001F2E36DD202E38D0302E36D0402E00D0A8
:1040C00080E0286A2E6A0127BE432E62AE69F0277F
:1040D000BE43CF683F013743AF610A26B04349680A
:1040E00001432962A86839490140473165E06F2ED4
:1040F00023DD580386423CD01803864220465ED01A
:10410000702E5FD1FF200002AE68864348688F683A
:10411000C9680743080238433043A860A86877217C
:1041200035E0002E01D0102E4CD1A868274901405F
:104130000E4307203043A86040E0502E29D0602E67
:1041400040D1286A2E6A1027BE432E620F263603FE
:10415000AF69B743CE6836033E43AE61A026B04395
:104160004968090101432962A8681849014067317B
:1041700023E0FF200002AE68864348688F68C96864
:104180000743080238433043A8609803A9680143F5
:1041900013E0286A2E6A9E432E62AE69F027BE4362
:1041A000CF683F013743AF610A26B04349680143F6
:1041B0002962A868054901405731A960204614705A
:1041C0005370F0BD1846FAE78800CEFF88FFCFFF96
:1041D000F0B583B000281ED00E46044605463C3597
:1041E0006878002804D100202870204600F09AF852
:1041F0000220687020688168404A0A408260036833
:104200003F4A904202D05B49884207D170218B43DC
:10421000A168194303E0012003B0F0BD1946394BF2
:10422000984208DC534B98420ED03A4B98420BD040
:10423000904209D060E0344A904205D0334A90421F
:1042400002D0334A904257D103221202914322698D
:104250000A4380218A43A16911430160E168C16278
:10426000616881622C494118890A82055118072921
:1042700006D801228A40E1210A4201D06169016326
:10428000029521463E310191443401224261036985
:10429000DB0702D0036993430361836837681F43D8
:1042A00031468669036A87608F688D692D023D43B8
:1042B0001A4F2F401A4D3540CE682E433E43CD69EC
:1042C0002D0235430E6936012E430D6A2D03354309
:1042D0008561AA25AB434D681D434B691B012B43E8
:1042E000036222710198027042702270627002981B
:1042F0004270002003B0F0BD0A46AAE7F8BFFEFFF7
:10430000002C0140FF3F01400040014000480140B7
:10431000004401400020004000D4FEBF0303FFFF23
:104320000000FFFF80B586B000681249884201D0C6
:1043300006B080BD022002900F498A6802438A605D
:104340008A68024000920098012005900A680243A2
:104350000A60096801400091002004900390C02089
:10436000019005200007009901A9FEF7DDFD06B0C8
:1043700080BDC0460004004034100240F0B581B05A
:1043800004463E20255C20463E3043784422A65C0D
:104390000094443467780122042909D000290ED101
:1043A0005640554035433AD102220270227013E044
:1043B000574053403B4332D1022242700BE05340FE
:1043C00055401D4356402E435740374327D10222C4
:1043D00002704270227062701023DA430429009D3B
:1043E00006D0002906D10F322968203101230AE0C6
:1043F000296807E02968086A0124A0430862086A5E
:10440000204308622031086810400860086818439B
:1044100008602868016801220A43026000221046F1
:1044200001B0F0BD70470000F0B583B004460068ED
:10443000C5680227294639404A424A41016902912A
:1044400039404B424B41134313D16C49FE3101615A
:10445000012121778069800703D02046FFF7E2FF22
:1044600005E0204600F050FA204600F006FD00204E
:1044700020770126042229461140484248410299EA
:104480004907314600D5014603200002019000296A
:1044900016D1009220685949FC3101612777806963
:1044A0000199084203D02046FFF7BCFF05E02046F3
:1044B00000F02AFA204600F0E0FC00202077009A65
:1044C00008272946394048424841029909073146A0
:1044D00000D50146002913D120684849F83101610F
:1044E0002277C069800703D02046FFF79BFF05E0D5
:1044F000204600F009FA204600F0BFFC002020779B
:1045000010212940484248410299C906314600D548
:104510000146002914D120683849F031016127771C
:10452000C0690199084203D02046FFF77BFF05E0F0
:10453000204600F0E9F9204600F09FFC002020779B
:1045400001212940484248410299C907314600D01B
:104550000146002906D120682849FF310161204623
:1045600000F0E4FD80272F40784278414121C901C5
:10457000029A0A42314600D00146002905D120683E
:104580001F4901612046FFF738FB784278410299C4
:10459000C905314600D50146002905D120681749D3
:1045A00001612046FFF728FB40212940484248414D
:1045B00002994906314600D50146002906D12068F6
:1045C0000E49C0310161204600F0B1FD20200540B8
:1045D000684268410299890603D4002E04D003B0D2
:1045E000F0BD0646002EFAD120680449E031016191
:1045F0002046FFF703FB03B0F0BDC046FFFEFFFF00
:104600007FDFFFFFF0B583B003463C20185C012834
:1046100002D1022003B0F0BD1C463C3401202070C2
:104620000226F241052A00D952E1C0467A441279A5
:104630005200974402293E5476A71868036A026A1A
:104640000125AA430262EE4A8218920A8705BA1827
:10465000B3438E681E43436800930B6802938369DB
:104660000193072A00D9EAE02F469740E1231F4231
:1046700000D1E4E00C239E43CF6804239F433743DB
:10468000072A00D8DEE027E11868026A036A1025CD
:10469000AB43036220239A438B681F01174346688C
:1046A0000A6802928269CF4DA84200D18AE03D4655
:1046B0008FE01868026A01273B02056A9D43056284
:1046C0007B029A438B681D02154346680A68029272
:1046D000C369C44A904200D190E001959BE01868FC
:1046E000026A029201221503066AAE430662C44DB5
:1046F0004519AD0A8605751947688B6801930B68E3
:104700000093C669072D00D9A9E01346AB40E12507
:104710002B4200D1A3E093039F434B699D013D438E
:104720009EE01868026A0292744A13467333056A5F
:104730001D400562B24D4519AD0A860576194568DA
:104740008F6801970F680097476D072E00D9CFE05B
:104750000122B240E126324200D1CBE01D404A693D
:1047600013022B43654A4360D21C1740009A17433B
:1047700047654968816501214904029A8A43019984
:1047800009048BE01868026A029201221505066A84
:10479000AE4306629A4D4519AD0A860575194768FC
:1047A0008B6801930B680093466D072D67D81346FD
:1047B000AB40E1252B4262D093049F434B699D029D
:1047C0003D435DE0C025AF43CD682D0140239D43AF
:1047D0003D438B4BC3189B0A8705FF18072F5FD8F3
:1047E0000123BB40E1273B425AD003239B029E4357
:1047F0004B698F691F43BF00374352E00322920287
:104800009543CA68120201923E4A0096019E3240C8
:10481000009E2A4301927A4D4519AD0A8205551929
:10482000072D49D8AF40E122174245D00322120399
:1048300096434A698D6915432D0135433DE037465E
:10484000072A49D89540E122154245D00322120299
:10485000009D95434A698B692A431A433DE03D46D2
:104860004560274B1E40009B1B023343C3614968D0
:1048700001645103029A8A43019909030EE03D46FF
:1048800045601D4B1E40009B1B0233434365496836
:10489000C1655105029A8A4301990905114315E042
:1048A00037464760164B1A40029B1B021343836135
:1048B0004968816305620AE0354645600F4A134046
:1048C000029A1343C3614968C163019901620020E0
:1048D0000021217003B0F0BD009A4260074A019B9D
:1048E0001340029A13438361496841630762EEE70C
:1048F0002B4638E72B4635E7FF8FFFFE8CFFFEFF88
:10490000FF8CFFFE00FBFFFF70470000B0B50028E2
:1049100019D0044605463C356878002804D10020AB
:104920002870204600F06EF8022068702068036846
:104930002C4A904202D02C49884206D170218B43E8
:10494000A168194302E00120B0BD1946274B9842E7
:1049500008DC254B98420ED0284B98420BD0904251
:1049600009D03DE0224A904205D0224A904202D02E
:10497000214A904234D103221202914322690A4310
:1049800080218A43A16911430160E168C1626168C5
:104990008162F8494118890A82055118072906D809
:1049A00001228A40E1210A4201D061690163224665
:1049B0003E324434012141610369DB0702D00369BF
:1049C0008B4303612171117051709170D17011711D
:1049D000517121706170A170E17069700020B0BDEB
:1049E0000A46CDE7002C014000040040FF3F014093
:1049F00000400140004801400044014000200040C8
:104A000000D4FEBF70470000F0B583B03C23C35C08
:104A1000012B01D1022394E106463C360123337079
:104A20000225EA41052A00D989E102967A441279E1
:104A3000520097440225384E6F8F0268176A136A36
:104A4000012083431362CB4BD3189B0A9605F318BE
:104A5000AF438E683E43546800940C680194956996
:104A6000072B00D9D4E007469F40E124274200D11C
:104A7000CEE00C24A643CF680424A7433743C8E004
:104A80000268106A136A1024A34313622023984318
:104A90008B681F01074350680D689369F04CA24270
:104AA00079D03E467EE00268106A01273B02146A14
:104AB0009C4314627B0298438B681E020643506835
:104AC0000B680193D569E64B9A4200D181E03346E9
:104AD00088E00268156A01231803146A844314628B
:104AE000E4481018800A9405261850688C680194D0
:104AF0000C680094D769072E00D99CE01C46B4408E
:104B0000E126344200D196E09C03A0434C69A60103
:104B1000064391E00268136A98487330146A0440AF
:104B20001462D44C1419A40A95052E1957688C6880
:104B300001940C680094556D072E00D996E001246D
:104B4000B440E126344200D190E0074048690602B3
:104B50003E438CE00268156A01231805146A8443F9
:104B60001462C4481018800A9405261850688C688E
:104B700001940C680094576D072E00D992E01C46F2
:104B8000B440E126344200D18CE09C04A0434C693F
:104B9000A602064387E0C024A743CC682601402430
:104BA000A6433E43EE4C1419A40A97053F19072F5C
:104BB00000D992E00124BC40E1273C4200D18CE0C6
:104BC0000324A402A0434C698F692743BF00074315
:104BD00084E003239B029E436A4CFF3CCB681B028C
:104BE00023403343DE4C1419A40A96053619072EC8
:104BF00000D98AE0B740E124274200D185E00324B0
:104C00002403A0434C698E692643360106437DE0A8
:104C10003746072B029E00D996E09840E1231842C0
:104C200000D191E003200002009C84434B69886915
:104C30002343034389E0064610461C305660504C1F
:104C40002740009C24023C43D4614C6814645C03FC
:104C5000A543019C24032C431462DC02D56925433F
:104C6000D5619B02D4699C43D4614BE03E4610461B
:104C700054305660414CE41C2540009C254355654A
:104C80004C68946501246404A343019C24041C43E0
:104C90001462536D08241C435465536D0424A343CC
:104CA000536546E00646104654305660324C274065
:104CB000009C24023C4354654C68D4655C05A543C4
:104CC000019C24052C431462DC02556D2543556577
:104CD0009B02546D9C43546514E0074610461830FF
:104CE0005760274C23402C021C4394614B6893630C
:104CF00016620123DC029569254395619B02946944
:104D00009C4394610969090214E0064610461C3070
:104D100056601A4C2540019C2543D5614C68D463EC
:104D20001362D36908241C43D461D3690424A343C8
:104D3000D3610969029E02680A43026000230020D1
:104D40003070184603B0F0BD009B10461830536019
:104D50000A4B1D40019B1D4395614B6853631762CD
:104D6000936908241C43946193690424A3439361C9
:104D70000969E0E700D4FEBFFF8FFFFE8CFFFEFF56
:104D8000FF8CFFFEFFFBFFFFB0B5002819D00446E3
:104D900005463C356878002804D10020287020465C
:104DA00000F06AF80220687020680368B34A9042F5
:104DB00002D0B049884206D170218B43A1681943C3
:104DC00002E00120B0BD1946264B984208DCA94BF1
:104DD00098420ED0264B98420BD0904209D03DE02D
:104DE000A54A904205D0204A904202D01F4A9042E4
:104DF00034D103221202914322690A4380218A435B
:104E0000A16911430160E168C16261688162C449BE
:104E10004118890A82055118072906D801228A40BB
:104E2000E1210A4201D06169016322463E324434E5
:104E3000012141610369DB0702D003698B430361F0
:104E40002171117051709170D17011715171217077
:104E50006170A170E17069700020B0BD0A46CDE7B5
:104E6000002C0140FF3F0140004801400044014048
:104E70000020004000D4FEBF7047704710B50246C6
:104E80003E320029134614D08B070C1FA4081B19AF
:104E9000032B0DD87B441B795B009F44010305075E
:104EA000531C06E0931C04E0D31C02E0131D00E039
:104EB000531D1B78012B10D1002910D08B070C1F1C
:104EC000A4081B19032B0DD87B441B795B009F445E
:104ED000010C0F12022353700FE0012010BD0223BA
:104EE00013700AE00223537107E00223937004E079
:104EF0000223D37001E0022313711F22114001220B
:104F000013468B400168086A98430862086A184390
:104F1000086283480818800A8B051818072808D8E3
:104F200013468340E120034203D0D0034B6C03437C
:104F30004B645048814205D04F48814202D04F48CF
:104F4000814208D188684E4B03400020062B06D0D2
:104F50001404A34203D0086810430860002010BD69
:104F600000D4FEBFB0B502463E320029134614D02D
:104F70008B070C1FA4081B19032B0DD87B441B792E
:104F80005B009F4401030507531C06E0931C04E0EB
:104F9000D31C02E0131D00E0531D1B78012B10D120
:104FA000002910D08B070C1FA4081B19032B0DD848
:104FB0007B441B795B009F44010C0F12022353704A
:104FC0000FE00120B0BD022313700AE002235371E9
:104FD00007E00223937004E00223D37001E0022370
:104FE000137102220B46D341032B0BD89A00204C9D
:104FF000A2580468E5681543E5600022032B04D934
:105000001046B0BD0122032BFAD81F2319400123FB
:105010001C468C400068016AA1430162016A214379
:1050200001623F494118890A84056118072908D897
:105030001C468C40E1210C4203D0D903446C0C4344
:1050400044640C49884205D00B49884202D00B4980
:10505000884207D184680A4921400629D0D01C041F
:10506000A142CDD00168194301601046B0BDC046D1
:1050700044A800080004004000400140002C01400A
:105080000700010070B51F230B40012214469C400D
:1050900003681D6AA5431D621C6A1C62204C1C1912
:1050A000A40A9D052D191F4C072D0FD81646AE409A
:1050B000E1252E420AD01D6A254207D11D6A1A4EEB
:1050C000354203D1D5035E6CAE435E641D6A254252
:1050D00006D11C6A144D2C4202D11C6894431C60FA
:1050E0003E300223D94104290AD8C04679440979BF
:1050F00049008F4402080B0E11000270002070BDA1
:105100004271002070BD4270002070BD827000208E
:1051100070BDC270002070BD0271002070BDC0461D
:1051200000D4FEBF11110000440400007047704716
:10513000B0B58421415C012901D10220B0BD0246F5
:1051400084322421516001680B680C680125AC434E
:105150000C606C07A3430B60002141661170202096
:1051600050600846B0BD704770470000F0B581B090
:10517000024604466834207F012802D1022001B093
:10518000F0BD2420206215682E682B68012083431F
:105190002B60207707235B06AF689F430F43AF6008
:1051A000516E002914D0AF68A868400F2B49095CE4
:1051B0002B4A105CC00003F06BFD60803801400F8B
:1051C0002649095C264A105CC00003F061FD00E03E
:1051D00060802E602080002020772021216201B095
:1051E000F0BDC046F0B581B0024604466834207F69
:1051F000012802D1022001B0F0BD242020621568F0
:105200002E682B68012083432B60207707235B07E0
:10521000AF689F430F43AF60516E002914D0AF6851
:10522000A868400F0D49095C0D4A105CC00003F0EE
:105230002FFD60803801400F0849095C084A105C66
:10524000C00003F025FD00E060802E60208000207B
:1052500020772021216201B0F0BDC0467CA8000863
:1052600074A8000870477047FEE7882141588830CD
:105270004068084370470000F0B58BB00668F569D8
:10528000202401210891CF023A462F322A40336868
:10529000B168202A0A9307D11A46224001231B072E
:1052A0000B40D21800D0A6E00991059404973A4625
:1052B0000F3206952A40074603465C3307930A9B44
:1052C000002A09D0EA4A1A4001252807441C0999F6
:1052D0000C40A21800D095E010201A46049002401D
:1052E000544254413D46FA6E012A08990B4600D1BA
:1052F0002346069FFA060A46099800D51A46002A50
:105300003CD00124A205024053425341FA020A460E
:1053100000D51A46002A00D1F4E03A0609D58022C9
:1053200001460A980240E30519405218089900D036
:10533000A0E1284640230A9A1A40554255417A0670
:105340000A4600D52A46002A00D17EE1A2070A9B20
:105350001A40534253413A020A4600D51A46002ADF
:1053600000D18CE10A9A002A00DB8CE10024FA01CA
:1053700000D58BE1002900D18BE18CE104983062EB
:10538000B0684006079C00D5C3E060882188628829
:10539000002A00D17FE1814200D17CE1EFF310834C
:1053A000012282F31088092464012F683E68A64315
:1053B0003E6083F31088EFF3108382F310882C682B
:1053C000A768B64E3E40A66083F31088059B079CF5
:1053D000236300236B67EB66EFF3108382F310887F
:1053E0002A681468049EB443146083F31088022270
:1053F0002A67081AD6E0416F002900D14BE188479F
:105400000BB0F0BD029703952A021A405342534154
:10541000069FFA0708990D4600D01D46002D039DF2
:1054200004D13562079B5A6B2A435A63099B2B4070
:105430005D425D41BA070A4600D52A46002A09D1D5
:1054400002223262079A516B0191042501990D43A2
:10545000089955635D425D417A070A4600D52A46A0
:10546000002A0A9B07D104223262079D6A6B02233D
:1054700013436B630A9B01903A07029D0CD51A46B1
:10548000059B1A400A9B144306D008223262079CEF
:10549000636B134363630A9B039A92061A40534259
:1054A00053410498074200D019460029079C05D1B2
:1054B00004983062616B059801436163616B002958
:1054C0000A9900D1E7E0059807400BD0099A0198A6
:1054D000024005980140114304D0696F002901D0B2
:1054E00028468847606B2821014028688268402050
:1054F000024051185CD12846FFF7B6FE00206063D9
:105500000BB0F0BD200530622846FFF7ACFE0BB0B3
:10551000F0BD606A006841688AB2002A00D1BAE032
:1055200023889A4200D3B6E061800068800634D4B4
:10553000EFF31081012080F310885A4A20322B6843
:105540001C6814401C6081F31088EFF3108180F315
:1055500010882A6893688343936081F31088EFF37F
:10556000108180F310882A6893684024A343079C25
:10557000936081F31088059921630021E966EFF3B8
:10558000108180F3108828680268049B9A430260A7
:1055900081F31088606AFDF707FB022028672088E6
:1055A0006188401A81B22846FFF7DDFD0BB0F0BDDF
:1055B000EFF31081039E86F31088092252012B68B5
:1055C0001C6894431C6081F31088EFF3108186F30C
:1055D00010882A689368314C1C40946081F31088CD
:1055E000E96E01290BD1EFF31081039A82F3108841
:1055F0002A6813681024A343136081F31088079C62
:10560000059921630021E966696729688968490667
:1056100016D5EFF31081039A82F310882A689368F5
:105620008343936081F31088606A002808D01C4986
:105630008163FDF7EFFA00282DD0606A816BDEE60A
:105640002846FFF711FE0BB0F0BDEFF3108584F391
:10565000108801680A689A430A6085F3108800215F
:1056600081670799059ACA6200F060FA0BB0F0BD35
:1056700020010004A96F00290DD02846BFE6FFF7DE
:10568000F1FD0BB0F0BDFA0100D473E6214600290C
:1056900001D1FFF769FD0BB0F0BDC046FEFFFFEF83
:1056A000816F0008DFFEFFFFB0B500281ED0044662
:1056B000054684356868002804D1002028702046FB
:1056C00000F02AF824206860206801680125A943B9
:1056D0000160A06A002802D0204601F089FB204624
:1056E00001F0DCFF002803D02846B0BD0120B0BD8A
:1056F0000920C00221684A6882434A6088682A22D9
:10570000904388600868012202430A60204601F045
:10571000D9FB05462846B0BDF0B58DB0054600243E
:105720000C940B940A940994089407940694059495
:1057300004940394029401940068CE49884236D0C0
:10574000C24988427BD0CD49884200D0ACE00125D7
:10575000019501A8FDF770FD002801D0FCF7C8FAFB
:105760005248C1680C95AA031143C160C168114039
:105770000091009901680422114301600068104003
:1057800000900B940A940225099530200890009807
:105790004C4808A9FDF7C8FB1B263046294622467F
:1057A000FDF706FD3046FDF7F7FC0DB0F0BD022613
:1057B000019601A8FDF740FD002801D0FCF798FAFA
:1057C0000120400439498A6802438A608A6802409D
:1057D000009200980868082210430860086810408A
:1057E00000900C940B940A940996602008900098FD
:1057F000324808A9FDF798FB314E80201021352250
:105800002D4B283333607260B160F4603061746195
:10581000B461F46134623046FDF7A4FA002801D087
:10582000FCF766FAB562EE671C24022100222046CE
:10583000FDF7BEFC2046FDF7AFFC0DB0F0BD012624
:10584000B0041A498A6802438A608A68024000925A
:105850000098022009900A6802430A600968014022
:10586000009104200C900B940A940320800208906D
:1058700000980F4808A9FDF757FB70030D4E3062E2
:10588000802736200C4931607060B460F460376165
:105890007461B461F4613046FDF764FA002801D008
:1058A000FCF726FAEE51B5620DB0F0BD341002409F
:1058B00000040050E81300201C000240000C0050BF
:1058C0008C1300200008005070B58C23C358202B87
:1058D00010D1012300290BD0002A09D001231C0379
:1058E0008568A54208D1CC0706D00469002C03D1F5
:1058F000184670BD022070BD0024C4660468646848
:1059000024020AD5EFF3108483F310889B06056800
:105910002E681E432E6084F3108801F097FF034623
:10592000184670BDF0B581B08C23C358202B10D120
:105930000124002922D0002A20D001231C038568DD
:10594000A54208D1CC0706D00469002C03D11C461F
:1059500014E0022412E00024C46605686D682D027C
:105960000AD5EFF3108583F310889B060668376825
:105970001F43376085F3108801F0BAFF204601B05D
:10598000F0BD0000F0B581B0044600682F498842A0
:1059900029D12F4A10785178414053794B40907863
:1059A0004340D1784B40127953402A4D2B8002D08E
:1059B0002948018815E0294B00251D800902081897
:1059C000110440182649086080082649088002F022
:1059D0009BFB0146D74803F031F8234801880A2988
:1059E00001D2491C0180214D2068214E6249884224
:1059F00012D10A21695E00290ED4FDF769FB6A897C
:105A0000511C3240EB791C4FBB548AB2C72A00D9D3
:105A100000216981686120681849884214D168783A
:105A2000002811D10820285E00280DD4FDF750FB76
:105A300029890E40AA79124B9A55A861481C81B257
:105A4000C72900D90020288101B0F0BD00480040DE
:105A5000CA11002092120020C611002094120020CA
:105A60006817002064170020C8110020E0060020FD
:105A7000FF3F0000004400402E100020003801408D
:105A8000F810002070470000F0B581B004460646CB
:105A90005436706B202811D1012500290FD01346F0
:105AA000002A0CD001273803A26882420AD1C80715
:105AB00008D02069002805D13D4600E0022528468F
:105AC00001B0F0BD73800025F5633380216521208E
:105AD0007063E06F002812D0134AC262114A026359
