:020000040800F2
:10000000483C002075010008416B00088955000834
:1000100000000000000000000000000000000000E0
:100020000000000000000000000000006D750008E6
:100030000000000000000000277100082977000878
:100040008701000800000000870100088701000800
:100050008701000887010008870100088701000860
:100060000000000085230008B12300088701000874
:100070004D1D0008AD770008BD77000800000000A6
:1000800087010008A179000887010008870100089E
:100090008701000887010008870100088701000820
:1000A000870100088701000887010008F18A00081D
:1000B0001D8B00088701000800F002F800F04AF8E4
:1000C0000CA030C8083824182D18A246671EAB466D
:1000D00054465D46AC4201D100F03CF87E460F3EEE
:1000E0000FCCB6460126334200D0FB1AA246AB46DF
:1000F000334318479CB30000BCB300000023002426
:1001000000250026103A01D378C1FBD8520700D34E
:1001100030C100D50B60704710B5662902D109F0D7
:10012000D5FB10BD642902D100F0D0F810BD7329B1
:1001300002D101F015F910BD002010BD1FB501F06E
:10014000A7F904000020002109F0AAFBE0601FBD10
:1001500010B510BD01F056FD1146FFF7EFFF09F095
:1001600023F901F06EFD03B4FFF7F2FF03BC08F0C2
:10017000C6FE00000748804707480047FEE7FEE745
:10018000FEE7FEE7FEE7FEE704480549054A064BA1
:1001900070470000A9770008B90000084836002021
:1001A000483C00204838002048380020704743432E
:1001B000514330B55C18010C130C0D4692B25D43EF
:1001C00080B251432C19054655430A0C09044D19B8
:1001D00062415843010C00044019514130BD70B5D3
:1001E00000252C46AD1A9C4112DA00252C462D1A0A
:1001F0008C4102DA00F093FD70BD002440428C4136
:10020000214600F08CFD002440428C41214619E03B
:1002100000252C462D1A8C410ADA002452429C41BA
:10022000234600F07CFD002440428C41214670BDF5
:10023000002452429C414042234600248C412146E6
:1002400000F06DFD002452429C41234670BD000029
:100250000FB41CB5074B06AA7B446946009005986D
:1002600001F053F80020694601F062F81CBC08BC9C
:1002700004B01847D510000070B50C460546012A99
:1002800005D02878800600D5EA69002302E0012322
:1002900005E05B1C934202D2E05C0028F9D1A8691A
:1002A000E618C01AA861286AC01828622846C04605
:1002B000C04604E06A682078A968641C9047B4428C
:1002C000F8D32846C046C04670BD0000F7B50025EB
:1002D00075291068009914A611D0C046C0460028A0
:1002E00002DA404211A608E0009909688A0701D5A0
:1002F0000FA602E0490704D50EA6012501E0C0467D
:10030000C046009F0024243704E001F02DF830316E
:100310003955641C0028F8D12B46324621460098F6
:1003200000F089FDFEBD0000000000002D0000006F
:100330002B00000020000000F3B50446002081B02F
:1003400020622046E168884700287AD0252802D01C
:100350006268A16871E0E16820460025884706468A
:100360000020E0610746A0612A2E0AD0304608F03E
:10037000BFFD002827D0B8000019303E00908661EC
:1003800019E00298BA00121902C891610290204641
:10039000E1688847012F064617D1E06900281FDA77
:1003A000202085431CE000980A2180694843009979
:1003B0008019303888612046E1688847064608F091
:1003C00097FD0028EFD1012F0AD02E2E08D120460C
:1003D000E16888470646202005437F1C022FC3DBC7
:1003E000A069002803DA4042A06101200543E80724
:1003F00001D010208543002E23D0304641381928E3
:1004000003D80120C002054320362046256031462E
:10041000029A1546FFF780FE00280BD0012806D06F
:10042000ED1DE808C000083002908AE709E02D1DA4
:10043000029586E762683046A1689047206A401CB2
:100440007EE7206AFEBD01E004C0091F0429FBD23B
:100450008B0701D50280801CC90700D0027070474D
:1004600000290BD0C30702D00270401C491E02298C
:1004700004D3830702D50280801C891EE3E7002293
:10048000EEE70022DFE7002203098B4273D3030A61
:100490008B4258D3030B8B423CD3030C8B4221D3AA
:1004A00012E003460B437FD4002243088B4274D3EF
:1004B00003098B425FD3030A8B4244D3030B8B4265
:1004C00028D3030C8B420DD3FF22090212BA030C6E
:1004D0008B4202D31212090265D0030B8B4219D34F
:1004E00000E0090AC30B8B4201D3CB03C01A52416F
:1004F000830B8B4201D38B03C01A5241430B8B42B7
:1005000001D34B03C01A5241030B8B4201D30B039F
:10051000C01A5241C30A8B4201D3CB02C01A5241C6
:10052000830A8B4201D38B02C01A5241430A8B4289
:1005300001D34B02C01A5241030A8B4201D30B0272
:10054000C01A5241CDD2C3098B4201D3CB01C01A8C
:10055000524183098B4201D38B01C01A5241430996
:100560008B4201D34B01C01A524103098B4201D384
:100570000B01C01A5241C3088B4201D3CB00C01AF1
:10058000524183088B4201D38B00C01A5241430869
:100590008B4201D34B00C01A5241411A00D201468E
:1005A0005241104670475DE0CA0F00D04942031027
:1005B00000D34042534000229C4603098B422DD376
:1005C000030A8B4212D3FC22890112BA030A8B421E
:1005D0000CD3890192118B4208D3890192118B426D
:1005E00004D389013AD0921100E08909C3098B42F2
:1005F00001D3CB01C01A524183098B4201D38B0135
:10060000C01A524143098B4201D34B01C01A5241D7
:1006100003098B4201D30B01C01A5241C3088B421C
:1006200001D3CB00C01A524183088B4201D38B0007
:10063000C01A5241D9D243088B4201D34B00C01A91
:100640005241411A00D20146634652415B101046A6
:1006500001D34042002B00D54942704763465B10EE
:1006600000D3404201B50020C046C04602BD7047DD
:10067000704770470246C80FC00781434B0030B532
:100680004B405B009B0D20D01923DB06C9180123CA
:100690001B05994220DB0324A40704251346AB4025
:1006A0000BD3002B04D1EB0613409B00E34204D490
:1006B00001246407002312195941FF231B059942A5
:1006C0000BD2C9000143500F09E0CB0204D501430E
:1006D0000803024305D0054830BDFF21C905084382
:1006E00030BD084607210905884330BD0000C07FA2
:1006F000F0B5F94D0C091E092C402E402F468BB049
:10070000A7437DD0B543FCD0002E7AD0002CFCD07E
:100710000D465D40ED0F2543AC1BFF25AD0464196C
:100720000894C502440DC9022143500DDC02044364
:100730000120C00701430443D2020191200C110C97
:1007400000958C46010423468B430A9161460904B7
:10075000E24D8A430991010A7D444919803909789B
:1007600005464D4301266D18F605751B6943C90CF6
:10077000640B891C4C436418B5012C1B250C2E04FA
:10078000B4434C434D43210C691889090591009DE0
:10079000E90701D00121C90704912C460199670896
:1007A000CD072F434C08059DE10B4D432D0C2946E9
:1007B0006646754302950D4645432E46029D7D1BB8
:1007C000B44100950D465D4301942C0C2F040D4659
:1007D0005543AE462D0C3D43029503947546049C4B
:1007E0002D04641B049406D2029C039D641C002605
:1007F00075410395029401AC70CC009F7D1B01E014
:100800003EE162E1B4410904009507910194059924
:10081000A4086143090C0C464443650BE7040C46ED
:1008200066467443A646640B3C43039502947446A3
:10083000049DE4042C1B049406D2029C039D641CBA
:10084000002675410395029401AC70CC009F7D1B7E
:10085000B44101940C465C430095650FE7000C46DB
:100860005443A646640F3C43039502947446049D8A
:10087000E4002C1B049406D2029C039D641C0026F9
:1008800075410395029401AC70CC009F7D1BB4416F
:10089000AE09AF06049DC900AD092F43049DA4060F
:1008A000AD060495079D344369180791059DE10B3A
:1008B0004D432D0C29466646754302950D4645432A
:1008C0002E46029D7D1BB44100950D465D4301946B
:1008D0002C0C2F040D465543AE462D0C3D4302957E
:1008E00003947546049C2D04641B049406D2029C58
:1008F000039D641C002675410395029401AC70CCE5
:10090000009F7D1BB44101948C050694079C890AC5
:10091000611800950791019C0599A4086143090C91
:100920000D464543680BEF040D46644665436C0B6A
:100930003C43049FED047D1BAC4602D20025641CA1
:100940006841009E019D371B85410846584301952B
:100950000C46460FC5005443600F28436546E4002B
:100960002C1B02D20025401C6E41019D3F1AB5414F
:100970002846BD09800628438446A009BF064E02CA
:100980000699A40676180743079D002068410A9936
:10099000079019430020099B00906046FF191343FC
:1009A0004041E20F64003A43A4460446D71A8C4102
:1009B000A04203D90120009020463A46C70F941860
:1009C00040416246D20F2243644664000494009C76
:1009D000BE466400D71AA446044602978C41774667
:1009E000002F01D1A04204D96046401C8446029ADF
:1009F0002046C40FA64694184041049A0546D20FDB
:100A0000224364466400D31A8D417146002901D106
:100A1000A84202D928461A46641C10430122002825
:100A200000D0164361020020079B891904465C41EF
:100A30000223002C02DB491813466441089DCE0AAC
:100A40002D145D194B056705E10A2C050D19089950
:100A50003E43C9076940002B08D0934006D30022CB
:100A6000761C5141002B01D1760876001C4A002DDE
:100A700043DB154241D0AA433FD030460BB0F0BD16
:100A800006180D464D41174C7642AC411AD39518C5
:100A90001C465C41134A6D42A24113D30122520508
:100AA0004C00D4420AD15C00D4420BD04B4002D55A
:100AB00092021143E2E749004908DFE75940C90FB4
:100AC000C90718E000200849D8E7054801420DD1C0
:100AD0000342F7D0F2E700000000FF0720AC00005F
:100AE0000000F07F0000E0FF0000F87F114859404F
:100AF0000143C01241400020C0E70123089A9B0631
:100B00009A4205DC032252078918C90FC907B5E7C5
:100B1000052252078918074A1143D2125140ADE706
:100B200070B515461C4602460B4628462146FFF77F
:100B3000DFFD70BDFFFFFF7FF0B5430DCA021A4312
:100B40000446C30208152025274E002803D0AF060F
:100B50003A43002813DB361A002E2FDD502E00D327
:100B600050261146F1403446203C02D41046E04065
:100B700002E0AC1B1046A040F3401843F0BD400516
:100B8000400D01D152005208301A17D4502800D31A
:100B900050201646C6400746203F01D4FA4001E0E7
:100BA0002D1AAA40C3401A43504200230025B341E6
:100BB0002A462D1A9A4101DB1946F0BD4A00002C45
:100BC00001D0012000E00020101801225205D0427F
:100BD00002D900200146F0BDC917C8430122C9430C
:100BE000D2075140F0BD00003E0400001F22030C5C
:100BF00002D10F22000402D0030E03D004E0002033
:100C0000014670470002083A030F01D10001121F8C
:100C1000830F01D18000921E002801DB4000521E8C
:100C2000120551184205C012411810467047C10FF5
:100C3000C90700D04042012292071143D6E70121A3
:100C40008907D3E710B50B1E01D0202301E0011E58
:100C50002BD00C0C01D10904103B0C0E01D1090260
:100C6000083B0C0F01D109011B1F8C0F01D189001A
:100C70009B1E002901DB49005B1E0446DC4021432A
:100C80001C05A4182022D21A90404B05C20AC90A9A
:100C90001A430919830501D14308184016239840C7
:100CA00002D30020521C4141104610BDCA0FD2078A
:100CB00003D00B46002140429941024B1A43C1E741
:100CC000004ABFE70000D0410121C90501234118B6
:100CD00042001B06D3185B0E0AD0C1100722D206B1
:100CE000891840075242D14201D5520089187047F5
:100CF000090208D50146002A03D0C10FC907002008
:100D0000704710467047420202D0002002497047E7
:100D1000072109050143F4E70000F87F7047FEB59D
:100D2000054610460C46184373D0AE468C4600204C
:100D3000AD1A01469C4167D36646002701243D4613
:100D4000B61A9D4102D313463A462124654676469B
:100D50002F04360C3E432D0CB61A9D4104D3150CBE
:100D60001B042B4312041034654676462F06360AC0
:100D70003E432D0AB61A9D4104D3150E1B022B4388
:100D800012020834654676462F0736093E432D0980
:100D9000B61A9D4104D3150F1B012B431201241DCC
:100DA00065467646AF07B6083E43AD08B61A9D4184
:100DB00004D3950F9B002B439200A41C65467646F6
:100DC000EF0776083E436D08B61A9D411AD3921874
:100DD0005B41641C16E00018764665464941B71A27
:100DE0009D410191009009D36046B11A98418E4609
:100DF0008446009801990025401C6941DD0752088E
:100E00002A435B08641EE6D57246634603B0F0BD14
:100E1000FFE700200146C046C0462A462346F5E7C4
:100E200010B500F039FB006810BD10B5044600F0A5
:100E300033FB046010BDFFB504460D4681B024307D
:100E400000902168880604D51022E0699143216052
:100E500000E00120A84201DD471B00E000270498C4
:100E6000A1697A191018081AA0612078C00602D466
:100E70002046C046C046002608E003986268A16884
:100E8000805D9047206A401C761C20620498864250
:100E9000F3DB2078C0060AD52046C046C04606E0EF
:100EA0006268A16830209047206A401C2062384662
:100EB0007F1E0028F4DC07E000986268A168405DAE
:100EC0009047206A401C206228466D1E0028F3DCF3
:100ED0002046C046C0462078000602D5022005B054
:100EE000F0BD0120FBE700007047FFB50C461E4631
:100EF0008FB003CA089009914F007D0D00D16D1E7F
:100F0000002108460020C0460321099A89050840AF
:100F1000002A03DA8200801840080840800D01286A
:100F20000A9002DD0020C0430A90089807430DD0C4
:100F3000F048F149281848430714189800281DD094
:100F40007542291E1DDD0A9842421BE018980128AF
:100F500002D00020302104E00020F24305E02154BB
:100F6000401CB042FBDB30460022189B002121547C
:100F70000F998B600A60486013B0F0BDBD1B6D1CFB
:100F8000DFE70A9A002900DA69420BA800F00AFBA1
:100F90000BAB07CB03AB07C30899099800F06EFBB6
:100FA0006B4607C30146D5480918002D00910BDD9B
:100FB000D24903980A9A49424018002303A9039092
:100FC000684600F0CBFD08E003990A9A0023081850
:100FD00003A90390684600F06BFD6B4607C300044D
:100FE000000C03D00020C043410800E01046189ACE
:100FF000002A03D00022009215461EE0751E05D47B
:1010000000F04EFA303262556D1EF9D501220843C8
:10101000079602D000227F1C04E02078302801D1FE
:1010200000227F1E002A069787D01EE0112D07DAC6
:1010300000F036FA303262556D1C02460A43F5D193
:10104000084303D00098002819D00EE00021681E44
:1010500005E0235C625C63542254401E491C8142BB
:10106000F7DBA81B401E07950690079A18990020E9
:10107000A0540F98079B069A81600CC07CE711264C
:101080000020189059E7D21DF0B50D460446D1084E
:1010900093B0C90003C90C900D9107F013FF0246ED
:1010A0000D98C00F01D02D2007E02068810701D5E1
:1010B0002B2002E04007C00F4001032A0F9001D00F
:1010C000072A05DB03462946204600F027FA0EE1F1
:1010D0002078800601D5E76900E006272846652DBF
:1010E00004D0662814D0672D69D12DE00020112F7F
:1010F000009001DB112300E07B1C0CAA03A910A8BF
:10110000FFF7F3FE1199002610987D1C0E9142E026
:1011100001203B460CAAC0070B900120009003A9B8
:1011200010A8FFF7E2FE119D1298109900260028E2
:101130000E9501D1781C0D18781B02D446427D1CF7
:10114000761EE81B00903AE0012F00DA012700200C
:10115000112F009001DD112300E03B460CAA03A9EA
:1011600010A8FFF7C2FE11993D46109800260E9177
:10117000217809070BD40E99A94200DA0D4603A97C
:10118000012D04DD4A19203AD27F302A06D0B84218
:1011900001DA011D04DA012100910FE06D1EEFE775
:1011A000002802DC86192D1A03E0411CA94200DD4B
:1011B0000D46801B401C00900120C0070B9020783A
:1011C000000705D40098A84202DB0020C04300902D
:1011D00069460020C8720B98012102AF0337C90786
:1011E000884225D0022010902B2011900B980028C7
:1011F0000BDA40420B902D20119006E00B9800F086
:10120000B3F830317F1E0B9039701099481E0029B9
:101210001090F3DC0B980028F0D111987F1E3870E5
:101220002088000501D5452000E065207F1E38702C
:1012300001A8C01BC01D0B900F98002800D00120F2
:1012400041190098C01709180B980818A169081AC5
:10125000401EA0612078C00602D42046C046C04689
:101260000F98002805D06268A1689047206A401C4A
:1012700020622078C00625D52046C046C04621E021
:10128000002E07DB0E98B04204DD03A86268805D83
:10129000A16802E06268A16830209047206A761C4D
:1012A000401C20620098401E002800900AD100F0E7
:1012B000EFF8C06862680168405CA1689047206AE6
:1012C000401C206228466D1E0028D9DC07E06268B9
:1012D0003878A1687F1C9047206A401C20620B99D7
:1012E000481E00290B90F2DC2046C046C046032071
:1012F00042E6000001FCFFFF104D0000E1DFFFFFB0
:1013000001694A1C02610878704700B58FB00291EC
:1013100000210591054901937944039111460490F8
:101320006846FFF709F80FB000BD0000E5FFFFFFBA
:101330000A681070521C0A60704710B54369002B90
:1013400002D0C046C04601E0FEF796FF012010BD66
:101350001278014624310A7000224A700122ECE71B
:1013600011680022D243E8E701468008081A020902
:101370001018020A1018020C1018C0088200121867
:101380005200891A01E0401C0A390A29FBD2704731
:10139000F0B53D4B02460C461C400020002C63D0AB
:1013A0003A4D8B4366D000296BDB0B0D1D05A9431D
:1013B00001252D0529430124FD33E34001D3921873
:1013C0004941FF3381339C468B02940D0121234315
:1013D00089074C42920200271B198C105D1A04D415
:1013E0002D1B02D42B466500491992185B416408F5
:1013F000F4D15C1A08D40125ED07EE175519744194
:1014000002D42A462346491C94185B4101229207C4
:101410001D46E61B8D4106D4B61A854103D42B46E2
:10142000550034467F1924195B415208802AEFD1B8
:10143000234300D0022338460A22D04001D30122A0
:1014400013438A0510436246890A12058918002B46
:1014500009D00122D34002D30022401C5141002B6D
:1014600001D140084000F0BD0B03134307D0C90F62
:10147000C907F0BD0803104303D1002901DB104662
:10148000F0BD00202946F0BD0000F07F0000F87F8D
:10149000004870470436002000487047E4350020BB
:1014A0000B4670B5024689078008084319469D0817
:1014B000141AA94125090807054308092C194841B0
:1014C000250A01060D43010A2C194141200C0D0487
:1014D00028430D0C00194D41002140194D41C00811
:1014E00069070843E908840F8D0025438400241808
:1014F0004D4124196D41121BAB4107E00925ED4315
:101500002C11521963410024401C61411C460A25DC
:101510000026551BB441F1D270BD0000F8B51F463E
:10152000044601230068DB02032601461840072A0F
:1015300005DB002801D017A506E017A504E0002868
:1015400001D016A500E016A5102081432160A069F6
:10155000C01E002FA06101D0401EA0612046C046E1
:10156000C046002F09D038466268A1689047206ABB
:10157000401C2062C01C206206E0206AFAE7626814
:101580002878A1686D1C9047761EF8D22046C04688
:10159000C046F8BD4E414E006E616E00494E460099
:1015A000696E6600F7B516468AB0334878446C46D3
:1015B00003467C33C06F5A689B680DC42E4878443C
:1015C000763003AC0DC80DC43720C0010818372190
:1015D0001B30FEF766FF05460C46803D1B3C02D5DE
:1015E0006442012000E000200027099010E0E0079D
:1015F0000CD00C2020497843794432464C394118AC
:101600006846012300F054FA6B4607C364107F1C40
:10161000002CECD1184F7F442E3F16E0E80712D083
:101620002001C0190EC80691089307920068F04285
:1016300001D1981908903246012306A903A800F0A9
:1016400037FA03AB07C36D10641C002DE6D109986F
:10165000002806D032466946012303A800F07EFA2E
:1016600005E001233246694603A800F021FA0A9BEF
:1016700007C30DB0F0BD00004C9E000003464000C3
:101680000A4610B5400D0BD00121C9070F24A40252
:1016900000191C0364082143540D2143D20207E0C2
:1016A00000210120F2E7D40F490021435200401EDF
:1016B0000029F8DADB0FDB07184310BDFFB50D4634
:1016C000144685B04868516807F0D6FB0091019038
:1016D000A868A16807F0D0FB02910390A868616830
:1016E00007F0CAFB029A12188242029201D201202C
:1016F00000E00020019A0B18D2180028019202D0B5
:101700008A4202D903E08A4201D2012000E000208F
:101710000099081800906868A16807F0ADFB029A6C
:1017200012188242029201D2012000E00020019AA8
:101730000B18D2180028019202D08A4202D903E085
:101740008A4201D2012000E0002000990818009090
:101750002868216840004900400849084018FA49B3
:10176000471814E001994000C90F08430090019800
:1017700002994000C90F0843019002980399400064
:10178000C90F08430290039840007F1E0390009801
:101790000028E7DA0898002801D0EC4E00E0002687
:1017A000B74201DA012000E00020002804902AD08E
:1017B000F71BF806C00E15D0029B2021091A039AC8
:1017C0008B401A430392029A019BC2408B401A43FA
:1017D0000292019A009BC2408B4000991A430192E9
:1017E000C14000917B110DD06F460320C11A03D573
:1017F00000218200B95003E08A008100BA587A5073
:10180000401EF3D5374603980299002800D00120E6
:10181000014308980291002808460CD0002800D007
:1018200001200199019A490508430121D20AC90200
:10183000D202019200E001210E9B0122D207012B6E
:1018400002D0002B03D013E0002807D120E0904203
:1018500004D890420CD1019B0B4209D0019B59182E
:10186000019105D10099491C009101D17F1C009282
:1018700000280DD0102108460020C04604980028FA
:1018800006D00F98002803D0082108460020C04643
:1018900028682168019B009A4840C10F0598C90734
:1018A00039430EC009B0F0BDFFB587B0099A08985A
:1018B00008995368926840688968964600220393A5
:1018C00017469446089A12685300099A5B081268F2
:1018D000520052089A1A9E4BD4180A9A002A01D034
:1018E000352200E040220692002201231546049290
:1018F000DB07059324E0002D05D175460346039EC2
:101900004D1BB34109D375466646039B491B049D95
:101910009841059B7519AC465F4163463B4308D02F
:10192000059B049EDD0776082E435B08049605930D
:1019300001E0521E641EC50FED0749184041521CBC
:10194000069B9A42D7DB002D04D17546039A6B1A89
:10195000824101D203200CE0039A0B466B404240C7
:10196000134303D0014303D0012002E0022000E032
:101970000020614601910021009702910A990029F7
:1019800005D0614640020143704B019102E080079F
:10199000002302909C4201DA012000E000200700B1
:1019A0003AD01A1BD006C00E15D0029D2021019CF2
:1019B000091AC5408C402543029C8C4000D001246C
:1019C0002543019C0295009DC4408D4000992C4305
:1019D0000194C140009154111DD06D460221002296
:1019E00002290CD10320001B07E0002804DB86003D
:1019F000AE59002E00D00122401C0328F5DB081B45
:101A000002D588002A5004E08000285810438A003C
:101A1000A850491EE3D51C460A98002802980CD00D
:101A2000002800D001200199019A490508430121AD
:101A3000D20AC902D202019200E00121109B0122C8
:101A4000D207012B02D0002B03D013E0002807D1CE
:101A50001FE0904204D890420CD1019B0B4209D068
:101A6000019B5918019105D10099491C009101D1A0
:101A7000641C009200280CD0102108460020C046AB
:101A8000002F06D01198002803D008210846002016
:101A9000C04608980999019A009B00680968484067
:101AA000C10F0798C907214382600AC00BB0F0BD7F
:101AB00000B585B0019300920A460146002302A8B2
:101AC000FFF7FCFD02A807C805B000BDFFB50A4638
:101AD0001F4685B00799019301230091014602A892
:101AE000FFF7ECFD02990398049ECA0F4900D20744
:101AF00000920F22490892028C1A0021002800DB74
:101B00000C46450013486D08844214D3079A002AF6
:101B100004DA441E0026104DF64302E004460D464A
:101B20000E46102108460020C046002F03D0042195
:101B300008460020C0462005E90A084300990843EA
:101B40006905F20A1143ADE602C0FFFF013C000047
:101B5000FF3F0000FF070000FFFFFF7F00B585B0DB
:101B6000019300920A460146002302A8FFF79CFE5B
:101B700002A807C8A8E7FFB50A461F4685B007991F
:101B8000019301230091014602A8FFF78DFE0299FF
:101B90000398049ECA0F4900D20700920F224908F9
:101BA00092028C1A0021002800DB0C4645001148E7
:101BB0006D08844214D3079A002A04DA441E0026D2
:101BC0000D4DF64302E004460D460E461021084630
:101BD0000020C046002F03D0042108460020C04644
:101BE0002005E90A0843009908436905F20A1143F0
:101BF00058E60000FF070000FFFFFF7F0048704726
:101C0000E43500207546FFF7F9FFAE46050069464A
:101C10005346C008C000854618B020B5FEF7B4FA98
:101C200060BC00274908B6460026C0C5C0C5C0C56F
:101C3000C0C5C0C5C0C5C0C5C0C5403D49008D4672
:101C4000704710B50446C046C0462046FEF78BFAE2
:101C500010BD000082078B079A4237D170B5920FF2
:101C60000AD0032402780B78401C491C002A2BD090
:101C70009A4229D12042F5D11D4EF40104C808C969
:101C8000951B9543254010D19A4207D104C808C935
:101C9000951B9543254008D19A42EFD012BA1BBA42
:101CA00001209A4200D2404270BD12BA1BBA2DBA2E
:101CB00018241000E0401900E140401A05D12E0020
:101CC000E64002D1083CF4D1D01A70BD02780B78FE
:101CD000401C491C002A09D09A4207D102780B788F
:101CE000401C491C002A01D09A42EFD0D01A7047FC
:101CF0000101010170B58C180578401C6B075B0F62
:101D000001D10378401C2A1106D10278401C03E05F
:101D10000678401C0E70491C5B1EF9D12B0705D4B8
:101D20000023521E0DD40B70491CFAE70378401CA7
:101D3000CB1A921C03E01D780D70491C5B1C521ECF
:101D4000F9D5A142D8D3002070BD000010B50248DB
:101D500000F0C7FE10BD0000D031002010B50246D3
:101D6000906A816D5023194210D1816D0122520277
:101D7000114381650168CA681205920F0CD00022D8
:101D8000002A1BD0827E002A08D017E0816DC90688
:101D900022D500F0A5FE10BD0122F1E70A68120766
:101DA0000CD58A685207D20F0123002A09D0816D11
:101DB000202211438165C16D1943C16500F08EFE7B
:101DC00010BD4A680C24A2434A60816DFF22013293
:101DD000914319438165F1E7006D416B10468847D7
:101DE00010BD10B5806A816D402211438165C16DBF
:101DF00004221143C16500F073FE10BD10B5806A66
:101E000000F06DFE10BD0000F8B504462068816842
:101E10008907C90F8268D207D20F002A34D000295F
:101E200032D181680522114010250126012907D0F1
:101E3000A06D2843A065E06D3043E0650120F8BD4A
:101E40008168124A1140891C816021680320086062
:101E500001F036FB074620688068C00714D001F007
:101E60002FFBC01B02280BD920688068C00707D051
:101E7000A06D2843A065E06D3043E0650120F8BD0A
:101E800020688068C007EAD10020F8BDE8FFFF7F26
:101E9000F8B504460020009020688168C907C90F82
:101EA000002957D181682C4A10271140002908D0F9
:101EB000A06D3843A065E06D01210843E065012075
:101EC000F8BD8168254E3140491C81602448006876
:101ED00007218905084000020FD5234821490068E1
:101EE000FEF7D1FA401C00900098002805D0009819
:101EF000401E009000980028F9D1607E012829D06A
:101F000001F0DEFA054620680068C043C00721D012
:101F100020688168C907C90F002903D18168314051
:101F2000491C816001F0CCFA401B02280DD92068C1
:101F30000068C043C00708D0A06D3843A065E06DBD
:101F400001210843E0650120F8BD20680068C04316
:101F5000C007DDD10020F8BD17000080E8FFFF7F3B
:101F600008270140400D030008040020FEB50E4A7A
:101F7000CD1716680C467D22C117F71712010023F2
:101F8000FEF715F92246019100902B46104629468E
:101F9000FEF70DF932463B46FEF709F9019B009A20
:101FA000FEF71DF9FEBD000058000020F8B53B4CBF
:101FB0003B48A18825460088803500290CD00028A0
:101FC0000CD13848006800285ED1374801880629BE
:101FD0005AD10F21018057E0002855D0616BA06BCA
:101FE000084355D0A868012600281DD02F4F01288E
:101FF0001ED002284ED101F063FAE16B401AA16BAA
:10200000884241D901F05CFAE0630020385E0300A9
:1020100006F04AFF12393633334139393639393906
:10202000363333413939363901F04AFAE0632AE070
:1020300001F046FAE16B401A616B884224D901F045
:102040003FFAE0630020385E030006F02DFF121017
:102050000D0A0A1310100D1010100D0A0A1310109B
:102060000D101348E16A01E01248E16A01600220A4
:10207000A86009E01048E16AF8E70D48216B01E02B
:102080000C48216B0160AE60616BA06B084301D10D
:102090000020A860F8BD0848216BF3E70802002083
:1020A000D201002070000020D4010020D0010020C7
:1020B0004C000020D80000204800002070B5C82047
:1020C00007F000F80C49E12308460C68183004605A
:1020D0004A68DB00E51AFF24426092340748022177
:1020E000A54202D305780D430570D21AA24202D34D
:1020F00002780A43027070BD0C240020700000209A
:102100000B480021415E0B480022825E0A48914242
:1021100003DD427802231A434270084A0023D35E4B
:10212000994203DA4178012211434170704700005F
:102130000000002044010020700000204601002023
:1021400006490020085E064900228A5E904204DDAE
:102150000448042241781143417070470200002076
:102160004A01002070000020F7B5044648427B4B2E
:102170000021595E82B04843039050424843784D55
:102180000490784E28683168401A07F075F9E060CD
:1021900068687168401A07F06FF96061E168724D14
:1021A0000A1852422261A9637D21101AC9004843CE
:1021B0006E49FEF776F9E863206B06F0A1FE07464C
:1021C000206B06F0BFFE0646A86B3946EA6B41431A
:1021D00033465343C918CB179B0C5918644B8913CA
:1021E00019603B4653437043181AC217920C1018DB
:1021F0008013604A594D10600022AA5E43425E4D32
:1022000053432B604B4253435C4A13605C4A128831
:10221000002A7DD0039A544D511A296400910499E3
:10222000081A686401900A21E868FEF73AF900226A
:10223000AA5E00990092514340187D21C900FEF723
:1022400030F9A8640A212869FEF72BF90146009AA3
:102250000198504308187D21C900FEF722F928652E
:1022600001460420285E6A6D03F060FE6865042064
:10227000285EEA6CA96C03F059FE0246E864A8687F
:1022800001465043A8656A6D5143E9656A69914208
:1022900002DC5242914201DAEA650FE00222AA5EB4
:1022A000696C51432A6989182961EA69914200DD04
:1022B0002A6129695242914200DA2A61A969884259
:1022C00002DC4942884201DAA9650FE00221695E19
:1022D000286C4843E9684118E960E869814200DDFB
:1022E000E860E9684042814200DAE860AB6DEA6D7F
:1022F0003846314658435143401AC117890C0818D3
:10230000811357435E43B819C217920C101800E0AE
:1023100019E082136A662046296607F0BFF8216833
:10232000A088096848632168E08809688863216893
:1023300020890968C8630498002806DD296A686C4A
:10234000884200DA286205B0F0BD0028FBDA696A2D
:10235000686C8842F7DD6862F5E700000400002041
:102360000C2400202424002050010020C40600007A
:1023700034010020380100206C0000203C010020C6
:10238000D201002010B50748816907488268C26001
:10239000511A01614269914200DD4161034800F038
:1023A000D9FE10BD00E000E0D00300203432002050
:1023B00010B5024800F0CEFE10BD000088350020A8
:1023C00010B50446206C09498008800040186064FC
:1023D000207814210838FEF756F80549A164C10693
:1023E000C90E01208840E06410BD000000080240D2
:1023F0008008024001798906890E491E054B8A0032
:10240000D2180265044A42658A07920F0121914061
:10241000816570470009024040090240F0B4856CB4
:10242000C46C6C60046D002C02D0456D846D6C60D2
:102430000C4F7C68056C1C2635400126AE403443A9
:102440007C60046863608368102B05D00368996022
:102450000068C260F0BC704703689A600068C160A1
:10246000F0BC704700000240F8B539493848891C73
:10247000374D008809880024364E2D1F88425FD0D2
:1024800006284BD00F2802D0862855D14BE0306863
:10249000002851D13048012704603048046030489A
:1024A000046030480460304804600020285E030067
:1024B00006F0FAFC120E1323132323422342424256
:1024C0000A0A420A42420A422848078028480780EE
:1024D000284807F045F86F802EE027487D220168E4
:1024E000D20008465043254A10602548254A006816
:1024F00010601C4A11601C4908601D4800880028B3
:1025000004D106F007FE012006F0DCFD1848008823
:10251000012811D130680028DAD00DE0154807F005
:1025200042F86C8008E0134807F03DF816486C80CC
:1025300004601648346004800548A988001FC180E3
:102540003068002803D00B4807F02DF86C80F8BDE8
:10255000D4010020700000205C01002060010020F8
:102560004400002050000020400100200400002012
:1025700008000020F4320020C003002020020020C8
:10258000440300202C020020040100200A01002046
:10259000F8B52248018800293FD000210180204859
:1025A000016820480E4600680446FDF77AFF1E4881
:1025B000204D01601D4831460068241A1C48046003
:1025C0002888401C87B2002C204607DBFDF769FFF6
:1025D00014290EDD143EB14208DB0AE0FDF761FF6D
:1025E0001420C14205DA801B814202DD12480460DA
:1025F0002F801248008801280FD111480088012837
:102600000BD110480188002907D10F490F4B0A8DC3
:102610001B88D21A0A8501210180F8BD080100201B
:10262000580000200C01002014010020100100209F
:10263000180100200A0100201C01002008000020D1
:102640000A0000201C0000208C0000203400002024
:1026500072B6FEE7F8B53948374D00882946009034
:10266000FDF711FFC7B27D240846E4002146FDF7BF
:102670000AFFC6B221460098FDF705FF08460A2169
:10268000FDF701FFC4B20A210098FDF7FCFE002F00
:1026900001D02B480780002E01D02A48068000294F
:1026A00009D07D200001284A484310607D20400168
:1026B0004143264801602648092C2DD008DC230020
:1026C00006F0F2FB092E181B1E21242E2E272E00A9
:1026D0001A2C2CD007DC0A2C21D00D2C24D0102C45
:1026E0001ED1A10225E0202C1BD0412C18D10121A4
:1026F00009041EE07D21C9001BE07D21090118E0CD
:102700000121C90215E07D21490112E001210903DF
:102710000FE07D2189010CE00121490309E00560FA
:10272000F8BD0121C90304E00121490401E00121B0
:1027300089040160F8BD000010270000000100209E
:102740000E00002010000020DC000020E00000202F
:102750005800002070B50A4DFF22EE1D1346F936D1
:1027600005E0047854402A5D5A40335D401C0C4615
:10277000491E89B2002CF4D11802104370BD00002C
:10278000DC98000810B512490024A2008A58824241
:1027900005DA142C18DA012C05DA002010BD641CAF
:1027A000152CF2DBF9E7A3005A18803AD26FC9580A
:1027B000101A511A32225043FDF773FE3221641E63
:1027C0004C43001900B210BD7D20C00010BD0000B8
:1027D000CC020020F8B50446002600962546403578
:1027E000287D012812D0012028752046FFF70CFB18
:1027F000844620688168C907C90F002908D0A06DE8
:1028000010210843A0652E756046F8BD0220F8BD72
:10281000A16DFF220132914302231943A165C168D2
:102820008A07920FC16889088900C16020688168A1
:102830009F073943816020688168C90F002912D041
:102840000D4F0099491C00910099B94207D3A06D22
:10285000102198430843A0652E750120F8BD8168BA
:10286000C90F0029EDD1C1681143C160A06D800876
:102870008000401CA065C6E700F202007047704768
:1028800070477047F8B500250022009201270369C0
:10289000FF0704464034227D012A10D00122227510
:1028A000026896687607F60F002E0AD0816D202206
:1028B000114381650125002020752846F8BD0220BE
:1028C000F8BD4E68022E7DD0BB4202D07C4FBB4289
:1028D00006D10B68966A5B035B0B1E43966273E03E
:1028E000F606F60E0F23076EB3409F430B68B446FF
:1028F0005E0303D0DE0704D000234BE05B00DB0E59
:1029000048E09E0701D5012344E05E0701D502237C
:1029100040E01E0701D503233CE0DE0601D5042379
:1029200038E09E0601D5052334E05E0601D5062376
:1029300030E01E0601D507232CE0DE0501D5082373
:1029400028E09E0501D5092324E05E0501D50A2370
:1029500020E01E0501D50B231CE0DE0401D50C236D
:1029600018E09E0401D50D2314E05E0401D50E236A
:1029700010E01E0401D50F230CE0DE0301D5102367
:1029800008E09E0301D5112304E05B0301D5122367
:1029900000E000236646B3401F4307664B68C769E3
:1029A0009E08761CBE420FD80F68BC46966ADB06AE
:1029B000DB0E0F279F40BE436746BF003F0F9F407F
:1029C0003E4300E04AE0966200688B680A68466908
:1029D000120296431A405201520916434661096891
:1029E000002900DB67E7374A106807239B0518407A
:1029F000354EB1421AD1060218D4C90208431168F3
:102A0000994301431160324830490068FDF73BFDAE
:102A1000401C0C214843009000980028E2D0009808
:102A2000401E009000980028F9D144E7294EB14299
:102A300008D1C60106D489020843116899430143AD
:102A4000116038E7244EB142CCD14102CAD47102A0
:102A5000084311689943014311602CE7BB4202D03F
:102A60001748834205D10868936A4003400B8343AB
:102A7000936209680029B5DA124A106807239B059A
:102A80001840114EB14206D1C902884311689943DA
:102A9000014311600FE70F4EB14206D1890288430E
:102AA000116899430143116005E70B4EB14299D17A
:102AB000490288431168994301431160FBE6000015
:102AC0000400008008270140001000B0400D030002
:102AD00008040020004000B8002000B47047704790
:102AE0007047F8B504460027206805684668A807BF
:102AF0000FD5B0070DD5A06DC00604D4A06D01217F
:102B0000C9020843A0652046FFF7B9FE21680220EC
:102B10000860680701D5700703D428072DD5300752
:102B20002BD5A06DC00604D4A06D01214902084335
:102B3000A0652068C1680905890F06D00021002919
:102B400015D0A17E002902D011E00121F7E701682C
:102B500009070CD581684907C90F012200294CD00B
:102B6000A06D20210843A065E06D1043E06520467C
:102B7000FFF7B4FF21680C20086028060CD530064A
:102B80000AD5A06D012109040843A065204600F084
:102B90009BF9216880200860E8050DD5F0050BD56C
:102BA000A06D012149040843A0652046FFF768FE97
:102BB000FF20216801300860A8050DD5B0050BD5B0
:102BC000A06D012189040843A0652046FFF759FE46
:102BD0000120216840020860E8062AD5F00628D5C1
:102BE000206B002814D02068C0688007800F002860
:102BF00000D00127012F0DD018E041680C23994324
:102C00004160A06DFF21013188431043A065AEE70C
:102C10000127EFE7A06D012189020843A065E06D5F
:102C200002210843E0652046FFF75AFF2168102083
:102C30000860A80408D5B00406D52046FFF71EFE9C
:102C40000120216840030860F8BD0000F0B583B0A2
:102C5000044600270020029000250190002C05D09A
:102C600026462036A06D002803D009E0012003B0DD
:102C7000F0BD204600F02AF90020E06554210855F7
:102C800020688168C900C90F002917D18168864A68
:102C90001140012212071143816085488349006871
:102CA000FDF7F1FB401C400001900198002805D081
:102CB0000198401E019001980028F9D12068816890
:102CC000C900C90F002908D1A16D10221143A165C7
:102CD000E16D01221143E165012781684907C90FB0
:102CE000A26DD20601D4002907D0A06D102108439F
:102CF000A0650127384603B0F0BDA16DFF22013267
:102D0000914302221143A1658168C907C90F0029B7
:102D100031D1C16818229143A2681143C160606833
:102D2000E16C800F800702462A430D461543317F30
:102D3000012907D1626C216C401C1143A26C024333
:102D400011430D43206801695A4A1140294301612A
:102D500003216068890788420DD0510788420AD054
:102D60004900884207D0544B99680F22920491433E
:102D7000104001439960207EA27E8103607EC003E3
:102D8000014350030143206B002802D001200003BF
:102D900000E000200143E06801432069002802DAD6
:102DA0004000400801E0012040050143307B400025
:102DB0000143029801433078012809D1002A59D0F3
:102DC000A06D20221043A065E06D01221043E06554
:102DD000606A002806D0FF23C1331840A26A084366
:102DE000114601432068C268344B1A400A43C2604E
:102DF00020680269324B1A402A430261626B2068E4
:102E00004369DB08DB0013434361A26B206843691D
:102E10007025AB431201134343610F232069DB4349
:102E200000282BD001225205904215D10020226E9D
:102E300085001646EE40F5432D0702D0401C0828B9
:102E4000F6D301281FD02068856A257F6D1E6D0787
:102E5000ED0EAB40134383622068C068194A1040EE
:102E6000884215D10020E065A06D80088000401CDC
:102E7000A0653FE7012000040143A9E72068826ABA
:102E80001A438262E8E72068826A1A438262E3E7B3
:102E9000A06D0221884310210843A065E06D012147
:102EA0000843E065012725E7E8FFFF7F400D0300A9
:102EB0000804002002FCFF1F002701401902FEFF4A
:102EC00002FCFFDFE7FF3F837047000070B58EB064
:102ED0000646142107A8FDF7D4FA1C216846FDF721
:102EE000D0FA28493068884249D101200025800362
:102EF00005950090684600F09DFB002801D0FFF783
:102F0000A7FB21480268012109050A430260006805
:102F100008400C901C484038416B0122114341632A
:102F2000406B07A910400C903F20079003200890A9
:102F300005200995000700F00FFA154C1348206092
:102F4000A5600520E5606060802020614000606130
:102F5000C000A0612020E06100022062204600F055
:102F60005BF9002801D0FFF773FB346500220121D3
:102F70000C20A66200F014FB0C2000F005FB0EB044
:102F800070BD0000002401404010024008000240D3
:102F900034320020F7B504460F462068816849079F
:102FA000C90F002903D00221084603B0F0BD254611
:102FB0004035297D012906D001212975C268214E9D
:102FC000D20703D00FE0022003B0F0BD8268D20721
:102FD000D20F002A03D082683240921C826020689F
:102FE000C2680A43C2602046FEF752FF014608004D
:102FF000DAD1A06D14490840FF2101310843A065D2
:103000000020E065226D1149D162226D10491163E3
:10301000226D1049516322681C21116028752068B7
:1030200041681022114341602168206D40313A46C9
:10303000029B00F045F90146206882683240121D6B
:103040008260B1E7E8FFFF7FFEF1FFFF5D1D000832
:10305000FD1D0008E31D0008F0B400280BD0014658
:1030600020314A79022A09D00422C2630020087163
:10307000F0BC01207047F0BC012070470268136863
:103080000E24A3431360426C1468FF2301339C4356
:103090001460026814686408640014600D4E72685D
:1030A000056C1C24254001242746AF403A4372603A
:1030B000856CC26C6A60026D002A05D015689D435C
:1030C0001560826D406D42604C7100200871F0BC4B
:1030D0007047000000000240F8B50024014620318E
:1030E0004A79022A03D00421C16301242DE0026839
:1030F00013680E25AB431360026813685B085B001E
:103100001360426C1368FF250135AB431360104E0A
:103110007268056C1C231D4001231F46AF403A43D3
:103120007260856CC26C6A60026D002A06D01668F7
:103130001D02AE431660456D826D6A604B710022C0
:103140000A71816B002900D088472046F8BD000035
:1031500000000240F0B42F4E336801680C68056C23
:103160001C22154004273A46AA401A4213D062078F
:1031700011D50A68920602D40A68BA430A607268D6
:10318000016C1C2319408F403A437260016B002987
:103190003ED0F0BC08470227AF4002461F40203215
:1031A000002F19D0A70717D50B689B0605D40B680D
:1031B0000A24A3430B60012151717368046C1C2124
:1031C0000C400221A1400B43736000211171C16AC0
:1031D00000291DD0F0BC08470827AF401F4217D078
:1031E000230715D50B680E24A3430B607368046C8A
:1031F0001C210C4001252946A1400B437360C56387
:10320000557100211171416B002901D0F0BC0847B4
:10321000F0BC70470000024070B50446002C3FD05F
:103220002548256814212818FDF72DF98000206411
:103230000220264620367071286820490840286000
:10324000A168E06862690143206910430143A069F5
:103250000143E0690143206A014320680268114389
:1032600001602046FFF7ACF80121A0688903002522
:10327000884200D165602079616C8006800E08600C
:10328000A16CE06C48606068401E03280AD82046A4
:10329000FFF7B0F8206D0560616DA06D486004E037
:1032A000012070BD25656565A565E5630120707128
:1032B0003571002070BD0000F8FFFDBF0F80FFFFDB
:1032C000F8B504468C4600252046203001790129B6
:1032D0000BD00126067147790021012F07D08022EB
:1032E000E263017101252846F8BD0220F8BD0227DE
:1032F0004771E1632068016849084900016061463F
:103300002046FFF78BF8206B002805D02068016865
:103310000E221143016009E02068016804229143F4
:103320000160206801680A2211430160606C016835
:10333000084AC90302D5016811430160206D0028C5
:1033400002D00168114301602068016831430160C7
:10335000C9E7000000010000F0B400220B68002B58
:103360007ED001270B6897403B40002B79D00C7929
:10337000A407A40F012C01D0022C10D185685400A1
:103380000326A640B543CE68A6402E438660446817
:10339000BC430D79ED06ED0F9540254345600C7952
:1033A000E443A40708D0C56854000326A640B543EB
:1033B0008E68A6402E43C6600C79A407A40F022C89
:1033C0000CD1D408A40027183D6A5407E40E0F2638
:1033D000A640B5430E69A6402E433E6205685400E0
:1033E0000326A640B5430E79B607B60FA6402E4376
:1033F00006604C68A403A40F43D09508244CAD008C
:103400002F193D6E9407E40E0F26A640B5430526FE
:103410003607B04201D100260FE01E4EB04201D166
:1034200001260AE01C4EB04201D1022605E01B4EE7
:10343000B04201D1032600E00526A6402E43144DDC
:103440003E66174E34689C434F68FF0300D51C430B
:10345000346074689C434F68BF0300D51C4301E08F
:1034600014E00EE074602C689C434E68F60200D5B0
:103470001C432C606C689C434E68B60200D51C430C
:103480006C60521C0B68D34000D06AE7F0BC7047F8
:10349000001802400004005000080050000C0050CA
:1034A000801802400069084201D0012070470020C6
:1034B0007047002A01D08161704781627047000027
:1034C0000148806870470000FC03002002488168C2
:1034D0000278891881607047FC03002010B5002431
:1034E00007480168821511430160002000F00AF8C6
:1034F000002801D0012401E000F02CF8204610BD86
:103500000020024070B505460024104E3178002995
:1035100019D07D20C000FCF7B6FF01460C480068BA
:10352000FCF7B1FF00F088FD002801D001240BE07A
:10353000042D06D200222946501E00F031F8756095
:1035400002E0012400E00124204670BDFC030020BD
:103550000804002008B50B480168012211430160EE
:1035600000681040009007484038C26B01040A43CD
:10357000C263C06B084000900320400200F044FD8D
:1035800008BD000040100240002805DBC106C90E3E
:1035900001208840014908607047000000E100E018
:1035A0008207D30EFF229A408907090E994000280E
:1035B00008DB830809489B001818036893430B43F2
:1035C000036070470007000F0838830804489B0019
:1035D0001818C36993430B43C361704700E400E0CC
:1035E00000ED00E010B5104C216803225202914317
:1035F00001432160C11FFF39FA3910D10B48062160
:10360000006848430A49FCF73EFF401C61694905D0
:1036100005D5002805D0401E61694905F9D4002070
:1036200010BD032010BD0000007000400804002001
:1036300040420F00F0B583B0044600250026206804
:1036400080036CD500275C48C06BC00008D45A4882
:10365000C16B02041143C163C06B1040019001278C
:10366000564801688015014354480160FFF728FF60
:10367000029052480068C0050BD4FFF721FF029961
:10368000401A022801D9032503E04C480068C00510
:10369000F3D5002D03D02E46012F3BD03FE0484804
:1036A000C069032109020840002810D0A1698142A5
:1036B0000DD04349C869032212029043CA6901230D
:1036C0001B041A43CA61CA699A43CA61C861C00728
:1036D00013D0FFF7F5FE02903948C16989070CD471
:1036E000FFF7EEFE0299411A3648814201D90325BF
:1036F00003E03348C0698007F2D5002D01D02E4683
:10370000CAE72F48C169032212029143A2691143FB
:10371000C161C1E72848C16B02049143C1632078AD
:10372000C00706D0264841696268890889001143AC
:1037300041612078800706D5214841690C229143D8
:10374000A268114341612078800607D51C48416971
:10375000032212039143E26811434161208840042F
:1037600011D517484169626989008908114341618F
:10377000012160698907884205D10F48C16801228B
:1037800012041143C1602088000512D50C4841691C
:10379000032292039143226911434161012120696F
:1037A0008903884205D10448C168012212041143EB
:1037B000C160304603B0F0BD001002400070004010
:1037C0004010024088130000F8B504460D46002C56
:1037D0001BD05C4800684007400FA8421CD2594FDC
:1037E0003868C008C00028433860FFF769FE064605
:1037F00038684007400FA8420ED0FFF761FE811BDA
:103800005148814203D90320F8BD0120F8BD386832
:103810004007400FA842F0D120684C4E81070DD5DB
:10382000400704D5B068072109030843B060B068B9
:103830000F2109028843A1680843B0602078C007BF
:1038400040D0606801280BD002280ED0002811D08B
:103850003F49032813D0C969890715D40120F8BD51
:103860003168890310D40120F8BD316889010BD477
:103870000120F8BD3168490506D40120F8BD096A68
:10388000890701D40120F8BDB168C908C900014306
:10389000B160FFF715FE0746B0686268382108403E
:1038A000D20090420ED0FFF70BFEC11B264881428A
:1038B00001D90320F8BDB068382108406168C9000B
:1038C0008842F0D11F4801684907490FA9421CD915
:1038D0000068C108C9001B4829430160FFF7F0FDDB
:1038E0000746184800684007400FA8420DD0FFF770
:1038F000E7FDC11B1448814201D90320F8BD1148DE
:1039000000684007400FA842F1D12078400706D553
:10391000B068072109038843E1680843B06000F0FC
:1039200039F8B1683C22890911400A4A515CC9063C
:10393000C90EC8400849086008480068FFF7E2FD62
:10394000F8BD000000200240881300000010024073
:10395000401002401CB300080804002000040020AE
:1039600001480068704700000804002000B5FFF718
:10397000F7FF06498968072212031140090B044A20
:103980008900515CC906C90EC84000BD0010024044
:103990005CB3000810B5244CA068244B8006400F8F
:1039A00016D0A0688006410F581001290FD0A168D9
:1039B0008906490F022914D0A0688006400F042808
:1039C0002CD0A0688006400F03282AD0002010BD0C
:1039D000206801218004400F81401846FCF753FD08
:1039E00010BDE1688A07920FE1684906490F491C3A
:1039F000032A0CD01846FCF746FDE1684904490E3D
:103A00004843E168490F491CFCF73DFD10BDFCF738
:103A10003AFDE1684904490E4843F2E70120C0033A
:103A200010BD7D20000210BD001002400024F400F3
:103A3000F0B583B00446002C0DD020783826C0079E
:103A4000FD4F002859D0B8683040F9688907890FC0
:103A5000102803D004E0012003B0F0BD03290AD0F0
:103A6000082808D001216068090488420CD1386810
:103A7000084338601BE0386880033ED56068002842
:103A80003BD1012003B0F0BD052301221B049204A9
:103A9000984206D138681043386038680843386067
:103AA00005E038688843386038689043386060685B
:103AB000002811D0FFF704FD0546386880031CD4A8
:103AC000FFF7FEFC401B642802D9032003B0F0BDC1
:103AD00038688003F4D510E0FFF7F2FC054638683B
:103AE00080030AD5FFF7ECFC401B642802D90320B1
:103AF00003B0F0BD38688003F4D42078800775D512
:103B0000B8683040F9688907890F0722D202102867
:103B100001D102291CD000281AD0E06800284FD01B
:103B2000386821699043084338603868FF210131C3
:103B300008433860FFF7C4FC05463868400536D4B2
:103B4000FFF7BEFC401B02282ED9032003B0F0BDB6
:103B50003968490502D5E16800290AD079687F23D0
:103B60001B02994363691B0219437960002803D043
:103B700011E0012003B0F0BD38682169904308438B
:103B80003860386801218004400F8140AB48FCF761
:103B90007AFCAB490860AB480068FFF7B3FC00282B
:103BA00024D0012003B0F0BD38684005C8D578683E
:103BB0007F2109028843616909020843786015E0A2
:103BC0003868FF21013188433860FFF779FC0546EA
:103BD000386840050AD5FFF773FC401B022802D95C
:103BE000032003B0F0BD38684005F4D42078964D2A
:103BF00000073BD5B8688006400F032814D0A069A1
:103C000000281ED0286A012108432862FFF758FCCB
:103C10000646286A800729D4FFF752FC801B022839
:103C20000BD9032003B0F0BD286A80071ED5A06918
:103C300000281BD1012003B0F0BD286A8007EBD516
:103C400014E0286A400840002862FFF739FC064665
:103C5000286A80070AD5FFF733FC801B022802D9A7
:103C6000032003B0F0BD286A8007F4D42078400711
:103C700079D50026B8688006400F042825D0F86B57
:103C8000C00008D4F86B012109070843F863F86BFA
:103C90000840019001266D480168C90522D40068DA
:103CA000FF210131084369490860FFF709FC0290D0
:103CB00066480068C00515D4FFF702FC0299401A57
:103CC00002280BD9032003B0F0BDE869800754D562
:103CD000A068002851D1012003B0F0BD5B48006806
:103CE000C005E9D5A06801281CD0042105281ED0F4
:103CF000E86940084000E861E8698843E861A06835
:103D0000002820D0FFF7DCFB0290E86980072ED462
:103D1000FFF7D6FB0299411A4D4881420FD9032083
:103D200003B0F0BDE86901210843E861E7E7E8690D
:103D30000843E861E86901210843E861DFE7E869D1
:103D40008007E5D513E0FFF7BBFB0290E869800729
:103D50000DD5FFF7B5FB0299411A3D48814203D9C1
:103D6000032003B0F0BD08E0E8698007F1D4012E1C
:103D700003D1F96B30078143F963E06900285AD019
:103D8000B9688906490F022971D001252D0602283C
:103D900018D03868A8433860F86880088000F86058
:103DA000F8682C490840F860FFF78AFB0446386839
:103DB00080017FD5FFF784FB001B022853D9032025
:103DC00003B0F0BD3868A8433860FFF779FB0646BA
:103DD000386880010AD5FFF773FB801B022802D9DF
:103DE000032003B0F0BD38688001F4D4616A206A12
:103DF000A26A0843E16A120211430843216B084397
:103E0000F968154A11400843F8603868284338605B
:103E1000F868012109070843F860FFF751FB0446E1
:103E20003868800146D4FFF74BFB001B022816D9E7
:103E3000032003B0F0BD3DE0001002400024F40078
:103E400008040020000400204010024000700040E0
:103E500088130000FFFFFEEF8C80C11F07E0386869
:103E60008001E0D526E038688001A3D422E0012853
:103E70001ED0F868226A8107890F914216D17021FD
:103E8000626A0140914211D17F21A26A0902014078
:103E9000120291420AD11F214904E26A0140914273
:103EA00004D1400F216B4007884203D00120C0E7B6
:103EB0000120BEE70020BCE7F8B50446002C0CD07A
:103EC000606A002600280AD026616661A66225463F
:103ED0004035687F002808D00BE00120F8BD6168FC
:103EE000C81FFD38F2D0E661F0E72E77204600F0DB
:103EF0005BF802226A7720680168402399430160D9
:103F00000723E1681B02994201D9002001E001204A
:103F100000030F273F02B94202D0994200D0A662A7
:103F2000FF236168053319402127A368BF023B4086
:103F3000194323691340227D1943D207D20F11433D
:103F40000123A2695B021A401143E26938231A4037
:103F50001143226A80231A401143A26A9B011A402E
:103F6000114322681160A1690422090C1140626AA0
:103F700010231A401143626B08231A4011430F2388
:103F8000E2681B021A401143012212031040014350
:103F9000206841602068C16952109143C161266662
:103FA000012068770020F8BD10B586B004461421C2
:103FB0006846FCF766FA1149206888421BD1104810
:103FC000026881140A4302600068084005900C48AA
:103FD0004038426B02210A434263406B0191084022
:103FE00005903820009000200290039004906946CC
:103FF0000448FFF7B1F906B010BD000000300140E1
:104000004010024000040050034A116803235B0281
:1040100099430143116070470000014004220549A3
:10402000042803D008699043086170470869104369
:104030000861704700E000E010B40B49401E884260
:1040400002D910BC0120704708494861084807237D
:10405000C2691202120A4C042243C2610020886124
:104060000B6110BC70470000FFFFFF0000E000E0A4
:1040700004ED00E0704770477047000070B40346DD
:1040800020331A7F012A4CD001221A77CA680024F3
:1040900003252D02AA438D682A430125AD02AA43B8
:1040A0004D682A430125ED02AA430D682A430125E4
:1040B0002D03AA430D692A4301256D03AA434D69C7
:1040C0002A430125AD03AA430D6B2A430F252D0476
:1040D000AA430D8B2D042A430068134DA84204D136
:1040E00001263607B243CE693243A84214D10F25C8
:1040F0002D05AA430D8D2D052A4301252D06AA4322
:104100000D6A2A4301256D06AA434D6A2A430125FB
:104110006D07C96AAA430A4342641C7770BC002039
:10412000704770BC02207047002C0140F0B4064676
:104130002036337F012B0CD0012333771368012BFA
:104140000AD0002300240025012909D0022920D10A
:1041500013E0F0BC0220704701235C020925F3E75D
:104160000068076E9F43516819403943A143926824
:10417000AA4022400A4302660BE00068416E994360
:1041800057681F400F43A7439168A9402140394316
:10419000416600203077F0BC70470000F0B4024662
:1041A0002032137F012B27D001231377022353776B
:1041B00004686368A568124EB44204D10F273F0516
:1041C000BB434F683B437027BB430F681F43676087
:1041D0000068B04205D00B4B984202D00A4B98427F
:1041E00004D180239D438968294381600120507751
:1041F00000201077F0BC7047F0BC02207047000030
:10420000002C0140000400400040014070B505460C
:104210002C464034002908D0042908D0082908D0A9
:10422000E279012A07D0012070BD2279F9E762798D
:10423000F7E7A279F5E70220002925D0042925D047
:10424000082925D0E0710422286803F013FC2868AF
:10425000416C0122D20311434164114928680122B3
:10426000884205D00F49884202D00F49884211D1B7
:1042700081680E4B194006290FD0DB1F99420CD0E4
:1042800001681143016008E02071DCE76071DAE742
:10429000A071D8E7016811430160002070BD0000E3
:1042A000002C0140000400400040014007000100D4
:1042B00070B504460D4600222946206803F0DAFB5B
:1042C0002068016A134A144B114207D1016A19424E
:1042D00004D1416C0126F603B14341642068016AB0
:1042E000114206D1016A194203D101684908490007
:1042F000016001204034002D06D0042D06D0082D89
:1043000006D0E071002070BD2071FBE76071F9E715
:10431000A071F7E7111100004404000070B50446D5
:10432000002C05D025462035687F002802D006E005
:10433000012070BD00202877204600F017F80220E9
:104340006877211D206803F043FB01204034207270
:10435000A877E87720706070A070E07020716071BD
:10436000A071E0716877002070BD000010B586B0C4
:10437000044614216846FCF784F8234A2168234840
:1043800091422CD1214940310B68C21413430B6078
:10439000096811400591426B04210A434263406B56
:1043A00008400590C8020090122001900120029060
:1043B000002003900220049069461548FEF7CCFFC8
:1043C000002211460D20FFF7EBF80D20FFF7DCF877
:1043D000002202210E20FFF7E3F80E200FE00D4A25
:1043E00091420ED1C26B10210A43C263C06B0022FE
:1043F0000840059003211120FFF7D2F81120FFF7A4
:10440000C3F806B010BD0000002C014000100240AF
:104410000008005000100040014620314A7F012A68
:1044200001D00120704702224A770168CB6801223F
:104430001343CB6000680D49884205D00C4988427F
:1044400002D00C4988420BD181680B4B19400629D8
:1044500009D0DB1F994206D001681143016002E0D8
:10446000016811430160002070470000002C0140EA
:1044700000040040004001400700010070B5044600
:1044800025462035287F012817D001262E770220C7
:10449000687720688268314B1A40FF231B029A43D9
:1044A00082600A68502A32D00EDC202A4DD006DC09
:1044B000002A4AD0102A4CD147E0022070BD302A91
:1044C00043D0402A45D136E0602A2AD0702A12D043
:1044D00001231B03D01A3CD098423AD1CB684A68DA
:1044E0008968206803F0D4FA206881680122920369
:1044F000114381602DE0CB684A688968206803F029
:10450000C7FA2068816877221143816021E0CA6878
:104510004968206803F054FC5021206803F0C4FA75
:1045200017E0CA684968206803F05CFC60212068D5
:1045300003F0BAFA0DE0CA684968206803F040FC4D
:104540004021206803F0B0FA03E01146206803F030
:10455000ABFA6E770020287770BD000088FFCEFF91
:10456000F8B504460D46002C05D026462036707F4F
:10457000002802D006E00120F8BD00203077204658
:1045800000F04AF802207077206881681E4A1140C6
:104590008160211D206803F01BFA2068816883690F
:1045A000026A2F680F43BC4618490B40AF69A968DF
:1045B0003F021F433943164B1940164B1940EF6910
:1045C000EB683F020F433B4329692F6A09013F0310
:1045D0003943194322239A4388239A436B686D69B0
:1045E0002D0115432B436746876020688161206851
:1045F0000362012040342072B077F077207160713F
:1046000070770020F8BD0000F8BFFEFFFCFCFFFF44
:10461000F3F3FFFF0F0FFFFF10B586B00446142120
:104620006846FBF72EFF1049206888421AD10F48D0
:10463000C26B02210A43C263C26B0A400592436BFC
:10464000012213434363406B019110400590C02049
:104650000090002002900390052069460492000714
:10466000FEF77AFE06B010BD0004004000100240C4
:10467000F0B5044620462030837FC57F2246403275
:1046800016795779002904D004290CD0012B1AD1AE
:1046900013E0012B01D1012E01D00120F0BD022336
:1046A0008377137116E0012D01D1012F01D0012074
:1046B000F0BD0223C37753710CE0012D03D1012E0D
:1046C00001D1012F01D00120F0BD02238377C377F0
:1046D00013715371002912D0042916D00122002130
:1046E000206803F0B9F901220421206803F0B4F92D
:1046F000206801680122114301600020F0BD012201
:104700000021206803F0A8F9F2E7012204212068C3
:1047100003F0A2F9ECE7704770B504462068016920
:104720000025C9438907002916DBC168C9438907E9
:1047300012D4E91E0161012020772068806980077A
:1047400003D02046FFF7E7FF05E0204600F015F90B
:10475000204600F0FEF9257720680169C943490722
:1047600018D4C168C943490714D40421C94301615D
:1047700002202077206880698005800F03D02046C2
:10478000FFF7C9FF05E0204600F0F7F8204600F0EB
:10479000E0F9257720680169C943090717D4C16882
:1047A000C943090713D40821C943016104202077B4
:1047B0002068C069800703D02046FFF7ACFF05E002
:1047C000204600F0DAF8204600F0C3F9257720688B
:1047D0000169C943C90618D4C168C943C90614D4BC
:1047E0001021C9430161082020772068C069800535
:1047F000800F03D02046FFF78EFF05E0204600F033
:10480000BCF8204600F0A5F9257720680169C94366
:10481000C90708D1C168C943C90704D1891E01610C
:10482000204600F0EBFA20680169C943090609D463
:10483000C168C943090605D48021C94301612046E6
:10484000FFF719FC20680169C943C90508D4C1688C
:10485000C943090604D4124901612046FFF70AFC46
:1048600020680169C943490609D4C168C94349069A
:1048700005D44021C9430161204600F0C0FA2068F8
:104880000169C943890609D4C168C943890605D4A9
:104890002021C94301612046FFF7EEFB70BD0000F7
:1048A000FFFEFFFF30B587B0044614216846FBF7D2
:1048B000E8FD15492068884224D11448416B022440
:1048C00021434163416B21400591416B012211431A
:1048D0004163406B00251040059007204003694666
:1048E00031C169460A4803950494FEF735FD072057
:1048F0000002694631C1052069460007039504940A
:10490000FEF72AFD07B030BD002C01400010024028
:104910000004005010B504462034237F012B0BD037
:10492000012323770C2A1AD008DC002A0BD0042A92
:104930000DD0082A1ED10EE0022010BD102A12D080
:10494000142A17D113E0006803F0B8F812E00068E9
:1049500003F0FEF80EE0006803F042F90AE0006898
:1049600003F086F906E0006803F0BEF902E0006893
:1049700003F0EEF90020207710BD704770B50446B3
:10498000002C05D025462035687F002802D006E09F
:10499000012070BD00202877204600F016F8022084
:1049A0006877211D206803F013F80120403420723D
:1049B000A877E87720706070A070E0702071607157
:1049C000A071E0716877002070BD7047F8B50446AB
:1049D0000D4626462036307F01280CD00120307746
:1049E00008270C2A4BD008DC002A0BD0042A1CD044
:1049F000082A43D130E00220F8BD102A56D0142AEC
:104A00007CD166E02946206803F058F82068816967
:104A10003943816120688169042291438161206862
:104A200081692A691143816168E02946206803F0A1
:104A30008FF8206881690122D202114381612068C8
:104A40008269012189028A438261206881692A6919
:104A500012021143816151E02946206803F0C0F839
:104A60002068C1693943C1612068C169042291434A
:104A7000C1612068C1692A691143C1613EE02946CC
:104A8000206803F0F5F82068C1690122D2021143C1
:104A9000C1612068C269012189028A43C26120681C
:104AA000C1692A6912021143C16127E029462068C1
:104AB00003F01AF92068416D394341652068426D61
:104AC00004218A4342652068416D2A69114341658A
:104AD00014E02946206803F03BF92068416D01226B
:104AE000D202114341652068416D521091434165E6
:104AF0002068416D2A691202114341650020307718
:104B0000F8BD70B50446002C05D025462035687FD9
:104B1000002802D006E0012070BD00202877204642
:104B200000F016F802206877211D206802F050FF7F
:104B3000012040342072A877E87720706070A07060
:104B4000E07020716071A071E0716877002070BD25
:104B50007047704730B5054628462C462030403413
:104B600000290CD004290CD008290CD00C290CD019
:104B700010290CD0E278012A0BD0012030BD827FB1
:104B8000F9E7C27FF7E72278F5E76278F3E7A278E2
:104B9000F1E70222002933D0042933D0082933D089
:104BA0000C2933D0102933D0E2700122286802F09A
:104BB00053FF1B4928681B4B884207D0984205D0F9
:104BC000194A904202D0194A904204D1426C012401
:104BD000E4032243426428680122884204D0144935
:104BE000884201D0984215D18168124B194006299C
:104BF00013D0DB1F994210D00168114301600CE013
:104C00008277D2E7C277D0E72270CEE76270CCE736
:104C1000A270CAE7016811430160002030BD0000A6
:104C2000002C014000400140004401400048014088
:104C3000000400400700010030B50446234620462A
:104C40002033403000290CD004290CD008290CD086
:104C50000C290CD010290CD0C278012A0BD00120CD
:104C600030BD9A7FF9E7DA7FF7E70278F5E7427817
:104C7000F3E78278F1E70222002911D0042911D04C
:104C8000082911D00C2911D0102911D0C270002987
:104C900010D0042913D0082917D00C2920D11AE0EC
:104CA0009A77F4E7DA77F2E70270F0E74270EEE71E
:104CB0008270ECE72068C3681343C36010E020688B
:104CC000C26804231A43C2600AE02068C26808234D
:104CD0001A43C26004E02068C26810231A43C2600D
:104CE0000122206802F0B8FE15492068154A884262
:104CF00007D0904205D0144B984202D0134B9842F3
:104D000004D1436C0125ED032B4343642068012348
:104D1000884204D00E49884201D090420BD181686C
:104D20000C4A1140062909D0D21F914206D00168D1
:104D30001943016002E0016819430160002030BDA1
:104D4000002C014000400140004401400048014067
:104D5000000400400700010070B504460D46002223
:104D60002946206802F078FE20491F4822688B10EF
:104D7000824208D01E48824205D01E48824202D09C
:104D80001D4882420AD1106A084207D1106A1842AF
:104D900004D1506C0126F603B04350642068026AC7
:104DA0000A4206D1016A194203D101684908490043
:104DB0000160204620300121002D0BD0042D0BD0A6
:104DC0004034082D0AD00C2D0AD0102D0AD0E170E5
:104DD000002070BD8177FBE7C177F9E72170F7E725
:104DE0006170F5E7A170F3E7002C0140111100009C
:104DF00000400140004401400048014070477047B6
:104E000010B4014680310A78012A16D001220A70B6
:104E100024224A60026813681468640864001460FD
:104E2000012252079343002242660068036020205B
:104E300048600A7010BC0020704710BC0220704708
:104E40007047704770B505462C468034207801289D
:104E50001AD001202070242060602868066802684B
:104E60005208520002602868826807235B069A4352
:104E70000A438260284603F00DF828680660202067
:104E800060600020207070BD022070BD70B50546C6
:104E90002C4680342078012819D00120207024204D
:104EA000606028680668026852085200026028683C
:104EB0008268D200D2080A438260284602F0EAFFE4
:104EC00028680660202060600020207070BD0220ED
:104ED00070BD7047704770478030416802469268E5
:104EE0000846104370470000F8B504462368D869A7
:104EF00019689A68AF4D06462E40002E0ED18506E1
:104F00000CD5012720253F070D4017403D4305D014
:104F1000216F002901D020468847F8BD25468035FD
:104F2000002E74D0A44EA54F16400F4037437DD0BD
:104F3000C70706D0CF0504D501271F62EB683B43A6
:104F4000EB60830708D5D30706D0276802233B62AE
:104F5000EB6804273B43EB60430708D5D30706D033
:104F6000276804233B62EB6802273B43EB6003079F
:104F700009D520230B40334305D02668082333622C
:104F8000EE681E43EE60030509D54B0107D50123EA
:104F90002668DB023362EB6820263343EB60EB6864
:104FA000002BBAD080060AD520200140C00502405F
:104FB000114304D0216F002901D020468847E868BA
:104FC00021688968490602D42821084228D0204651
:104FD00003F0ACF82068816849061DD5EFF3108115
:104FE000012282F31088836840229343836081F317
:104FF0001088E06F00280BD071498163E06FFEF7E5
:105000006BF8002889D0E06F816B8847F8BD0DE010
:105010002046FFF760FFF8BD2046FFF75CFFF8BDB4
:105020002046FFF758FF0020E860F8BDE66E012E2D
:105030007ED1C6067CD5CE067AD510271F622068A1
:10504000816826464906403600294ADAE26F11682F
:10505000496889B20029E8D0B38B8B42E5D9F18346
:1050600011680968890634D4EFF31081012282F3B4
:10507000108802683B019A43026081F31088EFF3C5
:105080001081012080F31088206882685208520045
:10509000826081F31088EFF31081012080F3108883
:1050A0002068836840229343836081F31088202026
:1050B000A8600020E066EFF31081012080F31088E3
:1050C00020680368BB43036081F31088E06FFDF73D
:1050D000C3FFB08BF18B401A81B22046FFF7B0FEC0
:1050E000F8BDB18BF28B891A89B2F28B002AF7D006
:1050F0000029F5D0EFF31082012383F310880368B1
:10510000FF262136B343036082F31088EFF3108249
:10511000012080F31088206883682A4E3340836022
:1051200082F310882020A8600020E066206700E05D
:105130000EE0EFF31082012080F3108820680568EC
:10514000BD43056082F310882046FFF779FEF8BD65
:10515000C50208D5550206D5012000051862204673
:10516000FFF7B8FEF8BD03060CD501258023ED0539
:105170000B402A40134305D0616F0029F2D020462E
:105180008847F8BD420605D54A0603D5204602F0F9
:10519000FFFFF8BD020205D54A0003D52046FFF700
:1051A00098FEF8BDC001FCD50029FADA2046FFF7C9
:1051B00048FEF8BD0F0800000100001020010004A7
:1051C00019800008FEFFFFEF70B50446002C05D0E3
:1051D000254680356868002802D006E0012070BDB1
:1051E00000202870204600F029F8242068602068FC
:1051F0000168490849000160204603F02DFA0128A2
:1052000019D0A06A002802D0204602F067FE20686C
:1052100041680922D20291434160206881682A22B4
:10522000914381602068016801221143016020469A
:1052300002F0BAFE70BD012070BD0000F0B58DB067
:10524000064614216846FBF71CF91C2105A8FBF74C
:1052500018F94B4930684B4D0024022788422BD166
:10526000012605A805960694FEF7E4F9002801D06A
:10527000FDF7EEF9434840300268012189030A43F3
:105280000260006808400C90696B04200143696368
:10529000696B0294014030200C91009001970496B4
:1052A000039469463848FEF757F8002202211B2074
:1052B000FEF776F91B202AE0344988422BD105A855
:1052C00005970794FEF7B6F9002801D0FDF7C0F95D
:1052D000E96B012040040143E963E96B01400C9153
:1052E000696B082001436963696B02940140602087
:1052F0000C91009003940197049469462448FEF7AA
:105300002BF8002202211C20FEF74AF91C20FEF790
:105310003BF90DB0F0BD1F498842FAD1E96B01207D
:1053200080040143E963E96B01400C91686B3843E9
:105330006863686B019738400C90032080020090EE
:10534000042004900294039469461348FEF704F87D
:10535000134D12482860AC603620EC6068606C61C8
:10536000AC618020EC612861800128622846FDF74D
:1053700053FF002801D0FDF76BF9F567AE62C8E76F
:105380000038014000100240000800500044004076
:10539000000C005000480040000400501C00024077
:1053A0008835002070B5034680339C68202C01D0DE
:1053B000022070BD00290AD0002A08D00125846887
:1053C0002D03AC4209D10469002C02D005E0012074
:1053D00070BDCC0701D0012070BD1C78012C16D007
:1053E00001241C700023C36603685C6824020BD58B
:1053F000EFF31084012585F310881D680126B60699
:1054000035431D6084F3108803F00AFA70BD022052
:1054100070BD70B5034680339C68202C01D00220FB
:1054200070BD00290AD0002A08D0012584682D0308
:10543000AC4209D10469002C02D005E0012070BD06
:10544000CC0701D0012070BD1C78012C16D001249E
:105450001C700023C36603685C6824020BD5EFF35D
:105460001084012585F310881D680126B606354392
:105470001D6084F3108803F029FA70BD022070BD0E
:1054800070B50546006831490026884217D130487A
:105490000088042813D12F4801784278C3785140FE
:1054A000827814465C406140047940796140414013
:1054B0002948018037D029480188491C01802849A2
:1054C0002868284C884212D1608900040FD4FDF767
:1054D000F7FF6062E01D01786089234B8204920C23
:1054E000401C80B299546081C72800D966811F4949
:1054F0002868884216D16078002813D120890004DA
:1055000010D4FDF7DDFF20621648194B801D01788D
:1055100020898204920C401C80B299542081C728B3
:1055200000D9268170BD1348190206802004401856
:1055300011498018086080031049000C0880104948
:1055400008880A28BBD2401C0880B8E70048004001
:105550000E00002040300020740300206003002073
:1055600000440040D80100201826002000380140E7
:1055700088240020640300207003002068030020BA
:105580006203002070477047FEE7000070B50122FB
:105590000A4D140221462846FDF78BFF0122802187
:1055A0002846FDF786FF002280212846FDF781FF6F
:1055B000002221462846FDF77CFF70BD0004005004
:1055C00010B5084C012211022046FDF772FF00229F
:1055D00080212046FDF76DFF012280212046FDF746
:1055E00068FF10BD0004005070B50122054D140283
:1055F00021462846FDF75DFF002221462846FDF79B
:1056000058FF70BD0004005010B5314902200880D9
:105610003049062008803049002008602F49344A6C
:1056200008602F49354B08602E49364C08602E49DA
:1056300008602E490860462111802E4901220A8007
:105640002D4919607D212E4BC90019804B23DB00A9
:1056500023802E4C2C4B23602D4CC82323802D4BB4
:105660002E4C1A802C4B23602D4B2E4C1A80042379
:1056700023802D4C4B102380FF232C4C2D33238073
:105680002C4C2B4B23602C4C0A2323802B4B1A8051
:105690002B4B64221A602B4A11802B4A11802B4A13
:1056A0002C4B10602A4A1A602C4B2B4A1A602C4B48
:1056B0001A602C4A11602C4A11802C4908602C4930
:1056C00008602C4908602C4908602C49088010BDEE
:1056D000D0010020D4010020440000205000002010
:1056E00040010020480000204C000020D80000208D
:1056F0005001002052010020809698006C0100208B
:10570000B801002054010020B80B000094030020D1
:10571000780300207A03002088130000880300200B
:105720007C030020CC0300207E03002080030020A7
:1057300050C300002C030020240300202603002077
:10574000380300205003002028030020C802002056
:10575000307500001C020020A08601001402002009
:105760001802002030020020C00200203C0200206D
:105770004002002034020020380200200C020020E9
:1057800005490620088005490020086004480549AD
:105790000068086070470000D4010020D800002095
:1057A000C802002084020020F0B50022AA48AB49BC
:1057B000FF23F5339400521C08519A42FADBA84AA1
:1057C0008A62A84A8A67A84ACA67A449A74A803158
:1057D0000A62921E4A62A64A8A62921ECA62A54A5A
:1057E0000A638863C863921E08644A634864C86495
:1057F00008654865A04A88658A64C8659F4A0A6644
:10580000921E4A669E4A8A669E4D921E0D67CA6621
:1058100048679D4A8A679D4CC86780319C4B0C60E5
:10582000A21E8B604A609A1ECA608861C861994A4C
:105830000862994F8F62961E4E610A614862BF1ED0
:10584000CF62964F0F63BF1E4F63954F8F63BF1E8E
:10585000CF63944F0F64944F4F647F4F8031143760
:105860000F618861C861086248628862C862086323
:1058700048638863C863086448648864C8640865CA
:105880004865BF1E88654F61C8651A3F0F66BF1C1B
:105890004F660E378F66BF1ECF6648670A3F886720
:1058A0000F67C867803108604860C86008618D6014
:1058B0008C614861A41ECC610B629B1ECE624B6260
:1058C0008A627A4A0A637A4A4A637A4A8A63921EE9
:1058D000CA63794A0A64921E4A64784A8A64784A9A
:1058E0000865CA644865774A8A65774ACA65774A0F
:1058F0000A66921E4A66764A8A66764ACA66764A78
:105900000A67764A4A67921E8A67754ACA67754A65
:1059100080310A60744A4A60744A8A60921E086143
:10592000CA604861724A8A61724A0862CA61486202
:10593000714A8A62921ECA62704A0A63921E4A6360
:105940006F4A8A63921ECA636E4A0A64921E4A6450
:105950006D4A8A64C8646D4A0A656D4A4A656D4A33
:105960008A65921ECA656C4A0A666C4A4A666C4A27
:105970008A66921ECA666B4A0A676B4A4A676B4A16
:105980008A676B4ACA67921C80310A60921C4A601F
:10599000921C8A60921CCA60921C0A61654A4A6124
:1059A000654A8A61654ACA61654A0A62921E4A620C
:1059B000644A8A62921ECA62634A0A638863C86341
:1059C000921E08644A634864604A8A64921ECA64EC
:1059D0005F4A0A658865C86508664866921E8866DB
:1059E0004A65C8665B4A0A67921E4A675A4A8A67CE
:1059F000921ECA67594A80310A60921E4A60584A0C
:105A00008A60921ECA60574A0A61921E4A61C86142
:105A1000554A086248628862C862086348638863BE
:105A20008A61C863514A0A64514A8A66514ACA6601
:105A3000514A0A67514A88674A67C86751485049BE
:105A4000016051494160891E81605049C1605049DF
:105A50000161891E4161F0BDEE010020A8270020F0
:105A60003001002002000020000000206E00002015
:105A7000C20300204603002070000020BE01002069
:105A8000C2010020D0010020D40100204A000020E3
:105A90004E000020DA0000204600002052000020C6
:105AA000420100202C0000206C0300205001002047
:105AB00052010020960300206E010020B801002052
:105AC00054010020780300207A0300208A0300207C
:105AD0007E0300207C030020CC0300202E03002046
