:020000040800F2
:10000000B01C00205D020008A171000861660008B4
:1000100000000000000000000000000000000000E0
:10002000000000000000000000000000257800082B
:100030000000000000000000A977000895020008F9
:100040006F020008000000006F0200086F02000845
:100050006F0200086F0200086F0200086F020008BC
:100060000000000021270008312700086F02000867
:1000700061200008417C00084D7C00080000000061
:100080006F020008E97C00086F0200086F02000898
:100090006F0200086F0200086F0200086F0200087C
:1000A0006F0200086F0200086F020008E98A00086A
:1000B000558B00086F02000800F002F800F0BFF84E
:1000C00012A030C8083824182D18AC4201D100F015
:1000D000B6F80FCCA246AB460CA730CF2D1B083F7D
:1000E0003F197C427F1E54442D090426F441641EAE
:1000F000AC4201D300F0A3F80126334200D0FB1A32
:100100003343984754465D46DFE70000F4C00000E3
:1001100014C10000704700000023002400250026C1
:10012000103A01D378C1FBD8520700D330C100D5B3
:100130000B60704710B56E2902D100F0BDFC10BDF8
:10014000702902D100F0F7FD10BD662902D10AF036
:1001500073FA10BD652902D10AF06EFA10BD672945
:1001600002D10AF069FA10BD612902D10AF06CFAD5
:1001700010BD03681B0A01D380231943692902D1EA
:1001800000F064FC10BD642902D100F05FFC10BDDA
:10019000752902D100F05AFC10BD6F2902D100F080
:1001A00075FD10BD782902D100F0B2FD10BDE9291E
:1001B00002D100F011FD10BDE42902D100F00CFDC8
:1001C00010BDF52902D100F007FD10BDEF2902D1C5
:1001D00000F068FD10BDF82902D100F0A7FD10BDA8
:1001E0000368DB0901D380231943632902D101F09D
:1001F00096FA10BD732902D101F099FA10BDE329D6
:1002000002D101F0A3FA10BDF32902D101F0A6FA40
:1002100010BD002010BD1FB501F02CFB0400002014
:1002200000210AF0C9F9401C6060002000210AF09A
:10023000ADF9E06000F038FA1FBD10B510BD01F057
:10024000F9FA1146FFF7E7FF09F038FB01F086FEE7
:1002500003B4FFF7F2FF03BC08F054FF07488047E0
:1002600007480047FEE7FEE7FEE7FEE7FEE7FEE79A
:1002700004480549054A064B704700003F7C0008CA
:10028000B9000008B0160020B01C0020B0180020F3
:10029000B018002030B410B50348804730BCAE46DB
:1002A00030BC024800470000AD9A0008AD7B000852
:1002B00000BF704770474343514330B55C18010C91
:1002C000130C0D4692B25D4380B251432C19054682
:1002D00055430A0C09044D1962415843010C0004AE
:1002E0004019514130BD70B5054610460C461843C3
:1002F0000ED000210846891A984127DA00210846C5
:10030000491BA04118DA2846214600F0B4FA70BD16
:10031000002C03DA01230022DB0707E00021084656
:10032000491BA04102DA0022D24353081046194665
:10033000C046C0462A4627E000216842A14100F09D
:100340009AFA002440428C4121461AE000210846D6
:10035000491BA0410CDA2146002052429841034635
:10036000284600F088FA002440428C41214670BDA6
:10037000002052429841002103466842A14100F00A
:100380007AFA002452429C41234670BD0FB41CB53A
:10039000084B06AA7B4469460090059800F0A5FB2F
:1003A00004460020694600F0B3FB20461CBC08BC94
:1003B00004B018477907000001E004C0091F0429B0
:1003C000FBD28B0701D50280801CC90700D00270C8
:1003D000704700290BD0C30702D00270401C491E91
:1003E000022904D3830702D50280801C891EE3E71B
:1003F0000022EEE70022DFE782078B079A423FD117
:1004000070B5920F0AD0032402780B78401C491C67
:10041000002A33D09A4231D12042F5D1214EF40145
:1004200004C808C9951B9543254018D19A420FD19D
:1004300004C808C9951B9543254010D19A4207D19D
:1004400004C808C9951B9543254008D19A42E7D0B6
:1004500012BA1BBA01209A4200D2404270BD12BAB1
:100460001BBA2DBA18241000E0401900E140401AD0
:1004700005D12E00E64002D1083CF4D1D01A70BD5F
:1004800002780B78401C491C002A09D09A4207D1F7
:1004900002780B78401C491C002A01D09A42EFD008
:1004A000D01A704701010101002203098B4273D366
:1004B000030A8B4258D3030B8B423CD3030C8B4271
:1004C00021D312E003460B437FD4002243088B4222
:1004D00074D303098B425FD3030A8B4244D3030BCB
:1004E0008B4228D3030C8B420DD30902FF2212BA90
:1004F000030C8B4202D31212090265D0030B8B420C
:1005000019D300E0090AC30B8B4201D3CB03C01AF5
:100510005241830B8B4201D38B03C01A5241430BD0
:100520008B4201D34B03C01A5241030B8B4201D3C0
:100530000B03C01A5241C30A8B4201D3CB02C01A2B
:100540005241830A8B4201D38B02C01A5241430AA3
:100550008B4201D34B02C01A5241030A8B4201D392
:100560000B02C01A5241CDD2C3098B4201D3CB0139
:10057000C01A524183098B4201D38B01C01A5241E8
:1005800043098B4201D34B01C01A524103098B42EC
:1005900001D30B01C01A5241C3088B4201D3CB00D7
:1005A000C01A524183088B4201D38B00C01A5241BA
:1005B00043088B4201D34B00C01A5241411A00D26A
:1005C00001465241104670475DE0CA0F00D04942D3
:1005D000031000D3404253409C46002203098B4243
:1005E0002DD3030A8B4212D38901FC2212BA030ACB
:1005F0008B420CD3890192118B4208D3890192114D
:100600008B4204D389013AD0921100E08909C309D1
:100610008B4201D3CB01C01A524183098B4201D3D3
:100620008B01C01A524143098B4201D34B01C01ABE
:10063000524103098B4201D30B01C01A5241C30836
:100640008B4201D3CB00C01A524183088B4201D3A5
:100650008B00C01A5241D9D243088B4201D34B00C0
:10066000C01A5241411A00D2014652411046634617
:100670005B1001D34042002B00D5494270476346CE
:100680005B1000D3404201B50449002802DC491C3C
:10069000084000E00846C046C04602BDFFFFFF7F9D
:1006A000704770477047000008487CB57844009058
:1006B00007487844009C0546019004E02046016804
:1006C00008188047241DAC42F8D17CBD9CBC0000BA
:1006D0009ABC000030B50346CA02400D1043164DC7
:1006E000164C0A1502D02043002A06DBAA1A002A5B
:1006F00012DDD040FF2A0BDC30BD5205520D01D176
:1007000040004008AA1A07D4D0404042FF2A01DD29
:10071000002030BD0028FCDD4A00002B01D0012064
:1007200000E00020101801225205D042F0D8C8176E
:10073000C043604030BD00001E0400000000008087
:100740000121C9050123411842001B06D3185B0E85
:100750000AD0C1100722D206891840075242D1425E
:1007600001D5520089187047090208D50146002AB0
:1007700003D0C10FC90700207047104670474202DE
:1007800002D0002002497047072109050143F4E720
:100790000000F87F1F22030C02D10F2200041CD09E
:1007A000030E01D10002083A030F01D10001121F0C
:1007B000830F01D18000921E002801DB4000521EF1
:1007C000D2055118021251181922904004D3491C25
:1007D000002801D14908490008467047C10FC907E0
:1007E00000D04042012292071143D3E7012189073B
:1007F000D0E710B50346080001D0202001E0190021
:1008000002D00C0C02D003E0084610BD09041038D9
:100810000C0E01D1090208380C0F01D10901001F8B
:100820008C0F01D18900801E002901DB4900401E88
:100830001C46C4402143C405A2182024241A080AD7
:10084000801819229140E0D3A3400B43401C002B99
:10085000DBD14008400010BDCA0FD20703D00B46C1
:100860000021404299419D23DB051A43C1E79D22A7
:10087000D205BEE77047FEB5044610460D46184344
:1008800073D0A6468C460020A41A01469D4167D32A
:100890006646002701243D46B61A9D4102D3134601
:1008A0003A462124654676462F04360C3E432D0CED
:1008B000B61A9D4104D3150C1B042B4312041034AB
:1008C000654676462F06360A3E432D0AB61A9D41E6
:1008D00004D3150E1B022B431202083465467646DC
:1008E0002F0736093E432D09B61A9D4104D3150F33
:1008F0001B012B431201241D65467646AF07B6083F
:100900003E43AD08B61A9D4104D3950F9B002B437F
:100910009200A41C65467646EF0776083E436D08B4
:10092000B61A9D411AD392185B41641C16E0001858
:10093000764665464941B71A9D410191009009D319
:100940006046B11A98418E46844600980199002568
:10095000401C6941DD0752082A435B08641EE6D546
:100960007246634603B0F0BDFFE72046284307D038
:100970000020C0430146C046C04622462B46F1E750
:1009800000200146F7E770B5044685690068C10696
:1009900001D5302600E02026C00707D070BD626870
:1009A0003046A1689047206A401C20626D1EF6D533
:1009B00070BD70B5044685690078C00707D170BD69
:1009C0006268A16820209047206A401C20626D1E4A
:1009D000F6D570BD09684A0501D540B27047C90512
:1009E000FCD500B2704709684A0501D5C0B270470E
:1009F000C905FCD580B2704770B50C460546012A82
:100A000005D02878800600D5EA69002302E001239A
:100A100005E05B1C934202D2E05C0028F9D1A86992
:100A2000E618C01AA861286AC01828622846FFF78D
:100A3000AAFF04E06A682078A968641C9047B44261
:100A4000F8D32846FFF7B5FF70BD0000F7B50025C5
:100A500075291068009914A611D0FFF7BBFF002874
:100A600002DA404211A608E0009909688A0701D518
:100A70000FA602E0490704D50EA6012501E0FFF705
:100A8000B2FF009F0024243704E000F08CFE3031D8
:100A90003955641C0028F8D12B463246214600986F
:100AA00000F063FAFEBD0000000000002D00000011
:100AB0002B0000002000000011680268006A530546
:100AC00001D5087009E0D30501D5088005E01306BB
:100AD00002D5C21705C100E0086001207047000080
:100AE00001694A1C02610878704700B58FB0029115
:100AF0000021059105490193794403911146049021
:100B0000684600F025F90FB000BD0000E5FFFFFFCB
:100B10000A681070521C0A6070470000F7B504465E
:100B2000154686B02B487844002703C83E460090FF
:100B3000019111E007986A467100415A02A800F03D
:100B400011FE411C07D02178890603D5E2693918C6
:100B500091420ED83F18761C2078800602D5E069B5
:100B6000B84206DDAE42E5DB07987100405A002826
:100B7000E0D1A069C01BA0612046FFF704FF154823
:100B800078445A3803C800900020019116E04100D3
:100B90006A460798415A02A800F0E4FD0590401CFF
:100BA0000AD0002505E0626802A8A168405D904770
:100BB0006D1C05988542F6D30498401CB042049001
:100BC000E5DB206AC01920622046FFF7F2FE09B07B
:100BD000F0BD00002E9B0000F7B5D21D0025D20805
:100BE00015A6D200F52905CA11D0002A05DA002180
:100BF0004042914111A60A4608E0009909688B0716
:100C000001D50FA602E0490701D50EA60125114620
:100C1000009F0024243704E000F06AF930323A558E
:100C2000641C02460A43F7D12B46324621460098FF
:100C300000F09BF9FEBD0000000000002D00000048
:100C40002B0000002000000070B504460021243471
:100C500008E05507D2086D0F303565545D072A430B
:100C6000DB08491C15461D43F3D10468002310A27C
:100C7000250708D520252C400C4304D0C469012346
:100C80000CA2641EC46100F070F970BD10B504467A
:100C900021461068FFF7A7FE002302462046FFF713
:100CA000D3FF10BDD21DD108C9000CC9CCE700008C
:100CB0000000000030000000F8B50F46018809056B
:100CC00002D5224C7C4402E0204C7C440E34054684
:100CD0000021243508E016071209360FA65D6E5470
:100CE0001E0732431B09491C16461E43F3D12246F8
:100CF00004780023240705D5702F06D0002901D0E1
:100D00000223113200F031F9F8BD01231032F9E766
:100D100070B504460D4621461068FFF764FE0023B7
:100D2000024629462046FFF7C7FF70BDD21DD308F3
:100D3000DB000CCBC0E730B40368202412682343E7
:100D400003600823C36130BC0023B5E79899000015
:100D5000F3B50446002081B020622046E168884750
:100D6000002872D0252802D06268A168ABE0594FF4
:100D700000267F442046E16888472028054608DB96
:100D8000312D06D2781920380078002801D006438A
:100D9000F0E7B00701D5042086430020E061074654
:100DA000A0612A2D0AD0284609F0E9FB002827D0A7
:100DB000B8000019303D0090856119E00298BA0032
:100DC000121902C8916102902046E1688847012FFC
:100DD000054617D1E06900281FDA202086431CE071
:100DE00000980A2180694843009940193038886189
:100DF0002046E1688847054609F0C1FB0028EFD18D
:100E0000012F0AD02E2D08D12046E16888470546DB
:100E1000202006437F1C022FC3DBA069002803DAD1
:100E20004042A06101200643F00701D01020864314
:100E30006C2D0BD0682D09D04C2D3CD06A2D38D0AC
:100E4000742D38D07A2D36D016E040E0E1682F4678
:100E500020468847B842054609D16C2F29D0012089
:100E60008002E168064320468847054604E06C2F6F
:100E70001DD0FF2001300643002D28D028464138E0
:100E8000192803D80120C0020643203520462660D9
:100E90002946029A1646FFF74DF9002810D001287E
:100EA0000BD0F61DF008C0000830029055E7402036
:100EB000E1E78020D5E70020D3E7361D02964CE716
:100EC00062682846A1689047206A401C44E7206A6F
:100ED000FEBD00001299000000487047E0050020A8
:100EE00010B500F0C7FC001D10BD00BFCD9600007E
:100EF0000B4670B5024689078008084319469D08CD
:100F0000141AA94125090807054308092C19484165
:100F1000250A01060D43010A2C194141200C0D043C
:100F200028430D0C00194D41002140194D41C008C6
:100F300069070843E908840F8D00254384002418BD
:100F40004D4124196D41121BAB4107E00925ED43CA
:100F50002C11521963410024401C61411C460A2592
:100F60000026551BB441F1D270BDFFB504460D46B5
:100F700081B0243000902168880604D51022E069F1
:100F80009143216000E00120A84201DD471B00E001
:100F900000270498A1697A191018081AA06120780E
:100FA000C00602D42046FFF7EEFC002608E00398B6
:100FB0006268A168805D9047206A401C761C2062B0
:100FC00004988642F3DB2078C0060AD52046FFF756
:100FD000DAFC06E06268A16830209047206A401C75
:100FE000206238467F1E0028F4DC07E00098626823
:100FF000A168405D9047206A401C206228466D1E13
:101000000028F3DC2046FFF7D4FC2078000602D548
:10101000022005B0F0BD0120FBE70000FFB50C4643
:101020001E468FB003CA089009914F007D0D00D174
:101030006D1E002108460020C0460321099A89053B
:101040000840002A03DA8200801840080840800D1A
:1010500001280A9002DD0020C0430A900898074347
:101060000DD0F048F0492818484307141898002874
:101070001DD07542291E1DDD0A9842421BE01898BA
:10108000012802D00020302104E00020F24305E0D6
:101090002154401CB042FBDB30460022189B00214B
:1010A00021540F998B600A60486013B0F0BDBD1BDE
:1010B0006D1CDFE70A9A002900DA69420BA800F0EC
:1010C00021FC0BAB07CB03AB07C30899099800F0D1
:1010D00085FC6B4607C30146D4480918002D0091D2
:1010E0000BDDD24903980A9A49424018002303A90C
:1010F0000390684600F0E2FE08E003990A9A002394
:10110000081803A90390684600F082FE6B4607C3E7
:101110000004000C03D00020C043410800E010464A
:10112000189A002A03D00022009215461EE0751E70
:1011300005D4FFF7DDFE303262556D1EF9D5012270
:101140000843079602D000227F1C04E02078302854
:1011500001D100227F1E002A069787D01EE0112DA4
:1011600007DAFFF7C5FE303262556D1C02460A43AE
:10117000F5D1084303D00098002819D00EE00021D3
:10118000681E05E0235C625C63542254401E491CC7
:101190008142F7DBA81B401E07950690079A189915
:1011A0000020A0540F98079B069A81600CC07CE732
:1011B00011260020189059E7D21DF0B50D460446BF
:1011C000D10893B0C90003C90C900D9109F0B6F98C
:1011D00002460D98C00F01D02D2007E0206881073E
:1011E00001D52B2002E04007C00F4001032A0F90D9
:1011F00001D0072A05DB03462946204600F03EFBC6
:101200000EE12078800601D5E76900E00627284630
:10121000652D04D0662814D0672D69D12DE00020FB
:10122000112F009001DB112300E07B1C0CAA03A905
:1012300010A8FFF7F3FE1199002610987D1C0E915F
:1012400042E001203B460CAAC0070B900120009011
:1012500003A910A8FFF7E2FE119D1298109900262D
:1012600000280E9501D1781C0D18781B02D4464237
:101270007D1C761EE81B00903AE0012F00DA012762
:101280000020112F009001DD112300E03B460CAA45
:1012900003A910A8FFF7C2FE11993D461098002639
:1012A0000E91217809070BD40E99A94200DA0D4658
:1012B00003A9012D04DD4A19203AD27F302A06D035
:1012C000B84201DA011D04DA012100910FE06D1E20
:1012D000EFE7002802DC86192D1A03E0411CA94221
:1012E00000DD0D46801B401C00900120C0070B90C4
:1012F0002078000705D40098A84202DB0020C043F4
:10130000009069460020C8720B98012102AF033794
:10131000C907884225D0022010902B2011900B98ED
:1013200000280BDA40420B902D20119006E00B981C
:1013300000F039FA30317F1E0B9039701099481E39
:1013400000291090F3DC0B980028F0D111987F1E33
:1013500038702088000501D5452000E065207F1EFB
:10136000387001A8C01BC01D0B900F98002800D03A
:10137000012041190098C01709180B980818A16995
:10138000081A401EA0612078C00602D42046FFF74C
:10139000FAFA0F98002805D06268A1689047206A81
:1013A000401C20622078C00625D52046FFF7EBFAC6
:1013B00021E0002E07DB0E98B04204DD03A862682E
:1013C000805DA16802E06268A16830209047206AD1
:1013D000761C401C20620098401E002800900AD114
:1013E00000F048FAC06862680168405CA1689047F4
:1013F000206A401C206228466D1E0028D9DC07E0C8
:1014000062683878A1687F1C9047206A401C20627F
:101410000B99481E00290B90F2DC2046FFF7C9FA11
:10142000032042E601FCFFFF104D0000E1DFFFFF5B
:10143000D21DF0B504460D46D0088DB0C0004668F8
:1014400007683146384609F079F80246F00F01D0B6
:101450002D2307E02068810701D52B2302E04007F8
:10146000C00F43016846002B037001D0012000E04B
:101470000020032A0A9001D0072A04DB29462046CF
:1014800000F0FCF92DE12078800601D40D2500E064
:10149000E5697000400D0D2D01904BDA300D0021F3
:1014A0000B9008460020C046032189050840002E05
:1014B00005DA82008018C20F10184010084080150D
:1014C000012801DD0020C043A9000023182906D30C
:1014D0009C460A460123183A1B07D34003E0012229
:1014E0001205CA4094460C31202902D33A462039CD
:1014F00000E032468A40002802DD002A06D119E0C9
:10150000002817D10121C9078A4213D3194663461F
:101510007F185E41002806D10120C007824202D117
:10152000084687439E430B98310D814202D00198B3
:10153000401C01902088000502D57149794402E0E1
:101540006F49794419396B460A9830221A540A981F
:101550000A7C401C1A54401C0A900198002801DCA7
:10156000302000E031201872019A0120002A02D0B8
:10157000644BD21804E072003A4302D0614A521C14
:101580000192002D02DC2278120703D56A462E2034
:10159000507202200022864694460CE03203360147
:1015A000120F6D1E8B5C02AA13546246521C401C23
:1015B0009446052A01DA002DF0DC002202AE08E094
:1015C0003B0F3F01CB5C521C6D1E3354401C082A5C
:1015D00001DA002DF4DC23689A0601D511E0401EE3
:1015E000704504DD3218203AD27F302AF7D0002827
:1015F00007DD3218203AD27F2E2A02D11A0700D4F2
:10160000401E002D03DD3E223254401C6D1E497CDD
:1016100031540199401C002906DA2D21471C315410
:1016200001984042019003E02B21471C315401985E
:101630007D21C900884206DBFEF744FF3030F055BB
:101640007F1C019101E0642808DB01986421FEF70A
:1016500039FF3030F0557F1C019101E00A2806DB8C
:1016600001980A21FEF72EFF3030F0557F1C0198BB
:101670000A21FEF727FF3031F1550A98A1697F1C36
:101680007A191018081AA0612078C00602D42046E2
:10169000FFF779F9216A6E460A980818206204E07B
:1016A00062683078A168761C90470A98401E0A90BC
:1016B000401CF5D12078C00602D52046FFF763F91B
:1016C00002AE09E03078761C3E280DD06268A16831
:1016D0009047206A401C20627F1EF3D22046FFF70D
:1016E00068F90DB00320F0BD206A4019206203E0C4
:1016F0006268A168302090476D1EEDD3F8E70000C6
:101700006C91000001FCFFFF10B54369002B02D073
:10171000C046C04601E0FFF76FF9012010BD127806
:10172000014624310A7000224A700122ECE7116858
:101730000022D243E8E710B54369002B02D0C0462F
:10174000C04601E0FFF7EAF9012010BD128801460A
:10175000243182840022C2840122ECE71168002235
:10176000D243E8E7F8B516460C460546FFF7B8FB46
:101770000368FF200230C05C012807D0FF2C0FD87F
:10178000185D00280CD001202C70F8BDFF333246C4
:10179000214608331868C71828460023B847F8BD03
:1017A0000020C043F8BD01468008081A020910183D
:1017B000020A1018020C1018C008820012185200F9
:1017C000891A01E0401C0A390A29FBD2704700003F
:1017D00010B5FF231B0644009C421DD84C009C42C0
:1017E0001AD80346124A0B4307D4401A02D3EFF328
:1017F000008010BDEFF3008010BD081A03D3EFF393
:101800000080904305E0EFF3008001219043C90779
:10181000084380F3008810BD0D231B041A4204D036
:101820001146002000F0A2FB10BD00F0B7FB10BD78
:10183000000000907546FFF74FFBAE460500694675
:101840005346C008C000854618B020B5FEF710FD0D
:1018500060BCB64600260027C0C5C0C5C0C5C0C50F
:10186000C0C5C0C5C0C5C0C5403D490849008D467A
:10187000704700000048704700060020F8B51F467A
:10188000044601230068DB02032601461840072AAC
:1018900005DB002801D017A506E017A504E0002805
:1018A00001D016A500E016A5102081432160A06993
:1018B000C01E002FA06101D0401EA0612046FFF78E
:1018C00062F8002F09D038466268A1689047206A04
:1018D000401C2062C01C206206E0206AFAE76268B1
:1018E0002878A1686D1C9047761EF8D22046FFF735
:1018F00060F8F8BD4E414E006E616E00494E4600E4
:10190000696E6600F7B516468AB0334878446C466F
:1019100003467C33C06F5A689B680DC42E487844D8
:10192000763003AC0DC80DC43720C001081837212C
:101930001B30FEF7C7FD05460C46803D1B3C02D51B
:101940006442012000E000200027099010E0E00739
:101950000CD00C2020497843794432464C39411848
:101960006846012300F054FA6B4607C364107F1CDD
:10197000002CECD1184F7F442E3F16E0E80712D020
:101980002001C0190EC80691089307920068F04222
:1019900001D1981908903246012306A903A800F046
:1019A00037FA03AB07C36D10641C002DE6D109980C
:1019B000002806D032466946012303A800F07EFACB
:1019C00005E001233246694603A800F021FA0A9B8C
:1019D00007C30DB0F0BD0000B08D0000034640000D
:1019E0000A4610B5400D0BD00121C9070F24A402EF
:1019F00000191C0364082143540D2143D20207E05F
:101A000000210120F2E7D40F490021435200401E7B
:101A10000029F8DADB0FDB07184310BDFFB50D46D0
:101A2000144685B04868516808F06FFD0091019038
:101A3000A868A16808F069FD02910390A868616830
:101A400008F063FD029A12188242029201D201202C
:101A500000E00020019A0B18D2180028019202D051
:101A60008A4202D903E08A4201D2012000E000202C
:101A70000099081800906868A16808F046FD029A6D
:101A800012188242029201D2012000E00020019A45
:101A90000B18D2180028019202D08A4202D903E022
:101AA0008A4201D2012000E000200099081800902D
:101AB0002868216840004900400849084018FA4950
:101AC000471814E001994000C90F0843009001989D
:101AD00002994000C90F0843019002980399400001
:101AE000C90F08430290039840007F1E039000989E
:101AF0000028E7DA0898002801D0EC4E00E0002624
:101B0000B74201DA012000E00020002804902AD02A
:101B1000F71BF806C00E15D0029B2021091A039A64
:101B20008B401A430392029A019BC2408B401A4396
:101B30000292019A009BC2408B4000991A43019285
:101B4000C14000917B110DD06F460320C11A03D50F
:101B500000218200B95003E08A008100BA587A500F
:101B6000401EF3D5374603980299002800D0012083
:101B7000014308980291002808460CD0002800D0A4
:101B800001200199019A490508430121D20AC9029D
:101B9000D202019200E001210E9B0122D207012B0B
:101BA00002D0002B03D013E0002807D120E09042A0
:101BB00004D890420CD1019B0B4209D0019B5918CB
:101BC000019105D10099491C009101D17F1C00921F
:101BD00000280DD0102108460020C0460498002897
:101BE00006D00F98002803D0082108460020C046E0
:101BF00028682168019B009A4840C10F0598C907D1
:101C000039430EC009B0F0BDFFB587B0099A0898F6
:101C10000899536892684068896896460022039341
:101C200017469446089A12685300099A5B0812688E
:101C3000520052089A1A9E4BD4180A9A002A01D0D0
:101C4000352200E04022069200220123154604922C
:101C5000DB07059324E0002D05D175460346039E5E
:101C60004D1BB34109D375466646039B491B049D32
:101C70009841059B7519AC465F4163463B4308D0CC
:101C8000059B049EDD0776082E435B0804960593AA
:101C900001E0521E641EC50FED0749184041521C59
:101CA000069B9A42D7DB002D04D17546039A6B1A26
:101CB000824101D203200CE0039A0B466B40424064
:101CC000134303D0014303D0012002E0022000E0CF
:101CD0000020614601910021009702910A99002994
:101CE00005D0614640020143704B019102E080073C
:101CF000002302909C4201DA012000E0002007004E
:101D00003AD01A1BD006C00E15D0029D2021019C8E
:101D1000091AC5408C402543029C8C4000D0012408
:101D20002543019C0295009DC4408D4000992C43A1
:101D30000194C140009154111DD06D460221002232
:101D400002290CD10320001B07E0002804DB8600D9
:101D5000AE59002E00D00122401C0328F5DB081BE1
:101D600002D588002A5004E08000285810438A00D9
:101D7000A850491EE3D51C460A98002802980CD0AA
:101D8000002800D001200199019A4905084301214A
:101D9000D20AC902D202019200E00121109B012265
:101DA000D207012B02D0002B03D013E0002807D16B
:101DB0001FE0904204D890420CD1019B0B4209D005
:101DC000019B5918019105D10099491C009101D13D
:101DD000641C009200280CD0102108460020C04648
:101DE000002F06D01198002803D0082108460020B3
:101DF000C04608980999019A009B00680968484004
:101E0000C10F0798C907214382600AC00BB0F0BD1B
:101E100000B585B0019300920A460146002302A84E
:101E2000FFF7FCFD02A807C805B000BDFFB50A46D4
:101E30001F4685B00799019301230091014602A82E
:101E4000FFF7ECFD02990398049ECA0F4900D207E0
:101E500000920F22490892028C1A0021002800DB10
:101E60000C46450013486D08844214D3079A002A93
:101E700004DA441E0026104DF64302E004460D46E7
:101E80000E46102108460020C046002F03D0042132
:101E900008460020C0462005E90A08430099084387
:101EA0006905F20A1143ADE602C0FFFF013C0000E4
:101EB000FF3F0000FF070000FFFFFF7F00B585B078
:101EC000019300920A460146002302A8FFF79CFEF8
:101ED00002A807C8A8E7FFB50A461F4685B00799BC
:101EE000019301230091014602A8FFF78DFE02999C
:101EF0000398049ECA0F4900D20700920F22490896
:101F000092028C1A0021002800DB0C464500114883
:101F10006D08844214D3079A002A04DA441E00266E
:101F20000D4DF64302E004460D460E4610210846CC
:101F30000020C046002F03D0042108460020C046E0
:101F40002005E90A0843009908436905F20A11438C
:101F500058E60000FF070000FFFFFF7F10B50446B2
:101F6000C046C0462046FEF773F910BDC80212D520
:101F70004803400F002804D0C803C0430121884013
:101F80007047EFF3008000010009032109070843AF
:101F900080F30088704700207047000010B50248A9
:101FA00000F004F810BD00000000C07F10B50C4622
:101FB0001107090F092904D00A290AD008290CD1D0
:101FC00004E011460820FFF7D1FF06E0510606D5D0
:101FD00001E0510601D50120C007214610BDD10600
:101FE00007D501010909CC084907000E0006044382
:101FF00009E0410F20024907000A0143200E0006B4
:102000001D22D14101430846E7E770B58C180578D9
:10201000401C6B075B0F01D10378401C2A1106D1CD
:102020000278401C03E00678401C0E70491C5B1EC1
:10203000F9D12B0705D40023521E0DD40B70491C77
:10204000FAE70378401CCB1A921C03E01D780D7050
:10205000491C5B1C521EF9D5A142D8D3002070BD8B
:1020600080B5024800F09DFF80BDC0460C120020E4
:10207000B0B50146806A836D826D5024234206D03C
:10208000D20610D4006D426B08469047B0BD0121C6
:102090004B021A4382650268D3681B059B0F05D06B
:1020A00000F07CFFB0BD00F07BFFB0BD837E002B55
:1020B000F6D113681B07F3D593685B070AD4034670
:1020C000583354680C25AC435460FF2402341A681A
:1020D000A24306E0826D20231343836503465C33ED
:1020E000C26D0A431A6000F059FFB0BD80B5806A26
:1020F000816D40220A438265C16D04220A43C26594
:1021000000F04EFF80BD80B5806A00F048FF80BDC2
:1021100070B505460068816882680024D20726D021
:102120000222114023D1816805220A40012A16D1DA
:102130008168374A0A40911C81600321016001F0E7
:102140007BFC064628688068C00710D001F074FC4C
:10215000801B0328F6D328688068C007F2D0A86DDA
:1021600010210143A965E86D01242043E86520465C
:1021700070BDC046F0B581B00546002400940068EB
:102180008168C9071AD18168214A2F32114208D0CB
:10219000A86D10210143A965E86D01242043E8657D
:1021A0000CE081681A4A11400127394381601948BF
:1021B0000068000205D4687E01280FD1204601B0D6
:1021C000F0BD15480068154908F0A4F8401C0090BF
:1021D00000980028EFD00098401EF8E701F02CFC92
:1021E000064628680168C907E8D18168C90704D193
:1021F0008168074A11403943816001F01DFC801B52
:102200000328EED328680068C007EAD1C0E7C046BB
:10221000E8FFFF7F0827014028010020400D030050
:1022200080B582B0019000910198C26E00999047EC
:1022300002B080BD10B586B0089C059004A801903E
:10224000017003920293059800F02EF80198059A08
:10225000B4230021D1500499059AD170059A0F49F1
:10226000D1660078012807D1FFE7059987480867FC
:1022700005990C48486706E0059983480867059961
:1022800007484867FFE70398059948600298059951
:10229000886008980599C86006B010BDF18D0008E7
:1022A0008D9200087192000880B582B0019001986B
:1022B000C021FEF79FF80199B8230020C85001996A
:1022C000BC2288500199C85001998850019A012177
:1022D0001170019988630199C86301990864019993
:1022E0004860019988600199C86001990861019965
:1022F00048610199486101998861019A1049D16149
:10230000019BC2431A62019B5A62019B9A62019B24
:10231000DA62019A1163019948630199486401994D
:10232000C864019908650199486501998864019913
:102330000866019948660199C86502B080BDC0462B
:10234000FFFFFF7F82B080B586B001920246019800
:102350000993089005A80270049108A903910599B2
:10236000049A517000780290042875D80298810070
:1023700001A040588746C0468D230008A9230008C5
:10238000DF230008152400083D2400080498C078C5
:10239000012804D1FFE704993C48086703E0049949
:1023A00039480867FFE758E00498C078012804D14D
:1023B000FFE704993348086703E004993048086749
:1023C000FFE70398C11D07208143084608300390AA
:1023D00008684968FEF77EF9049988623DE0049830
:1023E000C078012804D1FFE704992448086703E076
:1023F000049921480867FFE70398C11D072081431E
:1024000008460830039008684968FEF763F90499A4
:10241000C86222E00498C078012804D1FFE704993B
:102420001448086703E0049911480867FFE7039818
:10243000011D03910068049988670EE00498C07834
:10244000012804D1FFE704990848086703E00499CC
:1024500005480867FFE700E0FFE706B080BC01BC65
:1024600002B086467047C04645960008479500086A
:102470000D960008159500088B95000885940008B6
:10248000D9950008E594000867950008699400084C
:1024900080B582B00190009101984078022806D062
:1024A000FFE70199009A0220FFF74CFF03E0009834
:1024B0000199C862FFE702B080BD82B0019000912F
:1024C00000980199086302B0704782B001900091B2
:1024D00000980199C86302B0704782B001900091E2
:1024E00000980199886302B0704780B582B001906E
:1024F0000198006907F0FCFB002002B080BD0000DD
:1025000080B582B07A480190C82006F0CBFE17490A
:102510000A6817480260496841600068E121C90003
:10252000884206DBFFE7124800681249884207DB51
:10253000FFE701996022885C022318438854FFE773
:102540000B484068E121C900884206DBFFE70848E4
:1025500040680849884207DBFFE701996022885CF0
:10256000022318438854FFE702B080BD40060020D4
:10257000580600209908000010B598B017901691E1
:1025800015921698414217988622805C484316900F
:10259000159841421798805C48431590179A104649
:1025A000E030D168526906F053FE179B1846E030C0
:1025B000C16802691B6B07F0F5F9FB488121C9006E
:1025C000405C4007C00F002800D18FE006F00CFFF0
:1025D00013911290129813991191109000200F905E
:1025E000FFE70F98014608310F91002803D1FFE75C
:1025F0000120089002E000200890FFE708980028DA
:1026000073D0FFE717982121C9000291401816994D
:10261000FFF763FF17983921C900039140181599F6
:10262000FFF75BFF029817990818F822069289585D
:10263000FFF74BFF039817990818FC220792895857
:10264000FFF743FF02991798401801210491FFF703
:10265000E7FD039A049917988018FFF7E1FD179892
:102660004F21890040587D21C900059107F074FE73
:1026700005990E9017987F229200805807F06CFE03
:10268000069B079A0D900D980C900E980B90194888
:1026900004680B9961430A9101680C9848430990BA
:1026A0000A981799C8500998179988501798E030D8
:1026B00006F0CEFCFFE706F097FE01900846019970
:1026C000139A129BC91A90410B4A1368DA17C91A58
:1026D00090411291139012981399119110901298A1
:1026E000139A06494A6008607BE7FFE718B010BDFF
:1026F00058010020DC0500200812002048160020A8
:1027000080B582B00190019800690090019800693D
:10271000009A916F526FFFF72FFF002002B080BD2B
:1027200080B5024800F062FF80BDC04670120020F4
:1027300080B5024800F05AFF80BDC046CC12002090
:1027400081B0EFF3108072B60090FFE7FEE7000063
:1027500010B58CB09448069088210491405A934952
:10276000029107F0D7FD0299049A034606980BAC34
:1027700007942370805AFDF797FE08467D21C90013
:10278000039107F0C7FD0399049A034606980AAC23
:102790002370805AFDF788FE08460A21059107F04C
:1027A000B9FD049A05990346069809AC2370805A2E
:1027B000FDF77AFE079808AA11700078002806D065
:1027C000FFE70B987849432212018854FFE70AA8D3
:1027D0000078002806D0FFE70AA800787249842212
:1027E0008852FFE708A8007800280DD0FFE708A965
:1027F0000B787D2002015A436D4B1A600978400125
:1028000048436C490860FFE709A80078401E019022
:10281000402800D9C6E00198810001A040588746B1
:10282000252900082F290008392900084329000814
:102830004D290008A5290008A529000857290008E6
:10284000612900086B290008A5290008A5290008AE
:1028500091290008A5290008A52900087329000866
:10286000A5290008A5290008A5290008A529000810
:10287000A5290008A5290008A5290008A529000800
:10288000A52900089B290008A5290008A5290008FA
:10289000A5290008A5290008A52900087D29000808
:1028A000A5290008A5290008A5290008A5290008D0
:1028B000A5290008A5290008A5290008A5290008C0
:1028C000A5290008A5290008A5290008A5290008B0
:1028D000A5290008A5290008A5290008A5290008A0
:1028E000A5290008A5290008A5290008A529000890
:1028F000A5290008A5290008A5290008A529000880
:10290000A5290008A5290008A5290008A52900086F
:10291000A5290008A5290008A5290008A52900085F
:102920008729000820497D20C000C8663AE01E497A
:102930007D200001C86635E01B490120C002C86641
:1029400030E019497D204001C8662BE0164901207E
:102950000003C86626E014497D208001C86621E096
:10296000114901204003C8661CE00F490F48C866A2
:1029700018E00D4901208003C86613E00A490120D0
:10298000C003C8660EE0084901200004C86609E0DB
:10299000054901204004C86604E003490120800481
:1029A000C866FFE70CB010BD5801002010270000DA
:1029B000940500209005002080B582B00190019818
:1029C00000690090114800780099862288541048C8
:1029D00000880099C8620F4800880099088500990E
:1029E0004B4A885C802318438854009807F012F9FA
:1029F00000998120C200885C042318438854019800
:102A0000C16807F011FC002002B080BDB0050020B5
:102A1000A0160020A816002010B586B005900598D5
:102A200000690490384800680190002808D0FFE74A
:102A3000019801281FD0FFE70198022846D05EE0E8
:102A40000499324A885CDF23184088540499304A3C
:102A5000885CFE23184088540499885CF72318404A
:102A6000885406F0FDFC0A462A494A600860264957
:102A700001200860FFE7284800682849884224DCD4
:102A8000FFE70498E03026490968234A13680022CA
:102A9000009206F0F3FE06F0E3FC024608460099B9
:102AA0001C4C63682468121B9841333A88410BDB45
:102AB000FFE706F0D5FC0A4616494A600860164949
:102AC00008681F300860FFE7FFE719E00E490020A3
:102AD000086004990D4A885C20231843885404999F
:102AE0000B4A885C0123184388540499885C0823A6
:102AF000184388540598C16807F096FB00E0FFE78B
:102B0000002006B010BDC046B00600200A04000038
:102B10000B040000A8060020A006002010310000D1
:102B20008000002010B586B005900020039004902E
:102B3000FFE70498142810DCFFE7059804998A0041
:102B40001D498958884203DDFFE70498039004E09B
:102B5000FFE70498401C0490EBE70398132820DC5F
:102B6000FFE70398002804DCFFE702A900200880A3
:102B700016E0039B591E322002464A430192890007
:102B80000D4A5158059C0C1B60439B00D258891A72
:102B900007F0E2FB01460198401802A90880FFE710
:102BA00004E07D20C00002A90880FFE7002102A800
:102BB000405E06B010BDC04684000020F0B589B06C
:102BC0000746002508955420385C012802D10220D0
:102BD00009B0F0BD3E4654360120069030703846AC
:102BE000FFF796FA3C68A268B96DD2074CD10496FB
:102BF0000290812252009143891C0597B965E168D2
:102C0000E268464B1340E360454808400190214686
:102C1000B4314448444E2F4603952B46A2680240E7
:102C200018301043A060A268002A06D5089A521CEA
:102C30000892089AB242F6D32CE00D687F22154024
:102C4000EB187F1C082F3748E8D1A1680140012507
:102C500006952943A160DB082169890F27D10F213F
:102C60008904C84D2D680D40A90C07291FD3C91E22
:102C700001258D4007950799490807910799002973
:102C800015D00799491EF8E7102211433570B96530
:102C900009B0F0BD002004990870059A906D1021CC
:102CA0000143022081439165069809B0F0BDB4212B
:102CB000655895431D436550A16801400226314384
:102CC000A16000F0B9FE0446059F38688168C90715
:102CD000039D0ED1C168019A1143C160B86D0121F5
:102CE0000143B1430298049ED0E738688168C90760
:102CF000F0D000F0A1FE001B0328F6D338688068EE
:102D0000C007F2D0B86D10210143B965F86D06997E
:102D10000843F865084609B0F0BDC046FC7FFFFFD8
:102D200003800000E8FFFF7F00F202007047704759
:102D300070477047F0B587B0002506955422825C35
:102D4000012A01D10224E1E0064654360124347000
:102D5000026893685B0725D404694B68022B26D16F
:102D6000042004438548844207D18348C0430B684C
:102D7000DB430343906A184090620A680024002AEB
:102D800000D4C2E07F480168804B9A4200D1B0E095
:102D90007F4B9A4200D1AFE07B4B9A4200D0B4E027
:102DA0000522A7E0816D20220A438265ADE00593EC
:102DB00004273C43714B9C423BD108686E4B184042
:102DC000936A0343936250690B681C02A0438968AD
:102DD00021406B4C0C40044354610024002B00D470
:102DE00093E001200590674F3A680720800511465F
:102DF000049001406448834263D10598C00517469A
:102E00000740604F5DD13A68049B9A4311430143E8
:102E1000396060480068604907F07CFA0C21414342
:102E20000C310691069800286FD00698401E069037
:102E3000F8E71F24059B1C400F2300930494A34034
:102E4000046E01939C4303940B684B4C2342029302
:102E50004CD0DB072C4661D1029CA30759D46307F1
:102E600059D4230759D4E3063C4657D4029CA30601
:102E70006AD463066AD423066AD4E3056AD4029B43
:102E80009B0569D4029B5B0568D4029B1B0567D434
:102E9000029BDB0466D4029B9B0465D4029B5B040B
:102EA00064D4029B1B04009C38D4029BDB035FD4D8
:102EB000029B9B035ED4029B5B03DB1712241C4026
:102EC0002CE03248834203D105980006814206D3A4
:102ED0002F48834219D105988005024015D13A68E0
:102EE000049B9A431143014339600EE05B00DC0E02
:102EF00014E00322920501E00322D20511400722CB
:102F0000920503689343591801603570204607B055
:102F1000F0BD012402E0022400E00324049FBC4031
:102F2000039B1C430466059B9B08C069984200D81C
:102F300049E70198C043936A034002988000000F5C
:102F4000B840184390623EE70524E7E70624E5E72A
:102F50000724E3E70824E1E70924DFE70A24DDE7A3
:102F60000B24DBE70C24D9E70D24D7E70E24D5E7A3
:102F70001024D3E71124D1E7FFFF070004000080ED
:102F800000FFFF0708270140001000B0004000B814
:102F9000002000B428010020400D03007047704756
:102FA0007047F0B585B004460068036802251946ED
:102FB00029404A424A414668304628404142414100
:102FC000114304930DD1A06DC00604D40120C002AA
:102FD000A16D0143A1652046FFF7A9FE20680560A9
:102FE000049B0122042131404842484159071146BF
:102FF00000D5014657020129039209D10821314029
:10300000484248411907114600D50146002930D1F0
:1030100020465830A16DC90602D4016839430160C9
:103020002168CA681205920F1BD1A27E002A18D10E
:103030000A68120715D58A68520708D44A680C2313
:103040009A434A60FF2202320168914306E0A06D74
:1030500020210143A16520465C30E16D01220A4335
:1030600002602046FFF79AFF20680C210160049B54
:10307000039A019580253146294048424841190666
:10308000114600D50146029700290BD1012000040A
:10309000A16D0143A165204600F076F9039A049BD7
:1030A0002068056001252F023146394048424841D9
:1030B000D905114600D5014600290AD16804A16D41
:1030C0000143A1652046FFF733FE039A049B206865
:1030D00007603146029F3940484248413B42114611
:1030E00000D0014600290AD1A804A16D0143A165C1
:1030F0002046FFF71EFE039A049B206807601027F6
:103100003146394048424841D906114600D501466A
:10311000002915D1206B002803D02068C0688007E3
:103120000CD0A802A16D0143A165E06D019908438F
:10313000E0652046FFF734FF039A049B2068076090
:103140006D032E4070427041990403D4002A04D0CC
:1031500005B0F0BD0246002AFAD12046FFF7E6FD91
:103160002068056005B0F0BDF0B589B004460020C8
:103170000890002C61D00790A06D002807D125464B
:103180005435204600F002F900202870E065012740
:103190003D072668B068C00012D4B0687449014089
:1031A0002943B16073480068734907F0B3F84000E1
:1031B000801C08900898002802D00898401EF8E764
:1031C000B068284208D1A06D10210143A165E06DCF
:1031D000012107910843E065B06804210140A26D18
:1031E000102002405118A16D2AD105900F20C24332
:1031F0000692F33A1140891CA165B168C90779D1DB
:10320000039027462037216B4A1E91410A03A1688B
:10321000237E9B030B43617EC9031943A57E68038C
:103220000843E368034313430120C20721690029CF
:103230000490029209DA914308E0012009B0F0BD40
:103240000143A165384609B0F0BD41050B43387B09
:1032500042001A43387801280DD1002D08D0A06D06
:1032600020210143A165E06D04990843E06502E077
:10327000049800040243636A002B06D007208001F3
:103280000340A16A1943114300E01146F0683B4A2C
:1032900002400A43F2600320850763681A462A4009
:1032A000E16C387F01280ED1206C0090676CA06C17
:1032B0000190009807430198074317430F43049870
:1032C00007433A4600E00A43039F30692C49014016
:1032D00011433161029883420CD0AB420AD004986A
:1032E0008007834206D0B804034026490A68824317
:1032F000D0180860706907229043676B384370618B
:10330000706970218843A16B0901014371612169D2
:1033100001235805814205D000290ED1B06A0699D3
:10332000084309E0B06AE06980001C301C210140BC
:10333000069D8D40206E2843B06270691040B842EF
:103340000AD10020E065A06D0121014302208143E4
:10335000A165079809B0F0BDA06D05990843022149
:103360008843A065E06D1843E065184609B0F0BDDC
:10337000E8FFFF6F28010020400D03000102DEFF7F
:1033800002FCFF1F082701407047000080B58CB089
:103390000B9000200A9009900890079006900B98D7
:1033A00000682B49884251D1FFE7FFE729480268AE
:1033B000012109050A43026000680840059005984C
:1033C000FFE7FFE72448026801210A430260006822
:1033D000084004900498FFE73F20069003200790E0
:1033E00000200290089005200190000706A900F037
:1033F0004FFA019A029919480390194B03604260F1
:103400008160C1608021016101210A024261CA021A
:1034100082612022C2614903016200F057F900284D
:1034200003D0FFE7FFF78CF9FFE7FFE70B980B49A5
:1034300001650B988862FFE70C20009001210022B3
:1034400000F072FB009800F063FBFFE70CB080BD5A
:10345000002401404010024034100240701200204D
:1034600008000240F0B581B00E46044601688B6842
:1034700002205B071BD400925422A25C012A16D0C2
:103480002746543701253D70C868C0070AD18868AF
:10349000C00704D08868194A0240901C8860C86838
:1034A0002843C8602046FEF765FE002801D001B021
:1034B000F0BDA06D1249014028020818A065002047
:1034C000E06521681C220A603870206D0D4A0E4BA1
:1034D0000E4DC562036342634A68102313434B6079
:1034E00040313246009B00F06DF921688A68034B39
:1034F00013401A1D8A6001B0F0BDC046E8FFFF7F8F
:10350000FEF0FFFFED2000080721000871200008F1
:1035100070B500282AD0014624314A78022A27D1E2
:10352000046822680E239A432260426C15682E4B71
:103530001D4015602568012295432560046C1C25FB
:1035400025401446AC40D14D2E6826432E60846C35
:10355000C56C6560046D002C05D025681D40256094
:10356000436D806D58604A70002004E0012070BDFA
:103570000422C263012000220A7070BD70B50146AA
:1035800024314A78022A2BD103681A680E24A243F8
:103590001A601C68012294431C60446C2568124B1D
:1035A0001D402560046C1C2525401446AC40B74DD9
:1035B0002E6826432E60846CC56C6560046D002CFB
:1035C00005D025681D402560436D846D5C60002436
:1035D0000C704A70816B002900D08847204670BD6E
:1035E0000421C163012070BDFFFEFFFFF0B585B06F
:1035F000A649091F0E6802681368042502932B4030
:103600005F425F410490046C1C232340294699408B
:103610000C460396344060426041384331D00192F9
:1036200001210227029E30463840444244419F40D7
:10363000039D2F420A4600D02146049804462434B4
:1036400000292FD00820064077427741DD40280727
:1036500000D53A46002A23D1019A10680E218843EA
:103660001060012529469940884802680A43026093
:103670000498C563002121706570416B00290ED14B
:103680000EE01068800602D41068A84310607F4ADC
:103690001068084310600498016B002900D0884727
:1036A00005B0F0BD019B1968890605D41A680A2186
:1036B0008A431A600121617000212170734A1168E8
:1036C00039431160C16A0029E9D1E9E7F0B587B053
:1036D00000285ED00446014624310220069148703D
:1036E00027683868324901403960324E30468030B0
:1036F000A064314838181425294606F00BFE8000D6
:103700008119206405916164FC20384008382946FD
:1037100006F000FE1F220240012005469540E564A8
:10372000A168039126460C364ACEA2690192E2694D
:103730000292226A04920B43334301990B4302998C
:103740000B4304990B4339681943039A11433960B9
:10375000064681038A4201D10021616061683F23EE
:103760000B4005980360154A1560481E032813D8BE
:10377000581E810051180023CB67BC32032303403D
:10378000304698407C3121656265A0650C4908602F
:1037900006E0012007B0F0BD002020656065A0654F
:1037A0000020E063069908704E7007B0F0BDC04677
:1037B0000F80FFFF00080240F8FFFDBF84080240B1
:1037C00044090240F0B582B004462420205C012860
:1037D00002D1022002B0F0BD174625462435012053
:1037E00028706A78012A2DD1022068700020E063D9
:1037F00025682A6801260196B2432A60A26CE66C0D
:103800005660226D0092002A02D0626DA66D56604D
:10381000226C1C261640019AB2401C4E3668164394
:103820001A4A16606B60A368102B3A4600D00A460D
:10383000AA60102B00D03946E960216B002907D01F
:103840000E210AE0002129708021E16302B0F0BD61
:1038500029680422914329600A212A680A432A60C0
:1038600001990902626C1368DB0302D513680B43EC
:103870001360009B002B02D01A680A431A60296863
:10388000019A1143296002B0F0BDC0460400024015
:10389000F0B589B006900B68002B00D1B1E05A4812
:1038A000069A824201D0052000E003200090002605
:1038B00008963446374603910EE01843544A106088
:1038C0007F1C0B681846F8400836089A121D0892AB
:1038D000A41C002800D194E001250195BD402B4097
:1038E0000493EDD0496803220B461340581E01286B
:1038F0000796059211D81046A040069EB2688243F2
:103900000398C068A0401043B060C806C00FB8401C
:103910007268AA4302437260059A032B0399069DBD
:103920001CD01046A040EA6882438868A04010433B
:10393000059AE860022B11D11C20089908400F213C
:103940008140FA089200AA18136A8B4303990D6903
:1039500085401D4303991562059A069D1046A040B7
:103960002B6883434868860302961040A0401843A2
:1039700028600298800F079EA2D038469043234AC1
:1039800013181E6E05200007069A82420AD02148AD
:10399000824205D020488242009D04D1022502E0E7
:1039A000019D00E000251820079A10400F22824058
:1039B00096436033854035431D60144800684D6868
:1039C000EA0202D5049B184301E0049B9843079E3A
:1039D0000E4A10605068AA0201D5184300E09843CF
:1039E0000A4A50600A484068AA0301D5184300E01B
:1039F0009843074A50601068EA0300D55DE7984392
:103A00005CE709B0F0BDC046000C00500018024051
:103A1000801802400004005000080050006908406F
:103A2000411E88417047002A02D0182281507047F9
:103A30002822815070470000054800687047C04642
:103A40001F48007802490A68101808607047C0468D
:103A5000AC160020B0B50124200208490A680243D0
:103A60000A600025284600F00BF8002801D0204607
:103A7000B0BD00F029F82C462046B0BD0020024021
:103A8000B0B505460E4801780124002916D07D20E6
:103A9000C00006F03FFC01464348006806F03AFCCF
:103AA00000F05CFD032D09D8002807D10024E04375
:103AB0002946224600F038F8024805602046B0BD8D
:103AC000D4050020D805002080B582B0FFE70E485D
:103AD000026801210A4302600068084001900198D1
:103AE000FFE7FFE709480268012109070A4302606E
:103AF0000068084000900098FFE70320400200F0B3
:103B000023FD02B080BDC046401002403C10024080
:103B1000002805D41F21084001218140014801608F
:103B20007047C04600E100E0002805D403220346A8
:103B300093430A4A9A1803E00C220240064BD2181B
:103B40008007C00E8901C9B28140FF2383401068FD
:103B5000984308431060704714ED00E000E400E073
:103B6000F0B581B0032569026B4E32688A43024387
:103B7000326001214A020024904212D1E9480268D1
:103B8000706940050DD58F0206205043074906F0A5
:103B9000C1FB801C401E03D071693942FAD100E09C
:103BA0002C46204601B0F0BD2801002040420F0005
:103BB000F0B587B0074680788007564E01D40020C4
:103BC00063E0059701221107183E30680840049011
:103BD00006D1306808433060306808400690069887
:103BE00002960391019216024B4C206830432060EC
:103BF000FFF722FF05462768374006D1FFF71CFF75
:103C0000401B0328F7D3032000E00020414E002F83
:103C100001D1059F31E003252C02B1682140059FA9
:103C200021D0BA6991421ED0B168019A1204B368DA
:103C30001343B360B3689343B3600A46A243B260D0
:103C4000C90710D000950190FFF7F6FE0546334CEA
:103C5000B068800706D4FFF7EFFE401BA042F7D301
:103C6000009800E00198002807D103200002B16805
:103C70008143B8690843B06000200499002904D149
:103C8000029B1968039A914319603D68E9072FD197
:103C9000A90735D4A90606D50321090332688A434A
:103CA000F9681143316001216A040ED532681C4B5A
:103CB0001A407C69224332605A1C944205D10A049E
:103CC0003346483B1C6814431C602A050ED58C0300
:103CD00003229203336893433A6913433360A24249
:103CE00004D10A04483E31681143316007B0F0BD89
:103CF0003168032291437A680A433260A907C9D523
:103D000031680C229143BA680A433260A906C3D4D1
:103D1000C9E7C046541002400070004089130000FB
:103D2000FFFFFF3FF0B583B00D460121002800D111
:103D3000CFE0019102907048006807242040A8421B
:103D400013D26D490868A043284308606B4EFFF703
:103D500073FE0746684800682040A84205D0FFF778
:103D60006BFEC01BB042F5D9B2E0029E30688107FD
:103D70008D4B0CD5410703D521031A680A431A60FD
:103D80000F2109021A688A43B16811431960C007FC
:103D900018D1594800682040A84228D956490868D7
:103DA000A04328430860554FFFF746FE0646524899
:103DB00000682040A8421AD0FFF73EFE801BB842A0
:103DC000F5D985E00298406803285AD8810001A2FD
:103DD00051588F46E53D0008873E0008913E000897
:103DE0009B3E0008194608390968490557E0029AC0
:103DF000107840076C4B05D5200319688143D068C3
:103E00000843186018688006400F22D01A683821CD
:103E10000A406648082A23D01A680A40102A5BD153
:103E2000596803220A40032A00D0614859684906AC
:103E3000490F491C06F06EFA5B4949684904490E6E
:103E4000484359494968490F491C06F063FA564BE3
:103E500006E01846083800688004410F5448C840FE
:103E6000196889093C220A40254989581F220A40BD
:103E7000D0402C49086023480068FFF701FE014646
:103E800027E0596D0AE0194608390968890306E0F8
:103E9000194608390968890101E0996D8907019976
:103EA00017D51968A14301431960144FFFF7C4FDEA
:103EB00006463D4800683821014002984068C0002D
:103EC000814200D165E7FFF7B7FD801BB842F0D90A
:103ED0000321084603B0F0BD18680840202802D12D
:103EE0000120C003BCE718680840182801D0002052
:103EF000B6E77D200002B3E70020024088130000EF
:103F000054A70008D805002006480068264909681B
:103F1000890A1C220A40044989581F220A40D040BD
:103F20007047C0462801002094A7000810B51E4C19
:103F300020688006400F06D0226838210A401B48BE
:103F4000082A07D110BD083C20688004410F18489A
:103F5000C84010BD22680A40102A15D161680322AA
:103F60000A40032A00D0124861684906490F491CDB
:103F700006F0D0F961684904490E48436168490F69
:103F8000491C06F0C7F910BD20680840202802D15E
:103F90000120C00310BD20680840182801D000206F
:103FA00010BD7D20000210BD0810024000127A00F2
:103FB0000024F400F0B587B00127002800D1F4E117
:103FC000049705900078C007F94E2CD10598007829
:103FD00080074CD40598007800070DD5B0683821CB
:103FE0000140182900D0A4E0306E800704D5059860
:103FF0008069002800D18CE105980078400700D442
:104000005BE1B06838210140202900D0A8E0F06DC4
:10401000800700D44EE105988068002800D049E16F
:104020000020012747E1B068F16803273A468A4338
:104030003821014010204840821850425041082940
:1040400045D0002843D105984268052000048242EB
:10405000039200D1B6E0012001048A4200D1B7E00A
:1040600032688A433260810430688843B2E0B168C4
:104070003820084010214140F26803273A400223CB
:104080005340CA185142514100282AD0002928D152
:10409000306801218C02059BDA68002A00D1B6E065
:1040A0000722D20290431A69024332600802316843
:1040B00001433160FFF7C0FC05463068204200D064
:1040C000B5E0FFF7B9FC401B0228F6D96DE1306876
:1040D000800300D47AE705984068002800D075E78F
:1040E00017E131684905059B03D5D968002900D13E
:1040F0000FE17F21090272688A435969090211435D
:10410000716000280DD10720C00231688143186911
:104110000843306030688004400FA649C140A6487B
:104120000160A6480068FFF7ABFC002800D0F0E073
:1041300050E7306E05998969002900D181E001219D
:1041400008433066FFF778FC0546306E800700D5DF
:1041500052E7FFF771FC401B03270228F5D924E141
:10416000012003900107F06B0840029006D1F06B2C
:104170000843F063F06B0840069006980191904C5C
:104180002068C00510D403980702206838432060D7
:10419000FFF752FC05462068384205D1FFF74CFC7A
:1041A000401B0228F7D973E005988468052C59D084
:1041B000012C5BD0F06D03998843F065F06D04210C
:1041C000884356E00120810432680A4332600104CA
:1041D00030680843306001204404FFF72DFC054699
:1041E000039800280FD03068204200D0EEE6FFF799
:1041F00023FC401B6428F6D9D7E0FFF71DFC401BC9
:10420000642800D9D1E030682042F6D1DEE6090208
:1042100088433060FFF710FC05463068204200D12B
:10422000D8E6FFF709FC401B0228F6D9BDE07F2045
:10423000000271688143059840690002084370607C
:10424000C8E6012188433066FFF7F6FB0546306E6D
:10425000800700D4D0E6FFF7EFFB401B03270228BE
:10426000F5D9A2E0F06D04210143F165F06D0399E9
:104270000843F065534FFFF7DFFB0546002C0FD0D6
:10428000F06D80070FD4FFF7D7FB401BB842F7D97A
:10429000002003270FE0FFF7CFFB401BB842F7D801
:1042A000F06D8007F7D40298002803D1F06B0199D4
:1042B0008843F0630120002877D00598C469002C5A
:1042C00072D0B06838210140102924D1012C20D0AF
:1042D000F06803210140059B1A6A914219D17021AF
:1042E00001405A6A914214D17F21090201409A6A21
:1042F000120291420DD11F2149040140DA6A914214
:10430000049F52D1072149070840196B88424BD0BE
:104310004BE0049F49E00127390630680491884347
:104320003060FFF789FB0546022C0BD103977C0612
:104330003068204211D0FFF77FFB401B0327022883
:10434000F6D932E07C063068204229D0FFF774FBB2
:10435000401B03270228F6D927E0F0681B490140DB
:10436000059F2037ADCF084310431902014329436D
:104370003943F160306804990843306003980007BE
:10438000F1680143F160FFF757FB054630682042B2
:104390000AD1FFF751FB401B03270228F6D904E09E
:1043A000F06809490140F1600027F8B207B0F0BD9C
:1043B000001002400024F40028010020D80500204D
:1043C0000070004088130000FCFFFEEF8C80C11FCE
:1043D000F0B585B000280CD0044605465C35412078
:1043E0008600606A002807D0002020612046143033
:1043F00007E0012005B0F0BD6068B04203D0204660
:104400001C30002101600027A7626878002804D1D1
:1044100000202870204600F059F8022004950190F1
:104420006870206801684022914303900160E16850
:10443000254A012591422A4600D33A461203ED024D
:104440000D430F2738020290854201D00025A56256
:104450006568A768354021239B023B405B192569AD
:10446000019805401D436069012318402843FC362C
:10447000A7693E400643E069382505403543206A78
:10448000802606402E435803A56A05403543039E07
:104490003560380C04250540029801400A432A4340
:1044A000606A102101401143606B082202400A43F8
:1044B0007260D802F1698143F1610020206604999D
:1044C0004B7005B0F0BDC0460107000080B588B054
:1044D00007900020069005900490039002900798A2
:1044E00000681549884224D1FFE7FFE713480268B6
:1044F000012109030A430260006808400190019805
:10450000FFE7FFE70E48026802210A4302600068E5
:10451000084000900098FFE73820029002200390A6
:104520000020049005900690064802A9FFF7B0F914
:10453000FFE708B080BDC046003001404010024097
:10454000341002400004005003214902024A13685B
:104550008B4303431360704700000140401E010E6F
:1045600001D0012070470749074A50600748036897
:104570000B40032189075918016000209060072132
:1045800011607047FFFFFF0010E000E020ED00E049
:104590007047704770470000F0B581B03C22825CE4
:1045A000012A02D1022001B0F0BD02463C320123B3
:1045B00013703F242402CD68A5430F24A4028E6803
:1045C000A6432E434C681D4D254035430C681C4EB8
:1045D00026402E430C691B4D254035434C692C4326
:1045E000194D25400C6B194E26402E43CC6934439F
:1045F0008D692D04164E2E4026430468C04884421F
:1046000001D0354614E0134806400F462037A1CFAD
:10461000C96A00913F0519460F4B3B4033431126B1
:104620007606B04318434B079D4305430098054366
:1046300000201070656401B0F0BDC046FF87F0EF48
:10464000FF8FF0EFFF9FF0EFFFBFF0EFFFFFF0EF06
:104650000000FFEFFFFF0FDC0000F0DCF0B50346C9
:104660003C20185C012801D10220F0BD1C463C34DE
:10467000012020701668012E01D0002500E00925D8
:10468000771E7E427E41022904D0012911D118688B
:10469000603001E01868643071020368B343576802
:1046A00092683740FB188B43AA400A409918016072
:1046B000002000212170F0BDF0B53C22825C012A6F
:1046C00001D10220F0BD02463C3202235370012387
:1046D0001370006846688468DD4DA84201D03746F3
:1046E00004E00F273F05BE434F6837437026B743AA
:1046F0000E683E434660D44EB04204D0D34EB04222
:1047000001D0A84204D18025AC438968214381604F
:10471000002010705370F0BD10B5024644320029DD
:10472000134608D0082903D0042903D1531C02E002
:10473000931C00E0D31C1B78012B08D10223002915
:1047400007D0082907D0042907D1537006E00120BB
:1047500010BD137002E0937000E0D3700F2211407F
:1047600004228A400168086A90430862086A10437C
:1047700008620122D0034B6C03434B64B248814270
:1047800005D0B248814202D0B148814208D1886840
:10479000B04B03400020062B06D01404A34203D0E4
:1047A000086810430860002010BDC046B0B50F2255
:1047B0000A40042393400268146A9C431462136AFB
:1047C0001362146A164B1C4208D1146A154D2C4210
:1047D00004D10124E403556CA5435564146A1C42BA
:1047E00007D1136A0F4C234203D113680124A3435A
:1047F00013604430082907D0042909D000290BD1BF
:10480000012101700020B0BD012181700020B0BDE8
:10481000012141700020B0BD0121C1700020B0BD58
:104820001111000044040000B0B5002819D004465E
:1048300005463C356878002804D1002028702046C1
:1048400000F06AF80220687020680368804A90428D
:1048500002D07D49884206D170218B43A16819435B
:1048600002E00120B0BD1946264B984208DC764B89
:1048700098420ED0264B98420BD0904209D03DE092
:10488000724A904205D0204A904202D01F4A90427C
:1048900034D103221202914322690A4380218A43C0
:1048A000A16911430160E168C162616881621949CF
:1048B0004118890A82055118072906D801228A4021
:1048C000E1210A4201D06169016322463E3244344B
:1048D000012141610369DB0702D003698B43036156
:1048E0002171117051709170D170117151712170DD
:1048F0006170A170E17069700020B0BD0A46CDE71B
:10490000002C0140FF3F01400048014000440140AD
:104910000020004000D4FEBF80B58EB00D90002076
:104920000C900B900A90099008900D980068E94946
:1049300088423AD1FFE7FFE72C4802680121C9020B
:104940000A4302600068084007900798FFE7FFE706
:104950002748026804210A43026000680840069064
:104960000698FFE7012041030891122109910A905E
:10497000002003900B90022002900C901D4808A983
:10498000FEF786FF039A0D2001901146FFF7CCF841
:104990000198FFF7BDF80299039A0E200490FFF7E3
:1049A000C3F80498FFF7B4F81BE00D9800680E49AF
:1049B000884215D1FFE7FFE7EB48026810210A4360
:1049C00002600068084005900598FFE711200090FC
:1049D00003210022FFF7A8F80098FFF799F8FFE7F6
:1049E000FFE70EB080BDC0460010004040100240FE
:1049F000341002400008005010B53D21415C0129EF
:104A00001BD101463D3102220A700168C8680122AB
:104A10001043C860D348814205D0B048814202D0DB
:104A2000AC4881420BD188680A4B03400020062B1A
:104A300002D01404A34202D110BD012010BD0868A9
:104A400010430860002010BD0004004000400140F9
:104A5000002C014007000100F0B53C22825C012AD5
:104A600001D10220F0BD02463C32022353700123E3
:104A700013700568A868494C0440AC600E680024B7
:104A80004F2E1EDC1F2E36DD202E38D0302E36D095
:104A9000402E00D080E0286A2E6A0127BE432E6295
:104AA000AE69F027BE43CF683F013743AF610A26A6
:104AB000B043496801432962A86839490140473138
:104AC00065E06F2E23DD580386423CD018038642F2
:104AD00020465ED0702E5FD1FF200002AE68864374
:104AE00048688F68C9680743080238433043A860A4
:104AF000A868772135E0002E01D0102E4CD1A8688F
:104B0000274901400E4307203043A86040E0502E63
:104B100029D0602E40D1286A2E6A1027BE432E620B
:104B20000F263603AF69B743CE6836033E43AE6106
:104B3000A026B0434968090101432962A8681849C1
:104B40000140673123E0FF200002AE6886434868D9
:104B50008F68C9680743080238433043A860980348
:104B6000A968014313E0286A2E6A9E432E62AE694B
:104B7000F027BE43CF683F013743AF610A26B043F9
:104B8000496801432962A868054901405731A96075
:104B9000204614705370F0BD1846FAE78800CEFF27
:104BA00088FFCFFFF0B583B000281ED00E46044624
:104BB00005463C356878002804D10020287020463E
:104BC00000F09AF80220687020688168404A0A4024
:104BD000826003683F4A904202D06249884207D10E
:104BE00070218B43A168194303E0012003B0F0BD9D
:104BF0001946394B984208DC5A4B98420ED03A4B32
:104C000098420BD0904209D060E0344A904205D0DF
:104C1000334A904202D0334A904257D103221202C3
:104C2000914322690A4380218A43A16911430160AB
:104C3000E168C162616881622C494118890A820574
:104C40005118072906D801228A40E1210A4201D0E1
:104C500061690163029521463E310191443401228C
:104C600042610369DB0702D00369934303618368F0
:104C700037681F4331468669036A87608F688D698C
:104C80002D023D431A4F2F401A4D3540CE682E431A
:104C90003E43CD692D0235430E6936012E430D6A20
:104CA0002D0335438561AA25AB434D681D434B69F0
:104CB0001B012B4303622271019802704270227023
:104CC000627002984270002003B0F0BD0A46AAE765
:104CD000F8BFFEFF002C0140FF3F014000400140B3
:104CE00000480140004401400020004000D4FEBFC5
:104CF0000303FFFF0000FFFF80B588B0079000208E
:104D0000069005900490039002900798006815495A
:104D1000884225D1FFE7FFE71348026802210A43D2
:104D200002600068084001900198FFE7FFE7FA4839
:104D3000026801210A430260006808400090009860
:104D4000FFE7C0200290022003900020049005900D
:104D5000012006900520000702A9FEF799FDFFE754
:104D600008B080BD000400403C100240F0B581B0A6
:104D700004463E20255C20463E3043784422A65C13
:104D80000094443467780122042909D000290ED107
:104D90005640554035433AD102220270227013E04A
:104DA000574053403B4332D1022242700BE0534004
:104DB00055401D4356402E435740374327D10222CA
:104DC00002704270227062701023DA430429009D41
:104DD00006D0002906D10F322968203101230AE0CC
:104DE000296807E02968086A0124A0430862086A64
:104DF00020430862203108681040086008681843A2
:104E000008602868016801220A43026000221046F7
:104E100001B0F0BDB0B584B003901C491C480190AE
:104E20000A4638CA38C038CA38C01A480622FEF7BF
:104E300019FB0198C168132048436A2105F08CFAD8
:104E400001460198144A7223D15282687D20C00025
:104E5000504301210903891A05F07EFA01460F48E3
:104E600001600068FDF75EFE0D49088004F08EFDCC
:104E700005F000F80B4902910968401A0A490860D8
:104E800004F0F8FF0299086004B0B0BD700600207D
:104E9000400600200C120020580100208C0E00203B
:104EA00050010020B406002024110020F0B583B08A
:104EB00004460068C5680227294639404A424A41EB
:104EC0000169029139404B424B41134313D16C4964
:104ED000FE310161012121778069800703D02046DE
:104EE000FFF798FF05E0204600F09EFA204600F00C
:104EF00054FD002020770126042229461140484213
:104F0000484102994907314600D501460320000275
:104F10000190002916D1009220685949FC310161A5
:104F2000277780690199084203D02046FFF772FF76
:104F300005E0204600F078FA204600F02EFD002023
:104F40002077009A0827294639404842484102996B
:104F50000907314600D50146002913D12068484988
:104F6000F83101612277C069800703D02046FFF73E
:104F700051FF05E0204600F057FA204600F00DFDF5
:104F80000020207710212940484248410299C90653
:104F9000314600D50146002914D120683849F03146
:104FA00001612777C0690199084203D02046FFF7C5
:104FB00031FF05E0204600F037FA204600F0EDFC16
:104FC0000020207701212940484248410299C90721
:104FD000314600D00146002906D120682849FF311A
:104FE0000161204600F032FE80272F407842784150
:104FF0004121C901029A0A42314600D001460029E6
:1050000005D120681F4901612046FFF7C2FA7842A6
:1050100078410299C905314600D50146002905D1DC
:105020002068174901612046FFF7B2FA4021294064
:105030004842484102994906314600D501460029B7
:1050400006D120680E49C0310161204600F0FFFD05
:1050500020200540684268410299890603D4002E49
:1050600004D003B0F0BD0646002EFAD120680449F2
:10507000E03101612046FFF78DFA03B0F0BDC04674
:10508000FFFEFFFF7FDFFFFF80B58CB00B9000209D
:105090000A9009900890079006900B980068E049E4
:1050A000884236D1FFE7FFE71B48026802210A4326
:1050B00002600068084005900598FFE7FFE7164882
:1050C000026801210A4302600068084004900498C5
:1050D000FFE707200090400306900220029007900F
:1050E00000210191089109910A900C4806A90391A9
:1050F000FEF7CEFB009B019A029803991B020693D0
:105100000790089209920A9005200007FEF7C0FB5D
:10511000FFE70CB080BDC0463410024000040050D0
:10512000F0B583B003463C20185C012802D1022070
:1051300003B0F0BD1C463C34012020700226F24131
:10514000052A00D952E1C0467A44127952009744A8
:1051500002293E5476A71868036A026A0125AA4309
:105160000262EF4A8218920A8705BA18B3438E6822
:105170001E43436800930B68029383690193072AD7
:1051800000D9EAE02F469740E1231F4200D1E4E036
:105190000C239E43CF6804239F433743072A00D83C
:1051A000DEE027E11868026A036A1025AB43036258
:1051B00020239A438B681F01174346680A680292AE
:1051C0008269D04DA84200D18AE03D468FE0186840
:1051D000026A01273B02056A9D4305627B029A43EE
:1051E0008B681D02154346680A680292C369C54A66
:1051F000904200D190E001959BE01868026A02920B
:1052000001221503066AAE430662C54D4519AD0A73
:105210008605751947688B6801930B680093C6690A
:10522000072D00D9A9E01346AB40E1252B4200D160
:10523000A3E093039F434B699D013D439EE01868A3
:10524000026A0292744A13467333056A1D4005626E
:10525000B34D4519AD0A8605761945688F680197E3
:105260000F680097476D072E00D9CFE00122B240AA
:10527000E126324200D1CBE01D404A6913022B43A4
:10528000654A4360D21C1740009A17434765496836
:10529000816501214904029A8A43019909048BE03E
:1052A0001868026A029201221505066AAE43066278
:1052B0009B4D4519AD0A8605751947688B680193A2
:1052C0000B680093466D072D67D81346AB40E12568
:1052D0002B4262D093049F434B699D023D435DE0A6
:1052E000C025AF43CD682D0140239D433D438C4BEA
:1052F000C3189B0A8705FF18072F5FD80123BB40FF
:10530000E1273B425AD003239B029E434B698F699E
:105310001F43BF00374352E0032292029543CA68FD
:10532000120201923F4A0096019E3240009E2A439B
:1053300001927B4D4519AD0A82055519072D49D8B3
:10534000AF40E122174245D00322120396434A6937
:105350008D6915432D0135433DE03746072A49D86D
:105360009540E122154245D003221202009D95434B
:105370004A698B692A431A433DE03D464560274B05
:105380001E40009B1B023343C36149680164510303
:10539000029A8A43019909030EE03D4645601D4B80
:1053A0001E40009B1B02334343654968C16551059C
:1053B000029A8A4301990905114315E0374647606F
:1053C000164B1A40029B1B02134383614968816399
:1053D00005620AE0354645600F4A1340029A1343BE
:1053E000C3614968C16301990162002000212170F5
:1053F00003B0F0BD009A4260074A019B1340029A35
:1054000013438361496841630762EEE72B4638E73F
:105410002B4635E7FF8FFFFE8CFFFEFFFF8CFFFE64
:10542000002C014000FBFFFF70470000B0B50028D2
:1054300019D0044605463C356878002804D1002080
:105440002870204600F06EF802206870206803681B
:105450002C4A904202D02C49884206D170218B43BD
:10546000A168194302E00120B0BD1946274B9842BC
:1054700008DC254B98420ED0284B98420BD0904226
:1054800009D03DE0224A904205D0224A904202D003
:10549000214A904234D103221202914322690A43E5
:1054A00080218A43A16911430160E168C16261689A
:1054B0008162F8494118890A82055118072906D8DE
:1054C00001228A40E1210A4201D06169016322463A
:1054D0003E324434012141610369DB0702D0036994
:1054E0008B4303612171117051709170D1701171F2
:1054F000517121706170A170E17069700020B0BDC0
:105500000A46CDE7002C014000040040FF3F014067
:10551000004001400048014000440140002000409C
:1055200000D4FEBF70470000F0B583B03C23C35CDD
:10553000012B01D1022394E106463C36012333704E
:105540000225EA41052A00D989E102967A441279B6
:10555000520097440225384E6F8F0268176A136A0B
:10556000012083431362CB4BD3189B0A9605F31893
:10557000AF438E683E43546800940C68019495696B
:10558000072B00D9D4E007469F40E124274200D1F1
:10559000CEE00C24A643CF680424A7433743C8E0D9
:1055A0000268106A136A1024A343136220239843ED
:1055B0008B681F01074350680D689369F04CA24245
:1055C00079D03E467EE00268106A01273B02146AE9
:1055D0009C4314627B0298438B681E02064350680A
:1055E0000B680193D569E64B9A4200D181E03346BE
:1055F00088E00268156A01231803146A8443146260
:10560000E4481018800A9405261850688C680194A4
:105610000C680094D769072E00D99CE01C46B44062
:10562000E126344200D196E09C03A0434C69A601D8
:10563000064391E00268136A98487330146A044084
:105640001462D44C1419A40A95052E1957688C6855
:1056500001940C680094556D072E00D996E0012442
:10566000B440E126344200D190E007404869060288
:105670003E438CE00268156A01231805146A8443CE
:105680001462C4481018800A9405261850688C6863
:1056900001940C680094576D072E00D992E01C46C7
:1056A000B440E126344200D18CE09C04A0434C6914
:1056B000A602064387E0C024A743CC682601402405
:1056C000A6433E43EE4C1419A40A97053F19072F31
:1056D00000D992E00124BC40E1273C4200D18CE09B
:1056E0000324A402A0434C698F692743BF000743EA
:1056F00084E003239B029E436A4CFF3CCB681B0261
:1057000023403343DE4C1419A40A96053619072E9C
:1057100000D98AE0B740E124274200D185E0032484
:105720002403A0434C698E692643360106437DE07D
:105730003746072B029E00D996E09840E123184295
:1057400000D191E003200002009C84434B698869EA
:105750002343034389E0064610461C305660504CF4
:105760002740009C24023C43D4614C6814645C03D1
:10577000A543019C24032C431462DC02D569254314
:10578000D5619B02D4699C43D4614BE03E461046F0
:1057900054305660414CE41C2540009C254355651F
:1057A0004C68946501246404A343019C24041C43B5
:1057B0001462536D08241C435465536D0424A343A1
:1057C000536546E00646104654305660324C27403A
:1057D000009C24023C4354654C68D4655C05A54399
:1057E000019C24052C431462DC02556D254355654C
:1057F0009B02546D9C43546514E0074610461830D4
:105800005760274C23402C021C4394614B689363E0
:1058100016620123DC029569254395619B02946918
:105820009C4394610969090214E0064610461C3045
:1058300056601A4C2540019C2543D5614C68D463C1
:105840001362D36908241C43D461D3690424A3439D
:10585000D3610969029E02680A43026000230020A6
:105860003070184603B0F0BD009B104618305360EE
:105870000A4B1D40019B1D4395614B6853631762A2
:10588000936908241C43946193690424A34393619E
:105890000969E0E700D4FEBFFF8FFFFE8CFFFEFF2B
:1058A000FF8CFFFEFFFBFFFFB0B5002819D00446B8
:1058B00005463C356878002804D100202870204631
:1058C00000F06AF80220687020680368B34A9042CA
:1058D00002D0B049884206D170218B43A168194398
:1058E00002E00120B0BD1946264B984208DCA94BC6
:1058F00098420ED0264B98420BD0904209D03DE002
:10590000A54A904205D0204A904202D01F4A9042B8
:1059100034D103221202914322690A4380218A432F
:10592000A16911430160E168C16261688162C44993
:105930004118890A82055118072906D801228A4090
:10594000E1210A4201D06169016322463E324434BA
:10595000012141610369DB0702D003698B430361C5
:105960002171117051709170D1701171517121704C
:105970006170A170E17069700020B0BD0A46CDE78A
:10598000002C0140FF3F014000480140004401401D
:105990000020004000D4FEBF7047704710B502469B
:1059A0003E320029134614D08B070C1FA4081B1984
:1059B000032B0DD87B441B795B009F440103050733
:1059C000531C06E0931C04E0D31C02E0131D00E00E
:1059D000531D1B78012B10D1002910D08B070C1FF1
:1059E000A4081B19032B0DD87B441B795B009F4433
:1059F000010C0F12022353700FE0012010BD02238F
:105A000013700AE00223537107E00223937004E04D
:105A10000223D37001E0022313711F2211400122DF
:105A200013468B400168086A98430862086A184365
:105A3000086283480818800A8B051818072808D8B8
:105A400013468340E120034203D0D0034B6C034351
:105A50004B645048814205D04F48814202D04F48A4
:105A6000814208D188684E4B03400020062B06D0A7
:105A70001404A34203D0086810430860002010BD3E
:105A800000D4FEBFB0B502463E320029134614D002
:105A90008B070C1FA4081B19032B0DD87B441B7903
:105AA0005B009F4401030507531C06E0931C04E0C0
:105AB000D31C02E0131D00E0531D1B78012B10D1F5
:105AC000002910D08B070C1FA4081B19032B0DD81D
:105AD0007B441B795B009F44010C0F12022353701F
