:020000040800F2
:10000000A03C0020CD010008E17D0008A95F0008A8
:1000100000000000000000000000000000000000E0
:10002000000000000000000000000000458E0008F5
:1000300000000000000000001F8500080502000805
:10004000DF01000800000000DF010008DF010008F8
:10005000DF010008DF010008DF010008DF01000800
:1000600000000000112400083D240008DF01000802
:10007000251F0008299000083590000800000000A6
:10008000DF01000805920008DF010008DF01000819
:10009000DF010008DF010008DF010008DF010008C0
:1000A000DF010008DF010008DF010008059F0008EC
:1000B000359F0008DF01000800F002F800F05AF850
:1000C00012A030C8083824182D18AC4201D100F015
:1000D00051F80FCCA246AB460CA730CF2D1B083FE2
:1000E0003F197C427F1E54442D090426F441641EAE
:1000F000AC4201D300F03EF80126334200D0FB1A97
:100100003343984754465D46DFE7000030D0000097
:1001100050D0000070470000002300240025002676
:10012000103A01D378C1FBD8520700D330C100D5B3
:100130000B60704710B5662902D10BF073F910BD42
:10014000642902D100F018F910BD732902D101F021
:1001500049FA10BD002010BD1FB501F0DFFA040000
:10016000002000210BF048F9E06000F0A5FB1FBD66
:1001700010B510BD01F084FE1146FFF7EDFF0AF047
:10018000AFFC01F09CFE03B4FFF7F2FF03BC0AF0E2
:1001900002FA000070B505460C46164602E00FCC88
:1001A0000FC5103E102EFAD2082E02D303CC03C581
:1001B000083E042E07D301CC01C5361F03E0217889
:1001C0002970641C6D1C761EF9D270BD07488047EB
:1001D00007480047FEE7FEE7FEE7FEE7FEE7FEE72B
:1001E00004480549054A064B704700002590000861
:1001F000B9000008A0360020A03C0020A038002054
:10020000A038002030B410B50348804730BCAE465B
:1002100030BC02480047000069AC00080D9000089F
:1002200000BF704770474343514330B55C18010C21
:10023000130C0D4692B25D4380B251432C19054612
:1002400055430A0C09044D1962415843010C00043E
:100250004019514130BD70B5054610460C46184353
:100260000ED000210846891A984127DA0021084655
:10027000491BA04118DA2846214600F08DFE70BDCA
:10028000002C03DA01230022DB0707E000210846E7
:10029000491BA04102DA0022D243530810461946F6
:1002A000C046C0462A4627E000216842A14100F02E
:1002B00073FE002440428C4121461AE0002108468A
:1002C000491BA0410CDA21460020524298410346C6
:1002D000284600F061FE002440428C41214670BD5A
:1002E000002052429841002103466842A14100F09B
:1002F00053FE002452429C41234670BD0FB41CB5EE
:10030000074B06AA7B4469460090059801F03FF927
:100310000020694601F04EF91CBC08BC04B0184727
:10032000AD12000070B50C460546012A05D02878AC
:10033000800600D5EA69002302E0012305E05B1C8A
:10034000934202D2E05C0028F9D1A869E618C01AED
:10035000A861286AC01828622846C046C04604E042
:100360006A682078A968641C9047B442F8D328468C
:10037000C046C04670BD0000F7B50025752910685D
:10038000009914A611D0C046C046002802DA4042A7
:1003900011A608E0009909688A0701D50FA602E0B6
:1003A000490704D50EA6012501E0C046C046009FBE
:1003B0000024243704E001F019F930313955641C68
:1003C0000028F8D12B4632462146009800F077FEEF
:1003D000FEBD0000000000002D0000002B0000000A
:1003E00020000000F3B50446002081B020622046C2
:1003F000E1688847002872D0252802D06268A16889
:100400009AE0E16820460026884705460020E06122
:100410000746A0612A2D0AD028460AF0C1FF00280D
:1004200027D0B8000019303D0090856119E002988E
:10043000BA00121902C8916102902046E16888470B
:10044000012F054617D1E06900281FDA20208643D6
:100450001CE000980A21806948430099401930380F
:1004600088612046E168884705460AF099FF002820
:10047000EFD1012F0AD02E2D08D12046E168884700
:100480000546202006437F1C022FC3DBA0690028FD
:1004900003DA4042A06101200643F00701D010209A
:1004A00086436C2D0AD0682D08D04C2D3CD06A2D87
:1004B00038D0742D38D07A2D36D016E0E1682F462A
:1004C00020468847B84205460AD16C2F2AD0012021
:1004D0008002E168064320468847054605E02FE094
:1004E0006C2F1DD0FF2001300643002D28D0284658
:1004F0004138192803D80120C00206432035204680
:1005000026602946029A1646FFF714FE002810D0EE
:1005100001280BD0F61DF008C0000830029066E7F5
:100520004020E1E78020D4E70020D2E7361D029684
:100530005DE762682846A1689047206A401C55E73D
:10054000206AFEBDF8B5042A2CD3830712D00B789D
:10055000491C0370401C521E83070BD00B78491CAA
:100560000370401C521E830704D00B78491C037093
:10057000401C521E8B079B0F05D0C91ADF00202399
:10058000DE1B08C90AE0FFF705FEF8BD1D4608C9D5
:10059000FD401C46B4402C4310C0121F042AF5D263
:1005A000F308C91A521EF0D40B78491C0370401C82
:1005B000521EEAD40B78491C0370401C012AE4D473
:1005C00009780170F8BD01E004C0091F0429FBD2BD
:1005D0008B0701D50280801CC90700D002707047CC
:1005E00000290BD0C30702D00270401C491E02290B
:1005F00004D3830702D50280801C891EE3E7002212
:10060000EEE70022DFE7000082078B079A423FD126
:1006100070B5920F0AD0032402780B78401C491C55
:10062000002A33D09A4231D12042F5D1214EF40133
:1006300004C808C9951B9543254018D19A420FD18B
:1006400004C808C9951B9543254010D19A4207D18B
:1006500004C808C9951B9543254008D19A42E7D0A4
:1006600012BA1BBA01209A4200D2404270BD12BA9F
:100670001BBA2DBA18241000E0401900E140401ABE
:1006800005D12E00E64002D1083CF4D1D01A70BD4D
:1006900002780B78401C491C002A09D09A4207D1E5
:1006A00002780B78401C491C002A01D09A42EFD0F6
:1006B000D01A704701010101002203098B4273D354
:1006C000030A8B4258D3030B8B423CD3030C8B425F
:1006D00021D312E003460B437FD4002243088B4210
:1006E00074D303098B425FD3030A8B4244D3030BB9
:1006F0008B4228D3030C8B420DD30902FF2212BA7E
:10070000030C8B4202D31212090265D0030B8B42F9
:1007100019D300E0090AC30B8B4201D3CB03C01AE3
:100720005241830B8B4201D38B03C01A5241430BBE
:100730008B4201D34B03C01A5241030B8B4201D3AE
:100740000B03C01A5241C30A8B4201D3CB02C01A19
:100750005241830A8B4201D38B02C01A5241430A91
:100760008B4201D34B02C01A5241030A8B4201D380
:100770000B02C01A5241CDD2C3098B4201D3CB0127
:10078000C01A524183098B4201D38B01C01A5241D6
:1007900043098B4201D34B01C01A524103098B42DA
:1007A00001D30B01C01A5241C3088B4201D3CB00C5
:1007B000C01A524183088B4201D38B00C01A5241A8
:1007C00043088B4201D34B00C01A5241411A00D258
:1007D00001465241104670475DE0CA0F00D04942C1
:1007E000031000D3404253409C46002203098B4231
:1007F0002DD3030A8B4212D38901FC2212BA030AB9
:100800008B420CD3890192118B4208D3890192113A
:100810008B4204D389013AD0921100E08909C309BF
:100820008B4201D3CB01C01A524183098B4201D3C1
:100830008B01C01A524143098B4201D34B01C01AAC
:10084000524103098B4201D30B01C01A5241C30824
:100850008B4201D3CB00C01A524183088B4201D393
:100860008B00C01A5241D9D243088B4201D34B00AE
:10087000C01A5241411A00D2014652411046634605
:100880005B1001D34042002B00D5494270476346BC
:100890005B1000D3404201B50449002802DC491C2A
:1008A000084000E00846C046C04602BDFFFFFF7F8B
:1008B000704770477047000008487CB57844009046
:1008C00007487844009C0546019004E020460168F2
:1008D00008188047241DAC42F8D17CBDB8C8000080
:1008E000B6C800000246C80FC00781434B0030B5B0
:1008F0004B405B009B0D20D01923DB06C918012358
:100900001B05994220DB0324A40704251346AB40B2
:100910000BD3002B04D1EB0613409B00E34204D41D
:1009200001246407002312195941FF231B05994232
:100930000BD2C9000143500F09E0CB0204D501439B
:100940000803024305D0054830BDFF21C90508430F
:1009500030BD084607210905884330BD0000C07F2F
:10096000F0B5F94D0C091E092C402E402F468BB0D6
:10097000A7437DD0B543FCD0002E7AD0002CFCD00C
:100980000D465D40ED0F2543AC1BFF25AD046419FA
:100990000894C502440DC9022143500DDC020443F2
:1009A0000120C00701430443D2020191200C110C25
:1009B00000958C46010423468B430A916146090445
:1009C000E24D8A430991010A7D4449198039097829
:1009D00005464D4301266D18F605751B6943C90C84
:1009E000640B891C4C436418B5012C1B250C2E0488
:1009F000B4434C434D43210C691889090591009D6E
:100A0000E90701D00121C90704912C460199670823
:100A1000CD072F434C08059DE10B4D432D0C294676
:100A20006646754302950D4645432E46029D7D1B45
:100A3000B44100950D465D4301942C0C2F040D46E6
:100A40005543AE462D0C3D43029503947546049CD8
:100A50002D04641B049406D2029C039D641C002692
:100A600075410395029401AC70CC009F7D1B01E0A1
:100A70003EE162E1B44109040095079101940599B2
:100A8000A4086143090C0C464443650BE7040C467B
:100A900066467443A646640B3C4303950294744631
:100AA000049DE4042C1B049406D2029C039D641C48
:100AB000002675410395029401AC70CC009F7D1B0C
:100AC000B44101940C465C430095650FE7000C4669
:100AD0005443A646640F3C43039502947446049D18
:100AE000E4002C1B049406D2029C039D641C002687
:100AF00075410395029401AC70CC009F7D1BB441FD
:100B0000AE09AF06049DC900AD092F43049DA4069C
:100B1000AD060495079D344369180791059DE10BC7
:100B20004D432D0C29466646754302950D464543B7
:100B30002E46029D7D1BB44100950D465D430194F8
:100B40002C0C2F040D465543AE462D0C3D4302950B
:100B500003947546049C2D04641B049406D2029CE5
:100B6000039D641C002675410395029401AC70CC72
:100B7000009F7D1BB44101948C050694079C890A53
:100B8000611800950791019C0599A4086143090C1F
:100B90000D464543680BEF040D46644665436C0BF8
:100BA0003C43049FED047D1BAC4602D20025641C2F
:100BB0006841009E019D371B8541084658430195B9
:100BC0000C46460FC5005443600F28436546E400B9
:100BD0002C1B02D20025401C6E41019D3F1AB541DD
:100BE0002846BD09800628438446A009BF064E0258
:100BF0000699A40676180743079D002068410A99C4
:100C0000079019430020099B00906046FF19134389
:100C10004041E20F64003A43A4460446D71A8C418F
:100C2000A04203D90120009020463A46C70F9418ED
:100C300040416246D20F2243644664000494009C03
:100C4000BE466400D71AA446044602978C417746F4
:100C5000002F01D1A04204D96046401C8446029A6C
:100C60002046C40FA64694184041049A0546D20F68
:100C7000224364466400D31A8D417146002901D194
:100C8000A84202D928461A46641C104301220028B3
:100C900000D0164361020020079B891904465C417D
:100CA0000223002C02DB491813466441089DCE0A3A
:100CB0002D145D194B056705E10A2C050D190899DE
:100CC0003E43C9076940002B08D0934006D3002259
:100CD000761C5141002B01D1760876001C4A002D6C
:100CE00043DB154241D0AA433FD030460BB0F0BDA4
:100CF00006180D464D41174C7642AC411AD3951853
:100D00001C465C41134A6D42A24113D30122520595
:100D10004C00D4420AD15C00D4420BD04B4002D5E7
:100D200092021143E2E749004908DFE75940C90F41
:100D3000C90718E000200849D8E7054801420DD14D
:100D40000342F7D0F2E700000000FF0768AA0000A6
:100D50000000F07F0000E0FF0000F87F11485940DC
:100D60000143C01241400020C0E70123089A9B06BE
:100D70009A4205DC032252078918C90FC907B5E753
:100D8000052252078918074A1143D2125140ADE794
:100D900070B515461C4602460B4628462146FFF70D
:100DA000DFFD70BDFFFFFF7FF0B5430DCA021A43A0
:100DB0000446C30208152025274E002803D0AF069D
:100DC0003A43002813DB361A002E2FDD502E00D3B5
:100DD00050261146F1403446203C02D41046E040F3
:100DE00002E0AC1B1046A040F3401843F0BD4005A4
:100DF000400D01D152005208301A17D4502800D3A8
:100E000050201646C6400746203F01D4FA4001E074
:100E10002D1AAA40C3401A43504200230025B34173
:100E20002A462D1A9A4101DB1946F0BD4A00002CD2
:100E300001D0012000E00020101801225205D0420C
:100E400002D900200146F0BDC917C8430122C94399
:100E5000D2075140F0BD00003E0400001F22030CE9
:100E600002D10F22000402D0030E03D004E00020C0
:100E7000014670470002083A030F01D10001121F1A
:100E8000830F01D18000921E002801DB4000521E1A
:100E9000120551184205C012411810467047C10F83
:100EA000C90700D04042012292071143D6E7012131
:100EB0008907D3E710B50B1E01D0202301E0011EE6
:100EC0002BD00C0C01D10904103B0C0E01D10902EE
:100ED000083B0C0F01D109011B1F8C0F01D18900A8
:100EE0009B1E002901DB49005B1E0446DC402143B8
:100EF0001C05A4182022D21A90404B05C20AC90A28
:100F00001A430919830501D1430818401623984054
:100F100002D30020521C4141104610BDCA0FD20717
:100F200003D00B46002140429941024B1A43C1E7CE
:100F3000004ABFE70000D0410121C9050123411843
:100F400042001B06D3185B0E0AD0C1100722D2063E
:100F5000891840075242D14201D552008918704782
:100F6000090208D50146002A03D0C10FC907002095
:100F7000704710467047420202D000200249704775
:100F8000072109050143F4E70000F87F70470000DE
:100F90000048704768010020FEB5044610460D4623
:100FA000184373D0A6468C460020A41A01469D41E2
:100FB00067D36646002701243D46B61A9D4102D3F9
:100FC00013463A462124654676462F04360C3E43A6
:100FD0002D0CB61A9D4104D3150C1B042B4312048F
:100FE0001034654676462F06360A3E432D0AB61A59
:100FF0009D4104D3150E1B022B4312020834654693
:1010000076462F0736093E432D09B61A9D4104D373
:10101000150F1B012B431201241D65467646AF07B1
:10102000B6083E43AD08B61A9D4104D3950F9B0008
:101030002B439200A41C65467646EF0776083E4394
:101040006D08B61A9D411AD392185B41641C16E0D4
:101050000018764665464941B71A9D4101910090B6
:1010600009D36046B11A98418E468446009801998A
:101070000025401C6941DD0752082A435B08641EB5
:10108000E6D57246634603B0F0BDFFE7204628432D
:1010900007D00020C0430146C046C04622462B462A
:1010A000F1E700200146F7E710B5FFF771FF006890
:1010B00010BD10B50446FFF76BFF046010BDFFB50F
:1010C00004460D4681B0243000902168880604D57E
:1010D0001022E0699143216000E00120A84201DD77
:1010E000471B00E000270498A1697A191018081A14
:1010F000A0612078C00602D42046C046C046002623
:1011000008E003986268A168805D9047206A401CEF
:10111000761C206204988642F3DB2078C0060AD54C
:101120002046C046C04606E06268A168302090476D
:10113000206A401C206238467F1E0028F4DC07E04D
:1011400000986268A168405D9047206A401C206258
:1011500028466D1E0028F3DC2046C046C046207895
:10116000000602D5022005B0F0BD0120FBE700001B
:10117000FFB50C461E468FB003CA089009914F0078
:101180007D0D00D16D1E002108460020C0460321C0
:10119000099A89050840002A03DA8200801840086D
:1011A0000840800D01280A9002DD0020C0430A900B
:1011B000089807430DD0F048F04928184843071411
:1011C000189800281DD07542291E1DDD0A9842423C
:1011D0001BE01898012802D00020302104E00020F4
:1011E000F24305E02154401CB042FBDB30460022B4
:1011F000189B002121540F998B600A60486013B03E
:10120000F0BDBD1B6D1CDFE70A9A002900DA6942B8
:101210000BA800F009FB0BAB07CB03AB07C3089986
:10122000099800F06DFB6B4607C30146D4480918C6
:10123000002D00910BDDD24903980A9A49424018CB
:10124000002303A90390684600F0CAFD08E0039953
:101250000A9A0023081803A90390684600F06AFD63
:101260006B4607C30004000C03D00020C0434108B4
:1012700000E01046189A002A03D00022009215467A
:101280001EE0751E05D400F04DFA303262556D1E19
:10129000F9D501220843079602D000227F1C04E002
:1012A0002078302801D100227F1E002A069787D09F
:1012B0001EE0112D07DA00F035FA303262556D1C50
:1012C00002460A43F5D1084303D00098002819D0FC
:1012D0000EE00021681E05E0235C625C635422542A
:1012E000401E491C8142F7DBA81B401E0795069053
:1012F000079A18990020A0540F98079B069A8160BE
:101300000CC07CE711260020189059E7D21DF0B5DB
:101310000D460446D10893B0C90003C90C900D9145
:101320000AF028F802460D98C00F01D02D2007E0E2
:101330002068810701D52B2002E04007C00F400143
:10134000032A0F9001D0072A05DB034629462046D1
:1013500000F026FA0EE12078800601D5E76900E06A
:1013600006272846652D04D0662814D0672D69D13C
:101370002DE00020112F009001DB112300E07B1CE9
:101380000CAA03A910A8FFF7F3FE119900261098E4
:101390007D1C0E9142E001203B460CAAC0070B9039
:1013A0000120009003A910A8FFF7E2FE119D1298FA
:1013B0001099002600280E9501D1781C0D18781B75
:1013C00002D446427D1C761EE81B00903AE0012FB5
:1013D00000DA01270020112F009001DD112300E029
:1013E0003B460CAA03A910A8FFF7C2FE11993D467F
:1013F000109800260E91217809070BD40E99A94266
:1014000000DA0D4603A9012D04DD4A19203AD27FE6
:10141000302A06D0B84201DA011D04DA0121009118
:101420000FE06D1EEFE7002802DC86192D1A03E09D
:10143000411CA94200DD0D46801B401C009001208C
:10144000C0070B902078000705D40098A84202DB63
:101450000020C043009069460020C8720B9801210B
:1014600002AF0337C907884225D0022010902B20F5
:1014700011900B9800280BDA40420B902D20119010
:1014800006E00B9800F0B2F830317F1E0B903970F7
:101490001099481E00291090F3DC0B980028F0D119
:1014A00011987F1E38702088000501D5452000E086
:1014B00065207F1E387001A8C01BC01D0B900F98BF
:1014C000002800D0012041190098C01709180B9876
:1014D0000818A169081A401EA0612078C00602D42D
:1014E0002046C046C0460F98002805D06268A16813
:1014F0009047206A401C20622078C00625D52046EF
:10150000C046C04621E0002E07DB0E98B04204DD45
:1015100003A86268805DA16802E06268A16830206B
:101520009047206A761C401C20620098401E0028CC
:1015300000900AD100F0F2F8C06862680168405C6F
:10154000A1689047206A401C206228466D1E002832
:10155000D9DC07E062683878A1687F1C9047206A70
:10156000401C20620B99481E00290B90F2DC20469B
:10157000C046C046032042E601FCFFFF104D0000BC
:10158000E1DFFFFF01694A1C02610878704700B57E
:101590008FB002910021059105490193794403918F
:1015A000114604906846FEF71DFF0FB000BD000015
:1015B000E5FFFFFF0A681070521C0A60704710B503
:1015C0004369002B02D0C046C04601E0FEF7AAFEE8
:1015D000012010BD1278014624310A7000224A70A1
:1015E0000122ECE711680022D243E8E701468008B7
:1015F000081A02091018020A1018020C1018C00864
:10160000820012185200891A01E0401C0A390A2986
:10161000FBD27047F0B53D4B02460C461C40002003
:10162000002C63D03A4D8B4366D000296BDB0B0D49
:101630001D05A94301252D0529430124FD33E34060
:1016400001D392184941FF3381339C468B02940D9C
:101650000121234389074C42920200271B198C1059
:101660005D1A04D42D1B02D42B466500491992182B
:101670005B416408F4D15C1A08D40125ED07EE172C
:101680005519744102D42A462346491C94185B41DB
:10169000012292071D46E61B8D4106D4B61A8541EC
:1016A00003D42B46550034467F1924195B41520858
:1016B000802AEFD1234300D0022338460A22D040AB
:1016C00001D3012213438A0510436246890A120599
:1016D0008918002B09D00122D34002D30022401CDC
:1016E0005141002B01D140084000F0BD0B031343D2
:1016F00007D0C90FC907F0BD0803104303D1002963
:1017000001DB1046F0BD00202946F0BD0000F07F4F
:101710000000F87F004870476801002000487047CB
:10172000880100200B4670B50246890780080843EF
:1017300019469D08141AA9412509080705430809F7
:101740002C194841250A01060D43010A2C19414173
:10175000200C0D0428430D0C00194D4100214019A7
:101760004D41C00869070843E908840F8D002543EF
:10177000840024184D4124196D41121BAB4107E030
:101780000925ED432C11521963410024401C61418D
:101790001C460A250026551BB441F1D270BD00003D
:1017A000F8B51F46044601230068DB020326014604
:1017B0001840072A05DB002801D017A506E017A569
:1017C00004E0002801D016A500E016A510208143F2
:1017D0002160A069C01E002FA06101D0401EA06141
:1017E0002046C046C046002F09D038466268A1682E
:1017F0009047206A401C2062C01C206206E0206ADC
:10180000FAE762682878A1686D1C9047761EF8D2C6
:101810002046C046C046F8BD4E414E006E616E0087
:10182000494E4600696E6600F7B516468AB03348E1
:1018300078446C4603467C33C06F5A689B680DC47D
:101840002E487844763003AC0DC80DC43720C00153
:10185000081837211B30FEF73DFF05460C46803D3A
:101860001B3C02D56442012000E0002000270990C3
:1018700010E0E0070CD00C20204978437944324630
:101880004C3941186846012300F054FA6B4607C3EF
:1018900064107F1C002CECD1184F7F442E3F16E0C3
:1018A000E80712D02001C0190EC8069108930792CC
:1018B0000068F04201D1981908903246012306A928
:1018C00003A800F037FA03AB07C36D10641C002DAA
:1018D000E6D10998002806D032466946012303A8BC
:1018E00000F07EFA05E001233246694603A800F0C5
:1018F00021FA0A9B07C30DB0F0BD0000809C0000D8
:10190000034640000A4610B5400D0BD00121C9071F
:101910000F24A40200191C0364082143540D214321
:10192000D20207E000210120F2E7D40F4900214351
:101930005200401E0029F8DADB0FDB07184310BD08
:10194000FFB50D46144685B04868516809F0F9FCAA
:1019500000910190A868A16809F0F3FC029103903E
:10196000A868616809F0EDFC029A1218824202929E
:1019700001D2012000E00020019A0B18D2180028A3
:10198000019202D08A4202D903E08A4201D20120A8
:1019900000E000200099081800906868A16809F02C
:1019A000D0FC029A12188242029201D2012000E079
:1019B0000020019A0B18D2180028019202D08A4206
:1019C00002D903E08A4201D2012000E00020009900
:1019D000081800902868216840004900400849081C
:1019E0004018FA49471814E001994000C90F08430C
:1019F0000090019802994000C90F08430190029895
:101A000003994000C90F08430290039840007F1ECD
:101A1000039000980028E7DA0898002801D0EC4EDF
:101A200000E00026B74201DA012000E00020002893
:101A300004902AD0F71BF806C00E15D0029B202177
:101A4000091A039A8B401A430392029A019BC240DF
:101A50008B401A430292019A009BC2408B4000992E
:101A60001A430192C14000917B110DD06F460320B3
:101A7000C11A03D500218200B95003E08A00810019
:101A8000BA587A50401EF3D5374603980299002879
:101A900000D00120014308980291002808460CD08C
:101AA000002800D001200199019A4905084301212D
:101AB000D20AC902D202019200E001210E9B01224A
:101AC000D207012B02D0002B03D013E0002807D14E
:101AD00020E0904204D890420CD1019B0B4209D0E7
:101AE000019B5918019105D10099491C009101D120
:101AF0007F1C009200280DD0102108460020C0460F
:101B00000498002806D00F98002803D00821084622
:101B10000020C04628682168019B009A4840C10FF8
:101B20000598C90739430EC009B0F0BDFFB587B0AD
:101B3000099A089808995368926840688968964697
:101B40000022039317469446089A12685300099A94
:101B50005B081268520052089A1A9E4BD4180A9ACF
:101B6000002A01D0352200E0402206920022012303
:101B700015460492DB07059324E0002D05D1754638
:101B80000346039E4D1BB34109D375466646039B2E
:101B9000491B049D9841059B7519AC465F416346FE
:101BA0003B4308D0059B049EDD0776082E435B0867
:101BB0000496059301E0521E641EC50FED074918F7
:101BC0004041521C069B9A42D7DB002D04D175463A
:101BD000039A6B1A824101D203200CE0039A0B4650
:101BE0006B404240134303D0014303D0012002E085
:101BF000022000E00020614601910021009702913F
:101C00000A99002905D0614640020143704B0191B9
:101C100002E08007002302909C4201DA012000E0EC
:101C2000002007003AD01A1BD006C00E15D0029D26
:101C30002021019C091AC5408C402543029C8C4000
:101C400000D001242543019C0295009DC4408D4095
:101C500000992C430194C140009154111DD06D4650
:101C60000221002202290CD10320001B07E00028DA
:101C700004DB8600AE59002E00D00122401C032850
:101C8000F5DB081B02D588002A5004E080002858A4
:101C900010438A00A850491EE3D51C460A98002824
:101CA00002980CD0002800D001200199019A490522
:101CB00008430121D20AC902D202019200E00121A7
:101CC000109B0122D207012B02D0002B03D013E07E
:101CD000002807D11FE0904204D890420CD1019B0C
:101CE0000B4209D0019B5918019105D10099491C5B
:101CF000009101D1641C009200280CD010210846EC
:101D00000020C046002F06D01198002803D00821DB
:101D100008460020C04608980999019A009B00686F
:101D200009684840C10F0798C907214382600AC06B
:101D30000BB0F0BD00B585B0019300920A46014694
:101D4000002302A8FFF7FCFD02A807C805B000BDEC
:101D5000FFB50A461F4685B00799019301230091FC
:101D6000014602A8FFF7ECFD02990398049ECA0FF2
:101D70004900D20700920F22490892028C1A0021D2
:101D8000002800DB0C46450013486D08844214D33C
:101D9000079A002A04DA441E0026104DF64302E09A
:101DA00004460D460E46102108460020C046002F6E
:101DB00003D0042108460020C0462005E90A084354
:101DC000009908436905F20A1143ADE602C0FFFF1E
:101DD000013C0000FF3F0000FF070000FFFFFF7F06
:101DE00000B585B0019300920A460146002302A87F
:101DF000FFF79CFE02A807C8A8E7FFB50A461F46E2
:101E000085B00799019301230091014602A8FFF7CD
:101E10008DFE02990398049ECA0F4900D2070092D2
:101E20000F22490892028C1A0021002800DB0C4680
:101E3000450011486D08844214D3079A002A04DA39
:101E4000441E00260D4DF64302E004460D460E46A4
:101E5000102108460020C046002F03D00421084668
:101E60000020C0462005E90A084300990843690597
:101E7000F20A114358E60000FF070000FFFFFF7F52
:101E80007546FFF747FCAE46050069465346C00855
:101E9000C000854618B020B5FEF7A2F960BCB64672
:101EA00000260027C0C5C0C5C0C5C0C5C0C5C0C5C7
:101EB000C0C5C0C5403D490849008D46704710B5B2
:101EC0000446C046C0462046FEF75DF910BD70B519
:101ED0008C180578401C6B075B0F01D10378401C00
:101EE0002A1106D10278401C03E00678401C0E70CF
:101EF000491C5B1EF9D12B0705D40023521E0DD4BB
:101F00000B70491CFAE70378401CCB1A921C03E0C3
:101F10001D780D70491C5B1C521EF9D5A142D8D307
:101F2000002070BD80B5024800F01BFE80BDC04699
:101F300020320020B0B50146806A836D826D502446
:101F4000234206D0D20610D4006D426B084690475B
:101F5000B0BD01214B021A4382650268D3681B059C
:101F60009B0F05D000F0FAFDB0BD00F0F9FDB0BD4B
:101F7000837E002BF6D113681B07F3D593685B07AC
:101F80000AD40346583354680C25AC435460FF24EC
:101F900002341A68A24306E0826D2023134383654E
:101FA00003465C33C26D0A431A6000F0D7FDB0BD32
:101FB00080B5806A816D40220A438265C16D04222A
:101FC0000A43C26500F0CCFD80BD80B5806A00F098
:101FD000C6FD80BD70B50546006881688268002432
:101FE000D20726D00222114023D1816805220A405F
:101FF000012A16D18168374A0A40911C8160032169
:10200000016001F01BFB064628688068C00710D0FD
:1020100001F014FB801B0328F6D328688068C007F2
:10202000F2D0A86D10210143A965E86D0124204379
:10203000E865204670BDC046F0B581B00546002475
:10204000009400688168C9071AD18168214A2F323B
:10205000114208D0A86D10210143A965E86D012443
:102060002043E8650CE081681A4A11400127394392
:10207000816019480068000205D4687E01280FD1EC
:10208000204601B0F0BD15480068154909F05EF81A
:10209000401C009000980028EFD00098401EF8E700
:1020A00001F0CCFA064628680168C907E8D18168C2
:1020B000C90704D18168074A11403943816001F0A2
:1020C000BDFA801B0328EED328680068C007EAD158
:1020D000C0E7C046E8FFFF7F082701402801002035
:1020E000400D030010B5C7480088334CA188002973
:1020F0000CD000280AD12F490968002906D12C49A3
:102100000A88062A02D10F2008804AE0002848D019
:10211000E069216A014344D0A06E022825D001283D
:1021200007D000283DD101F089FA0121A166606243
:1021300037E001F083FA616A401AE169884230D9D8
:1021400001F07CFA606200201C49085E401E1028E5
:1021500009D81B49C140C90705D080001949085852
:1021600019490969016002201AE001F067FA216A41
:10217000626A801A884214D901F060FA6062002015
:10218000F749085E401E102809D80D49C140C9070B
:1021900005D080000B4908580B49496901600120AE
:1021A000A066E069216A014301D10020A06610BD4C
:1021B000CA01002040020020A80300205001002096
:1021C0004F3C010048B500087C000020F0B587B006
:1021D0000492069107460024E748005F0390834D70
:1021E0002868834E3168081A08F08AFDF86068682C
:1021F0007168081A08F084FD7E4DA860F968E960EE
:10220000296041184942396178616960091A7A4840
:1022100048437D21C900059108F0BAFF2861386B59
:1022200008F0BAF90190386B08F0C6F900900297EF
:10223000386B686108F0B0F90746686908F0ACF9D6
:10224000EA682B693946514306465E43711ACE1738
:10225000B60C8919891350435F433818C217920C82
:1022600080188013A861E961C34A125F13464B438B
:102270005B42624D2B6042435242614B1A60614A9D
:102280001288002A00D1A7E0049A039B5A435242C5
:102290000492561A5C4A069959430818454215613A
:1022A00056615A48045F664350680A27394608F069
:1022B0006FFF8019059E314608F06AFF0690524A6A
:1022C000D061654310683946174608F061FF281849
:1022D000314608F05DFFB86104244C4D285F3A6A2E
:1022E000069904F0E1FC3862285F2C46B9697A6AE5
:1022F00004F0DAFC2946AC68EA68014661433B6AAF
:1023000063433C4624340BC4934202DDFA62134615
:1023100004E05042834209DAF8620346029C019DC0
:10232000009E3A4A1069814217DD19E00220374CBD
:10233000205E7A6942437868101862699042029C74
:10234000019D009E00DB10465242904200DC104688
:1023500078602E4A1069814202DC4042814202DAF2
:10236000B86201460FE00220105E3A6942433868C5
:102370001018264A5269904200DB104652429042A1
:1023800000DC10463860304648432A465A4310184D
:10239000C217920C801882135E434D43A81BC117CD
:1023A000890C4018811339637A63204608F0BAFC1F
:1023B000A088216809684863E08888632089C86329
:1023C0000498012806DB7869B968884204DAB860A5
:1023D00007B0F0BD002801D407B0F0BD7869F968F6
:1023E0008842F9DDF86007B0F0BDC0466C030020FC
:1023F00054030020583600204102000054020020FF
:1024000080050020C8010020080500205C00002095
:1024100080B5074801680748C2688260511A0161A7
:102420004269914200DD4161034800F0E1FE80BD58
:1024300018E000E0D40100208832002080B5024876
:1024400000F0D6FE80BDC046E432002070B53A4CA4
:102450006088A188884264D006282AD086282DD09A
:102460000F285CD1374D2868002858D13748002202
:1024700002603748026037480260374802603749D7
:102480000A60374B9A5E112A49D8C0467A441279BD
:10249000520097443F1F2C1F2C2C442C44444408CA
:1024A000084408444408334801210180324801802F
:1024B00030E0224808F07AFC00202FE01F4808F0A6
:1024C00075FC1F480021016021801E4801601E48E4
:1024D000418124E0234A1268234B1A60234B1B6876
:1024E00003600A607D20C000584321490860214EE6
:1024F0003188002901D0012008E008F025F90120E9
:1025000008F0FCF82968484248413188012906D181
:10251000002804D0094808F025FC012020806088AC
:10252000A08008480068002804D0044808F03EFC59
:102530000020208070BDC046C8010020A4330020C8
:102540001C32002040020020840300200C050020E3
:102550000805002024020020300200204836002018
:1025600050010020AC020020BC030020E402002047
:10257000B40300200002002002000020EFF31080CE
:1025800072B6FEE7F0B582B0484803884848584321
:10259000C00C0A254543D808464C6043000D7D21F8
:1025A0000091C90001914843181A87B2424E98B26F
:1025B0000009424A4243D00C41490A4642439A1A12
:1025C00092B2D2088B4200D33DE05B1B7E437D2A52
:1025D00000D33FE0340C1804009D08D098B2690184
:1025E00041433A4A11602901414339480160601E64
:1025F0004028019A00D956E0784400794000874489
:10260000502033363852523B3D405252425252458E
:102610005252525252525252524852525252524BAB
:10262000525252525252525252525252525252528A
:10263000525252525252525252525252525252527A
:102640004E002A012DE01F4908705B1B7E437D2A46
:1026500000D2BFE75443200D1B490880340C1804F6
:10266000009D00D0BAE7C2E72A01303219E06A01C2
:1026700017E06A01603214E0AA0112E0AA01C03238
:102680000FE00F4A0DE0012042040AE0012082031E
:1026900007E00120820404E00120C20301E00120E0
:1026A00002040C48026002B0F0BDC0464036002073
:1026B000CDCC0000C52000009A190000470300009F
:1026C0001027000000000020080000204801002022
:1026D0004C01002010000020F0B581B0002909D085
:1026E00001220B461340012907D1FF221446002B7B
:1026F0001ED126E0FF24224623E0009391430025CB
:10270000FF221446124FE4B203786340FE5C114C82
:10271000E35CD2B25A4043785340E45C7440FA5CC4
:10272000801CAD1CABB28B42EDD1009B002B08D0BE
:10273000E1B2007848400649095C064B1C5C5440F5
:102740000A46E0B21102081880B201B0F0BDC046DE
:102750001CCF00081CCE0008B0B53C490A68824274
:1027600002DA002000B2B0BD4A68824201DA0024D9
:1027700058E08A68824201DA012453E0CA68824242
:1027800001DA02244EE00A69824201DA032449E0B8
:102790004A69824201DA042444E08A69824201DA09
:1027A00005243FE0CA69824201DA06243AE00A6A57
:1027B000824201DA072435E04A6A824201DA0824BB
:1027C00030E08A6A824201DA09242BE0CA6A824236
:1027D00001DA0A2426E00A6B824201DA0B2421E0A6
:1027E0004A6B824201DA0C241CE08A6B824201DAD5
:1027F0000D2417E0CA6B824201DA0E2412E00A6C43
:10280000824201DA0F240DE04A6C824201DA102480
:1028100008E08A6C824201DA112403E0CA6C824229
:102820000CDA1224A300CB58991A181A32256843DF
:1028300008F0AEFC6543401900B2B0BD096D81429D
:102840008FDA7D20C00000B2B0BDC046C8000020B5
:10285000F0B583B00446002102915420205C012889
:1028600001D102253DE001912746543701253D70F5
:102870002046FFF7AFFB064621688B68A26DDB0799
:102880001FD1009681235B009A43921CA265CA68FF
:10289000CB680326B343CB60EB0788681843886096
:1028A0003240114B886800280FD50298401C0290D6
:1028B00002989842F6D3A06D102202430220824370
:1028C0000CE010200243354608E0C8681043C86099
:1028D000A06D0122024302208243009D01983870BE
:1028E000A265284603B0F0BD00F2020070477047B1
:1028F00070477047F0B587B0002506955422825C7A
:10290000012A01D10224E1E0064654360124347044
:10291000026893685B0725D404694B68022B26D1B3
:10292000042004438548844207D18348C0430B6890
:10293000DB430343906A184090620A680024002A2F
:1029400000D4C2E07F480168804B9A4200D1B0E0D9
:102950007F4B9A4200D1AFE07B4B9A4200D0B4E06B
:102960000522A7E0816D20220A438265ADE0059330
:1029700004273C43714B9C423BD108686E4B184086
:10298000936A0343936250690B681C02A0438968F1
:1029900021406B4C0C40044354610024002B00D4B4
:1029A00093E001200590674F3A68072080051146A3
:1029B000049001406448834263D10598C0051746DE
:1029C0000740604F5DD13A68049B9A43114301432D
:1029D000396060480068604908F0B8FB0C21414349
:1029E0000C310691069800286FD00698401E06907C
:1029F000F8E71F24059B1C400F2300930494A34079
:102A0000046E01939C4303940B684B4C2342029346
:102A10004CD0DB072C4661D1029CA30759D4630735
:102A200059D4230759D4E3063C4657D4029CA30645
:102A30006AD463066AD423066AD4E3056AD4029B87
:102A40009B0569D4029B5B0568D4029B1B0567D478
:102A5000029BDB0466D4029B9B0465D4029B5B044F
:102A600064D4029B1B04009C38D4029BDB035FD41C
:102A7000029B9B035ED4029B5B03DB1712241C406A
:102A80002CE03248834203D105980006814206D3E8
:102A90002F48834219D105988005024015D13A6824
:102AA000049B9A431143014339600EE05B00DC0E46
:102AB00014E00322920501E00322D205114007220F
:102AC000920503689343591801603570204607B09A
:102AD000F0BD012402E0022400E00324049FBC4076
:102AE000039B1C430466059B9B08C069984200D861
:102AF00049E70198C043936A034002988000000FA1
:102B0000B840184390623EE70524E7E70624E5E76E
:102B10000724E3E70824E1E70924DFE70A24DDE7E7
:102B20000B24DBE70C24D9E70D24D7E70E24D5E7E7
:102B30001024D3E71124D1E7FFFF07000400008031
:102B400000FFFF0708270140001000B0004000B858
:102B5000002000B428010020400D0300704770479A
:102B60007047F0B585B00446006803680225194631
:102B700029404A424A414668304628404142414144
:102B8000114304930DD1A06DC00604D40120C002EE
:102B9000A16D0143A1652046FFF7A9FE20680560ED
:102BA000049B012204213140484248415907114603
:102BB00000D5014657020129039209D1082131406D
:102BC000484248411907114600D50146002930D135
:102BD00020465830A16DC90602D40168394301600E
:102BE0002168CA681205920F1BD1A27E002A18D153
:102BF0000A68120715D58A68520708D44A680C2358
:102C00009A434A60FF2202320168914306E0A06DB8
:102C100020210143A16520465C30E16D01220A4379
:102C200002602046FFF79AFF20680C210160049B98
:102C3000039A0195802531462940484248411906AA
:102C4000114600D50146029700290BD1012000044E
:102C5000A16D0143A165204600F0A0F9039A049BF1
:102C60002068056001252F0231463940484248411D
:102C7000D905114600D5014600290AD16804A16D85
:102C80000143A1652046FFF733FE039A049B2068A9
:102C900007603146029F3940484248413B42114655
:102CA00000D0014600290AD1A804A16D0143A16505
:102CB0002046FFF71EFE039A049B2068076010273A
:102CC0003146394048424841D906114600D50146AF
:102CD000002915D1206B002803D02068C068800728
:102CE0000CD0A802A16D0143A165E06D01990843D4
:102CF000E0652046FFF734FF039A049B20680760D5
:102D00006D032E4070427041990403D4002A04D010
:102D100005B0F0BD0246002AFAD12046FFF7E6FDD5
:102D20002068056005B0F0BDF0B589B0044600200C
:102D30000890002C65D00790A06D002807D125468B
:102D40005435204600F02CF900202870E06501275A
:102D50003D072668B068C00012D4B06887490140BA
:102D60002943B16086480068864908F0EFF94000C1
:102D7000801C08900898002802D00898401EF8E7A8
:102D8000B068284208D1A06D10210143A165E06D13
:102D9000012107910843E065B06804210140A06D5E
:102DA000102210404018A06D2ED1029223462033ED
:102DB0000F210691C9430391F3390840801CA06597
:102DC000B068C00725D1F06818218843A168014385
:102DD000F160032081076068024605910A40E56CB6
:102DE0001F7F012F18D1216C0191616CA76C049792
:102DF000019F3943049F39431143294301220A4368
:102E00000BE0012009B0F0BD1043A065384609B0C1
:102E1000F0BD0020049018E02A4331695A4D0D405E
:102E20000492154335610125E9078842069A0CD0C2
:102E30000599884209D0A907884206D09104084024
:102E4000524D2F688F4338182860206B411E8841EF
:102E50000103207E8003657EEF030743A57E6A039E
:102E60003A43E768206917430F4301210028059181
:102E700003DACA070146914300E049050F43197B75
:102E8000490039431A78012A0BD1002D069F0AD038
:102E9000A26D20231343A365E26D01231343E36571
:102EA00004E0069F02E0012212041143656A002D2E
:102EB00006D0072292011540A36A2B430B4300E082
:102EC0000B46F168324A0A401A43F2603169314ACE
:102ED0000A4004990A433261716907229143626B87
:102EE0000A437261716970229143A26B12010A4315
:102EF0007261002817D0059A5105884222D1216EAF
:102F0000002528460A46EA403A400F2A04D02D1DE3
:102F1000401C0828F6D10820B16A012807D103987F
:102F20000143B1620DE0B06A0399084308E0E0692B
:102F300080001C301C210140039A8A40206E1043FF
:102F4000B062059AF0681449014099420AD1002004
:102F5000E065A06D0121014302208143A16507982E
:102F600009B0F0BDA06D0299084302218843A06515
:102F7000E06D1043E065104609B0F0BDE8FFFF6F5B
:102F800028010020400D030002FCFF1F082701401C
:102F90001902FEFF02FCFFDFE7FF3F8370470000DE
:102FA000F0B58FB000260E960D96099608960796F6
:102FB000069605960496026827498A4201D00FB00A
:102FC000F0BD01900127B803039003A800F0EAFBCD
:102FD000002801D0FFF7D2FA38052049CA68024319
:102FE000CA60CA68024002920298086838430860C2
:102FF0000868384002900C9603200B903F200A90FE
:103000000298052420070AA900F044FA7803144D19
:1030100028622020F9023A028023124F2F606C6050
:10302000AE60EE602B616A61A961E861284600F03C
:103030004FF9002801D0FFF7A1FA0198A8620565B1
:103040000C2401210022204600F068FB204600F0FD
:1030500059FB0FB0F0BDC0460024014034100240BF
:103060008832002008000240F0B581B00E460446C8
:1030700001688B6802205B071BD400925422A25C7B
:10308000012A16D02746543701253D70C868C0076D
:103090000AD18868C00704D08868194A0240901C89
:1030A0008860C8682843C8602046FEF7C5FF00282E
:1030B00001D001B0F0BDA06D1249014028020818EE
:1030C000A0650020E06521681C220A603870206D30
:1030D0000D4A0E4B0E4DC562036342634A681023CE
:1030E00013434B6040313246009B00F06DF921687C
:1030F0008A68034B13401A1D8A6001B0F0BDC046B8
:10310000E8FFFF7FFEF0FFFFB11F0008CB1F0008A4
:10311000351F000870B500282AD0014624314A78AE
:10312000022A27D1046822680E239A432260426C47
:1031300015682E4B1D4015602568012295432560BA
:10314000046C1C2525401446AC40D14D2E68264306
:103150002E60846CC56C6560046D002C05D02568FC
:103160001D402560436D806D58604A70002004E06A
:10317000012070BD0422C263012000220A7070BDCC
:1031800070B5014624314A78022A2BD103681A68A7
:103190000E24A2431A601C68012294431C60446CF4
:1031A0002568124B1D402560046C1C2525401446E3
:1031B000AC40B74D2E6826432E60846CC56C6560AC
:1031C000046D002C05D025681D402560436D846D7D
:1031D0005C6000240C704A70816B002900D0884725
:1031E000204670BD0421C163012070BDFFFEFFFFBA
:1031F000F0B585B0A649091F0E680268136804255A
:1032000002932B405F425F410490046C1C232340D7
:10321000294699400C460396344060426041384349
:1032200031D0019201210227029E304638404442AB
:1032300044419F40039D2F420A4600D021460498F6
:103240000446243400292FD00820064077427741D5
:10325000DD40280700D53A46002A23D1019A10689C
:103260000E2188431060012529469940884802684C
:103270000A4302600498C563002121706570416BA8
:1032800000290ED10EE01068800602D41068A84311
:1032900010607F4A1068084310600498016B002991
:1032A00000D0884705B0F0BD019B1968890605D498
:1032B0001A680A218A431A60012161700021217075
:1032C000734A116839431160C16A0029E9D1E9E7FD
:1032D000F0B587B000285ED00446014624310220B4
:1032E0000691487027683868324901403960324E8B
:1032F00030468030A064314838181425294607F03C
:1033000025FF80008119206405916164FC2038400C
:103310000838294607F01AFF1F22024001200546FF
:103320009540E564A168039126460C364ACEA26911
:103330000192E2690292226A04920B43334301999B
:103340000B4302990B4304990B4339681943039AC1
:1033500011433960064681038A4201D10021616030
:1033600061683F230B4005980360154A1560481EAD
:10337000032813D8581E810051180023CB67BC3294
:1033800003230340304698407C3121656265A06587
:103390000C49086006E0012007B0F0BD0020206560
:1033A0006065A0650020E063069908704E7007B064
:1033B000F0BDC0460F80FFFF00080240F8FFFDBFD0
:1033C0008408024044090240F0B582B0044624203B
:1033D000205C012802D1022002B0F0BD174625462C
:1033E0002435012028706A78012A2DD102206870C6
:1033F0000020E06325682A6801260196B2432A600E
:10340000A26CE66C5660226D0092002A02D0626DBA
:10341000A66D5660226C1C261640019AB2401C4EC6
:10342000366816431A4A16606B60A368102B3A463A
:1034300000D00A46AA60102B00D03946E960216B03
:10344000002907D00E210AE0002129708021E163C4
:1034500002B0F0BD29680422914329600A212A683C
:103460000A432A6001990902626C1368DB0302D5E2
:1034700013680B431360009B002B02D01A680A43A9
:103480001A602968019A1143296002B0F0BDC04654
:1034900004000240F0B589B006900B68002B00D103
:1034A000B1E05A48069A824201D0052000E003208C
:1034B0000090002608963446374603910EE01843E4
:1034C000534A50607F1C0B681846F8400836089A2B
:1034D000121D0892A41C002800D194E0012501953A
:1034E000BD402B400493EDD0496803220B461340A6
:1034F000581E01280796059211D81046A040069E36
:10350000B26882430398C068A0401043B060C80608
:10351000C00FB8407268AA4302437260059A032B39
:103520000399069D1CD01046A040EA688243886833
:10353000A0401043059AE860022B11D11C20089985
:1035400008400F218140FA089200AA18136A8B43A1
:1035500003990D6985401D4303991562059A069DDF
:103560001046A0402B6883434868860302961040AB
:10357000A040184328600298800F079EA2D03846CA
:103580009043234A13181E6E05200007069A8242B4
:103590000AD02148824205D020488242009D04D1B1
:1035A000022502E0019D00E000251820079A104046
:1035B0000F22824096436033854035431D60154895
:1035C00000684D68EA0302D5049B184301E0049BA0
:1035D0009843079E0F4A10605068AA0301D518430C
:1035E00000E098430B4A506009480068EA0201D5A0
:1035F000184300E09843064A10605068AA0200D5BC
:103600005DE798435CE709B0F0BDC046000C005090
:1036100000180240801802400004005000080050CA
:1036200000690840411E88417047002A02D01822D4
:10363000815070472822815070470000054800687B
:103640007047C0461F48007802490A681018086091
:103650007047C04694360020B0B5012420020849C6
:103660000A6802430A600025284600F00BF800288B
:1036700001D02046B0BD00F029F82C462046B0BD50
:1036800000200240B0B505460E480178012400290B
:1036900016D07D20C00007F059FD01463F48006864
:1036A00007F054FD00F04AFD032D09D8002807D18A
:1036B0000024E0432946224600F030F80248056025
:1036C0002046B0BD580100205C01002080B582B0CA
:1036D0000B4841680122114341604168114001914A
:1036E0000199110702680A430260006808400090CF
:1036F00000980320400200F017FD02B080BDC046D4
:103700003C100240002805D41F21084001218140BF
:10371000014801607047C04600E100E0002805D480
:103720000322034693430A4A9A1803E00C220240FC
:10373000064BD2188007C00E8901C9B28140FF2311
:1037400083401068984308431060704714ED00E010
:1037500000E400E0F0B581B0032569026B4E3268E9
:103760008A430243326001214A020024904212D16E
:10377000E9480268706940050DD58F020620504364
:10378000074907F0E3FC801C401E03D071693942F1
:10379000FAD100E02C46204601B0F0BD28010020FF
:1037A00040420F00F0B587B0074680788007564E3C
:1037B00001D4002063E0059701221107183E30680C
:1037C0000840049006D130680843306030680840F3
:1037D0000690069802960391019216024B4C2068BF
:1037E00030432060FFF72AFF05462768374006D19F
:1037F000FFF724FF401B0328F7D3032000E000203D
:10380000414E002F01D1059F31E003252C02B16804
:103810002140059F21D0BA6991421ED0B168019A1A
:103820001204B3681343B360B3689343B3600A46AA
:10383000A243B260C90710D000950190FFF7FEFEC9
:103840000546334CB068800706D4FFF7F7FE401BEF
:10385000A042F7D3009800E00198002807D1032088
:103860000002B1688143B8690843B0600020049940
:10387000002904D1029B1968039A914319603D689D
:10388000E9072FD1A90735D4A90606D503210903D5
:1038900032688A43F9681143316001216A040ED508
:1038A00032681C4B1A407C69224332605A1C944295
:1038B00005D10A043346483B1C6814431C602A05A2
:1038C0000ED58C0303229203336893433A69134362
:1038D0003360A24204D10A04483E3168114331608A
:1038E00007B0F0BD3168032291437A680A43326021
:1038F000A907C9D531680C229143BA680A433260DE
:10390000A906C3D4C9E7C046541002400070004065
:1039100089130000FFFFFF3FF0B583B00D46012182
:10392000002800D1CFE00191029070480068072480
:103930002040A84213D26D490868A043284308607C
:103940006B4EFFF77BFE0746684800682040A842A0
:1039500005D0FFF773FEC01BB042F5D9B2E0029E5E
:10396000306881078D4B0CD5410703D521031A68B8
:103970000A431A600F2109021A688A43B168114389
:103980001960C00718D1594800682040A84228D9BA
:1039900056490868A04328430860554FFFF74EFE7C
:1039A0000646524800682040A8421AD0FFF746FE5B
:1039B000801BB842F5D985E00298406803285AD8A0
:1039C000810001A251588F46D93900087B3A00087E
:1039D000853A00088F3A00081946083909684905F0
:1039E00057E0029A107840076C4B05D52003196800
:1039F0008143D0680843186018688006400F22D0C1
:103A00001A6838210A406648082A23D01A680A40F2
:103A1000102A5BD1596803220A40032A00D061486A
:103A200059684906490F491C07F090FB5B494968F2
:103A30004904490E484359494968490F491C07F050
:103A400085FB564B06E01846083800688004410F95
:103A50005448C840196889093C220A4025498958B8
:103A60001F220A40D0402C49086023480068FFF715
:103A700009FE014627E0596D0AE019460839096830
:103A8000890306E0194608390968890101E0996D42
:103A90008907019917D51968A14301431960144F8B
:103AA000FFF7CCFD06463D480068382101400298EA
:103AB0004068C000814200D165E7FFF7BFFD801B71
:103AC000B842F0D90321084603B0F0BD1868084099
:103AD000202802D10120C003BCE71868084018283C
:103AE00001D00020B6E77D200002B3E700200240AD
:103AF000881300008CB500085C01002006480068AF
:103B000026490968890A1C220A40044989581F224B
:103B10000A40D0407047C04628010020CCB50008BC
:103B200010B51E4C20688006400F06D02268382150
:103B30000A401B48082A07D110BD083C20688004B1
:103B4000410F1848C84010BD22680A40102A15D1FC
:103B5000616803220A40032A00D0124861684906BE
:103B6000490F491C07F0F2FA61684904490E4843BD
:103B70006168490F491C07F0E9FA10BD2068084048
:103B8000202802D10120C00310BD20680840182859
:103B900001D0002010BD7D20000210BD08100240A1
:103BA00000127A000024F400F0B587B00127002845
:103BB00000D1AAE1049705900078C007FC4E2CD1F3
:103BC0000598007880074CD40598007800070DD53B
:103BD000B06838210140182900D0A4E0306E800779
:103BE00004D505988069002800D18DE105980078FA
:103BF000400700D45BE1B06838210140202900D0A3
:103C0000A8E0F06D800700D44EE105988068002898
:103C100000D049E10020012747E1B068F16803279F
:103C20003A468A43382101401020484082185042C9
:103C30005041082945D0002843D105984268052005
:103C400000048242039200D1B6E0012001048A42BE
:103C500000D1B7E032688A4332608104306888431B
:103C6000B2E0B1683820084010214140F2680327D3
:103C70003A4002235340CA185142514100282AD0E9
:103C8000002928D1306801218C02059BDA68002ABE
:103C900000D1B6E00722D20290431A690243326093
:103CA0000802316801433160FFF7C8FC05463068FF
:103CB000204200D0B5E0FFF7C1FC401B0228F6D936
:103CC00023E13068800300D47AE705984068002833
:103CD00000D075E718E131684905059B03D5D9681F
:103CE000002900D110E17F21090272688A435969D5
:103CF00009021143716000280DD10720C00231680C
:103D0000814318690843306030688004400FA94936
:103D1000C140A9480160A9480068FFF7B3FC00282A
:103D200000D0F1E050E7306E05998969002900D193
:103D300081E0012108433066FFF780FC0546306EC4
:103D4000800700D552E7FFF779FC401B03270228C4
:103D5000F5D9DAE0012003900107F06B08400290EA
:103D600006D1F06B0843F063F06B084006900698AC
:103D70000191934F3868C00510D403980402386845
:103D800020433860FFF75AFC05463868204205D1C9
:103D9000FFF754FC401B0228F7D973E005988768A9
:103DA000052F59D0012F5BD0F06D03998843F06542
:103DB000F06D0421884356E00120810432680A43F3
:103DC0003260010430680843306001204404FFF78A
:103DD00035FC0546039800280FD03068204200D0FB
:103DE000EEE6FFF72BFC401B6428F6D98DE0FFF7C9
:103DF00025FC401B642800D987E030682042F6D1BA
:103E0000DEE6090288433060FFF718FC054630689B
:103E1000204200D1D8E6FFF711FC401B0228F6D95A
:103E200073E07F20000271688143059840690002B9
:103E300008437060C8E6012188433066FFF7FEFB47
:103E40000546306E800700D4D0E6FFF7F7FB401B35
:103E500003270228F5D958E0F06D04210143F165EC
:103E6000F06D03990843F065564CFFF7E7FB0546F4
:103E7000002F0FD0F06D80070FD4FFF7DFFB401B42
:103E8000A042F7D9002003270FE0FFF7D7FB401B24
:103E9000A042F7D8F06D8007F7D40298002803D12C
:103EA000F06B01998843F063012000282DD005981C
:103EB000C069002826D0B16838220A40102A27D1CC
:103EC000012821D0F06803210140059B1A6A914224
:103ED0001AD1702101405A6A914215D17F210902FD
:103EE00001409A6A120291420ED11F2149040140F9
:103EF000DA6A9142049F08D1072149070840196BEB
:103F0000884202D1002700E0049FF8B207B0F0BD5C
:103F10000122130631689943316002280FD10393BF
:103F200004925406FFF78AFB0546306820421BD0F6
:103F3000FFF784FB401B03270228F6D9E5E7F0686A
:103F40000327B843F060F0681F490140F16055064F
:103F5000FFF774FB044630682842D3D0FFF76EFBAE
:103F6000001B0228F7D9D0E7F06818490140059FE7
:103F70002037ADCF08431043190201432943394389
:103F8000F160306803990843306004980007F168D5
:103F90000143F160FFF752FB054630682042B1D182
:103FA000FFF74CFB401B03270228F6D9ADE7C046BC
:103FB000001002400024F400280100205C010020D1
:103FC0000070004088130000FFFFFEEF8C80C11FCF
:103FD000F0B585B000280CD0044605465C3541207C
:103FE0008600606A002807D0002020612046143037
:103FF00007E0012005B0F0BD6068B04203D0204664
:104000001C30002101600027A7626878002804D1D5
:1040100000202870204600F059F8022004950190F5
:104020006870206801684022914303900160E16854
:10403000254A012591422A4600D33A461203ED0251
:104040000D430F2738020290854201D00025A5625A
:104050006568A768354021239B023B405B192569B1
:10406000019805401D436069012318402843FC3630
:10407000A7693E400643E069382505403543206A7C
:10408000802606402E435803A56A05403543039E0B
:104090003560380C04250540029801400A432A4344
:1040A000606A102101401143606B082202400A43FC
:1040B0007260D802F1698143F161002020660499A1
:1040C0004B7005B0F0BDC0460107000080B586B05A
:1040D00000681249884201D006B080BD012000036B
:1040E0000F49CA680243CA60CA6802400192019837
:1040F000022002900A6802430A60096801400091A8
:104100000020059004900390382001900098054805
:1041100001A9FFF7BFF906B080BDC04600300140DD
:10412000341002400004005003214902024A13687F
:104130008B4303431360704700000140401E010E93
:1041400001D0012070470749074A506007480368BB
:104150000B40032189075918016000209060072156
:1041600011607047FFFFFF0010E000E020ED00E06D
:104170007047704770470000F0B581B03C22825C08
:10418000012A02D1022001B0F0BD02463C320123D7
:1041900013703F242402CD68A5430F24A6028F6824
:1041A000B7432F434D68204E2E403E43F7252D0345
:1041B0000F68AF4337437B256D030E69AE433E4323
:1041C0004D6935433D26B603B54324040F6BA74321
:1041D0002F438C6926043E430468E84DAC4204D06A
:1041E0003046AC4207D0054619E018078643C86937
:1041F0003043AC42F7D10D4D28400E6A4D6A8F6AAC
:10420000C96A00913F050A4939400143112040061F
:1042100086430E43580785433543009805430020E5
:104220001070656401B0F0BDFF87F0FFFFFF0FDC89
:104230000000F0DCF0B53C23C35C012B01D102206F
:10424000F0BD03463C3301241C701568012D01D0DC
:10425000002400E009246E1E75427541022904D035
:10426000012910D10068603001E000686430690203
:104270000668AE43576892682F40BD198D43A2402F
:104280000A40A918016000201870F0BDF0B53C226A
:10429000825C012A01D10220F0BD02463C32022399
:1042A000537001231370006846688468CB4DA842A0
:1042B00001D0374604E00F273F05BE434F68374320
:1042C0007026B7430E683E434660C24EB04204D0EB
:1042D000C14EB04201D0A84204D18025AC438968C8
:1042E00021438160002010705370F0BD10B502466C
:1042F00044320029134608D0082903D0042903D1E9
:10430000531C02E0931C00E0D31C1B78012B08D146
:104310000223002907D0082907D0042907D15370A8
:1043200006E0012010BD137002E0937000E0D3702E
:104330001F22114004228A400168086A90430862E3
:10434000086A104308620122D0034B6C03434B649C
:10435000A048814205D0A048814202D09F488142B6
:1043600008D188689E4B03400020062B06D0140419
:10437000A34203D0086810430860002010BDC04667
:10438000B0B51F220A40042393400268146A9C437C
:104390001462136A1362146A164B1C4208D1146A21
:1043A000154D2C4204D10124E403556CA5435564FA
:1043B000146A1C4207D1136A0F4C234203D11368BD
:1043C0000124A34313604430082907D0042909D0ED
:1043D00000290BD1012101700020B0BD01218170A5
:1043E0000020B0BD012141700020B0BD0121C1708D
:1043F0000020B0BD111100004404000070B5002879
:1044000019D0044605463C356878002804D10020C0
:104410002870204600F062F8022068702068036867
:104420006E4A904202D06B49884206D170218B437C
:10443000A168194302E0012070BD1946234B984240
:1044400008DC644B98420ED0234B98420BD090422C
:1044500009D038E0604A904205D01D4A904202D00F
:104460001C4A90422FD103221202914323690B432D
:1044700022463E32214644318026B343A6691E437C
:104480000660E368C36263688362F44BC3189B0AE7
:104490008605F318072B06D801269E40E1231E420D
:1044A00001D063690363012343610B71137053707F
:1044B0009370D370137153710B704B708B70CB7002
:1044C0006B70002070BD0B46D2E7C046FF3F014035
:1044D00000480140004401400020004070B586B013
:1044E00000682549884232D0D649884241D1F349F3
:1044F000CA6801200390C3021A43CA60CA681A40FE
:104500000092009A0A6804231A430A600968194055
:104510000091022405940025049512210291400384
:1045200001900098164801A9FEF7B4FF0D26304609
:1045300029462A46FFF7F2F83046FFF7E3F80E2641
:10454000304621462A46FFF7E9F830460FE0DB48BF
:1045500081681022114381608068104001900198A9
:104560001124032100222046FFF7D8F82046FFF748
:10457000C9F806B070BDC04600100040002C0140D4
:104580000008005010B53D21415C01291BD10146B6
:104590003D3102220A700168C86801221043C860D8
:1045A000C548814205D0A948814202D0A548814230
:1045B0000BD188680A4B03400020062B02D014045C
:1045C000A34202D110BD012010BD0868104308604D
:1045D000002010BD0004004000400140002C0140BC
:1045E0000700010070B53C22825C012A01D1022043
:1045F00070BD02463C3202235370012313700068E1
:104600008468454D254085600C683F2C18DD5F2C83
:104610001DDD602C3FD05D03AC4254D0702C77D1AF
:10462000FF2424028568A5434C688E68C968264328
:10463000090231432943816084687721214366E080
:104640001F2C1DDC002C1FD0102C1DD060E0402C36
:1046500049D0502C5CD1046A056A9D430562856986
:10466000F026B543CE6836012E4386610A25AC4359
:10467000496821430162846828492140573146E056
:10468000202C01D0302C43D18168244D0D402C4387
:10469000072121433BE0046A1025AC4304620F2448
:1046A00024038569A543CC6824032C43056A8461EF
:1046B000A024A54349680901294301628468174978
:1046C0002140673123E0FF2424028568A5434C681C
:1046D0008E68C968264309023143294381609C03DF
:1046E0008168214313E0046A056A9D430562856978
:1046F000F026B543CE6836012E4386610A25AC43C9
:10470000496821430162846804492140473181603E
:1047100000201070537070BD8800CEFF88FFCFFF5F
:10472000F0B583B000281ED00C46054606463C3640
:104730007078002804D100203070284600F094F8EA
:1047400002207070286881683D4A0A4082600368D0
:104750003C4A904202D05849884207D170218B438D
:10476000A968194303E0012003B0F0BD1946364B98
:10477000984208DC504B98420ED0374B98420BD0F1
:10478000904209D05AE0314A904205D0304A9042D6
:1047900002D0304A904251D10322120291432B6938
:1047A0000B43029629463E31019129464431802728
:1047B000BB43AF691F430760EB68C3626B688362EA
:1047C000264BC3189B0A8705FB18072B06D8012721
:1047D0009F40E1231F4201D06B69036301234361C2
:1047E000256887682F438669056A8760A768A2697C
:1047F00012023A431A4F17401A4A3240E6681643EB
:104800003E43E26912023243266936011643226AA8
:10481000120332438261AA22954362682A43646983
:104820002401144304620B710198037043700B70F0
:104830004B7002984370002003B0F0BD0B46B0E708
:10484000F8BFFEFF002C0140FF3F01400040014047
:1048500000480140004401400020004000D4FEBF59
:104860000303FFFF0000FFFF80B586B00068124918
:10487000884201D006B080BD022002900F498A68AC
:1048800002438A608A6802400092009801200590E5
:104890000A6802430A600968014000910020049000
:1048A0000390C020019005200007009901A9FEF7A0
:1048B000F1FD06B080BDC046000400403410024047
:1048C000F0B581B004463E20255C20463E3043785A
:1048D0004422A65C0094443467780122042909D05C
:1048E00000290ED15640554035433AD1022202707C
:1048F000227013E0574053403B4332D102224270B2
:104900000BE0534055401D4356402E43574037431C
:1049100027D1022202704270227062701023DA43A3
:104920000429009D06D0002906D10F3229682031C4
:1049300001230AE0296807E02968086A0124A043E6
:104940000862086A20430862203108681040086045
:104950000868184308602868016801220A43026059
:104960000022104601B0F0BD70470000B0B504460B
:10497000006801698907554D16D5C168890713D5A7
:104980002946FE310161012121778069800703D02A
:104990002046FFF7E9FF05E0204600F015FA204623
:1049A00000F0EBFC0020207720680169490717D54B
:1049B000C168490714D52946FC31016102212177DC
:1049C00080698005800F03D02046FFF7CDFF05E00A
:1049D000204600F0F9F9204600F0CFFC00202077B7
:1049E00020680169090716D5C168090713D529464A
:1049F000F831016104212177C069800703D0204686
:104A0000FFF7B2FF05E0204600F0DEF9204600F097
:104A1000B4FC0020207720680169C90617D5C16859
:104A2000C90614D52946F031016108212177C069F2
:104A30008005800F03D02046FFF796FF05E0204653
:104A400000F0C2F9204600F098FC00202077206892
:104A50000169C90708D0C168C90705D02946FF31D7
:104A60000161204600F0DAFD20680169090608D5D9
:104A7000C168090605D52946803101612046FFF746
:104A800078FB20680169C90506D5C168090603D508
:104A900005612046FFF76CFB20680169490608D5CF
:104AA000C168490605D52946C0310161204600F09C
:104AB000B6FD20680169890607D5C168890604D555
:104AC000E03505612046FFF755FBB0BDFFFEFFFF57
:104AD000F0B584B03C23C35C012B02D1022004B0AA
:104AE000F0BD04463C34012323700225EA41052A27
:104AF00000D94CE17A4412795200974402384C6153
:104B000082A20068026A9A430262EB4A8218920A01
:104B10008605B218076AAF438E683E434568019523
:104B20000D6887690297072A00D934E100951F466E
:104B30009740E1252F4200D13CE10C25AE43CF68E0
:104B40000425AF433743009D072A00D927E193404E
:104B5000E122134200D122E103221202019E964378
:104B60004A6923468C69324322431C4618E1006897
:104B7000026A1025AA430262026A2025AA438D68B0
:104B80002E01164347680A6802928269C34DA84203
:104B900076D001967EE01A020068056A95430562A8
:104BA0005A02056A95438A6816022E4347680A68C6
:104BB0000292C569B94A904200D180E001968BE02B
:104BC00003941A030068056A95430562BA4A82187D
:104BD000920A8505AF18026A45688C6802940C68D1
:104BE0000194C669072F00D98BE01C46BC40E12721
:104BF0003C4200D185E09C03A5434C69A7012F43AB
:104C000080E003946D4E73360068026A324002629F
:104C1000A94A8218920A8405A518026A0292476876
:104C20008A6801920A680092426D072D78D81C4666
:104C3000AC40E1252C4273D037404C6925023D43FE
:104C40006FE003941A050068046A944304629A4A68
:104C50008218920A8405A718026A45688C68029433
:104C60000C680194466D072F6AD81C46BC40E127AA
:104C70003C4265D09C04A5434C69A7022F4360E0E9
:104C8000C025AE43CD6800922A014025AA43324395
:104C90000192009A884D4519AD0A86057619072EAE
:104CA00003945DD8B340E1252B4259D00324A402DC
:104CB000A7434C698D692543AC003C4351E0032276
:104CC00092029643CA68120201923E4A0097019FDF
:104CD0003A40009F32430192774E8619B60A820508
:104CE0009619072E039446D8B340E122134242D0CE
:104CF0000322120397434A698C69144324013C43FD
:104D00003AE02F4647602E4C2640019C2402344353
:104D1000C4614968016459038A43029909031DE08B
:104D20003D464560254CE41C2240009C22434265E0
:104D3000496881655904029A8A43019909040DE082
:104D40002F4647601C4C2640019C24023443446596
:104D50004968C16559058A4302990905114314E060
:104D60003C464460164C2240029B1C021443846162
:104D70004968816308E03C464460104A1540029A45
:104D80001543C5614968C16301990162039C002014
:104D9000207004B0F0BD3746072A00D8D7E6019A44
:104DA0004260064A029B13402B438361496841637A
:104DB0000762ECE73746C6E6FF8FFFFE8CFFFEFF7B
:104DC000FF8CFFFE00FBFFFF7047000070B500285E
:104DD00019D0044605463C356878002804D10020E7
:104DE0002870204600F06AF8022068702068036886
:104DF0002A4A904202D02A49884206D170218B4328
:104E0000A168194302E0012070BD1946254B984264
:104E100008DC234B98420ED0264B98420BD0904290
:104E200009D038E0204A904205D0204A904202D072
:104E30001F4A90422FD103221202914323690B4350
:104E400022463E32214644318026B343A6691E43A2
:104E50000660E368C36263688362174BC3189B0AEA
:104E60008605F318072B06D801269E40E1231E4233
:104E700001D063690363012343610B7113705370A5
:104E80009370D370137153710B704B708B70CB7028
:104E90006B70002070BD0B46D2E7C046002C01406D
:104EA00000040040FF3F0140004001400048014035
:104EB000004401400020004000D4FEBF70470000C5
:104EC000F0B585B03C23C35C012B02D1022005B0B4
:104ED000F0BD04463C34012626700223DA41052A3F
:104EE00000D9B1E17A4412795200974402263E5526
:104EF00093D30268106AB0431062DF481018800A2A
:104F000095052D18106A98430B468F680743506823
:104F100000900868019033469669072D049300D9E4
:104F200035E1AB40E120034200D130E10C20874362
:104F3000CB68042083433B432AE104960268106A4D
:104F4000102398431062106A202398438B681B013A
:104F5000034350680D68019595690E46CA4FBA42E1
:104F600000D1D6E031461F46DBE033020268106A0A
:104F70009843106204967002156A8543886803029C
:104F80002B4350680D680195D669F54FBA420391DD
:104F900000D1DCE01F46E3E0029433030268106AAC
:104FA00098431062F3481018800A93051B18146A7E
:104FB00050688D68019503910968D769072B00D95E
:104FC00046E10091214634469C40E1231C4200D139
:104FD00041E1B3039843039D6B699B0103430C4676
:104FE000009910461C305360A64B1F400B023B43F8
:104FF000D3616B68136473039C4301990B032343D0
:105000001362F302D4691C43D461B102D3698B43A8
:10501000D3617CE004969A4D73350268106A28408B
:105020001062D4481018800A93051B18166A50683D
:105030008F680197039109680091576D072B00D97C
:105040000CE10294049C9C40E1231C4200D108E145
:105050002840039D6B691B020343029C1046543099
:1050600053608749CB1C1F4000990F4357656B68FD
:105070009365049949048E430199090431431162EF
:10508000516D08230B435365516D042399435165BA
:105090002969D6E0029433050268106A98431062C9
:1050A000EF481018800A93051B18146A50688D6821
:1050B000019503910968576D072B00D9D5E0009140
:1050C000214634469C40E1231C4200D1D0E0B30489
:1050D0009843039D6B699B0203430C46009910465D
:1050E00054305360654B1F400B023B4353656B6864
:1050F000D36573059C4301990B0523431362F302A7
:10510000546D1C435465B102536D8B43536529693B
:1051100066E0C027BB433146F7683F014026B743EE
:105120001F43CF4BD3189B0A9605F318072B029405
:105130003FD8049E9E40E1231E423AD003239B02A7
:1051400098434B698E691E43B300034332E0032743
:10515000BF02BB434D4DFF3DCF683F022F401F4371
:10516000BF4BD3189B0A9505EB182546072B3AD859
:1051700004999940E123194235D003231B03984336
:1051800003994B698C691C43230103432DE03B4683
:105190002746072D3FD8049CAC40E12004423AD07A
:1051A00003200002009D85434C6988692C43044319
:1051B00032E00346049C104618305360314B1D40CA
:1051C000019B1B022B4393614B6893631762E302BD
:1051D00095691D439561A30294699C439461096993
:1051E0000902029C2DE00346039910461C305360CF
:1051F000234B1E40019B1E43D6614B68D36317624D
:10520000D36908241C43D461D3690424A343D36124
:1052100009692C4615E0009C104618305460184C63
:105220002640019C264396614C685463136293693F
:1052300008241C43946193690424A343936109697E
:105240003C4602680A4302600020207005B0F0BDB1
:105250000346039DC5E60346039DC0E60346039D42
:10526000FCE60346029C039DF8E60346039D36E7F1
:105270000346039D31E7C04600D4FEBFFF8FFFFE0B
:105280008CFFFEFFFF8CFFFE002C0140FFFBFFFFA9
:1052900070B5002819D0044605463C3568780028CA
:1052A00004D100202870204600F066F802206870C3
:1052B00020680368AD4A904202D0AA49884206D1CC
:1052C00070218B43A168194302E0012070BD19468B
:1052D000244B984208DCA34B98420ED0244B9842B2
:1052E0000BD0904209D038E09F4A904205D01E4A28
:1052F000904202D01D4A90422FD1032212029143C4
:1053000023690B4322463E32214644318026B34373
:10531000A6691E430660E368C36263688362BC4B90
:10532000C3189B0A8605F318072B06D801269E4052
:10533000E1231E4201D063690363012343610B71C2
:10534000137053709370D370137153710B704B7053
:105350008B70CB706B70002070BD0B46D2E7C046DF
:10536000002C0140FF3F0140004801400044014043
:105370000020004000D4FEBF7047704710B50246C1
:105380003E320029134614D08B070C1FA4081B19AA
:10539000032B0DD87B441B795B009F440103050759
:1053A000531C06E0931C04E0D31C02E0131D00E034
:1053B000531D1B78012B10D1002910D08B070C1F17
:1053C000A4081B19032B0DD87B441B795B009F4459
:1053D000010C0F12022353700FE0012010BD0223B5
:1053E00013700AE00223537107E00223937004E074
:1053F0000223D37001E0022313711F221140012206
:1054000013468B400168086A98430862086A18438B
:1054100008627F480818800A8B051818072808D8E2
:1054200013468340E120034203D0D0034B6C034377
:105430004B644C48814205D04B48814202D04B48D6
:10544000814208D188684A4B03400020062B06D0D1
:105450001404A34203D0086810430860002010BD64
:1054600000D4FEBF10B502463E320029134614D0C8
:105470008B070C1FA4081B19032B0DD87B441B7929
:105480005B009F4401030507531C06E0931C04E0E6
:10549000D31C02E0131D00E0531D1B78012B10D11B
:1054A000002910D08B070C1FA4081B19032B0DD843
:1054B0007B441B795B009F44010C0F120223537045
:1054C0000FE0012010BD022313700AE00223537184
:1054D00007E00223937004E00223D37001E002236B
:1054E000137102230A46DA41032A06D892001C4BA4
:1054F0009A580368DC681443DC601F2211400122C3
:1055000013468B400168086A98430862086A18438A
:1055100008623F480818800A8B051818072808D821
:1055200013468340E120034203D0D0034B6C034376
:105530004B640C48814205D00B48814202D00B4895
:10554000814208D188680A4B03400020062B06D010
:105550001404A34203D0086810430860002010BD63
:105560001CD000080004004000400140002C014015
:105570000700010070B51F230B40012214469C4018
:1055800003681D6AA5431D621C6A1C62204C1C191D
:10559000A40A9D052D191F4C072D0FD81646AE40A5
:1055A000E1252E420AD01D6A254207D11D6A1A4EF6
:1055B000354203D1D5035E6CAE435E641D6A25425D
:1055C00006D11C6A144D2C4202D11C6894431C6005
:1055D0003E300223D94104290AD8C04679440979CA
:1055E00049008F4402080B0E11000270002070BDAC
:1055F0004271002070BD4270002070BD827000209A
:1056000070BDC270002070BD0271002070BDC04628
:1056100000D4FEBF11110000440400007047704721
:10562000B0B58021415C012901D10220B0BD024604
:1056300080322421516001680B680C680125AC435D
:105640000C606C07A3430B600021416611702020A1
:1056500050600846B0BD704770470000F0B581B09B
:10566000024604466834207E012802D1022001B09F
:10567000F0BD2420E06115682E682B68012083436B
:105680002B60207607235B06AF689F430F43AF6014
:10569000516E002914D0AF68A868400F2B49095CEF
:1056A0002B4A105CC00005F051FD60803801400FAE
:1056B0002649095C264A105CC00005F047FD00E061
:1056C00060802E602080002020762021E16101B0E2
:1056D000F0BDC046F0B581B0024604466834207E75
:1056E000012802D1022001B0F0BD2420E06115683C
:1056F0002E682B68012083432B60207607235B07ED
:10570000AF689F430F43AF60516E002914D0AF685C
:10571000A868400F0D49095C0D4A105CC00005F0F7
:1057200015FD60803801400F0849095C084A105C8B
:10573000C00005F00BFD00E060802E60208000209E
:1057400020762021E16101B0F0BDC04654D00008B0
:105750004CD000087047704770478421415884300E
:105760004068084370470000F0B58BB00568EF69EA
:10577000202401210891C9020A462F323A402B68A1
:10578000AE68202A0A9307D11A46224001231B073C
:105790003340D21800D0AAE005AA52C20A460F32FE
:1057A0003A4003465C3309930A9B002A06460CD014
:1057B000EB4A1A40012108070390441C3046079E1B
:1057C00034400646A21800D098E010211A460A403C
:1057D00054425441F26E012A0898034600D12346F0
:1057E000FA06024600D51A46002A3FD00124A20537
:1057F00001460798024053425341FA020A4600D537
:105800001A46002A00D1F6E03A0607D580220A9B04
:105810001A40E3051840121800D0A3E140230A9A69
:105820001A40554255417A060898024600D52A4644
:10583000002A00D180E1A2070A9B1A40534253413B
:105840003A02024600D51A46002A00D191E10A9A8E
:10585000002A00DA0024F801089800D52046002824
:1058600000D084E13046FFF7F7FE80E10F46296261
:10587000A8684006069C00D5C4E009994B880888B2
:105880004A88002A00D172E1984200D16FE10A9360
:10589000EFF31083012282F3108809246401356834
:1058A00031462E68A6432E6083F31088EFF31083F1
:1058B00082F310880C68A568B04E2E40A66083F372
:1058C0001088069B099CE36200230B67CB66EFF30D
:1058D000108382F310880A681468BC43146083F351
:1058E00010880A9A801A82B208461146D4E0016FE5
:1058F000002900D13BE188470BB0F0BD029604912E
:105900000A021A4053425341FA070898064600D04B
:105910001E46002E05D104992962099B1A6B0A4381
:105920001A63079B04990B405E425E41BA07024628
:1059300000D53246002A059909D102222A62099A25
:10594000116B0191042601990E43059916635E427D
:105950005E417A07024600D53246002A0A9B07D1EB
:1059600004222A62099E326B0223134333630A9B8B
:105970003A07029E0CD51A46069B1A400A9B14430E
:1059800006D008222A62099C236B134323630A9BD7
:10599000049CA2061A40534253410F4200D01846BD
:1059A0000028069A04D12962099B196B11431963D7
:1059B000099D296B002900D1D9E017400BD0079928
:1059C000039801400A981040084304D0316F002921
:1059D00001D030468847286B282101403068826812
:1059E0004020024051185BD13046FFF7B5FE002041
:1059F00028630BB0F0BD200528623046FFF7ABFEF0
:105A00000BB0F0BDF06F006841688AB2002A099DB2
:105A100000D1ACE02B889A4200D3A8E069800068EE
:105A2000800634D4EFF31081012080F31088554AAA
:105A30002032336825461C6814401C6081F31088AE
:105A4000EFF3108180F3108832689368834393608A
:105A500081F31088EFF3108180F310883268936827
:105A60004024A343936081F310880999CD62099D76
:105A70000021F166EFF3108180F31088306802682E
:105A8000BA43026081F31088F06FFDF743FB68882A
:105A90002988081A81B23046FFF7DDFD0BB0F0BD52
:105AA000EFF3108184F310880922520133682746EE
:105AB0001C6894431C6081F31088EFF3108187F316
:105AC0001088326893682D4C1C40946081F31088D4
:105AD000F16E01290BD1EFF31081049A82F3108843
